:020000040000FA
:06100000ECEF40F01200CD
:061008000CEF19F01200CC
:0610180022EF08F01200B7
:06102A0002003C82000000
:1010300000050000E10000003A820000BC0E000044
:0410400002000000AA
:0C104400D8CFE4FFE0CFE4FFE46EE9CF7A
:10105000E4FFEACFE4FFF3CFE4FFF4CFE4FFE6528E
:1010600059EC18F0BDEC17F0030EDB6AA4A6ADD165
:10107000A4960E01002B0E01AB510E01005D01E2A2
:1010800084D0006B0E0188EC17F0EF6A79907B6AD0
:101090007A6A0E01A92B0E01AA510E01A95D01E386
:1010A000A96B51EC18F0EA22EE50ED106EE0EFEC77
:1010B00018F0A3EC18F002E15A50581847E067EC1A
:1010C00018F0EA22EE50ED103AE07AEC18F05DEC00
:1010D00017F051EC18F0EA22EE50595C576EEE50C2
:1010E0005A58586E020E57C0DBFF030E58C0DBFF84
:1010F000DCEC17F0583412E257500008000E585438
:101100000DE2DCEC17F067EC18F08DEC18F017E24C
:10111000D6EC18F0EE265850ED2218D0DCEC17F083
:10112000576C581E000E582267EC18F08DEC18F022
:1011300006E2D6EC18F0EE5E5850ED5A07D0EFEC10
:1011400018F0EA2257C0EEFF58C0EDFF88EC17F008
:10115000120EEF6EF29E0E0151EC18F020EC17F01B
:1011600058C057F0586A5750B66E51EC18F020EC42
:1011700017F05750B56EF00EB4140009B46EF00EAF
:10118000B4140909B46E7980F28E000ED8801F5411
:10119000000E20542EE22D2A000E2E221F502D5C10
:1011A00020502E5826E32D6A2E6A030E235C1FE280
:1011B0002150EA6A200FE96E010EEA2280CFEFFF8C
:1011C0002150EA6A230FE96E010EEA2281CFEFFF78
:1011D0002150EA6A260FE96E010EEA2282CFEFFF64
:1011E000212A030E215C01E3216A232A02D01F6A0F
:1011F000206A000ED8802454000E25541CE2000EF4
:10120000D8803354000E345416E22F2A000E3022B8
:1012100024502F5C255030580EE32F6A306A030E9D
:10122000285C07E2262A030E265C01E3266A282AA8
:1012300002D0246A256A335034100BE0050E325C6C
:1012400007E3C18C9E9C9D8CC280C282326A01D011
:10125000322A0501005101E1A4D0DE6ADD6ADECF49
:1012600057F0DDCF58F0040E575C000E585801E3DC
:1012700098D026EC17F063EC17F0FDE1010EE9269B
:10128000050EEA22EE50ED1070E026EC17F063EC4C
:1012900017F0FDE1A7EC18F0EE50ED1016E1ACEC04
:1012A00018F001E18180B0EC18F003E1ED5001E1AC
:1012B0008182B4EC18F003E1ED5001E18184B8ECD7
:1012C00018F003E1ED5001E1818626EC17F063ECA4
:1012D00017F0FDE184EC18F063EC17F0FDE1010E6E
:1012E000E926050EA3EC18F019E15A50581816E13A
:1012F000ACEC18F001E18190B0EC18F003E1ED5096
:1013000001E18192B4EC18F003E1ED5001E1819428
:10131000B8EC18F003E1ED5001E1819626EC17F0EE
:1013200063EC17F0FDE1A7EC18F0EE2A000EEF22B7
:1013300026EC17F063EC17F0FDE184EC18F063EC99
:1013400017F0FDE1090EE926050EA3EC18F023E1E4
:101350005A50581820E126EC17F063EC17F0FDE125
:10136000A7EC18F0EE6AED6A16D0ACEC18F001E1CB
:101370008190B0EC18F003E1ED5001E18192B4EC02
:1013800018F003E1ED5001E18194B8EC18F003E1AD
:10139000ED5001E18196DF2A010E01E260D7DB2AE0
:1013A0005ED70201F45101E0F4070201FF0EF55D82
:1013B000FF0EF65903E2F52B000EF6230201F7515A
:1013C000F81103E0F707000EF85B9EAC3BD09E9C43
:1013D000C1AC06D0C19C010E356E366A316A17D099
:1013E000C450596E5A6E596AC35000015910576E55
:1013F0005AC058F03150E96EEA6AADEC17F057C0A8
:10140000EEFF58C0EDFFD89035363636312A100E33
:10141000315C0EE235503314576E36503414586E2A
:101420005750581005E1312AD89035363636EFD767
:10143000100E315C02E39D9C05D03150040DF32861
:10144000C26EC282F2A433D0D59EF294F29A040EF8
:10145000576E2C50C3EC17F0EF50575C28E1080E84
:101460002C5C0AE2F8EC17F004E0E846FE0B5706A5
:10147000FCE1E81C891616D0100E2C5C0AE2F8EC90
:1014800017F004E0E846FE0B5706FCE1E81C8A165C
:1014900009D0F8EC17F004E0E846FE0B5706FCE133
:1014A000E81C8B162C50C3EC17F0020EEF6E040EE6
:1014B000E15C02E2E16AE552E16EE552E5CFDAFF76
:1014C000E7CFD9FFE552E5CFF4FFE5CFF3FFE5CF56
:1014D000EAFFE5CFE9FFE550E5CFE0FFE5CFD8FF34
:1014E0001000DCEC18F0896A9268336A346A8A6A00
:1014F00093688B6A94688C968C9495969594928E4A
:101500000601010EFD6F0E01BC69BD69276A266ADE
:10151000286A226A216A236A1F6A206A246A256A65
:101520002D6A2E6A2F6A306A316A76827680769CBE
:10153000769A76887696FA0E776EDF6ADFCF4BF072
:10154000100EE76E4B18E8AE02D0E73402D0E75039
:101550004B5C0BE2DFCFE9FFEA6AE9BEEA68ADEC7B
:1015600017F0EE6AED6ADF2AE9D70601F76BF86B30
:10157000F56BF66BF96BFA6BFB6BFC6B2A6A2B6AEB
:101580002C6ADF6ADFCF4BF0180EE76E4B18E8AE1F
:1015900002D0E73402D0E7504B5C16E2DFCFE9FF20
:1015A000EA6AE9BEEA680DEC18F0EE6AED6ADFCF90
:1015B000E9FFEA6AE9BEEA68290EE926010EEA2295
:1015C000010EEF6EDF2ADED7D586D59AD59CF29430
:1015D000F29AF1940F01498FBE0EC16ED08E7694AF
:1015E000A386A59618EC1BF0A5EC3AF0F28EF28CCF
:1015F000768459EC34F0E552E55203EF17F0DCEC59
:1016000018F0BDEC17F0030EDB6A040EDB6A27EC62
:1016100016F064EC34F02350000809E252EC10F0AC
:10162000222A030E225C01E1226A2306F4D7285005
:10163000000809E274EC10F0272A030E275C01E190
:10164000276A2806F4D7200E0601E76EA819E8AE2F
:1016500002D0E73402D0E750A85D01E231D16550F5
:10166000020B01E02DD1400EE66E400EE66E020E3A
:10167000E66E3CEC39F0EBEC18F0E76E030EE7CFCA
:10168000DBFFDB50000801E3E5D0040EDB6A030E4C
:10169000DB50F36E040EB3EC17F001E3DBD0040E65
:1016A000DB50EA6A400FE96E020EEA22EFCFDFFF5D
:1016B00005015D5132E10D0E34EC17F005E00A0E24
:1016C0004C6EDF504C5C29E1010E5D6F06016BEC46
:1016D00017F00D0EEF6EF72B010EDB6AF751F36E6C
:1016E000010EB3EC17F014E204EC18F0E9BEEA685E
:1016F000000EE926030EEA22EF50E66E04EC18F025
:10170000E9BEEA68190EE926050E19EC18F0E6D7CD
:1017100034D90601F76BF86B8DD01B0EDF5C09E145
:10172000595107E1010E596F1B0E5A6F5B6B5C6BD1
:1017300081D059050BE15B0EDF5C08E11B0E5A5DA1
:1017400005E15B5103E15B0E5B6F74D059054AE123
:10175000410EDF5C47E11B0E5A5D44E15B0E5B5DB1
:1017600041E15A6B5B6B5C6B596B010EDB6ADBCF43
:10177000E9FFEA6AE9BEEA68000EE926030EEA22FA
:10178000EF500D0814E004EC18F0E9BEEA68190EF9
:10179000E926050EEA22EF50E66E04EC18F0E9BEE9
:1017A000EA68000EE926030E19EC18F0E0D7010EE6
:1017B000DBCFF7F606016BEC17F0EF6A420E4B6ECB
:1017C000710E49EC18F0000EE66E030EE66E3F0E49
:1017D0004B6E710E56EC18F002E2E16AE552E16ED2
:1017E0004E5028D0080EDF5C0EE10601F7510008CC
:1017F0000AE2F7076BEC17F0EF6A3C0E4B6E710EC6
:1018000049EC18F017D00D0EDF5C14E00A0EDF5C17
:1018100011E0200EDF5C0EE305015A6B5B6B5C6B25
:10182000596B06016BEC17F0DFCFEFFF05015D6B25
:101830000601F72B0601F7514B6E4C6A000E4B1850
:1018400006E1010E4C1803E12986F76BF86B040ED4
:10185000DB2A1DD7295033E029A005D0360E4B6E68
:10186000710E49EC18F029A205D0170E4B6E710EBF
:1018700049EC18F029A405D0FB0E4B6E700E49EC14
:1018800018F029A605D0DF0E4B6E700E49EC18F04B
:1018900029A805D0C00E4B6E700E49EC18F029AC8B
:1018A00005D09F0E4B6E700E49EC18F0000E2914F7
:1018B00005E0860E4B6E700E49EC18F0296A37D899
:1018C000050EE15C02E2E16AE552E16E03EF17F01A
:1018D00059EC18F0F5C6DFFFDF2A400E34EC17F0A4
:1018E00001E1DF6A0601F651DF5C01E120D8060163
:1018F000F551EA6A000FE96E020EEA22FD0EDBCF17
:10190000EFFFF52B400EF55D01E1F56BF651F55D4E
:1019100001E12984FD0EDBCF4BF04C6A4BBE4C68D5
:101920004BC0F3FF4CC0F4FFE55203EF17F059EC46
:1019300018F00601F551F65D1DE00601905105E035
:10194000C6EC39F0B6EC25F0F8D70601F651D88090
:10195000F55507E2F651F55D4BEC17F0F5C6F6F6D6
:1019600007D0400ED880F6554BEC17F00601F66B09
:10197000C6EC39F0E55203EF17F0DCEC18F0E65254
:10198000E652DE6ADD6A020EDB6A030EDB6A0601DE
:1019900013EC17F020EC18F0020EF3CFDBFF06017A
:1019A0002DEC17F004E1010E4C1801E1F86B020E6A
:1019B000DB50DE6EDD6A13EC17F02C0824E013EC2C
:1019C00017F00D0820E013EC17F020EC18F0030ED0
:1019D000F3CFDBFF06012DEC17F004E1010E4C18EC
:1019E00001E1F86B020EDBCF4DF04DC04EF04D6AB9
:1019F000030EDB5000014D244B6E000E4E204C6E4A
:101A00004BC0DEFFDD6E000EDFCF3DF0010EDBCF01
:101A10003EF04D0E3D1802E1580E3E1801E1E3D1B3
:101A2000530E3D1802E1450E3E1801E1D9D1430E97
:101A30003D1802E1410E3E1801E1D0D14D0E3D1896
:101A400002E1510E3E1801E1C6D14D0E3D1802E1F2
:101A5000520E3E1801E1BCD1320E3D1802E1530E88
:101A60003E1801E1B2D1450E3D1802E1530E3E1879
:101A700001E1A8D1430E3D1802E1510E3E1801E1EB
:101A80009ED14B0E3D1802E1430E3E1801E194D168
:101A90004C0E3D1802E1420E3E1801E18AD1440E7F
:101AA0003D1802E14E0E3E1801E180D1490E3D186D
:101AB00002E14E0E3E1801E176D1420E3D1802E1E0
:101AC000510E3E1801E16CD14C0E3D1802E1510E51
:101AD0003E1801E162D14C0E3D1802E1530E3E1852
:101AE00001E158D14E0E3D1802E1510E3E1801E1C0
:101AF0004ED14E0E3D1802E1530E3E1801E144D185
:101B0000430E3D1802E1530E3E1801E13AD14D0E4D
:101B10003D1802E1450E3E1801E130D1500E3D184E
:101B200002E1510E3E1801E126D1500E3D1802E1AE
:101B3000540E3E1801E11CD1500E3D1802E1530E27
:101B40003E1801E112D14D0E3D1802E1530E3E1830
:101B500001E108D1470E3D1802E1500E3E1801E1A7
:101B6000FED0430E3D1802E1500E3E1801E1F4D0C4
:101B7000490E3D1802E1430E3E1801E1EAD0490E3C
:101B80003D1802E1520E3E1801E1E0D0490E3D1829
:101B900002E1530E3E1801E1D6D0530E3D1802E18A
:101BA000430E3E1801E1CCD0530E3D1802E1520E17
:101BB0003E1801E1C2D0530E3D1802E1530E3E180B
:101BC00001E1B8D0530E3D1802E1420E3E1801E18A
:101BD000AED0430E3D1802E1420E3E1801E1A4D002
:101BE000430E3D1802E1520E3E1801E19AD04F0E0D
:101BF0003D1802E1420E3E1801E190D0570E3D180B
:101C000002E14D0E3E1801E187D0520E3D1802E16F
:101C10004D0E3E1801E17ED0440E3D1802E1500EFB
:101C20003E1801E175D04F0E3D1802E1500E3E18EE
:101C30006DE0490E3D1802E1500E3E1865E0580E69
:101C40003D1802E1540E3E185CE0540E3D1801E1CF
:101C50003E5055E0410E3D1801E13E504EE0560E1B
:101C60003D1801E13E5047E0490E3D1801E13E506C
:101C700040E04F0E3D1801E13E5039E0550E3D1851
:101C800002E1430E3E1831E0580E3D1802E1430ECA
:101C90003E1828E0430E3D1801E13E5021E0520E6F
:101CA0003D1801E13E501AE0580E3D1802E1520E77
:101CB0003E1811E0030EDB5001E098D0020ECDEC8F
:101CC00017F0CDEC17F0630E4B6E700E7FEC18F032
:101CD00001E39BD098D0A3EC12F099D0BDD897D057
:101CE0000CD995D0A5EC12F092D0BAD890D0A6D944
:101CF0008ED0D8D98CD0F3D98AD0F6D988D0D4D880
:101D000086D0A1EC12F083D014DB81D085DB7FD0AC
:101D10007BDA7DD059DA7BD045DA79D016EC13F036
:101D200076D0A7EC12F073D014EC13F070D018EC4E
:101D300013F06DD01AEC13F06AD01CEC13F067D0DE
:101D40001EEC13F064D020EC13F061D022EC13F001
:101D50005ED024EC13F05BD026EC13F058D07EEC70
:101D600013F055D097EC1CF052D002EC20F04FD07D
:101D7000E5EC1FF04CD0D3EC1FF049D083EC20F001
:101D800046D0CFEC1BF043D000EC21F040D01EEC4D
:101D900021F03DD02FEC21F03AD03BEC21F037D0B0
:101DA0004CEC21F034D0E2EC20F031D0F3EC20F018
:101DB0002ED0B3EC13F02BD0BBEC13F028D05FEC9B
:101DC00021F025D072EC21F022D01CEC3BF01FD08A
:101DD000DCEC21F01CD0DDEC21F019D01BD917D0A0
:101DE0004FEC1FF014D032EC1DF011D093EC18F032
:101DF00093EC18F03B0E4B6E700EF4EC16F04E6E3A
:101E00000B0EE15C02E2E16AE552E16E4E50060122
:101E100013EC17F00D080DE029500BE1520E4B6E3C
:101E20004C6ADF504B1803E1DE52DD504C1801E0E4
:101E3000298EF7C6F8F6040EE15C02E2E16AE5528B
:101E4000E16E03EF17F00601FD5105E07E0E4B6ECB
:101E5000810E49EC18F0120071EC0AF023EF0FF03C
:101E600059EC18F0D1EC18F00EEC17F0020EF1EC72
:101E700016F0295017E1DF0414E1D950010F27ECC7
:101E800018F00AE0010E4B6E4C6ADB504B1808E16B
:101E9000020EDB504C1804E1010EDBCFFDF601D041
:101EA000298CD1DF5CEF18F0FDEC16F0BDEC17F0DB
:101EB000E66A1D0EE66E000EE66EF3EC18F01BE10E
:101EC000020EDB500CE11D501E1003E11F6A206A58
:101ED00011D076841DC01FF01EC020F00BD01D5005
:101EE0001E1003E1246A256A05D076841DC024F003
:101EF0001EC025F0A8DF5CEF18F0DCEC18F0E6520D
:101F0000D1EC18F003EC19F0020F03EC19F0030FF9
:101F100003EC19F0040F4CEC18F00FE1DF50926E57
:101F2000010EDB50936E020EDB50946E030EDB50FD
:101F3000956E040EDB50966E86DF050EE15C02E2C4
:101F4000E16AE552E16E03EF17F0FDEC16F0FD0ECD
:101F5000DB50100805E2100EF36EFD0EF3CFDBFF31
:101F6000FC0EDB5029E0FD0EDB5008EC41F0F35095
:101F70003312F4503412080EF36EFD0EB3EC17F06A
:101F80000DE2010EF36EFD0EDB5003E029EC17F0BD
:101F9000FDE1F350F31C0F0148173AD0FD0EDB5062
:101FA0000C0836E32BEC18F003E009EC18F0FDE127
:101FB000E81C0F0149172CD0FD0EDB5008EC41F056
:101FC000F3CF4BF0F4CF4CF04B1E4C1E4B5033165E
:101FD0004C503416080EF36EFD0EB3EC17F00CE205
:101FE000010EF36EFD0EDB5003E029EC17F0FDE16E
:101FF000F3500F0148130CD0FD0EDB500C0808E322
:102000002BEC18F003E009EC18F0FDE10F01491387
:1020100003EF17F0FDEC16F0D1EC18F04CEC18F0D3
:1020200009E1010EDBCFE6FFDFCFE6FF8EDFE552F1
:10203000E55209DFE552E55203EF17F0FDEC16F02B
:102040001CEC17F0010EF1EC16F07CEC17F026E119
:10205000010EDB5002E1DF50896E63EC18F01EE1E7
:10206000010EDB5002E1DF508A6E63EC18F016E1DE
:10207000010EDB5002E1DF508B6E63EC18F00EE1D5
:10208000010EDB5002E1DF508C6E63EC18F006E1CC
:10209000010EDB5002E1DF508D6ED5DEE552E552D8
:1020A00003EF17F08450E66EE66A8350E66EE66A48
:1020B0008250E66EE66A8150E66EE66A8050E66E11
:1020C000E66A1E0E4B6E700EF4EC16F04E6E0D0EA0
:1020D000E15C02E2E16AE552E16E4E501200860ECA
:1020E0004B6E810E49EF18F0DCEC18F0E652DF6A17
:1020F000010EF36EDB6E020EDB6A1C0E4B6E700E71
:1021000049EC18F09DBCFED7DF6ADFCF4BF0100E14
:10211000E76E4B18E8AE02D0E73402D0E7504B5CD4
:102120003AE2010EDB5033144B6E020EDB503414D6
:102130004C6E4B504C101EE0DFCFE9FFEA6AE9BE5F
:10214000EA68ADEC17F0EECFE6FFEFCFE6FFDFCFAA
:102150004BF04C6A4BBE4C68BCEC18F0110E4D6E47
:10216000700ED1EC17F0070EE15C02E2E16AE55275
:10217000E16E5050010EDBCF4BF0020EDBCF4CF086
:10218000D8904B364C36010E4BC0DBFF020E4CC0D4
:10219000DBFFDF2ABAD7830E4B6E810E49EC18F0B5
:1021A0005CEF18F059EC18F01CEC17F0F3EC18F099
:1021B00009E1EFEC17F005E2C1EC18F0020EDBCFFD
:1021C000EFFF41DE5CEF18F059EC18F01CEC17F053
:1021D000030EF1EC16F0295015E1EFEC17F005E2D3
:1021E000C1EC18F0020EEFCFDBFF020ECDEC17F0C2
:1021F000070E4B6E700E56EC18F002E2E16AE552E3
:10220000E16E4E505CEF18F007EC19F001E08FD052
:10221000020EDB50010801E287D0010EDB500708F7
:1022200001E282D0410E34EC17F016E1020EDB50D1
:102230000AE138EC17F003E029EC17F0FDE1F35068
:10224000F31C921673D038EC17F003E029EC17F06A
:10225000FDE1F35092126AD0420E34EC17F016E111
:10226000020EDB500AE138EC17F003E029EC17F01E
:10227000FDE1F350F31C931659D038EC17F003E04E
:1022800029EC17F0FDE1F350931250D0430E34ECDB
:1022900017F016E1020EDB500AE138EC17F003E00C
:1022A00029EC17F0FDE1F350F31C94163FD038EC05
:1022B00017F003E029EC17F0FDE1F350941236D04B
:1022C000440E34EC17F016E1020EDB500AE138EC54
:1022D00017F003E029EC17F0FDE1F350F31C95161D
:1022E00025D038EC17F003E029EC17F0FDE1F350AE
:1022F00095121CD0450E34EC17F016E1020EDB509F
:102300000AE138EC17F003E029EC17F0FDE1F35097
:10231000F31C96160BD038EC17F003E029EC17F0FD
:10232000FDE1F350961202D0298C01D08CDD5CEFD8
:1023300018F0FDEC16F0BDEC17F0FDEC18F0050EF2
:1023400045EC18F0010F4CEC18F064E1010EDB5085
:1023500007084CE3410E34EC17F00AE182EC17F069
:1023600003E009EC18F0FDE1E8407F0B801437D062
:10237000420E34EC17F00AE182EC17F003E009ECAE
:1023800018F0FDE1E8407F0B811429D0430E34ECB6
:1023900017F00AE182EC17F003E009EC18F0FDE118
:1023A000E8407F0B82141BD0440E34EC17F00AE196
:1023B00082EC17F003E009EC18F0FDE1E8407F0B38
:1023C00083140DD0450E34EC17F010E182EC17F0B9
:1023D00003E009EC18F0FDE1E8407F0B8414E76EA0
:1023E000020EE7CFDBFFDB5008E002D0298C12D0D1
:1023F000010EF36E020EF3CFDBFF020ECDEC17F0F1
:10240000FE0E4B6E6F0E56EC18F002E2E16AE552DA
:10241000E16E4E505CEF18F007EC19F001E08FD040
:10242000020EDB50010801E287D0010EDB500708E5
:1024300001E282D0410E34EC17F016E1020EDB50BF
:102440000AE138EC17F003E029EC17F0FDE1F35056
:10245000F31C891673D038EC17F003E029EC17F061
:10246000FDE1F35089126AD0420E34EC17F016E108
:10247000020EDB500AE138EC17F003E029EC17F00C
:10248000FDE1F350F31C8A1659D038EC17F003E045
:1024900029EC17F0FDE1F3508A1250D0430E34ECD2
:1024A00017F016E1020EDB500AE138EC17F003E0FA
:1024B00029EC17F0FDE1F350F31C8B163FD038ECFC
:1024C00017F003E029EC17F0FDE1F3508B1236D042
:1024D000440E34EC17F016E1020EDB500AE138EC42
:1024E00017F003E029EC17F0FDE1F350F31C8C1614
:1024F00025D038EC17F003E029EC17F0FDE1F3509C
:102500008C121CD0450E34EC17F016E1020EDB5095
:102510000AE138EC17F003E029EC17F0FDE1F35085
:10252000F31C8D160BD038EC17F003E029EC17F0F4
:10253000FDE1F3508D1202D0298C01D084DC5CEFD8
:1025400018F023EF0FF023EF0FF023EF0FF0DCEC88
:1025500018F0CBEC18F08AEC18F05FE1D950020FBC
:10256000C6EC18F0720ED880EE542E0EED543BE3FC
:10257000D950020F27EC18F01FE04E684F68506AE0
:102580002D0EE76E020EDBCF51F0030EDBCF52F0C3
:10259000E7505126000E5222536A51504E5C4B6E4A
:1025A00052504F584C6E535050584D6E020E4BC007
:1025B000DBFF030E4CC0DBFF010EDB50070813E30B
:1025C000410E34EC17F002E1DF6A0FD0420E34EC1A
:1025D00017F002E1080E05D0430E34EC17F003E1CA
:1025E000100EDF6E02D0298C18D0010EDB50DF24D4
:1025F000E96EEA6A0DEC18F032EC18F0010EDB50CF
:10260000DF24C3EC17F0EF0407E1010EDB50DF24F9
:10261000C3EC17F0020EEF6E16DC040EE15C02E272
:10262000E16AE552E16EEFD323EF0FF023EF0FF0F5
:1026300023EF0FF023EF0FF023EF0FF023EF0FF056
:1026400023EF0FF023EF0FF023EF0FF0D6DB070E91
:10265000E12402E3E168E652E16EFDEC18F0030EBE
:1026600045EC18F08AEC18F042E1DECF01F5DDCF41
:1026700002F5020EDBCF09F5030EDBCF0AF5040EDF
:10268000DB6A030EF36E040EB3EC17F02EE259EC86
:1026900017F0030EA6DBE76E050EE7CFDBFF010E9A
:1026A000E66ED950F8EC18F0E76E060EE7CFDBFFC8
:1026B00029501DE1050EDB5018E1060EDB5015E137
:1026C00013EC18F0010EE926050EEA22DECFEEFF2C
:1026D000DDCFEDFF13EC18F0090EE926050EEA2216
:1026E00032EC18F0040EDB2ACCD723EC0FF0070EE7
:1026F000E15C02E2E16AE552E16E85D359EC18F043
:10270000FDEC18F0010E6DDB29500DE1DF5007E004
:10271000F00E9314936E0501010E006F02D00501B7
:10272000006B23EC0FF0E5526ED3D9CFE6FFDACF82
:10273000E6FFE1CFD9FFE2CFDAFFE652DF6AFF0E14
:10274000DF5C0AE2E868E85005E0E80600D000D067
:1027500000D0F9D7DF2AF3D7E552E552E5CFDAFF0B
:10276000E7CFD9FF1200F29EF29C6592656ADDDF29
:102770000FEF00F0120041DB100EE12402E3E168EC
:10278000E652E16EE66AD950010F48DBE66A98EC42
:1027900018F0FDEC18F0010E45EC18F0040F3EDBCC
:1027A000020E45EC18F0020F39DB030E45EC18F071
:1027B0000A0F34DB060E45EC18F0060F2FDB070E70
:1027C00045EC18F00E0F2ADB040E45EC18F00F0F45
:1027D00025DB050E06DB010EDBCF4BF04C6A4BBE52
:1027E0004C68BCEC18F0F20E4D6E6F0EDADB050E85
:1027F000E15C02E2E16AE552E16E5050DFCFE6FFB4
:10280000E66AE60E4B6E6F0E56EC18F002E2E16AD5
:10281000E552E16E4E50040EDBCFE6FF050EDBCF36
:10282000E6FFDA0E4B6E6F0E56EC18F002E2E16A2C
:10283000E552E16E4E50020EDBCFE6FF030EDBCF1A
:10284000E6FFCE0E4B6E6F0E56EC18F002E2E16A18
:10285000E552E16E4E50D9500A0F68DBC10E4B6E47
:102860006F0E7FEC18F002E2E16AE552E16E4E5025
:10287000D950060F5BDBB40E4B6E6F0E7FEC18F079
:1028800002E2E16AE552E16E4E500E0E86DBA80EC2
:102890004B6E6F0E56EC18F002E2E16AE552E16E03
:1028A0004E500F0E7ADB9C0E4B6E6F0E56EC18F0EE
:1028B00002E2E16AE552E16E4E5023EC0FF0100E99
:1028C000E15C02E2E16AE552E16E9DD296DA090E20
:1028D000E12402E3E168E652E16E080EDB6A0D0EC8
:1028E0004B6E0601A0DA4B5C05E1FA0EDB5026E1E7
:1028F000298824D098DA2C0812E0FA0EDB500DE17A
:1029000092DAE66EE66A750E4B6E6F0ECFDB02E270
:10291000E16AE552E16E4E50298A020E21D19DDA1C
:1029200004E1010E4C1801E1F86B0D0E4B6E7BDAE1
:102930004B5C06E1FA0EDB5001E12988030E10D151
:102940002D0E4B6E70DA4B5C20E1040E43DB1DE074
:10295000050E4D6EFD0EDB504D5C17E0FD0EDB04E9
:1029600001E1C4D0030E04DB01E1C0D0070E32DB6D
:1029700001E1BCD0010EF36E080EF3CFDBFF6DDA80
:1029800004E1010E4C1801E1F86B040EF1DA0AE0E3
:10299000050E20DB07E00A0EE66E90DBEAD8EBECD2
:1029A00018F036D0F85198DBEFCF4BF0000E4BC04B
:1029B000DFFF010EDB6A020EDB6A030EDB6A050E27
:1029C000D7DA1FE1000EDFCFE6FF010EDBCFE6FF17
:1029D00075EC40F0E552E552F3CF4BF0F4CF4CF0FC
:1029E0004D6A4E6A4CAE02D04D684E684BC0DFFF58
:1029F000010E4CC0DBFF020E4DC0DBFF030E4EC0CC
:102A0000DBFF06012ADA04E1010E4C1801E1F86B44
:102A1000080EDB503FE0FD0EDB5006E1F1DB800EDF
:102A200034DA000EEE5462E3020EA2DA06E1E8DBCD
:102A3000000EEE54800E29DA59E3060ECBDA06E1D9
:102A4000DFDB000E22DA800EEE5450E3F0D978DAA4
:102A5000080EDB5053E0040EDBCF3BF0050EDBCF5E
:102A60003CF0060EDBCF3DF0070EDBCF3EF04068BA
:102A700041684268436810EC40F0040E37C0DBFF49
:102A8000050E38C0DBFF060E39C0DBFF070E3AC06B
:102A9000DBFF34D0FD0EDB5006E1B2DB7F0EEE54DF
:102AA000000EF3D923E3FD0EDB0404E11BDB000E73
:102AB000ECD91CE3020E5CDA04E114DB7F0EE5D9ED
:102AC00015E3030E87DA04E10DDBFF0EDED90EE31A
:102AD000060E4D6EFD0EDB504D5C0BE103DBFF0E71
:102AE000EE54FF0EEE547F0EEE5403E2298C010EDD
:102AF00037D0070E3DDA02E09AD922DAFD0EDB501C
:102B0000070A21E0010A17E0050A11E0010A0FE0B7
:102B1000030A08E0050A06E0010A04E0050A02E0EB
:102B2000040E1ED0DBD9040EDBCFEFFF18D005DB7F
:102B3000DBCFEDFF14D001DBDBCFEEFF060EDBCFEA
:102B4000EEFF070E0AD0CAD9DFCFEEFF010EDBCFB2
:102B5000EEFF020EDBCFEEFF030EDBCFEEFF000E2B
:102B60004B6E090EE15C02E2E16AE552E16E4B5008
:102B70004AD122DB28DAEE6AEE6AEE6AEE6A010ECC
:102B8000DB6AFB0EDB50F36E010EEDD94FE206015E
:102B9000F851A2DAEFCFDFFF300EDF5C42E3DF5007
:102BA00039083FE310DAEECF4BF0EECF4CF0EECF2A
:102BB0004DF0EFCF4EF00A0E406E416A426A436A12
:102BC0004BC03BF04CC03CF04DC03DF04EC03EF021
:102BD00010EC40F037C04BF038C04CF039C04DF02D
:102BE0003AC04EF0300EDF5C4F6E506A516A526A46
:102BF000E8504B2650504C2251504D2252504E22FC
:102C0000E2D94BC0EEFF4CC0EEFF4DC0EEFF4EC010
:102C1000EEFF060122D907E1010E4C1804E1F86B22
:102C200002D0000E04D0010EDB2AABD7010EE55214
:102C3000E552E9D02350E66EE66A690E4B6E6F0EE0
:102C400035DA02E2E16AE552E16E4E501200060109
:102C5000A85108E0010E4B6E6550020B01E0010E19
:102C60004B5C17E1CBD90BE16151621111E18C860C
:102C7000A00E616F0F0E626F010E636F1200615143
:102C8000621152E18C96A00E616F0F0E626F636B42
:102C90001200A80509E0020EA85D06E0040EA85D7A
:102CA00003E0100EA85D17E1A9D90BE16151621193
:102CB00011E18C86200E616F4E0E626F010E636F04
:102CC00012006151621130E18C96200E616F4E0E40
:102CD000626F636B1200200EA85D26E18FD907E1B9
:102CE0006151621121E18C86CBD9010E15D06305AB
:102CF00007E16151621118E18C96C2D9020E0CD025
:102D0000020E635D0BE1615162110EE18C86A00E33
:102D1000616F860E626F030E636F12006151621164
:102D200003E18C96ADD9636B120067D8A2D9E8AEE7
:102D300002D04B3403D0E750D8804B5423E3FC0E31
:102D4000DB5010E0C3D8E9BEEA6896D804E0E84654
:102D5000FE0B4C06FCE14B6EB9D8E9BEEA682FDAEF
:102D6000EF1210D0B3D8E9BEEA6886D804E0E8468E
:102D7000FE0B4C06FCE1E81C4B6EA8D8E9BEEA68E5
:102D80001EDAEF1640D039D874D9E8AE02D04B34F1
:102D900003D0E750D8804B5423E3FC0EDB5011E105
:102DA00095D8E9BEEA6868D804E0E846FE0B4C0610
:102DB000FCE1E81C4B6E8AD8E9BEEA6806DAEF1639
:102DC0000FD084D8E9BEEA6857D804E0E846FE0B85
:102DD0004C06FCE14B6E7AD8E9BEEA68F6D9EF12F0
:102DE00012D0E66E98EF18F04C6E4D6A4BC0E6FFBD
:102DF000E66E4DC0E6FFF1EF3EF060D9E1CFD9FFBE
:102E0000E2CFDAFF1200E552E5CFDAFFE7CFD9FFD4
:102E10001200A951E96EEA6A76EF18F0E66E000E2C
:102E2000DA20E66E1200F85157D9EF501200D9CFD0
:102E3000E9FFDACFEAFF1200E652E652FDEF18F0A2
:102E4000EA22EECF57F0EFCF58F012009AD9010ED8
:102E50001200D890F336E8061200F82BF8514B6EAA
:102E60004C6A000E4B1812004B6EDF504B5C120088
:102E7000010EF36EDB501200C80EE926050EEA22A1
:102E8000EF504C6E010E4C521200EE54000EEE54F8
:102E9000000EEE541200DF6EDFCFE6FFF6514C6AF3
:102EA000000F4B6E020E4C2267D97FEC39F0EBEF2E
:102EB00018F0010EE66E5EEF18F0EA22EECF59F040
:102EC000EFCF5AF0120012D9E8061200FD0EDBCF48
:102ED000E9FFEA6A1200F7516CEF18F0FB0EDBCF46
:102EE000E9FFFC0EDBCFEAFF1200EA22EE50EFCF43
:102EF000EAFFE96E4B501200E76E010EE7CFDBFFF1
:102F000029501200010EDB284B6E010E4B521200AD
:102F1000A951EA6A310FE96E0E0EEA22EF500E0156
:102F2000EA6AAC25E96EAD51EA2212002FD9EECF44
:102F3000E6FFEECFE6FFEECFE6FFEFCFE6FF1200B3
:102F4000040EEECFDBFF050EEECFDBFF060EEECF5D
:102F5000DBFF070EEECFDBFF1200C8D8000EE9261C
:102F6000010EEA221200DBCFF4FFF350F45C1200F2
:102F70004B6EFD0EDB504B5C1200E652E652E65201
:102F8000020EDB6A1200EA6A290FE96E010EEA22DC
:102F900012004E6E050EE15C1200DBCFE6FFE66A22
:102FA00012004E6E4F6A4DC0E6FFE66E4FC0E6FF60
:102FB000F1EC3EF0506E1200020EDBCF57F0030E24
:102FC000DBCF58F01200FC0EDBCFE9FFFD0EDBCFAC
:102FD000EAFF12004C6EFD0EDB504C5C1200DECF9F
:102FE0004BF0DDCF4CF0000E4B5C100E4C58120035
:102FF000070E2C14576E010E57521200050161077F
:10300000000E625B63511200010EDBCFE9FFEA6A3A
:103010001200E846FE0B4B06120068D8410EE92666
:10302000010EEA221200040EDB28E96EEA6A76EF4E
:1030300018F0EA22E552E750EF6E010EDB2A12008B
:10304000E66EE66A75EC40F0E552E55212009ED855
:10305000EE50ED101200FD0EDB50F80F4B6E010E1E
:103060004B521200020EDBCFEEFF030EDBCFEDFF63
:103070001200FD0EDBCF4BF0190EE76E4B1812005D
:10308000100E616F270E626F1200ABDEE66AD95038
:103090001200AADEEBEF18F0C1DE010EA2DE29500D
:1030A0001200B7DE010EE9260E0E12009DDEC9EFFA
:1030B00017F0A3DEE65212008ED8A5D6D9CFE6FFD0
:1030C000DACFE6FF1200F5DE8CDE7CEF17F0A1DE32
:1030D000790EE9260E0E1200EA6A000FE96E030E61
:1030E000EA2212008DD8FF0EEE541200D890E93675
:1030F000EA3612008EDE490EE9260E0E120074DE4C
:103100004E6E070EE15C1200110EE926050E98DEE8
:1031100026EF17F06DD829501200CFDE5750595CBA
:1031200058505A581200030E38DF020ECDEF17F038
:1031300066EC14F050D8E5521200D0DE040EDBCF5E
:10314000EEFF050E1200B9DE595057181200110E8D
:10315000E926050EEA2212006ADEEE50ED1012009A
:1031600066DE010EEE18120062DE020EEE1812008C
:103170005EDE030EEE1812004BC0E6FF4CC0E6FF09
:103180001200DECFE9FFDDCFEAFF1200E96E000E8C
:10319000DA20EA6E120050DE050E77DF010F03EF32
:1031A00019F04ADE010E71DF010F120090DF48DED8
:1031B00078DFEA22575012007CDFE652120096DFD9
:1031C000960EE926050E75EF17F090DF640EE926DE
:1031D000050E75EF17F0E552E552E55212008ADF51
:1031E0002FDE51EF18F0030E50DF020F4CEF18F0F6
:1031F000020F14DE030EF1EF16F0E66A5EEF18F030
:1032000016DED88012000ADE010E45EF18F051DFFD
:08321000C2DF020F4CEF18F0C1
:08321800E9CFE4FFEACFE4FF77
:10322000E652D9CFE6FFDACFE6FFE1CFD9FFE2CF12
:10323000DAFFE6529EA0F0D19E908E0ECE6ECF6841
:103240000DC080F20201816B0201010E826F0E50EF
:103250000F101010111014E0D880000E0E54000E44
:103260000F54190E1054000E115405E20E6A0F6A25
:10327000106A116A05D00E06000E0F5A105A115A24
:103280000E500F101010111002E00201826B839299
:10329000000401E0B3D0055006100710081006E145
:1032A00009500A100B100C1001E1A7D00201EB51DC
:1032B0000BE10DA202D08C8E01D08C9E0DA602D007
:1032C0008C8A01D08C9A0DD00201EB050AE10DA287
:1032D00002D08B8401D08B940DA602D0898401D0BA
:1032E0008994055006100710081023E01850012497
:1032F000186E19500220196E000ED8801854800ED6
:10330000195415E218C018F019C019F0000E185E13
:10331000800E195A010E020180110201806F020114
:10332000010E816F0506000E065A075A085A02015F
:10333000826B09500A100B100C1023E01A50032462
:103340001A6E1B5004201B6E000ED8801A54800E7B
:103350001B5415E21AC01AF01BC01BF0000E1A5EB7
:10336000800E1B5A040E020180110201806F0201BF
:10337000010E816F0906000E0A5A0B5A0C5A0201FF
:10338000826B0201815139E00201EB5107E1020138
:1033900080B18C8C020180B58C8809D00201EB05CC
:1033A00006E1020180B18B8C020180B5898A0000A0
:1033B000000000000000000000000000000000000D
:1033C00000000000000000000000000000000000FD
:1033D00000000000000000000000000000000000ED
:1033E000000000000201EB5103E18C9C8C9805D099
:1033F0000201EB0502E18B9C899A9DD0030E005CD3
:1034000001E099D00201FC5101E177D01504DF6E93
:103410001250131037E1DF50EA6A310FE96E0E0ED9
:10342000EA22EF500E01EA6AAC25E96EAD51EA22BC
:10343000EF6AEA6ADF34FE0BEA36E96E790EE926B6
:103440000E0EEA22EE6AED6AEA6ADF34FE0BEA3615
:10345000E96E490EE9260E0EEA22EE6AED6ADF50A9
:10346000EA6A310FE96E0E0EEA22EF6AEA6ADF3489
:10347000FE0BEA36E96E010EE9260E0EEA22EE6A2E
:10348000ED6A3BD0EA6ADF34FE0BEA36E96E790E6C
:10349000E9260E0EEA2216C0EEFF17C0EDFFEA6A1B
:1034A000DF34FE0BEA36E96E490EE9260E0EEA22FB
:1034B00012C0EEFF13C0EDFFDF50EA6A310FE96E74
:1034C0000E0EEA2214C0EFFFEA6ADF34FE0BEA3682
:1034D000E96E010EE9260E0EEA22EE50ED100DE126
:1034E000EA6ADF34FE0BEA36E96E010EE9260E0EBB
:1034F000EA2212C0EEFF13C0EDFF0E01B651145CBC
:103500001AE10E01B051121802E1B15113180AE18B
:103510000201010EEC6F0201E86B0201FB5101E0B8
:103520008A9809D00201EC6B0201010EE86F0201DA
:10353000FB5101E08A880201825162E00E500F10B7
:10354000101011105DE1006A1C5056E184C200F0B9
:1035500085C201F086C202F087C203F088C204F07F
:1035600089C205F08AC206F08BC207F08CC208F04F
:103570008DC209F08EC20AF08FC20BF090C20CF01F
:1035800091C20DF092C20EF093C20FF094C210F0EF
:1035900095C211F096C212F097C213F098C214F0BF
:1035A00099C215F09AC216F09BC217F00201846B03
:1035B0000201856B866B0201876B886B0201896B48
:1035C0008A6B8B6B8C6B02018D6B8E6B8F6B906B30
:1035D0000201916B0201926B936B946B956B0201EC
:1035E000966B976B0201986B0201996B02019A6BC3
:1035F0009B6B010E1C6E04D00E6A0F6A106A116A72
:103600008050800B06E00201F35106E08150010B6F
:1036100003E10201010EF26FE552E552E5CFDAFF58
:10362000E7CFD9FFE552E5CFEAFFE5CFE9FF11008B
:10363000D9CFE6FFDACFE6FFE1CFD9FFE2CFDAFF5D
:10364000E652DF6ADFCF4BF0020EE76E4B18E8AEB2
:1036500002D0E73402D0E7504B5C24E2DFCFE9FF31
:10366000EA6AE9BEEA68D890E936EA36010EE92648
:10367000000EEA22010EEE6EED6ADFCFE9FFEA6A84
:10368000E9BEEA68D890E936EA36D890E936EA36F3
:10369000050EE926000EEA22EE6AEE6AEE6AEE6A8E
:1036A000DF2AD0D7006A0D6A0E6A0F6A106A116AA3
:1036B000126A136A146A156A166A176A010E1C6E7A
:1036C000CD92CD9ECD9CCD8ACD98CD96CD948E0EAB
:1036D000CE6ECF68CD809F809E909D8092809F9C73
:1036E000010EE66EE66AA5EC0FF0E552E552010E1A
:1036F000E66E0B0EE66EA5EC0FF0E552E5528D84FA
:1037000096948D829692898C929C8D8096908B82D5
:1037100094928C9C959C8C9E959E8C9895988C9A56
:10372000959A949E828E0000000000000000000028
:103730000000000000000000000000000000000089
:10374000000000000000000000000000948E829E37
:103750000201010EFB6F0201010EFC6F8A98939823
:103760000201010EE86F0201EB6B0201010EEC6F2A
:103770000201F16B0201ED6BEE6BEF6BF06B02017E
:10378000F26B9380F19E0201010EF36F9396819686
:10379000E552E552E5CFDAFFE7CFD9FF1200BEECE4
:1037A00022F06CEC23F055EC23F046EC25F0E66AB1
:1037B000D95034EC25F0295001E0B7D0DF0426E1E0
:1037C00030EC25F00CE10201010EFB6FFC6B5DECAF
:1037D00023F002E2E16AE552E16E4B500FD01EEC9D
:1037E00024F0010EEE1806E1ED5004E10201FB6B3E
:1037F000010E03D00201010EFB6FFC6F000EE66E9E
:10380000E66AECC2E6FFE5EC23F08DD0020EDF5C49
:1038100030E130EC25F009E10201EB6B96909492D7
:10382000959C959E9598959A1DD01EEC24F0010EBE
:10383000EE180DE1ED500BE10201010EE7EC23F073
:1038400094949294949C929A959292926CD01EEC3D
:1038500024F0020EEE1867E1ED5065E10201020E60
:10386000E7EC23F094849284948C928A95829282DD
:103870005AD0040EDF5C07E1010EDBCFB0FE020E72
:10388000DBCFB1FE50D0050EDF5C07E1010EDBCFD0
:10389000AEFE020EDBCFAFFE46D0080EDF5C0FE1BE
:1038A0001EEC24F0180ED880EE54000EED5403E206
:1038B000180EEFEC23F0010EDBCFAAFE34D0090E78
:1038C000DF5C0FE11EEC24F0060ED880EE54000EF3
:1038D000ED5403E2060EEFEC23F0010EDBCFABFE5E
:1038E00022D00A0EDF5C03E1F6EC23F009D00B0EC8
:1038F000DF5C03E1F6EC23F016D00C0EDF5C07E191
:10390000010EDBCFB4FE020EDBCFB5FE0CD00D0EE8
:10391000DF5C09E130EC25F004E00201010EF36FF9
:1039200002D00201F36B23EC0FF017EF25F0BEEC91
:1039300022F0100EE12402E3E168E65200EC25F0EB
:10394000F9EC24F0E66AD950040FC0EC24F00DEC39
:1039500024F0080FC0EC24F0E8EC22F001E1298CFF
:1039600046EC24F002E621EC23F007E2D950040FE4
:10397000C4EC22F095EC23F004D052EC24F0A2EC3D
:1039800023F08AEC23F004E2360E4B6E6F0E54D017
:103990005EEC24F002E626EC23F004E2080E4B6E07
:1039A0006F0E4AD02BEC24F092EC22F004E2D80EF9
:1039B0004B6E6E0E41D07EEC22F00C0FFDEC24F02D
:1039C00009E336EC24F003EC23F004E0B20E4B6E76
:1039D0006E0E32D06AEC24F002E621EC23F007E20E
:1039E000D950080FC4EC22F095EC23F004D076EC0B
:1039F00024F0A2EC23F05EEC24F002E626EC23F0A7
:103A000004E2840E4B6E6E0E17D02BEC24F092EC79
:103A100022F004E2540E4B6E6E0E0ED07EEC22F0BD
:103A20000C0FFDEC24F00BE336EC24F003EC23F058
:103A300006E02E0E4B6E6E0EC4EC24F00BD0295017
:103A400009E111EC24F002E2E16AE552E16E4B502B
:103A500023EC0FF0100EE15C02E2E16AE552E16E48
:103A6000E2EF22F0BEEC22F0180EE12402E3E1685E
:103A7000E65200EC25F0100EDB6A110EDB6A120E26
:103A8000DB6A130EDB6A140EDB6A150EDB6A160E98
:103A9000DB6A170EDB6AF9EC24F0E66AD9500C0FEA
:103AA000C0EC24F0E66AD950100FC0EC24F0E8EC2A
:103AB00022F001E1298C100EDBCF4BF0110EDBCF91
:103AC0004CF0120EDBCF4DF0130EDBCF4EF0D95081
:103AD0000C0FC4EC22F0EE504B26EE504C22EE5070
:103AE0004D22EE504E22040E4BC0DBFF050E4CC0A3
:103AF000DBFF060E4DC0DBFF070E4EC0DBFF36ECD2
:103B000024F0DBCF52F0D950100FC4EC22F0EE506D
:103B10004F5C4B6EEE5050584C6EEE5051584D6EFF
:103B2000EE5052584E6E080E4BC0DBFF090E4CC0D3
:103B3000DBFF0A0E4DC0DBFF0B0E4EC0DBFF46EC79
:103B400024F002E621EC23F007E2D950040FC4EC84
:103B500022F0AFEC23F004D052EC24F0BCEC23F0C4
:103B60008AEC23F004E2360E4B6E6F0E4CD082ECE2
:103B700024F002E626EC23F004E2080E4B6E6F0EF2
:103B800042D08EEC24F004E2D80E4B6E6E0E3BD089
:103B90007EEC22F0140FFDEC24F007E39AEC24F005
:103BA00004E0B20E4B6E6E0E2ED06AEC24F002E6EC
:103BB00021EC23F007E2D950080FC4EC22F0AFEC5F
:103BC00023F004D076EC24F0BCEC23F082EC24F05B
:103BD00002E626EC23F004E2840E4B6E6E0E13D048
:103BE0008EEC24F004E2540E4B6E6E0E0CD07EEC84
:103BF00022F0140FFDEC24F009E39AEC24F006E027
:103C00002E0E4B6E6E0EC4EC24F00BD0295009E141
:103C100011EC24F002E2E16AE552E16E4B5023EC34
:103C20000FF0180EE15C02E2E16AE552E16EE2EFAC
:103C300022F03EEC25F0DE6A7EEC23F0D950F20F44
:103C4000ECEC24F0D950F60FECEC24F0D950FA0F3C
:103C5000ECEC24F0140E4B6E6E0EB5EC22F04E6EB2
:103C60000F0EE15C02E2E16AE552E16E4E501C503B
:103C7000FEE0CBEC24F070EC23F027E1A6EC24F07E
:103C800024E10201020E846FFA0EDBCF92F2FB0EEA
:103C9000DBCF93F2FC0EDBCF94F2FD0EDBCF95F27F
:103CA00084EC23F092C23BF093C23CF094C23DF00E
:103CB00095C23EF010EC40F037C092F238C093F25B
:103CC00039C094F23AC095F2E2D00201926B936B44
:103CD000946B956B916B8D908B92D950F60F4CEC49
:103CE00023F002E6D3EC23F013E2020E9111916F60
:103CF000D6EC24F0FBEC22F0F60E37C0DBFFF70E1B
:103D000038C0DBFFF80E39C0DBFFF90E3AC0DBFF2D
:103D1000D950F20F4CEC23F002E6D3EC23F014E27E
:103D2000080E02019111916FE1EC24F0FBEC22F0FE
:103D3000F20E37C0DBFFF30E38C0DBFFF40E39C0E4
:103D4000DBFFF50E3AC0DBFFD950F60F4CEC23F049
:103D500002E6DCEC23F00BE2D6EC24F0DBCF3EF005
:103D60000F0E77EC23F0FDE105EC25F009D0CBEC4C
:103D700024F028EC25F077EC23F0FDE184EC23F02F
:103D80000AEC23F00CE249EC25F0DF0E4B6E6D0ED1
:103D9000C6EC24F002E2E16AE552C9EC23F0E8EC5B
:103DA00022F012E1F60EDBCF4FF0F70EDBCF50F032
:103DB000F80EDBCF51F0F90E03EC23F005E0B40E62
:103DC0004B6E6D0E39EC25F0000EDFCF85F2010E43
:103DD000DBCF86F2F60EDBCF89F2F70EDBCF8AF26D
:103DE000F80EDBCF8BF2F90EDBCF8CF2D950F20F4D
:103DF0004CEC23F002E6DCEC23F00BE2E1EC24F0E7
:103E0000DBCF3EF00F0E77EC23F0FDE105EC25F063
:103E100011D0F20EDBCF4BF0F30EDBCF4CF0F40EF3
:103E2000DBCF4DF0F50E28EC25F077EC23F0FDE12B
:103E300084EC23F0EFDB0CE249EC25F07F0E4B6EB7
:103E40006D0EC6EC24F002E2E16AE552C9EC23F003
:103E5000BFDB08E1A6EC24F005E0540E4B6E6D0EBE
:103E600039EC25F0000EDFCF87F2010EDBCF88F2B0
:103E7000F20EDBCF8DF2F30EDBCF8EF2F40EDBCF42
:103E80008FF2F50EDBCF90F20201010E846F1C6AF7
:103E9000040EE15C02E2E16AE552E16E93D36EDB6F
:103EA000110EE12402E3E168E652FDEC23F0030E7B
:103EB000DB6A6FDB100EDB6A1C5003E10201840534
:103EC00002E0000402E1010EDF6E0201840523E13D
:103ED000846B090E89C2DBFF0A0E8AC2DBFF0B0E60
:103EE0008BC2DBFF0C0E8CC2DBFF0D0E8DC2DBFF25
:103EF0000E0E8EC2DBFF0F0E8FC2DBFF100E90C2C4
:103F0000DBFF896B8A6B8B6B8C6B8D6B8E6B8F6B16
:103F1000906B010E1C6E000421E1006A010E05C0C9
:103F2000DBFF020E06C0DBFF030E07C0DBFF040E43
:103F300008C0DBFF050E09C0DBFF060E0AC0DBFF71
:103F4000070E0BC0DBFF080E0CC0DBFF056A066A1C
:103F5000076A086A096A0A6A0B6A0C6AD950050F6F
:103F600025EC25F01EEC24F0F7DAD9500D0F25ECE6
:103F700025F0D950090F25EC25F0DFCFE6FFE66AE2
:103F80003F0E4B6E6D0EF1DA4E6E150EE15C02E2E5
:103F9000E16AE552FFEC23F0110EE15C02E2E16A16
:103FA000E552E16E0FD3ECC24BF04C6A4BBE4C684D
:103FB00003EC24F03A0E4D6E6D0E58DB02E2E16A1E
:103FC000E552E16E505023EF0FF0BCEC24F0DE6AB6
:103FD000DD6A010EE66E1BEC25F0030EB8DA2950FF
:103FE0000EE10201EC0504E108EC24F0E66A04D0DD
:103FF00008EC24F0010EE66EE8DB23EC0FF0E5524E
:10400000E552E0D2BCEC24F067DB010EF36E030E48
:10401000F3CFDBFF41EC24F00DEC24F0030F48DB81
:1040200046EC25F0E76E040EE7CFDBFF29502AE1CE
:10403000030EDB50070805E2010EF36E030EF3CF0B
:10404000DBFFDF50010802E2010EDF6E030EDB50E2
:10405000030F0E01B65D0BE030DB02E2E16AE552D0
:10406000E16E4B50030EDB50030F0E01B66F010ED5
:10407000DBCFE6FF020EDBCFE6FFDFCFE6FFA5DBFF
:1040800023EC0FF0050EE15C02E2E16AE552E16E1D
:1040900099D23EEC25F0FD0EDB040BE1B0CEDEFF45
:1040A000B1CEDDFF020EB2CEDBFF030EB3CEDBFFDF
:1040B0000AD0AECEDEFFAFCEDDFF020EB4CEDBFF08
:1040C000030EB5CEDBFFFB0EDBCFE6FFFC0EDBCF36
:1040D000E6FF020EDBCFE6FF030EDBCFE6FFB6CE38
:1040E000E6FF96DB70EC3BF04B6E070EE15C02E204
:1040F000E16AE552E16E4B50040EE15C02E2E16AD6
:10410000E552E16E5FD2BCEC24F0E652CEDAF2EC7E
:1041100024F038E1295054E10201EB5103E0020E92
:10412000EB5D28E1DF50000821E2EB5101E18D90C9
:10413000DF0403E18D848D82898C020EDF5C03E154
:104140008D848D82899C030EDF5C03E18D948D82CA
:10415000899C040EDF5C03E18D848D92899C050EA1
:10416000DF5C10E18D948D92899C0CD0EB510AE1BB
:104170008D8008D0EB0506E1DF50000802E28C924A
:1041800001D08C824ADB010F93DAF2EC24F016E1C5
:10419000295016E10201EB5108E1010EDB50000845
:1041A00002E28B920BD08B8209D0EB0507E1010E66
:1041B000DB50000802E2899201D0898223EC0FF0E3
:1041C00017EF25F0FE0E0201ED5DFF0EEE59FF0E1A
:1041D000EF59FF0EF05905E2ED2B000EEE23EF2311
:1041E000F02323EF0FF00201ED51EE11EF11F0116A
:1041F00005E0ED07000EEE5BEF5BF05B23EF0FF0E9
:104200003EEC25F0E652F5DBE76E040EE7CFDBFF70
:10421000DB500BE1DFCFEDF2010EDBCFEEF2020E51
:10422000DBCFEFF2030EDBCFF0F223EC0FF0050E45
:10423000E15C02E2E16AE552E16EC4D1EDC2E6FF63
:10424000EEC2E6FFEFC2E6FFF0C2E6FF310E4B6EB4
:104250006D0E9CDB02E2E16AE552FFEF23F0E66AB5
:10426000F10EE66E020EE66E46EC25F0295001E0F6
:10427000120023EF0FF0F1C24BF04C6A4BBE4C68BA
:10428000C2DA2A0E4D6E6D0EF1D902E2E16AE552F4
:10429000E16E505023EF0FF0F2C24BF04C6A4BBE70
:1042A0004C68B1DA240E4D6E6D0EE0D902E2E16A7F
:1042B000E552E16E50500201F26B23EF0FF09DBC0E
:1042C000FED716C1E6FF17C1E6FF00C1E6FF01C138
:1042D000E6FF180E4B6E6D0E59DB02E2E16AE55205
:1042E000FFEF23F04BD9F8D9CCDA295064E1A6DAF4
:1042F000FF0ED880EE54030EED5407E2010EDB688A
:10430000030EF36E020EF3CFDBFFDF50010802E273
:10431000010EDF6EA5DB07E1DF0405E10201F96BA9
:10432000020EFA6F06D0010EDBCFF9F2020EDBCFE0
:10433000FAF2CAB415D0CB68FC0ECA140009CA6ED2
:104340009D920F0152815293F00EBA140C09BA6E6D
:104350003F0EBA140009BA6E0E010E0ECC6FCA845D
:10436000DF5023E0F9C24BF0FAC24CF0D8904C3247
:104370004B32D8904C324B324B50BB6EF9C24DF0A1
:10438000FAC24EF0040ED8904D364E36E804FBE1EA
:10439000300E4D16000E4E16CF0EBA1400014D1001
:1043A0004B6E4EC04CF0E85003D0BB6ACF0EBA142F
:1043B000BA6E23EC0FF03BD31200E0D81B0EE124C1
:1043C00002E3E168E65219DAF29E030E00C0DBFF59
:1043D000040E01C0DBFF050E02C0DBFF060E03C0AA
:1043E000DBFF070E04C0DBFF080E05C0DBFF090E74
:1043F00006C0DBFF0A0E07C0DBFF0B0E08C0DBFFA9
:104400000C0E09C0DBFF0D0E0AC0DBFF0E0E0BC049
:10441000DBFF0F0E0CC0DBFF100E0DC0DBFF110E1B
:104420000EC0DBFF120E0FC0DBFF130E10C0DBFF50
:10443000140E11C0DBFF150E12C0DBFF160E13C0E9
:10444000DBFF170E14C0DBFF180E15C0DBFF190EC3
:1044500016C0DBFF1A0E17C0DBFFF28E110EDBCF8A
:104460004BF0120EDBCF4CF0130EDBCF4DF0140EE1
:1044700037D902E0010EDF6E030EDB5002E0010EC1
:10448000DF6E1C5002E1010EDF6EDF500FE0080E00
:10449000DBCF4BF0090EDBCF4CF00A0EDBCF4DF03B
:1044A0000B0E1ED903E0DE52010EDD6EDF5008E078
:1044B000D2D916D905E0010EF36E020EF3CFDBFF61
:1044C000020EDBCFE6FFE66A010EDBCFE6FFE66A0F
:1044D000DFCFE6FFE66A0A0E4B6E6D0E46D84E6ED3
:1044E000090EE15C02E2E16AE552E16E4E501B0EFC
:1044F000E15C02E2E16AE552E16E64D033DA1F0E5C
:10450000406E050E416E426A436A9CD99BEC40F0B6
:104510003BC04BF03CC04CF03DC04DF03EC04EF0B7
:10452000D9501200DBCF4EF08DD9DFCF40F0010E15
:10453000DBCF41F0020EDBCF42F0030EDBCF43F0C6
:104540009BEC40F0D880190E3B540AEF25F0E66E44
:1045500066EC14F0E55296D2EECFE6FFEECFE6FF22
:10456000EECFE6FFEFCFE6FF12004C6E4D6A4BC078
:10457000E6FFE66E4DC0E6FFF1EF3EF05CDAE1CF1C
:10458000D9FFE2CFDAFF1200E96E000EDA20EA6E00
:104590001200040EDB6A050EDB6A060EDB6A070EEC
:1045A000DB6A080EDB6A090EDB6A0A0EDB6A0B0E99
:1045B000DB6A0C0EDB6A0D0EDB6A0E0EDB6A0F0E79
:1045C000DB6A1200E552E5CFDAFFE7CFD9FF120030
:1045D000C9D94B504C104D104E101200FA0EDBCFC3
:1045E00040F0FB0EDBCF41F0FC0EDBCF42F0FD0EC6
:1045F000DBCF43F01200DBCF3EF0406841684268F9
:10460000436810EF40F0DBCF52F04F505010511084
:10461000521012009BEC40F03BC0DEFF3CC0DEFFBE
:104620003DC0DEFF3EC0DDFFDD52DD5209DAD8803D
:10463000000EEE54800EEE54000EEE54000EEE54BA
:104640001200D880E7D9000E3F541200D880FF0E28
:104650003C54FF0E3D54FF0E3E54000E3F541200DA
:10466000DBCF3FF03F34000E3F1812004E6E4F6A12
:104670004DC0E6FFE66E4FC0E6FFF1EC3EF0506E37
:10468000050EE15C1200EE503B5CEE503C58EE50E3
:104690003D58EE503E581200E96EFF0EDA20EA6EE9
:1046A000D890030EEB50000A1200E66A1BEF25F0CB
:1046B000E66E000EDA20E66E1200000EE66EE66A86
:1046C000E66EE66AB6CEE6FFE66EE66A70EC3BF0B2
:1046D0004B6E070EE15C1200E652E652E652A1D1A3
:1046E000DBCF4EF04B504C104D104E101200D890B6
:1046F0003B363C363D363E36E8061200DE6ADE6A60
:10470000DD6ADD52DD521200190E406E416A426AC6
:10471000436A120095D9D880FF0EEE54FF0EEE5476
:10472000FF0EEE54000EEE5412000C0EEECFDBFF27
:104730000D0EEECFDBFF0E0EEECFDBFF0F0EEECF3A
:10474000DBFF12000C0E37C0DBFF0D0E38C0DBFFA5
:104750000E0E39C0DBFF0F0E3AC0DBFF1200140E45
:10476000EECFDBFF150EEECFDBFF160EEECFDBFF3D
:10477000170EEECFDBFF1200140E37C0DBFF150E55
:1047800038C0DBFF160E39C0DBFF170E3AC0DBFF67
:104790001200E16E4E50DE6A800EDE6EDE6ADD6A69
:1047A000DD52DD521200000EEE5C000EEE58000EDF
:1047B000EE58000EEE581200FF0EEE5CFF0EEE58A3
:1047C000010EEE58000EEE58120063DC5BD1EB6F69
:1047D00096809482958C958E9588958A1200F36EBA
:1047E000010EF3CFDBFF020EDB6A1200010EDBCFFE
:1047F000B2FE020EDBCFB3FE1200E16E12D1E16E0B
:104800004E5023EF0FF04BC0E6FF4CC0E6FF120006
:10481000DECFE6FFDDCFE6FF1200010EE66ED950D7
:104820001200D950080F11D9D950040F0ED931D91F
:1048300019EC1EF04B6E0C0EE15C1200D950010F0A
:10484000C4EF22F04BC03BF04CC03CF04DC03DF0FB
:104850004EC03EF012000C0EDBCF4BF00D0EDBCF46
:104860004CF00E0EDBCF4DF00F0E12000C0EDBCF16
:104870004FF00D0EDBCF50F00E0EDBCF51F00F0ED0
:10488000120013DF03D9C9DF34EF25F0040EDBCFAC
:104890003CF0050EDBCF3DF0060EDBCF3EF0070E01
:1048A00030EF23F0040EDBCF3BF0050EDBCF3CF006
:1048B000060EDBCF3DF0070EFBEF22F00C0EDBCF38
:1048C0003CF00D0EDBCF3DF00E0EDBCF3EF00F0EB9
:1048D00030EF23F0080EDBCF3CF0090EDBCF3DF0CC
:1048E0000A0EDBCF3EF00B0E30EF23F0080EDBCFCD
:1048F0003BF0090EDBCF3CF00A0EDBCF3DF00B0E98
:10490000FBEF22F0140EDBCF3CF0150EDBCF3DF0B9
:10491000160EDBCF3EF0170E30EF23F0140EDBCF78
:104920004BF0150EDBCF4CF0160EDBCF4DF0170E13
:1049300092EF22F0140EDBCF4FF0150EDBCF50F0CC
:10494000160EDBCF51F0170E03EF23F0F20EDBCF84
:104950004FF0F30EDBCF50F0F40EDBCF51F0F50E3D
:1049600003EF23F06DD8EECF4BF0EECF4CF0EECF4F
:104970004DF0EFCF4EF0120001DEE652E65212008B
:1049800097DE060EA7EF22F0F0DD7CD0EEDD4E6E56
:10499000070EE15C1200F60EDBCF4BF0F70EDBCF1B
:1049A0004CF0F80EDBCF4DF0F90E1200F60EDBCF17
:1049B0003BF0F70EDBCF3CF0F80EDBCF3DF0F90E0D
:1049C0001200F20EDBCF3BF0F30EDBCF3CF0F40E27
:1049D000DBCF3DF0F50E1200E96EFF0EDA20EA6E35
:1049E000ACEF22F053D8E76E020EE7CFDBFFDB50CF
:1049F00012005BDE070EA7EF22F0C6DD43EF23F0C7
:104A0000E16EDE6A7BDEC9EF22F07EDE9BEC40F0D9
:104A1000EEEF22F0000E3C54000E3D54000E3E54CA
:104A20001200DF6A010EDB6A020EDB6A1200E55239
:104A3000E552E552C7D5D9CFE6FFDACFE6FF12003F
:104A4000D9CFE9FFDACFEAFF12009EDDACEF22F00A
:104A5000DBCF4EF0F7DEC2DD9BEC40F00F0E120014
:104A6000EDDEEE50ED101200010F22DE030EA7EF77
:104A700022F08ADF010EDE6E7EEF23F07DDFE6524C
:104A8000E6521200E552E552E5521200010EA7EF80
:084A900022F0D6DFACEF22F0AA
:084A9800E3EC2AF0A098636A28
:104AA000626A0F01266BBAEC2BF002E2E16AE55272
:104AB000E16E4B500F0177EC2BF0DF6ADF504B6E4D
:104AC0004C6A0C0E4B5C000E4C5810E2DF50040D8B
:104AD000F3CFE9FFF4CFEAFF000EE926040EEA2245
:104AE000EE6AEE6AEE6AEE6ADF2AE8D7658C0F019D
:104AF000386B6598659C62A607D062960601BF6B0D
:104B0000C46BC56BC66BF7D70601010ED86FD96FA2
:104B1000DA6BDB6BCC6BDF6A030EDF5C11E2EA6AF7
:104B2000DF34E7EC2BF0EA22EE6AED6AEA6ADF3462
:104B3000EEEC2BF0EA22EE6AED6A21EC2BF0ECD7DA
:104B40000601080EB56F040EB66F0F01160E266F24
:104B50000401300E026F040E036F400E016F840ECD
:104B6000006F0601A96BA86BE6EF2AF0E3EC2AF0D0
:104B700082BE06D0656A0F01366B0601A86B7CD039
:104B80000601A8510CE1656A0F01366B77EC2BF03A
:104B900065B602D06586FCD70601010EA86FA80590
:104BA0000AE165BA08D0626A0F01366B3681368930
:104BB0000601020EA86F6250040B06E00F01365189
:104BC000040B02E062943EDB65B256D06250010BEA
:104BD00009E00F013651010B05E05EDF0601040E0E
:104BE000A86F62906250100B06E00F013651100B57
:104BF00002E018DB629862AC15D00F0136AD0AD026
:104C00007EEC2BF0730EEDEC2AF002E2E16AE55245
:104C1000E16E4B50629C0601D65101E0D607D65199
:104C200001E1F3D86250200B05E00F013651200B53
:104C300001E0E7DA6250020B14E00F013651020B7B
:104C400010E07EEC2BF0E6687F0EE66E86EC3DF021
:104C50004B6E060EE15C02E2E16AE552E16E4B50FA
:104C6000636A040E0601E76EA819E8AE02D0E734C5
:104C700002D0E750A85D02E2A19834D00F0136A718
:104C800030D0DF6A040EDF5C2CE262A62AD064CF4B
:104C9000CDF60601CD51780BE842E842E842CE6FEE
:104CA0006296CDB504D0CE51F5EC2BF003D0CE51A9
:104CB000FAEC2BF0EA22EF70CE5102E1D5DA0FD0F8
:104CC000000EE66EE66ACD0EE66E060EE66E720E1B
:104CD000EDEC2AF002E2E16AE552E16E4B50DF2A88
:104CE000D1D7A198E6EF2AF0E4EC2BF0FC0EDBA480
:104CF00003D0E66A5FEC2BF0FC0EDBA204D0010EC1
:104D0000E66E5FEC2BF0FD0EDB504C6A260F4B6E0F
:104D10000F0E59EC2BF0F5EC2AF0FC0EDBCFEFFF79
:104D2000E552E6EF2AF0E4EC2BF0FC0EDB5003E05A
:104D3000E8EC2AF002D012EC2BF045EC2BF0D9CFA6
:104D4000E9FFDACFEAFFEE50ED1003E1F36AF46A0F
:104D500028D0F5EC2AF009EC2CF0FA0EDBCFEEFFB0
:104D6000FB0EDBCFEDFFF5EC2AF0EE52F90EDBCFB8
:104D7000EFFF400EFFEC2BF0880E0EEC2CF0FC0E3B
:104D8000DB5003E0E8EC2AF002D012EC2BF0EA2230
:104D9000EF74DECF4BF0DDCF4CF04BC0F3FF4CC0D7
:104DA000F4FFE552E6EF2AF0E4EC2BF0FD0EDB50C9
:104DB00003E1C3EC2BF009D017EC2BF098EC2BF0AF
:104DC00017EC2BF0010F98EC2BF0E552E6EF2AF0F0
:104DD000CAEC2BF065A817D0DDEC2BF0400EEE16D8
:104DE000EE6AEE6AEE6ADDEC2BF0EE7CE8EC2AF07F
:104DF000EA22EF74400E4B6EDDEC2BF04B50EF16B9
:104E0000DDEC2BF0EF7CB4EF2BF00601D85123E161
:104E1000010ED86FD9511FE1010ED96F020EBC5D92
:104E200007E1E8DBEE52EF6AE5DBC80EEF6E120039
:104E3000BC0511E1CF6B07EC2BF0EE52400EEF6E8C
:104E4000E6DBA4EC2BF0E3DB840EEF6E010ECF6FFC
:104E5000B6DB800EEF6E12000601DA6BDB6B020E22
:104E6000BC5D06E103EC2CF0D7DB93EC2BF010D00B
:104E7000C0510401365D0601C1510401375904E2F5
:104E800036C4C0F637C4C1F65CD8B4DBC5DBB2DBD0
:104E9000C80EEF6E1200E4EC2BF0000EDE6E040E76
:104EA000DD6EC5DB040DF4CF4CF0D9CFE9FFDACFCE
:104EB000EAFFF350EE264C50ED2297DBEF9EFC0EFE
:104EC000DB5002E1AFDB01D083DBEA22DECFEEFF75
:104ED000DDCFEDFF8ADBEF9C88DB040EE926000EB8
:104EE000EA22EF8CE55272D365980601BFBF0DD060
:104EF000C4AF09D0020EBC6FDB5101E1ADDF06018A
:104F0000D96BD86B1200C3EF2BF0040130AF0DD07A
:104F10000601010EBC6FDA5101E19EDF0601D96B7B
:104F2000D86BD7510DE105EF27F00601020EBC6FDB
:104F300046DB840EEF6ED96BD86BD75101E165DF8C
:104F4000120041DB400EDF6E0601C05D000EC1594C
:104F50000AE2C0C6DFFFBB5102E1010E03D0BB0570
:104F600002E1020EBB6FDF504C6AE850C05DC06FBB
:104F70004C50C159C16F3EDBEE52DFCFEFFF380E10
:104F8000C96F040ECA6FBFB10DD0DF5017E0BDC6A8
:104F9000F6FFBEC6F7FFBD2B000EBE230800F5507E
:104FA00067DBF3D7DF500AE0BDC6E9FFBEC6EAFF04
:104FB000BD2B000EBE23EF505BDBF4D707D3E4EC30
:104FC0002BF025DBEE52EFCFDFFFDFCF4BF04B5066
:104FD0000601C55D000EC65902E2C5C6DFFFDF50FF
:104FE0004B6E4C6AE850C55DC56F4C50C659C66FD4
:104FF000010EDB6ADF50F36E010EDBCFF4FFF350DE
:10500000F45C16E2010EDB50EA6A380FE96E040E1A
:10501000EA22EF50E66EC2C6E9FFC3C6EAFFC22B22
:10502000000EC323E552E750EF6E010EDB2AE2D7F4
:10503000000ED880C555000EC6550DE2E4DBECDA53
:10504000E6DAEF50400B03E16EDBC80E02D06BDBFB
:10505000880EEF6E12D0B3DA840EEF6EC751C8110E
:1050600007E005D0C8C6FAFF0601C751F96EFADF9E
:105070000601C49FD75101E1C8DEE552A7D2A3DAE9
:105080000601BF8F77DB02E2E16AE552E16E4B5029
:10509000300EE66EE66AE66A000EE66E040EDBDAB5
:1050A00002E2E16AE552E16E4B50658CDF6A030E65
:1050B000DF5C02E2C6DAFBD7010EE66EE66AE66A5C
:1050C000AA0EE66E060EC7DA02E2E16AE552E16E6A
:1050D0004B50659C0601080EB56F040EB66F000EAE
:1050E000AB6F040EAC6FABC6ADF6AE6F32C4A9F6B3
:1050F000A95102E1100E10D0010EE66EE66AA90E6B
:10510000E66E060EE66E010E68DA02E2E16AE5522C
:10511000E16E4B500601200EA86F58D2800E04019C
:10512000305D38E10601C00EBF6F04013351030A40
:105130001AE0010A09E0030A2BE106010C0EBD6F1B
:105140007F0EBE6F120E1ED0E7DA930EF6267F0E8C
:10515000BEDA020E0601D9DAF5CFC0F6030ED5DAB3
:10516000F5CFC1F61200030E325D0FE2D5DA950ECF
:10517000F6267F0EACDABDC6F6FFBEC6F7FF080006
:10518000F5500601C06FC16B12000601BF6B120023
:105190000601BF6B120018DB0401386B396B30510C
:1051A0001F0B020A11E0030A0CE0010A1EE10601CE
:1051B000BF8F040138810601CB0517E10401388354
:1051C00014D00601BF8F11D00601BF8F040134BF78
:1051D00002D0E9DA01D0ECDA58DAF2DA06E005DAE0
:1051E000EF50040B02E0010E386F0601BFAF07D08D
:1051F000380EBD6F040EBE6FBF81020EC06FE55248
:10520000E5D10F0126A10CD002DAEF50800807E1AA
:10521000F1D9EF50840803E1FAD98C0EEF6E269194
:10522000629A12000F013685629865820601010EAE
:10523000CC6F31DA750ED1D902E2E16AE552E16E46
:105240004B5012000601CC6B26DA740EC6D902E26E
:10525000E16AE552E16E4B5065920F01369562A40A
:1052600002D06294FCD71200AED906012D0ED66F83
:10527000FD0ECD1539E17E0ECD15E8407F0B040DF6
:10528000F3CFABF6F4CFACF6000EAB27040EAC2395
:10529000ABC6ADF6ACC6AEF6AD75B9D9EF503C0BAA
:1052A000E842E8420D081EE1DF6A080EDF5C16E204
:1052B000AED9020EE926000ED5D9EF50E66EDF50CA
:1052C000EA6A300FE96E040EEA22E552E750EF6E0B
:1052D0009ED99FDAEE2AEF22DF2AE7D798D934DA6F
:1052E00009D807D027D805D0FD0ECD15040801E157
:1052F00030D86CD10601BB6BD76BDA6BDB6BCF6B35
:10530000BC6B78D9EF9EB57575D9EF9EB5750BDA84
:10531000EF9EBF6BC06BC16BC46BC56BC66B55D8C2
:10532000BAD9030E5AD902E2E16AE552E16E4B5056
:1053300074EF27F0020E0601BC5D02E1DFEF27F0FB
:10534000BC6BCF5104E13BD98C0EEF6E1200CF6BDA
:10535000120039D94FD9EF50400B01E0010EDF6E3A
:105360000601B575080EA85D0BE132C438FF0F01C8
:10537000385103E00601100E02D00601040EA86F9A
:10538000BC0513E137D948D9DCDD020E0601BB5D4F
:1053900003E130D9840E07D0DF5003E12BD9C80ECA
:1053A00002D028D9880EEF6E0FD0C4AF0CD0C751F1
:1053B000C81107E005D0C8C6FAFF0601C751F96E4B
:1053C000FADF0601C49FBC6B01D104013051600BB0
:1053D000E842E842E842E842E842000901E01200FF
:1053E00031510C0A4AE00B0A3FE00C0A31E0010A95
:1053F00022E00B0A1EE0020A1CE0030A18E0080A79
:1054000010E0010A0CE00F0A08E0030A01E01200B4
:105410000601BF8F080EA86F12008EEF28F03FEF35
:1054200028F00601A90EBD6F060EBE6F0CD0CBEFA3
:1054300028F03EEF2AF034510601BD6FBE6BAA0E74
:10544000BD27060EBE23BF81010EC06FBF8F1200A5
:105450000601BF8F04013451EA6AAA0FE96E060EF5
:10546000EA2232C4EFFF120016D9020EB6D802E2C9
:10547000E16AE552E16E4B5012001200A5D9E652E6
:10548000E652E6520401320510E130511F0B0009CB
:105490000CE10601BF8F030E0401315D04E106013A
:1054A000010ECB6F02D00601CB6B0401325101E03B
:1054B0007FD030511F0B020801E07AD034510F0B1E
:1054C000000901E175D034510F0B020871E3200E81
:1054D0000601A85D6DE1BF8F040134BF04D063D91C
:1054E000D4D8DFD803D064D9D0D8DFD8EA22020ECE
:1054F000EFCFDBFFF4D8010B02E1DF9401D0DF84B2
:1055000034BF02D050D901D053D9EA22DECFEEFF0A
:10551000DDCFEDFF030E315D0CE152D907E034BF62
:1055200002D0BFD801D0C1D8EA22EF82840E76D94A
:105530003FD0DF7445D90BE058D8EF9E56D8EF8C9A
:1055400009D902E2E16AE552E16E4B5002D04DD832
:10555000EF8CDF74C4D8020B02E132D912E00401EF
:1055600034BF02D09ED801D0A0D8EA22EF923B0EE1
:105570004B6E45D9EFD802E2E16AE552E16E4B503D
:1055800002D03B0E3CD9040134510F0B4C6A260F5C
:105590004B6E0F0E4C22030E4BC0DBFF040E4CC0B3
:1055A000DBFF030EDBCFE9FF040EDBCFEAFFEF905A
:1055B000050EE15C02E2E16AE552E16ED5D023D945
:1055C000C3D893EF2BF0E6D8E6521200E552CCD0C8
:1055D000FD0EEA6ADB34E7EF2BF0E66EE66A86EC56
:1055E0003DF04B6E060EE15C1200DECFE9FFDDCF31
:1055F000EAFF1200B5C6E9FFB6C6EAFF1200345151
:105600000F0BE96EEA6AD890E936EA361200ABC6AB
:10561000E9FFACC6EAFF1200FCD8380EEE6E040EAD
:10562000ED6E1200FD0EEA6ADB34EEEF2BF0FC0E9D
:10563000DB50E8244D6EFD0EDB50040DF3504D247D
:105640001200DF50D7D8EA22EF6ADF50CED8EA2224
:10565000EF6ADF2A1200E66EA4EC3EF04B6E050EF8
:10566000E15C1200EA22EE50EFCFEAFFE96E120091
:10567000E66EC9C6E9FFCAC6EAFFC92B000ECA23F7
:10568000E552E750EF6EDF061200EA22EECFDEFFB2
:10569000EDCFDDFF1200000EE66EE66AE66EE66A0A
:1056A000120034510F0BF5EF2BF034510F0BFAEFC2
:1056B0002BF04C224BC0DEFF4CC0DDFF1200FD0E74
:1056C000DBCFE6FF4BEC27F0E552E5521200F72264
:1056D0000900F5CFBDF60A00F5CFBEF61200D9508D
:1056E000020FE96E000EDA20EA6EEF501200160E7D
:1056F000396F9F0E376F7B0E366F1200010EE66E0C
:10570000E66A000EE66EE66A1200F76ABD25F66EDE
:10571000BE51F722080012003251F66EF76AD89097
:10572000F636F7361200ADC6E9FFAEC6EAFF120044
:10573000040DF3CF4BF0F4CF4CF0000E4B26040ECB
:10574000B8DF840E0EEF2CF064D8300EEE6E040E2F
:10575000ED6E1200020EE66EE66ADECFE6FFDDCFEA
:10576000E6FF050EEDEF2AF0E552E5CFDAFFE7CFD1
:10577000D9FF1200020EE66EE66AE66A270EE66EB2
:105780000F0E2BEF2BF01BDF8C0EEF6E33DF840E32
:10579000EF6E1200D9CFE6FFDACFE6FFE1CFD9FFF7
:1057A000E2CFDAFF12002BDFAF0EE926060E120061
:1057B00026DFB50EE926060E12000ADF32EF2BF0C7
:1057C00014DFEF50800B1200FEDEE6521200FE0BDB
:1057D000EA36E96EB50EE926060E1200FE0BEA3631
:1057E000E96EAF0EE926060E1200EA6AD30FE96EE3
:1057F000060E1200EA6AD00FE96E060E1200F5DE00
:10580000E850EF1612008FDFEE52400EEF6E93EF6E
:105810002BF0020EE926000EEA221200E6DEE85026
:04582000EF12120071
:0C5824004EEC31F0FB0EDBCFF3FFDB0697
:10583000F35000090AE09CEC31F0FA0E07EC32F06C
:10584000F3E14C1CF1E1010E01D0000E7DEF31F0CF
:105850004EEC31F03B0EE12402E3E168E652E16EEA
:10586000010EDB6A020EDB6AF90EDBCFF6FFFA0EE1
:10587000DBCFF7FFFB0EDBCFF8FF0800F550DF6E44
:10588000DF5002E1A1EF30F0250EDF5C02E094EF83
:1058900030F0030EDB6A040EDB6A050EDB6A060ECF
:1058A000DB6A070EDB6AB6EC30F02D0EDF5C0CE035
:1058B0002B0EDF5C09E0200EDF5C06E0230EDF5CD0
:1058C00003E0300EDF5C1AE1DF50300A14E0130A07
:1058D0000FE0030A0AE00B0A05E0060AE4E1030E02
:1058E000DB80E1D7030EDB82DED7030EDB84DBD760
:1058F000030EDB86D8D7030EDB88D5D72A0EDF5CF4
:105900001BE1B2EC30F000EC31F010E0030EDB8074
:105910003D683E68130EDBCF42F0140EDBCF43F040
:1059200048EC40F0040E3BC0DBFF03D0130EE9EC63
:1059300030F0B6EC30F00BD0090EDB6A57EC31F0EA
:1059400003E0CBEC31F0FAD7090EE9EC30F0030EAE
:10595000DBB0DB982E0EDF5C1BE1B6EC30F02A0EDC
:10596000DF5C0BE1B2EC30F000EC31F003E1130E40
:105970003BEC31F0B6EC30F00BD0090EDB6A57ECA3
:1059800031F003E0CBEC31F0FAD7090E3BEC31F00B
:10599000680EDF5C07E1B6EC30F0680EDF5C1DE1FD
:1059A000030E18D0740EDF5C17E07A0EDF5C14E093
:1059B000480EDF5C06E0540EDF5C03E05A0EDF5C4D
:1059C00002E1020E07D06C0EDF5C03E06A0EDF5CC2
:1059D00004E1010E8EEC31F0C9DBDF506E0A01E10B
:1059E0007FD31E0A01E192D1200A01E18FD13F0A43
:1059F00001E149D11A0A01E146D10D0A01E143D181
:105A0000200A01E140D13A0A01E13DD1200A01E139
:105A10003AD1260A01E135D10D0A01E132D11A0A43
:105A200001E1D9D0200A4AE0300A1FE0460A0EE020
:105A3000250A01E083D3D950F90FE96EFF0EDA2071
:105A4000EA6E010EEE5E000EEE5AEE5A9CEC31F05C
:105A5000250EE66E95DB03E14C1C01E169D398EC61
:105A600031F001E26BD3DB2A69D3080EDB6A040E46
:105A7000DB50010806E2040EDB0460EC31F0DB5081
:105A80008BDB080EDB5009E0030EDB50010B05E158
:105A900072DB01E04DD3080EDB6A64DBEFCFDFFF82
:105AA00010EC32F003E14C1C01E142D398EC31F0F0
:105AB00001E3DB2A60DB01E141D33AD3070EDB507F
:105AC00002080FE1DCEC31F0030EA3EC31F00E0E16
:105AD000EECFDBFF0F0EEECFDBFF100EEECFDBFFC6
:105AE00020D0F70EDBCF4EF0F80EDBCF4FF0020EDA
:105AF0004E5E000E4F5AF70E4EC0DBFFF80E4FC041
:105B0000DBFF4EC0E9FF4FC0EAFF93EC31F04D6A76
:105B10000E0E4BC0DBFF0F0E4CC0DBFF100E4DC056
:105B2000DBFF0E0EDBCFE6FF0F0EDBCFE6FF100E26
:105B3000DBCFE6FFCCEC3EF0E552E552E552130E2A
:105B40003CC0DBFF140E3DC0DBFF060EDB5005E062
:105B5000130ED7EC31F001E26ADBFBEC31F002E22C
:105B6000130E37DBBEEC31F006E0040ED7EC31F05B
:105B700002E2050E2EDB030EDBB005D0FCDA01E0FD
:105B8000D7D2080EDB6A090EDB6A0E0EDBCFF6FFFA
:105B90000F0EDBCFF7FF100EDBCFF8FF0800F5503C
:105BA000DF6EDF5014E001EC32F011E210EC32F065
:105BB00003E14C1C01E1BCD2BBDB01E3DB2A090E93
:105BC000DB2AD9500E0FE96E000ECBDBE7D7D3DA14
:105BD00001E1B4D2ADD2C6DA110EEECFDBFF120E68
:105BE000EDCFDBFF110EDBCFE6FF120EDBCFE6FFC2
:105BF000BEEC3EF0E552E552130EF3CFDBFF140E80
:105C0000F4CFDBFF060EDB5004E0130ED0DB01E225
:105C10000EDBFBEC31F002E2130EDBDAAFDB05E06A
:105C2000040EC5DB02E2050ED4DA030EDBB005D0AC
:105C3000A2DA01E07DD2080EDB6A090EDB6A110EE2
:105C4000DBCFE9FF120EDBCFEAFFEFCFDFFFDF5044
:105C500014E0D7DB12E2E4DB03E14C1C01E168D283
:105C600067DB01E3DB2A090EDB2A110EDB2ADBCF1F
:105C7000E9FF120EE8E3DB2AE6D77DDA01E15ED226
:105C800057D2030EDB8E070EDB0410E195DB040E0A
:105C90005ADB0A0EEECFDBFF0B0EEECFDBFF0C0E56
:105CA000EECFDBFF0D0EEECFDBFF6CD0070EDB502F
:105CB00003082CE1030EDBAE0DD0B2DA020E76DA69
:105CC000EFCF4BF04C6A4D6A4E6A4BAE39D04C6800
:105CD0004D6835D0F70EDBCF4CF0F80EDBCF4DF032
:105CE000020E4C5E000E4D5AF70E4CC0DBFFF80E54
:105CF0004DC0DBFF4CC0E9FF4DC0EAFFEFCF4BF0DA
:105D00000A0E4BC0DBFF0B0EDB6A38D0070EDB50F0
:105D1000020809E1030EDBAE04D059DB4DAE10D012
:105D20000ED055DB0DD0030EDBAE12D079DA020EA9
:105D30003DDAF9DA4D6A4E6A4CAE02D04D684E68D3
:105D4000E2DA0C0E4DC0DBFF0D0E4EC0DBFF1AD0A9
:105D5000F70EDBCF4DF0F80EDBCF4EF0020E4D5EAE
:105D6000000E4E5AF70E4DC0DBFFF80E4EC0DBFFA3
:105D70004DC0E9FF4EC0EAFFD6DAC5DA0C0EDB6A89
:105D80000D0EDB6A060EDB5005E1010EF36E050E0B
:105D9000F3CFDBFF150EDB6A160EDB6AD950370F27
:105DA0004B6E000EDA204C6E390E4BC0DBFF3A0E04
:105DB0004CC0DBFF380EDB6A080EDB6A0A0EAEDA77
:105DC000DF50780A12E0200A10E0280A0CE0200ACE
:105DD0000AE03F0A06E00D0A02E0200A08E1020E8E
:105DE00005D0080E03D0080EDF26100E97DA030E3A
:105DF000DBBE02D0DB92DB94DB50800B24E08ADA3E
:105E0000D890030EEB50000A08E6000EEE5C000E80
:105E1000EE58000EEE58000EEE5815E213DA406808
:105E200041684268436810EC40F00A0E37C0DBFF5F
:105E30000B0E38C0DBFF0C0E39C0DBFF0D0E3AC075
:105E4000DBFF2D0E08D0030EDBA202D02B0E03D0F9
:105E5000DBA408D0200EF36E170EF3CFDBFF150E78
:105E6000DB2A02D0170EDB6A050EDB5003E1B7D93F
:105E700001E189D0260E4B6E820E4C6E000E4D6EE7
:105E8000070EDBCF4EF04F6A506A516A4EC040F0A9
:105E90004FC041F050C042F051C043F0D3D99BEC09
:105EA00040F04B503724F36E4C503820F46E4D5078
:105EB0003920F86EF4CFF7FFF3CFF6FF0800090E94
:105EC000F5CFDBFF580EDF5C0FE1610EF36E090EBC
:105ED0007BD90AE3200E4B6E090EDBCFE7FF4B5058
:105EE000E75E090EE7CFDBFF070EDBCF4BF04C6A16
:105EF0004D6A4E6A0FDA4BC040F04CC041F04DC0C5
:105F000042F04EC043F0EECF3BF0EECF3CF0EECF90
:105F10003DF0EFCF3EF09BEC40F03EC0EDFF3DC0CA
:105F2000EDFF3CC0EDFF3BC0EFFF390EDBCFE9FFDB
:105F3000DB063A0EDBCFEAFF01E2DB06090EDBCF20
:105F4000EFFF150EDB2A4BD995E1030EDBA61DD022
:105F50006F0EDF5C06E1C1D918E3150EDB285BDAB2
:105F600014D0780EDF5C09E0580EDF5C06E0620EAC
:105F7000DF5C03E0420EDF5C08E1020EF36E160EFA
:105F8000F3CFDBFF02D0150EDB6A030EDB50100BE4
:105F90000EE0040EDBCF4BF0050EDB50D8804B54E7
:105FA00006E2060EDB5003E1040EDB5034DA95D92D
:105FB0000AE2050EDBCFE7FF150EDB50E75E050EAC
:105FC000E7CFDBFF02D0050EDB6A040EDBCF4BF020
:105FD000160E45D9D8804B5414E2160EDBCFE6FFDF
:105FE000150EDBCFE6FF040EDBCFE6FF050EDB5020
:105FF000E552E75CE552D880E754E552D880E75493
:106000005FD9030EDB50010B0BE1080EDB5008E0FB
:10601000B2D801E08DD0080EDB50BED8080EDB6A86
:10602000170EDB5007E088D9170EF1D903E14C1C9D
:1060300001E17ED0160EDB5016E07ED9300EE66E02
:106040009FD802E14C1C74E077D9DFCFE6FFCEEC9D
:106050003FF0E552E552E552F4CF4CF00001F31C5D
:1060600002E14C1C65E0050EDBCF4BF0160EDB5059
:10607000D8804B5409E2050EDBCFE7FF160EDB504C
:10608000E75E050EE7CFDBFF300EE66E050ECBD9DF
:106090004FE1390EDB2ADBCFE9FF3A0E01E3DB2AC1
:1060A000DBCFEAFF090EEFCFDBFFDB500EE044D978
:1060B000090EADD902E14C1C3BE0390EDB2ADBCFE7
:1060C000E9FF3A0EEDE3DB2AEBD755D831E1160EA6
:1060D000DBCFE6FF080EC3D8E552E7245DD82ED00B
:1060E000070EDB50030A1CE0010A14E0030A07E074
:1060F0007BD9DBCFEEFF020EDBCFEDFF1FD0F5D853
:10610000506A4EAE02D04F6850682CD8BCD850C0F0
:10611000EEFF14D0EAD84EBE4F6824D8B4D80ED0C3
:1061200063D9DBCFEFFF0AD07BD905E14C1C03E13B
:10613000F368F46810D0FCD801E3DB2A79D93DEF8D
:106140002CF0010EDBCF4BF0020EDBCF4CF04BC03E
:10615000F3FF4CC0F4FF3B0EE15C02E2E16AE55262
:10616000E16ECBD029D9020EA3EF31F061D908003E
:10617000F550DF6E1200200EE66E080E13EF32F0BF
:10618000CEEC3FF0E552E552E552F3CF4BF0F4CFC1
:106190004CF00001F31C12004B6E4C6AD950010FF9
:1061A0004DD94B50EE264C50ED2212004F5E000EA2
:1061B000505AF70E4FC0DBFFF80E50C0DBFF4FC048
:1061C000E9FF50C0EAFF1200DBCFF4FFF350F45CAC
:1061D0001200DB50E76E040EE7CFDBFF12000A0E61
:1061E000DBCF4BF00B0EDBCF4CF00C0EDBCF4DF0CA
:1061F0000D0EDBCF4EF04B504C104D104E101200D8
:10620000130EEECFDBFF140EEDCFDBFF130EDBCF53
:106210004BF0140EDBCF4CF00001800E4C1412003A
:10622000F70EDBCF4FF0F80EDBCF50F01200050E6B
:10623000DB50E66ED950130F01D9E552E750EE6EF0
:10624000ED6A12000A0EDBCF3BF00B0EDBCF3CF009
:106250000C0EDBCF3DF00D0EDBCF3EF01200DBCF9E
:10626000E6FF150EDBCFE6FF050EDB50E552E72417
:10627000E552E7241200DB50CED8010EF36E060E75
:10628000F3CFDBFF1200EE50EFCFEAFFE96E4DC017
:10629000EEFF4EC0EEFF4FC0EEFF1200D9CFE6FF7B
:1062A000DACFE6FFE1CFD9FFE2CFDAFF1200DFCF8E
:1062B000E6FFE66A89EC40F0E552E552F350120041
:1062C000E76E080EE7CFDBFF1200EECF4BF0EECF0C
:1062D0004CF0EFCF4DF04E6A1200050EDBCF4BF0C5
:1062E000150EDB50D8804B541200010EDBCF4DF061
:1062F000020EDBCF4EF04F6A1200E552E5CFDAFF17
:10630000E7CFD9FF12000A0E4BC0DBFF0B0E4CC0CB
:10631000DBFF1200D9500A0F1EEF32F0F36E070EAA
:10632000F3CFDBFF1200EECF4BF0EFCF4CF01200BB
:10633000010EDB2A020E1200FC0EDBCFE6FFFD0E83
:10634000DBCFE6FF12004B5E000E4C5AF70E4BC03F
:10635000DBFFF80E4CC0DBFF4BC0E9FF4CC0EAFF8F
:106360001200DA20EA6EEF2AEECFF6FF000EEF22DF
:10637000EECFF7FFEF22EECFF8FF1200040EDBCFD7
:10638000E6FF130EDB50E552E75C9ADFDB5004DFDB
:10639000060EDB501200090EDB500A0DF350DF240D
:1063A000D00FE76E090EE7CFDBFFB6EF30F0DB5022
:1063B000F36E050EE4EF30F0F70EDBCF4BF0F80E86
:1063C000DBCF4CF01200DFCFE6FFC0EF30F028DF6C
:1063D000030EECDE65EF31F012EC2CF0E552E552E5
:1063E000E552E55200091200BDDEEE50EFCFEAFFA4
:1063F000E96E010E1200130EDB50F36E040EE4EF93
:1064000030F0040EDB50F36E090EE4EF30F0DBCF1A
:10641000E6FFC0EF30F0E76E050EE7CFDBFF1200BE
:106420008BDFE3EF31F0DBCFE6FF86DFECEF31F01F
:10643000D950F90FE96EFF0EB1EF31F0E96E000EA1
:06644000DA20EA6E1200F2
:0A644600CFDB080EE12402E3E16859
:10645000E652E16EDADB3DEC3FF04B6E080EE15C9C
:1064600002E2E16AE552E16E4B50E668E668E66AF0
:10647000E66AE66A900EE66EE66AE66AD9EC3DF0F8
:106480004B6E080EE15C02E2E16AE552E16E4B50B0
:10649000BCDB46EC3CF04B6E080EE15C02E2E16ACC
:1064A000E552E16E4B50080EE15C02E2E16AE55212
:1064B000E16EA5D398DB100EE12402E3E168E65219
:1064C000E16E010EE66EE66ABCDB02E2E16AE552CD
:1064D000E16E4B50F20EDF6EDE52010EDD6ED40E19
:1064E000E9DBC00EF36E030EF3CFDBFF010E68ECA9
:1064F00036F0860E6DEC36F0A00E72EC36F0FE0E25
:10650000F36E070EF3CFDBFF790EF36E080EF3CFB9
:10651000DBFF600EF36E090EF3CFDBFFB2DB0A0E7A
:10652000A9DB02E2E16AE55286DBDD6E7F0EECDA82
:1065300002E2E16AE552E16E4B50F10EDF6EDE528F
:10654000030EDD6EE80EB6DB030EDB6EE80EC0DB7D
:10655000030EC3DBE80ED4DB02E2E16AE552D9DACE
:1065600002E2E16AE552E16E4B50FD0EDF6EFBDAAE
:1065700002E2E16AE55289DB02E2E16AE552C9DA48
:1065800002E2E16AE552E16E4B50FE0EDF6EEBDA9D
:1065900002E2E16AE55279DB02E2E16AE5527FDB81
:1065A00002E2E16AE552E16E4B50FC0EDF6EDE5214
:1065B000C80EDD6E66DB020E5DDB02E2E16AE552CB
:1065C0006EDB02E2E16AE55260DB02E2E16AE5527B
:1065D00066DB02E2E16AE552E16E4B50DF68C3DA46
:1065E00002E2E16AE552E16E4B50E66A010EE66EA8
:1065F00028DB02E2E16AE552E16E4B50100EE15CED
:1066000002E2E16AE552E16EFAD20E01B96B900E38
:10661000BA6F1200E8DA1D0EE12402E3E168E652E7
:10662000E16EDF6A1C5001E1FFD065DB010E56DA36
:1066300002E2E16AE552E16E4F50DF50F10A01E1FA
:106640009FD0030A57E0080A4BE0010A36E0070A28
:1066500022E0010A14E0030A0CE0010A06E0BCDAB9
:10666000030E3CDA01E3C2D0BFD00E01B76BB86BAA
:1066700010D0000EE66EE66A010EE66E04D0000E43
:10668000E66EE66AE66A49EC20F0E552E552E5522C
:106690000E01B92BC7D0A0DA020E20DA02E2E16ABD
:1066A000E552E16E4F50020EBADA51DA02E2E16AC7
:1066B000E552E16E4B50020EB3D08EDA030E0EDAC5
:1066C00002E2E16AE552F1DA080E1F0B02E04FDA4E
:1066D000FEE1030EF4DA66DA3ADA01E39ED09BD0EB
:1066E0007BDA0D0EFBD902E2E16AE552E16E4F5012
:1066F0000D0E96D071DA0A0EF1D902E2E16AE55286
:10670000D4DA100E1F0B02E032DAFEE1030EEFDAEC
:1067100002E09CDAFEE112DA040E36DA43DA050E04
:106720002DDA4BAE03D04C684D684E68100E1F0B2F
:1067300002E01DDAFEE1060EDADA02E087DAFEE1B7
:10674000FDD9070E21DA3BDA080E18DA4BAE03D07A
:106750004C684D684E68100E1F0B02E008DAFEE12F
:10676000090EC5DA02E072DAFEE1E8D90A0E0CDAA7
:106770009FD902E2E16AE552E16E4B500A0E50D019
:106780002BDA070EABD902E2E16AE5528EDA080E87
:106790001F0B02E0ECD9FEE1030E91DA03DA040EDE
:1067A000EDD94BAE03D04C684D684E68080E1F0BF8
:1067B00002E0DDD9FEE1050E82DA01DA060EDED94D
:1067C0004BAE03D04C684D684E68080E1F0B02E0BC
:1067D000CED9FEE1070E73DA6BD902E2E16AE55227
:1067E000E16E4B50070E1CD0E16AE552E16E4F504E
:1067F000010E15DA020EC2D94BAE03D04C684D68BB
:106800004E68DDD9030EBAD94BAE03D04C684D6843
:106810004E684ED902E2E16AE552E16E4B50030E3A
:106820000E01B927000EBA231D0EE15C02E2E16AF7
:10683000E552E16EE4D10E01B851040A28E0070ADE
:106840001CE0010A0CE0030A05E0010A01E0120065
:106850008C9401D08C840201F76BF86B120002015A
:10686000F751F81104E1640EF76FF86B18D0320E8F
:10687000F75D000EF8591CE219D00201F751F8112A
:106880000AE0E80EF75D030EF85912E20FD002019C
:10689000F751F81106E1D00EF76F070EF86F8C84F0
:1068A00012009E0EF75D070EF85902E28C9412005A
:1068B00012000E01B76BB86B0201F569F6690E01A3
:1068C000B96B900EBA6F120080BE0BD00201D00ED1
:1068D000D880F555070EF6554AE20E01010EB86F45
:1068E00046D00201640ED880F555000EF6551EE222
:1068F000D00EF55D070EF65919E20E01B751030AE5
:1069000010E0010A0AE0030A2DE0010A2DE1020E5F
:10691000B76F030EB86F79DE27D0030EB76F040E82
:106920001FD0030EB86F020EB76F1ED0D00ED880E6
:10693000F555070EF65518E2F51D01E1F61D14E0B8
:106940000E01B751030A0EE0010A0CE0030A0AE047
:10695000010A0AE178DDAEDD0E01010EB76F020E0D
:10696000B86F02D0B76BB86B0201F56BF66B63DFE3
:10697000020E0E01B75D01E14DDE120034D9E65280
:10698000DF6AA684F2AE03D0F29E010EDF6E550ED2
:10699000A76EAA0EA76EA682A694DF5002E0F28E22
:1069A000DF6AE5522CD1D9CFE6FFDACFE6FFE1CF9F
:1069B000D9FFE2CFDAFFE652E652E652E652F80E8F
:1069C000DB0407E10E01B96B900EBA6F0E01400EA9
:1069D000BB6F000EB9CEDBFF010EBACEDBFF020E9D
:1069E000DB6A030EDB6A020EDB50F86E010EDB5031
:1069F000F76EDF50F66ED950FC0FE96EFF0EDA200D
:106A0000EA6EEE50ED1033E0FA0EDBCFE9FFDB2A41
:106A1000FB0EDBCFEAFF01E3DB2AEF50F56E0E0140
:106A2000BB07FC0EDB06FD0E01E2DB060E01B92BF7
:106A3000000EBA230E01BB5118E10C009FDF0E01BE
:106A4000400EBB6F000EB9CEDBFF010EBACEDBFFEE
:106A5000020EDB6A030EDB6A020EDB50F86E010EDB
:106A6000DB50F76EDF50F66E01D00D00C4D7F90E83
:106A7000DB0412E1400E0E01BB5D0EE00E01BB51C6
:106A80000AE008000E01BB070E01BB5102E00D0039
:106A900001D00C00F3D772DF040EE15C02E2E16A80
:106AA000E552E16EE552E5CFDAFFE7CFD9FF1200FC
:106AB000190E4BC0DBFF1A0E4CC0DBFF1B0E4DC086
:106AC000DBFF1C0E4EC0DBFFD950190FC6D8D950C2
