:06000000D1EF06F0120032
:0600080004EF08F01200F5
:100018000CEF08F012001DEE00F02DEE00F0F86A6B
:06002800EDEF06F01200EE
:1000300000003E0E006E016AFC0E026E036A046A46
:10004000076808680968066A1200D9CFE6FFE1CFA1
:10005000D9FFE65204501EE1040108BF1AD0400E39
:10006000E66E600EE66E000EE66E95EC06F0E5526A
:10007000E552E552010E046EDF6A400EDF5C09E2D4
:10008000DF50EA6AA00FE96E000EEA22EF6ADF2A6B
:10009000F4D717D100016051080A01E10DD10F0A10
:1000A00001E1D3D0010A01E1CAD0030A67E0010AE5
:1000B00058E0070A44E0010A01E003D10001020E02
:1000C000A06F00013A0EA16F0001010EA26F0001A6
:1000D000010EA36F0001A46B100EA56FA66BA76B9A
:1000E00001C0A8F002C0A9F003C0AAF0100E0001E0
:1000F000A95F000E0001AA5B0001AB6B0001030EBB
:10010000AC6F0001F80EAD6FAE69AF6BB06B000164
:10011000080EB16FB26BB36BB46B0001B56904012B
:100120000CBF0CD0400EE66EA00EE66E000EE66E22
:100130005BEC06F0E552E552E552046AC2D00001DC
:10014000615107E13F0E006EF80E016E0268036A0E
:1001500006D03E0E006E016AFC0E026E036A046A4F
:10016000B0D0040E056E0028055C06E20400AED88F
:10017000F0EC04F0052AF7D7046AA3D0E868071862
:1001800005E1E868081802E1E868091806E161C0BD
:1001900007F062C008F063C009F007500001611960
:1001A00008E108500001621904E1095000016319D7
:1001B00000E143E1DF6A00016551DF5C3EE2000ED1
:1001C000075C100E0858000E09582CE300285B6EDF
:1001D0005C6A0A0ED8905B365C36E806FBE15D6A25
:1001E0005CBE5D685B50075C5C5008585D50095808
:1001F00019E23A0E0001D8806555DF24EA6A660FDD
:10020000E96E000EEA22EF50E66E0650E96EEA6AE9
:10021000E9BEEA680A0EE926000EEA22E552E75036
:10022000EF6E062A072A000E0822000E09223A0E57
:10023000065C01E15ED8DF2ABED7046A42D059D8F5
:10024000076808680968046A3CD00001070EA06FBF
:1002500061C0A1F062C0A2F063C0A3F064C0A4F0CA
:1002600065C0A5F061C0F6FF62C0F7FF63C0F8FF8C
:10027000DF6A00016551DF5C0FE209003A0E000100
:10028000D8806555DF24EA6AA60FE96E000EEA22DF
:10029000F5CFEFFFDF2AEDD704010CBF0CD0400EE5
:1002A000E66EA00EE66E000EE66E5BEC06F0E55222
:1002B000E552E552046A05D06592656A68D8FF0088
:1002C00000D0E552E552E7CFD9FF1200F66A05509B
:1002D000F76EF86AD890F736F836F736F836140E17
:1002E000A66EF29E550EA76EAA0EA76EA682A694C3
:1002F0001200D9CFE6FFE1CFD9FFE652DF6A000E48
:10030000E76E0618E8AE02D0063403D0E750D88076
:10031000065436E206505B6E5C6A5D6A5BAE02D0E4
:100320005C685D685B50075CF66E5C500858F76E61
:100330005D500958F86EDF50EA6A0A0FE96E000E48
:10034000EA22EF50F56E0D00DF2A0606065009E09E
:10035000DF50EA6A0A0FE96E000EEA22EF50F56EEE
:1003600001D0F5680C00DF2A240EA66EF29E550E11
:10037000A76EAA0EA76EA682065001E00606BFD79A
:10038000A694066AE552E552E7CFD9FF1200D9CF0D
:10039000E6FFE1CFD9FFE652DF6AFF0EDF5C0AE23B
:1003A000E868E85005E0E80600D000D000D0F9D7B2
:1003B000DF2AF3D7E552E552E7CFD9FF1200D9CFB4
:1003C000E6FFE1CFD9FFE652645032E162960401C4
:1003D00000513C0BE842E8420D0828E1180E0219D2
:1003E00023E1040E031920E1100E026F040E036FC7
:1003F000DF6ADF505B6E5C6A080E5B5C000E5C5867
:1004000013E2DF50EA6A180FE96E040EEA22EF5099
:10041000E66EDF50EA6A100FE96E040EEA22E5523A
:10042000E750EF6EDF2AE5D711D80AD046D808D0BA
:10043000040E645C03E162965CD802D0000E01D029
:10044000010EE552E552E7CFD9FF1200D9CFE6FF02
:10045000E1CFD9FFE652040104BF046B556A516A2B
:10046000526A536A546A87EC03F0DF6ADF505B6EAE
:100470005C6A010E5B5C000E5C5819E2525017E199
:10048000F76ADF34FE0BF736F66E5A0EF6260F0EBD
:10049000F7220900F5CF5BF00800F5CF5CF004D03F
:1004A0005CC0FAFF5B50F96EFBDFDF2ADFD7EDD8C7
:1004B000E552E552E7CFD9FF1200020E515C0EE182
:1004C000A7D80401180E026F040E036F080E016F07
:1004D00000BD02D0C80E0BD0880E09D014D904017B
:1004E000080E016F100E026F040E036F8C0E006F6A
:1004F0001200040E575C0AE112C438FF0F01385194
:10050000000802E2050E01D0030E576E51040FE100
:1005100010D8020E555C03E10401840E06D00401DC
:1005200004BD02D0C80E01D0880E046F120083EF04
:1005300003F0D9CFE6FFE1CFD9FF020EE126080E86
:10054000535C000E54580DE253C0DEFF54C0DDFF73
:10055000555002E1010E03D0550406E1020E556E1E
:1005600003D0080EDE6EDD6A040104930491010ECF
:10057000DB500413DFCF05F4DE50535EDD50545AD8
:100580000001180EE26F040EE36F58A21CD0D9CF01
:10059000E9FFDACFEAFFEE50ED1030E0E0C0F6FF01
:1005A000E1C0F7FF0800F550E2C0E9FFE3C0EAFF51
:1005B000EF6EE22B000EE323E02BE123DF06010EBA
:1005C000E6E2DB06E4D7D9CFE9FFDACFEAFFEE5067
:1005D000ED1014E0E0C0E9FFE1C0EAFFEF50E2C037
:1005E000E9FFE3C0EAFFEF6EE22B000EE323E02B0E
:1005F000E123DF06010EE7E2DB06E5D7020EE15C50
:1006000002E2E16AE552E16EE552E7CFD9FF12005E
:10061000D9CFE6FFE1CFD9FF020EE126030E040198
:100620000015E76E010EE7CFDBFF01C4DFFFDE50F0
:100630005326DD5054220001180EE06F040EE16FC6
:10064000D9CFE9FFDACFEAFFEE50ED1014E0E0C0B9
:10065000E9FFE1C0EAFFEF50E2C0E9FFE3C0EAFFD3
:10066000EF6EE22B000EE323E02BE123DF06010E09
:10067000E7E2DB06E5D7020EE15C02E2E16AE55261
:10068000E16EE552E7CFD9FF1200659852500BE1B9
:100690000401080E016F100E026F040E036F840E2A
:1006A000006F04011ED0040110AF1DD05350165D21
:1006B0005450175904E216C453F017C454F039DFEC
:1006C000010E516E0401080E016F100E026F040E30
:1006D000036F800E006F0401180E066F040E076F83
:1006E000C80E046F1200020E516E0401056BC80E95
:1006F000046F0401080E016F180E026F040E036FE1
:10070000C80E006F1200516A0401046B120004014C
:100710001051600BE842E842E842E842E842000932
:1007200001E012001151070A43E00B0A41E0070AF9
:1007300034E0010A24E00B0A20E0020A1EE0030A6A
:100740001AE0080A10E0010A0CE00F0A08E0030AA8
:1007500001E01200010E526E040E576E1200D9EF26
:1007600003F029EF04F0010E526E0001590EE06F04
:10077000000EE16F0ED04DEF04F08EEF04F0010E8D
:10078000526E14510001E06FE16B5A0EE027000E2B
:10079000E1235892010E536E1200010E526E145155
:1007A000EA6A5A0FE96E000EEA2212C4EFFF120045
:1007B0001200800E0401105D4BE11351030A2DE07D
:1007C000010A0BE0030A43E1010E526E00019A0E8A
:1007D000E06F0E0EE16F120E38D0010E526E125104
:1007E000F66EF76AD890F636F736500EF6260F0EEC
:1007F000F7220900F5CFE0F00A00F5CFE1F0020E94
:100800000001F76AE025F66EE151F7220900F5CF05
:1008100053F00A00F5CF54F01AD0010E526E125167
:10082000F66EF76AD890F636F736540EF6260F0EA7
:10083000F7220900F5CFE0F00A00F5CFE1F0E0C0C3
:10084000F6FFE1C0F7FF0800F550536E546A588276
:100850001200010E526E0F0EE66E270EE66E0F0EA0
:10086000E66EC9EC05F0E552E552E552010EE66E82
:100870005A0EE66E000EE66EC9EC05F0E552E55242
:10088000E55212C459F00401125103E1050E576EEE
:100890001200060E576E46EF06F00401186B196B36
:1008A000040110511F0B020A0EE0030A09E0010ABD
:1008B0002AE1010E526E58A026D00401188323D0DD
:1008C000010E526E20D0010E526E14510F0B080D06
:1008D000F3505C6A000F5B6E040E5C221451800BB7
:1008E00001E0010E040DF35000015B24E26F000EE5
:1008F0005C20E36FE2C0E9FFEA6EEF50040B03E017
:100900000401010E186F520408E10001180EE06F97
:10091000040EE16F5892020E536E1200040112058C
:100920000CE110511F0B000908E1010E526E030E7D
:10093000115D02E1588001D05890125134E11051FC
:100940001F0B020830E114510F0B00092CE0010EBF
:10095000526E14510F0B080DF3505C6A000F5B6E62
:10096000040E5C221451800B01E0010E040DF350C3
:1009700000015B24E26F000E5C20E36F030E0401B4
:10098000115D02E1840E03D014AF07D0400EE2C027
:10099000E9FFE3C0EAFFEF6E1200880EE2C0E9FF54
:1009A000E3C0EAFFEF6E120065A60CD8570409E118
:1009B00065BA07D0626A0F01366B36813689020E3E
:1009C000576E1200656A0F01366B6586010E576E11
:1009D0001200656A0F01366B576A1200E9EF04F0E6
:1009E000575001E112006250040B05E00F0136512F
:1009F000040B01E083D865B212006250010B05E0E0
:100A00000F013651010B01E093D86250100B05E045
:100A10000F013651100B01E01FD86250200B05E08A
:100A20000F013651200B01E071D8030E575C01E233
:100A30001200566A040E565C0EE26250080B0BE080
:100A40000F013651080B07E0DFEC01F0000901E16E
:100A50006296562AEFD71200D9CFE6FFE1CFD9FF31
:100A6000020EE12636CFDFFF0F01040E366F6298CB
:100A700065828C50040B01E0010E5B6E8C50080BFC
:100A800001E0010E5B10E76E010EE7CFDBFF8C96F5
:100A90008C94A198A0880300A150100B05E1D050C0
:100AA000080B02E10300F8D7A098DF500F013613BE
:100AB000010EDB50E8B08C86E8A08C96010EDB506E
:100AC000E8B08C84E8A08C94D50E4F6E020E506E68
:100AD0004FC05BF050C05CF04F06000E505A5B50A8
:100AE0005C1002E00400F4D7020EE15C02E2E16A6D
:100AF000E552E16EE552E7CFD9FF120065920F0192
:100B0000369562A402D06294FCD712000F0126A190
:100B10000DD0800E0401005D07E1840E0401045D28
:100B200003E104018C0E006F0F012691629A1200FE
:100B3000636A626A0F019F0E376F0F017B0E366F7B
:100B40000F01386B0F0EE66E270EE66E0F0EE66E87
:100B500020D8E552E552E5520F01160E266F62A627
:100B600005D0629600D000D00000F9D7659883ECDC
:100B700003F00401080E016F0401100E026F040E51
:100B8000036F04018C0E006F5890596A030E576E64
:100B90001200D9CFE6FFE1CFD9FFFD0EDBCFE9FF91
:100BA000FE0EDBCFEAFFFC0EDB5004E0EE6AFC0E2B
:100BB000DB06F9D7E552E7CFD9FF12000401105147
:100BC0001F0B010801E01200145101E01200060E93
:100BD000115D21E11351230A1DE0010A0DE0030A12
:100BE00019E1020E526E590405E10001BE0EE06FDC
:100BF0000E0EE16F090E0CD0020E526E590405E183
:100C00000001330EE06F0F0EE16F590403E11D0E7A
:100C1000536E546A588204011051600BE842E84256
:100C2000E842E842E842010801E0120011510B0AD3
:100C300026E0080A19E0090A12E0080A09E00B0A8E
:100C400005E0080A01E0120044EF06F045EF06F067
:100C5000020E526E00014A0EE06F000E0BD0020E23
:100C6000526E13C44AF01200020E526E00014B0E77
:100C7000E06F000EE16F5892010E536E1200020EEB
:100C8000526E12C44BF01200120012004C6A0F0197
:100C90001E0E276F0401400E096F200E0A6F040E0E
:100CA0000B6F880E086F0401600E0E6F040E0F6F3D
:100CB000400E0C6F1200D9CFE6FFE1CFD9FFE6520C
:100CC000FC0EDB50400805E2400EF36EFC0EF3CF45
:100CD000DBFFDF6AFC0EDB50DF5C19E2DF50E76E02
:100CE000FD0EDBCFE9FFFE0EDBCFEAFFE750E92682
:100CF000000EEA22EF50E66EDF50EA6A600FE96EFE
:100D0000040EEA22E552E750EF6EDF2AE3D7FC0E2D
:100D1000DBCF0DF4400E04010C170C7D880E0C1374
:100D2000E552E552E7CFD9FF1200D9CFE6FFE1CF78
:100D3000D9FF4C6A040108BF2FD0FC0EDBCF5BF05B
:100D40000951D8805B5403E2FC0E09C4DBFF4C6AF6
:100D5000FC0EDB504C5C19E24C50EA6A200FE96E45
:100D6000040EEA22EF50E66E4C50E76EFD0EDBCF2C
:100D7000E9FFFE0EDBCFEAFFE750E926000EEA228C
:100D8000E552E750EF6E4C2AE3D70401400E096F9D
:100D90000817087D880E08134C50E552E7CFD9FF9D
:100DA00012001DEE00F02DEE00F0F86AF66A100E4B
:100DB000F76E0800F550FF0808E1010EF66E100E00
:100DC000F76E0800F550FF0806E080AE02D000EF95
:100DD00008F080AEFED701D812000DD8040034D838
:100DE00037D8060E575C05E16550020B02E125EC91
:100DF00000F0F4D71200600ED36E9B8C580E4F6E2D
:100E0000020E506E4FC05BF050C05CF04F06000EFB
:100E1000505A5B505C10F6E165A604D06592656A95
:100E2000C7EC01F00F01140E396F576A586A596AFE
:100E300019EC00F04D6A4E6A8C968C9495969594B8
:100E40000F01486B496B1200D4EC04F0F0EF04F092
:100E50004D504E1004E1100E4D6E270E4E6E4D0695
:100E6000000E4E5A060E575C02E28C868C94060EDB
:100E7000575C12E14D504E100FE10001E65102E1C6
:100E80008C868C94030EE65D02E18C968C84E62BB6
:100E9000E651030801E2E66B1200120100020000B5
:100EA0000008D8043C0002000102000109022900E8
:100EB000010100C032090400000203000000092102
:100EC00011010001221D00070581034000010705F3
:100ED00001034000010403090434034D0069006369
:100EE0000072006F00630068006900700020005409
:100EF000006500630068006E006F006C006F0067A3
:100F0000007900200049006E0063002E002603488F
:100F100000490044002000550053004200200042D8
:100F2000006F006F0074006C006F0061006400656A
:100F30000072000600FF0901A101190129401500F6
:100F400026FF00750895408100190129409100C0D5
:100F5000AC0EAC0ED50ED90E0D0FBC0BC00EF36E41
:100F600000EE00F00E0E01D81200EA6002D0EE6A28
:0C0F7000FCD7F350E9601200EE6AFCD7D9
:0610000023EF58F012007E
:061008007FEF1FF0120053
:0610180022EF08F01200B7
:10102A000200AAB0000000050000E1000000A8B01C
:10103A000000BC0E000002000000D8CFE4FFE0CFA1
:10104A00E4FFE46EE9CFE4FFEACFE4FFF3CFE4FF85
:10105A00F4CFE4FFE652D9CFE6FFDACFE6FFE1CFDD
:10106A00D9FFE2CFDAFFE652E652E652E652020E24
:10107A00DB6A030EDB6AA4A6F7D2A4960E01002B44
:10108A000E01AB510E01005D01E255D1006B0E015C
:10109A00A951EA6A310FE96E0E0EEA22EF500E01EB
:1010AA00EA6AAC25E96EAD51EA22EF6A79907B6A69
:1010BA007A6A0E01A92B0E01AA510E01A95D01E35C
:1010CA00A96BA951E96EEA6AD890E936EA36010EA7
:1010DA00E9260E0EEA22EE50ED1001E12CD1A951BB
:1010EA00E96EEA6AD890E936EA36490EE9260E0E22
:1010FA00EA22EECF57F0EFCF58F0A951E96EEA6A2B
:10110A00D890E936EA36010EE9260E0EEA22EECF2B
:10111A0059F0EFCF5AF05950571802E15A5058185F
:10112A0001E1CBD0A951E96EEA6AD890E936EA36EC
:10113A00790EE9260E0EEA22EE50ED1001E1A1D059
:10114A00A951E96EEA6AD890E936EA36490EE926E3
:10115A000E0EEA22EECF59F0EFCF5AF0A951E96EFE
:10116A00EA6AD890E936EA36010EE9260E0EEA2234
:10117A00EE50595C576EEE505A58586E020E57C0D0
:10118A00DBFF030E58C0DBFF020EDBCF57F0030E66
:10119A00DBCF58F058343BE257500008000E585441
:1011AA0036E2020EDBCF57F0030EDBCF58F0A9511F
:1011BA00E96EEA6AD890E936EA36790EE9260E0E21
:1011CA00EA22EECF59F0EFCF5AF05750595C5850F7
:1011DA005A5857E2A951E96EEA6AD890E936EA36CE
:1011EA00790EE9260E0EEA22EECF57F0EFCF58F02D
:1011FA00A951E96EEA6AD890E936EA36010EE9267B
:10120A000E0EEA225750EE265850ED2256D0020E04
:10121A00DBCF57F0030EDBCF58F0576C581E000E89
:10122A005822A951E96EEA6AD890E936EA36790E67
:10123A00E9260E0EEA22EECF59F0EFCF5AF05750B8
:10124A00595C58505A581DE2A951E96EEA6AD89079
:10125A00E936EA36790EE9260E0EEA22EECF57F083
:10126A00EFCF58F0A951E96EEA6AD890E936EA3622
:10127A00010EE9260E0EEA225750EE5E5850ED5A3C
:10128A001CD0A951E96EEA6AD890E936EA36490EC5
:10129A00E9260E0EEA22EECF57F0EFCF58F0A95109
:1012AA00E96EEA6AD890E936EA36010EE9260E0EA8
:1012BA00EA2257C0EEFF58C0EDFFA951EA6A310F82
:1012CA00E96E0E0EEA22EF500E01EA6AAC25E96ECB
:1012DA00AD51EA22120EEF6EF29E0E01A951E96E8D
:1012EA00EA6AD890E936EA36010EE9260E0EEA22B3
:1012FA00EECF57F0EFCF58F058C057F0586A575012
:10130A00B66EA951E96EEA6AD890E936EA36010E54
:10131A00E9260E0EEA22EECF57F0EFCF58F05750DB
:10132A00B56EF00EB4140009B46EF00EB4140909C7
:10133A00B46E7980F28E000ED8801F54000E2054AD
:10134A002EE22D2A000E2E221F502D5C20502E58E0
:10135A0026E32D6A2E6A030E235C1FE22150EA6AF5
:10136A00200FE96E010EEA2280CFEFFF2150EA6AD0
:10137A00230FE96E010EEA2281CFEFFF2150EA6ABC
:10138A00260FE96E010EEA2282CFEFFF212A030E11
:10139A00215C01E3216A232A02D01F6A206A000E17
:1013AA00D8802454000E25541CE2000ED8803354F1
:1013BA00000E345416E22F2A000E302224502F5CDD
:1013CA00255030580EE32F6A306A030E285C07E274
:1013DA00262A030E265C01E3266A282A02D0246AFA
:1013EA00256A335034100BE0050E325C07E3C18CDA
:1013FA009E9C9D8CC280C282326A01D0322A05012B
:10140A00005101E11DD1DE6ADD6ADECF57F0DDCF82
:10141A0058F0040E575C000E585801E311D1DECF84
:10142A00E9FFDDCFEAFF010ED890E936EA36E80691
:10143A00FBE1010EE926050EEA22EE50ED1001E16C
:10144A00D3D0DECFE9FFDDCFEAFF010ED890E9362F
:10145A00EA36E806FBE1110EE926050EEA22EE500D
:10146A00ED1026E1D9CFE9FFDACFEAFFEE50ED1011
:10147A0001E18180D9CFE9FFDACFEAFF010EEE1848
:10148A0003E1ED5001E18182D9CFE9FFDACFEAFF2A
:10149A00020EEE1803E1ED5001E18184D9CFE9FF94
:1014AA00DACFEAFF030EEE1803E1ED5001E181867F
:1014BA00DECFE9FFDDCFEAFF010ED890E936EA3642
:1014CA00E806FBE1110EE926050EEA22EECF57F0F7
:1014DA00EFCF58F0DECFE9FFDDCFEAFF010ED8905B
:1014EA00E936EA36E806FBE1010EE926050EEA22AC
:1014FA00EECF59F0EFCF5AF05950571829E15A5008
:10150A00581826E1D9CFE9FFDACFEAFFEE50ED10FD
:10151A0001E18190D9CFE9FFDACFEAFF010EEE1897
:10152A0003E1ED5001E18192D9CFE9FFDACFEAFF79
:10153A00020EEE1803E1ED5001E18194D9CFE9FFE3
:10154A00DACFEAFF030EEE1803E1ED5001E18196CE
:10155A00DECFE9FFDDCFEAFF010ED890E936EA36A1
:10156A00E806FBE1110EE926050EEA22EE2A000E34
:10157A00EF22DECFE9FFDDCFEAFF010ED890E93690
:10158A00EA36E806FBE1110EE926050EEA22EECF5D
:10159A0057F0EFCF58F0DECFE9FFDDCFEAFF010EBB
:1015AA00D890E936EA36E806FBE1090EE926050E87
:1015BA00EA22EECF59F0EFCF5AF0595057183AE1D4
:1015CA005A50581837E1DECFE9FFDDCFEAFF010EA6
:1015DA00D890E936EA36E806FBE1110EE926050E4F
:1015EA00EA22EE6AED6A26D0D9CFE9FFDACFEAFF1E
:1015FA00EE50ED1001E18190D9CFE9FFDACFEAFF91
:10160A00010EEE1803E1ED5001E18192D9CFE9FF15
:10161A00DACFEAFF020EEE1803E1ED5001E1819400
:10162A00D9CFE9FFDACFEAFF030EEE1803E1ED5056
:10163A0001E18196DF2A010E01E2E7D6DB2AE5D62F
:10164A000201F45101E0F4070201FF0EF55DFF0EFD
:10165A00F65903E2F52B000EF6230201F751F811B1
:10166A0003E0F707000EF85B9EAC40D09E9CC1AC2D
:10167A0006D0C19C010E356E366A316A1CD0C45040
:10168A00596E5A6E596AC35000015910576E5AC0A2
:10169A0058F03150E96EEA6AD890E936EA36000E17
:1016AA00E926010EEA2257C0EEFF58C0EDFFD89096
:1016BA0035363636312A100E315C0EE23550331487
:1016CA00576E36503414586E5750581005E1312A67
:1016DA00D89035363636EFD7100E315C02E39D9C32
:1016EA0005D03150040DF328C26EC282F2A442D052
:1016FA00D59EF294F29A040E576E2C50EA6A290F7C
:10170A00E96E010EEA22EF50575C34E1080E2C5CB8
:10171A000DE2070E2C14576E010E575204E0E846EC
:10172A00FE0B5706FCE1E81C89161CD0100E2C5C37
:10173A000DE2070E2C14576E010E575204E0E846CC
:10174A00FE0B5706FCE1E81C8A160CD0070E2C1477
:10175A00576E010E575204E0E846FE0B5706FCE1AD
:10176A00E81C8B162C50EA6A290FE96E010EEA2250
:10177A00020EEF6E040EE15C02E2E16AE552E16EEE
:10178A00E552E5CFDAFFE7CFD9FFE552E5CFF4FF1F
:10179A00E5CFF3FFE5CFEAFFE5CFE9FFE550E5CF77
:1017AA00E0FFE5CFD8FF1000D9CFE6FFDACFE6FF9A
:1017BA00E1CFD9FFE2CFDAFFE652E652896A9268B0
:1017CA00336A346A8A6A93688B6A94688C968C94B2
:1017DA0095969594928E0601010EFD6F0E01BC69D5
:1017EA00BD69276A266A286A226A216A236A1F6AE9
:1017FA00206A246A256A2D6A2E6A2F6A306A316A3B
:10180A0076827680769C769A76887696FA0E776EC7
:10181A00DF6ADFCF4BF0100EE76E4B18E8AE02D04E
:10182A00E73402D0E7504B5C10E2DFCFE9FFEA6A07
:10183A00E9BEEA68D890E936EA36000EE926010ED2
:10184A00EA22EE6AED6ADF2AE4D70601F76BF86B43
:10185A00F56BF66BF96BFA6BFB6BFC6B2A6A2B6AFE
:10186A002C6ADF6ADFCF4BF0180EE76E4B18E8AE32
:10187A0002D0E73402D0E7504B5C1BE2DFCFE9FF2E
:10188A00EA6AE9BEEA68D890E936EA36410EE926FC
:10189A00010EEA22EE6AED6ADFCFE9FFEA6AE9BEE3
:1018AA00EA68290EE926010EEA22010EEF6EDF2A06
:1018BA00D9D7D586D59AD59CF294F29AF1940F018C
:1018CA00498FBE0EC16ED08E7694A386A5968BECF8
:1018DA0021F06EEC51F0F28EF28C768464EC3AF0E0
:1018EA00E552E552E552E5CFDAFFE7CFD9FF12001C
:1018FA00D9CFE6FFDACFE6FFE1CFD9FFE2CFDAFFB1
:10190A00E652E652E652E652E652020EDB6A030E4F
:10191A00DB6A040EDB6A1EEC1EF06FEC3AF0235011
:10192A00000809E234EC14F0222A030E225C01E1D9
:10193A00226A2306F4D72850000809E268EC14F05A
:10194A00272A030E275C01E1276A2806F4D7200E0E
:10195A000601E76EA819E8AE02D0E73402D0E750D4
:10196A00A85D01E2BCD16550020B01E0B8D1400E7E
:10197A00E66E400EE66E020EE66EAFEC4FF0E552F2
:10198A00E552E552E76E030EE7CFDBFFDB500008B6
:10199A0001E328D1040EDB6A030EDB50F36E040E5A
:1019AA00DBCFF4FFF350F45C01E31CD1040EDB50EF
:1019BA00EA6A400FE96E020EEA22EFCFDFFF050165
:1019CA005D5141E10D0E4B6EDF504B5C05E00A0E96
:1019DA004C6EDF504C5C37E1010E5D6F0601F7512A
:1019EA00EA6A000FE96E030EEA220D0EEF6EF72B7C
:1019FA00010EDB6AF751F36E010EDBCFF4FFF350F1
:101A0A00F45C1CE2010EDBCFE9FFEA6AE9BEEA6890
:101A1A00000EE926030EEA22EF50E66E010EDBCF36
:101A2A00E9FFEA6AE9BEEA68190EE926050EEA2222
:101A3A00E552E750EF6E010EDB2ADCD7E8D9060142
:101A4A00F76BF86BBFD01B0EDF5C09E1595107E158
:101A5A00010E596F1B0E5A6F5B6B5C6BB3D0590545
:101A6A000BE15B0EDF5C08E11B0E5A5D05E15B5181
:101A7A0003E15B0E5B6FA6D059056AE1410EDF5C9C
:101A8A0067E11B0E5A5D64E15B0E5B5D61E15A6BB7
:101A9A005B6B5C6B596B010EDB6ADBCFE9FFEA6AB1
:101AAA00E9BEEA68000EE926030EEA22EF500D08A5
:101ABA001CE0010EDBCFE9FFEA6AE9BEEA68190E0B
:101ACA00E926050EEA22EF50E66E010EDBCFE9FFAA
:101ADA00EA6AE9BEEA68000EE926030EEA22E5523E
:101AEA00E750EF6E010EDB2AD8D7010EDBCFF7F6EF
:101AFA000601F751EA6A000FE96E030EEA22EF6A5D
:101B0A003E0E4B6E9B0E4C6E4D6A4BC0E6FFE66E68
:101B1A004DC0E6FF28EC56F0E552E552E552000EBC
:101B2A00E66E030EE66E3B0E4B6E9B0E4C6E4D6AD6
:101B3A004BC0E6FFE66E4DC0E6FF28EC56F04E6E4F
:101B4A00050EE15C02E2E16AE552E16E4E503AD0DE
:101B5A00080EDF5C1CE10601F751000818E2F707DE
:101B6A00F751EA6A000FE96E030EEA22EF6A380EAD
:101B7A004B6E9B0E4C6E4D6A4BC0E6FFE66E4DC037
:101B8A00E6FF28EC56F0E552E552E5521BD00D0E61
:101B9A00DF5C18E00A0EDF5C15E0200EDF5C12E362
:101BAA0005015A6B5B6B5C6B596B0601F751EA6A6C
:101BBA00000FE96E030EEA22DFCFEFFF05015D6B2E
:101BCA000601F72B0601F7514B6E4C6A000E4B18B3
:101BDA0006E1010E4C1803E12986F76BF86B040E37
:101BEA00DB2ADAD6295001E179D029A00FD0320EAA
:101BFA004B6E9B0E4C6E4D6A4BC0E6FFE66E4DC0B7
:101C0A00E6FF28EC56F0E552E552E55229A20FD03C
:101C1A00130E4B6E9B0E4C6E4D6A4BC0E6FFE66E82
:101C2A004DC0E6FF28EC56F0E552E552E55229A4EC
:101C3A000FD0F70E4B6E9A0E4C6E4D6A4BC0E6FFF4
:101C4A00E66E4DC0E6FF28EC56F0E552E552E55245
:101C5A0029A60FD0DB0E4B6E9A0E4C6E4D6A4BC006
:101C6A00E6FFE66E4DC0E6FF28EC56F0E552E55277
:101C7A00E55229A80FD0BC0E4B6E9A0E4C6E4D6AD7
:101C8A004BC0E6FFE66E4DC0E6FF28EC56F0E55283
:101C9A00E552E55229AC0FD09B0E4B6E9A0E4C6E54
:101CAA004D6A4BC0E6FFE66E4DC0E6FF28EC56F0E3
:101CBA00E552E552E552000E29140FE0820E4B6EF2
:101CCA009A0E4C6E4D6A4BC0E6FFE66E4DC0E6FFBB
:101CDA0028EC56F0E552E552E552296A47D8050E36
:101CEA00E15C02E2E16AE552E16EE552E5CFDAFF34
:101CFA00E7CFD9FF1200D9CFE6FFDACFE6FFE1CF6F
:101D0A00D9FFE2CFDAFFE652F5C6DFFFDF2A400E3F
:101D1A004B6EDF504B5C01E1DF6A0601F651DF5C76
:101D2A0001E124D80601F551EA6A000FE96E020EB4
:101D3A00EA22FD0EDBCFEFFFF52B400EF55D01E148
:101D4A00F56BF651F55D01E12984FD0EDBCF4BF011
:101D5A004C6A4BBE4C684BC0F3FF4CC0F4FFE552D3
:101D6A00E552E5CFDAFFE7CFD9FF1200D9CFE6FF78
:101D7A00DACFE6FFE1CFD9FFE2CFDAFFE65206017A
:101D8A00F551F65D3DE00601905105E0BFEC50F0DB
:101D9A0050EC3CF0F8D70601F651D880F55517E219
:101DAA00F651F55DDF6EDFCFE6FFF6514C6A000FA4
:101DBA004B6E020E4C224BC0E6FF4CC0E6FF19ECFC
:101DCA0050F0E552E552E552F5C6F6F617D0400E48
:101DDA00D880F655DF6EDFCFE6FFF6514C6A000F6A
:101DEA004B6E020E4C224BC0E6FF4CC0E6FF19ECCC
:101DFA0050F0E552E552E5520601F66BBFEC50F0A1
:101E0A00E552E552E5CFDAFFE7CFD9FF1200D9CF85
:101E1A00E6FFDACFE6FFE1CFD9FFE2CFDAFFE652FB
:101E2A00E652E652E652DE6ADD6A020EDB6A030E0B
:101E3A00DB6A0601F851EA6A000FE96E030EEA222C
:101E4A00EF50E66EE66AACEC57F0E552E552020E48
:101E5A00F3CFDBFF0601F82BF8514B6E4C6A000EEC
:101E6A004B1804E1010E4C1801E1F86B020EDB502D
:101E7A00DE6EDD6AF851EA6A000FE96E030EEA22A5
:101E8A00EF502C0836E0F851EA6A000FE96E030EAB
:101E9A00EA22EF500D082DE0F851EA6A000FE96EC8
:101EAA00030EEA22EF50E66EE66AACEC57F0E55212
:101EBA00E552030EF3CFDBFF0601F82BF8514B6E08
:101ECA004C6A000E4B1804E1010E4C1801E1F86B44
:101EDA00020EDBCF4DF04DC04EF04D6A030EDB50C3
:101EEA0000014D244B6E000E4E204C6E4BC0DEFF9F
:101EFA00DD6E000EDFCF3DF0010EDBCF3EF04D0E62
:101F0A003D1802E1580E3E1801E1F4D1530E3D1876
:101F1A0002E1450E3E1801E1EAD1430E3D1802E105
:101F2A00410E3E1801E1E1D14D0E3D1802E1510E7C
:101F3A003E1801E1D7D14D0E3D1802E1520E3E186E
:101F4A0001E1CDD1320E3D1802E1530E3E1801E1F6
:101F5A00C3D1450E3D1802E1530E3E1801E1B9D135
:101F6A00430E3D1802E1510E3E1801E1AFD14B0E6E
:101F7A003D1802E1430E3E1801E1A5D14C0E3D1871
:101F8A0002E1420E3E1801E19BD1440E3D1802E1E6
:101F9A004E0E3E1801E191D1490E3D1802E14E0E56
:101FAA003E1801E187D1420E3D1802E1510E3E185A
:101FBA0001E17DD14C0E3D1802E1510E3E1801E1BE
:101FCA0073D14C0E3D1802E1530E3E1801E169D15E
:101FDA004E0E3D1802E1510E3E1801E15FD14E0E40
:101FEA003D1802E1530E3E1801E155D1430E3D184A
:101FFA0002E1530E3E1801E14BD14D0E3D1802E1AC
:10200A00450E3E1801E141D1500E3D1802E1510E34
:10201A003E1801E137D1500E3D1802E1540E3E1828
:10202A0001E12DD1500E3D1802E1530E3E1801E197
:10203A0023D14D0E3D1802E1530E3E1801E119D18C
:10204A00470E3D1802E1500E3E1801E10FD1430E32
:10205A003D1802E1500E3E1801E105D1490E3D1826
:10206A0002E1430E3E1801E1FBD0490E3D1802E1A0
:10207A00520E3E1801E1F1D0490E3D1802E1530E0D
:10208A003E1801E1E7D0530E3D1802E1430E3E1817
:10209A0001E1DDD0530E3D1802E1520E3E1801E176
:1020AA00D3D0530E3D1802E1530E3E1801E1C9D0B8
:1020BA00530E3D1802E1420E3E1801E1BFD0430E15
:1020CA003D1802E1420E3E1801E1B5D0430E3D181B
:1020DA0002E1520E3E1801E1ABD04F0E3D1802E16B
:1020EA00420E3E1801E1A1D0570E3D1802E14D0EF5
:1020FA003E1801E198D0520E3D1802E14D0E3E18ED
:10210A0001E18ED0440E3D1802E1500E3E1801E165
:10211A0084D04F0E3D1802E1500E3E1801E17AD0EC
:10212A00490E3D1802E1500E3E1871E0580E3D1856
:10213A0002E1540E3E1868E0540E3D1801E13E508B
:10214A0061E0410E3D1801E13E505AE0560E3D183D
:10215A0001E13E5053E0490E3D1801E13E504CE08A
:10216A004F0E3D1801E13E5045E0550E3D1802E183
:10217A00430E3E183DE0580E3D1802E1430E3E184C
:10218A0034E0430E3D1801E13E502DE0520E3D1859
:10219A0001E13E5026E0580E3D1802E1520E3E186B
:1021AA001DE0030EDB5001E0A8D0020EDBCFE6FFF4
:1021BA00E66ADBCFE6FFE66A5F0E4B6E9A0E4C6E5E
:1021CA004D6A4BC0E6FFE66E4DC0E6FF28EC56F0BE
:1021DA004E6E070EE15C01E3B2D0AFD019EC18F0F5
:1021EA00B0D0E7D8AED085D9ACD01BEC18F0A9D0C6
:1021FA00E4D8A7D0A9DAA5D032DBA3D054DBA1D08A
:10220A0062DB9FD027D99DD017EC18F09AD071ECD9
:10221A0016F097D02EEC17F094D086EC15F091D0EA
:10222A003BEC15F08ED0DFDB8CD0DAEC18F089D0DD
:10223A001DEC18F086D0D8EC18F083D0DCEC18F03E
:10224A0080D0DEEC18F07DD0E0EC18F07AD0E2EC29
:10225A0018F077D0E4EC18F074D0E6EC18F071D0EE
:10226A00E8EC18F06ED0EAEC18F06BD085EC19F0B7
:10227A0068D082EC23F065D033EC2DF062D0FAEC12
:10228A002CF05FD0DBEC2CF05CD00FEC2EF059D0A8
:10229A0042EC22F056D0BAEC2EF053D0F3EC2EF0EA
:1022AA0050D011EC2FF04DD023EC2FF04AD042EC55
:1022BA002FF047D09CEC2EF044D0ADEC2EF041D05C
:1022CA00CEEC19F03ED0D6EC19F03BD063EC2FF0EF
:1022DA0038D083EC2FF035D01BEC52F032D02BECF7
:1022EA0030F02FD02CEC30F02CD0F5D92AD0FDECE0
:1022FA002BF027D00BEC26F024D0030EDBCFE6FF21
:10230A00E66A020EDBCFE6FFE66A030EDBCFE6FFE4
:10231A00E66A020EDBCFE6FFE66A370E4B6E9A0ECE
:10232A004C6E4D6A4BC0E6FFE66E4DC0E6FF28ECE8
:10233A0056F04E6E0B0EE15C02E2E16AE552E16E86
:10234A004E500601F851EA6A000FE96E030EEA22BE
:10235A00EF500D080DE029500BE1520E4B6E4C6AFE
:10236A00DF504B1803E1DE52DD504C1801E0298E94
:10237A00F7C6F8F6040EE15C02E2E16AE552E16EA4
:10238A00E552E5CFDAFFE7CFD9FF12000601FD518A
:10239A000FE0EC0E4B6EAF0E4C6E4D6A4BC0E6FF73
:1023AA00E66E4DC0E6FF28EC56F0E552E552E552DE
:1023BA001200D9EC0BF0CBEF11F0D9CFE6FFDACF50
:1023CA00E6FFE1CFD9FFE2CFDAFFE652E652E65264
:1023DA00E66AD9CFE6FFDACFE6FF010EE66E3CECFD
:1023EA001BF0E552E552E552E552E66AD950010F73
:1023FA00E66E000EDA20E66E020EE66E3CEC1BF08C
:10240A00E552E552E552E55229501BE1DF0418E195
:10241A00D950010FE96E000EDA20EA6EEE50ED1087
:10242A000AE0010E4B6E4C6ADB504B1808E1020EB3
:10243A00DB504C1804E1010EDBCFFDF601D0298CEC
:10244A00A5DFE552E552E552E552E5CFDAFFE7CFDF
:10245A00D9FF1200D9CFE6FFDACFE6FFE1CFD9FFE5
:10246A00E2CFDAFFE652E652E652020EDB6AE66A8B
:10247A001D0EE66E000EE66E030EE66E3CEC1BF0D9
:10248A00E552E552E552E552E66AD950020FE66E88
:10249A00000EDA20E66E010EE66E3CEC1BF0E55209
:1024AA00E552E552E55229501BE1020EDB500CE1E0
:1024BA001D501E1003E11F6A206A11D076841DC0C8
:1024CA001FF01EC020F00BD01D501E1003E1246A1D
:1024DA00256A05D076841DC024F01EC025F056DF7B
:1024EA00E552E552E552E552E5CFDAFFE7CFD9FFEB
:1024FA001200D9CFE6FFDACFE6FFE1CFD9FFE2CF6C
:10250A00DAFFE652E652E652E652E652E66AD9CFD8
:10251A00E6FFDACFE6FF010EE66E3CEC1BF0E55271
:10252A00E552E552E552E66AD950010FE66E000E11
:10253A00DA20E66E010EE66E3CEC1BF0E552E5523F
:10254A00E552E552E66AD950020FE66E000EDA202D
:10255A00E66E010EE66E3CEC1BF0E552E552E552E2
:10256A00E552E66AD950030FE66E000EDA20E66EEF
:10257A00010EE66E3CEC1BF0E552E552E552E552DF
:10258A00E66AD950040FE66E000EDA20E66E010EF6
:10259A00E66E3CEC1BF0E552E552E552E552295055
:1025AA000FE1DF50926E010EDB50936E020EDB508C
:1025BA00946E030EDB50956E040EDB50966EE6DECB
:1025CA00050EE15C02E2E16AE552E16EE552E5CF11
:1025DA00DAFFE7CFD9FF1200D9CFE6FFDACFE6FF5D
:1025EA00E1CFD9FFE2CFDAFFFD0EDB50100805E29A
:1025FA00100EF36EFD0EF3CFDBFFFC0EDB5031E065
:10260A00FD0EDB503FEC58F0F3503312F450341205
:10261A00080EF36EFD0EDBCFF4FFF350F45C0EE20E
:10262A00010EF36EFD0EDB5004E0D890F336E80697
:10263A00FCE1F350F31C0F01481747D0FD0EDB50A5
:10264A000C0843E3FD0EDB50F80F4B6E010E4B52A4
:10265A0004E0E846FE0B4B06FCE1E81C0F014917B3
:10266A0034D0FD0EDB503FEC58F0F3CF4BF0F4CFF3
:10267A004CF04B1E4C1E4B5033164C503416080E61
:10268A00F36EFD0EDBCFF4FFF350F45C0DE2010EA6
:10269A00F36EFD0EDB5004E0D890F336E806FCE159
:1026AA00F3500F01481311D0FD0EDB500C080DE357
:1026BA00FD0EDB50F80F4B6E010E4B5204E0E8465C
:1026CA00FE0B4B06FCE10F014913E552E5CFDAFF99
:1026DA00E7CFD9FF1200D9CFE6FFDACFE6FFE1CF85
:1026EA00D9FFE2CFDAFFE652E652E66AD9CFE6FF31
:1026FA00DACFE6FF010EE66E3CEC1BF0E552E5523E
:10270A00E552E552E66AD950010FE66E000EDA206C
:10271A00E66E010EE66E3CEC1BF0E552E552E55220
:10272A00E552295009E1010EDBCFE6FFDFCFE6FFD4
:10273A0053DFE552E5522ADEE552E552E552E5CF8E
:10274A00DAFFE7CFD9FF1200D9CFE6FFDACFE6FFEB
:10275A00E1CFD9FFE2CFDAFFE652E652E66AD9CFF5
:10276A00E6FFDACFE6FF010EE66E3CEC1BF0E5521F
:10277A00E552E552E552E76E010EE7CFDBFF29503D
:10278A0066E1010EDB5002E1DF50896E010EE66E52
:10279A00D9CFE6FFDACFE6FFE66E3CEC1BF0E55256
:1027AA00E552E552E552E76E010EE7CFDBFF29500D
:1027BA004EE1010EDB5002E1DF508A6E010EE66E39
:1027CA00D9CFE6FFDACFE6FFE66E3CEC1BF0E55226
:1027DA00E552E552E552E76E010EE7CFDBFF2950DD
:1027EA0036E1010EDB5002E1DF508B6E010EE66E20
:1027FA00D9CFE6FFDACFE6FFE66E3CEC1BF0E552F6
:10280A00E552E552E552E76E010EE7CFDBFF2950AC
:10281A001EE1010EDB5002E1DF508C6E010EE66E06
:10282A00D9CFE6FFDACFE6FFE66E3CEC1BF0E552C5
:10283A00E552E552E552E76E010EE7CFDBFF29507C
:10284A0006E1010EDB5002E1DF508D6E9FDDE5529D
:10285A00E552E552E5CFDAFFE7CFD9FF12008450FF
:10286A00E66EE66A8350E66EE66A8250E66EE66ACD
:10287A008150E66EE66A8050E66EE66A1A0E4B6E84
:10288A009A0E4C6E4D6A4BC0E6FFE66E4DC0E6FFEF
:10289A0028EC56F04E6E0D0EE15C02E2E16AE5525A
:1028AA00E16E4E501200F40E4B6EAF0E4C6E4D6A36
:1028BA004BC0E6FFE66E4DC0E6FF28EC56F0E55247
:1028CA00E552E5521200D9CFE6FFDACFE6FFE1CFB3
:1028DA00D9FFE2CFDAFFE652E652E652DF6A010E8C
:1028EA00F36EDB6E020EDB6A180E4B6E9A0E4C6E9E
:1028FA004D6A4BC0E6FFE66E4DC0E6FF28EC56F087
:10290A00E552E552E5529DBCFED7DF6ADFCF4BF0B8
:10291A00100EE76E4B18E8AE02D0E73402D0E7504B
:10292A004B5C49E2010EDB5033144B6E020EDB5056
:10293A0034144C6E4B504C102DE0DFCFE9FFEA6A9D
:10294A00E9BEEA68D890E936EA36000EE926010EB1
:10295A00EA22EECFE6FFEFCFE6FFDFCF4BF04C6A7D
:10296A004BBE4C684BC0E6FF4CC0E6FF0D0E4D6EE9
:10297A009A0E4E6E4F6A4DC0E6FFE66E4FC0E6FFF6
:10298A0028EC56F0506E070EE15C02E2E16AE5526D
:10299A00E16E5050010EDBCF4BF0020EDBCF4CF054
:1029AA00D8904B364C36010E4BC0DBFF020E4CC0A2
:1029BA00DBFFDF2AABD7F10E4B6EAF0E4C6E4D6AC2
:1029CA004BC0E6FFE66E4DC0E6FF28EC56F0E55236
:1029DA00E552E552E552E552E552E552E5CFDAFF16
:1029EA00E7CFD9FF1200D9CFE6FFDACFE6FFE1CF72
:1029FA00D9FFE2CFDAFFE652E652E652E66AD9CFCB
:102A0A00E6FFDACFE6FF030EE66E3CEC1BF0E5527A
:102A1A00E552E552E552E66AD950020FE66E000E1B
:102A2A00DA20E66E010EE66E3CEC1BF0E552E5524A
:102A3A00E552E552295011E1DECF4BF0DDCF4CF0E3
:102A4A00000E4B5C100E4C5807E2DECFE9FFDDCFDB
:102A5A00EAFF020EDBCFEFFF99DCE552E552E552C1
:102A6A00E552E5CFDAFFE7CFD9FF1200D9CFE6FF6B
:102A7A00DACFE6FFE1CFD9FFE2CFDAFFE652E6523C
:102A8A00E652E66AD9CFE6FFDACFE6FF030EE66E34
:102A9A003CEC1BF0E552E552E552E552295028E19B
:102AAA00DECF4BF0DDCF4CF0000E4B5C100E4C58D5
:102ABA0007E2DECFE9FFDDCFEAFF020EEFCFDBFF51
:102ACA00020EDBCFE6FFE66A030E4B6E9A0E4C6EE1
:102ADA004D6A4BC0E6FFE66E4DC0E6FF28EC56F0A5
:102AEA004E6E050EE15C02E2E16AE552E16E4E507D
:102AFA00E552E552E552E552E5CFDAFFE7CFD9FFD5
:102B0A001200D9CFE6FFDACFE6FFE1CFD9FFE2CF55
:102B1A00DAFFE652E652E652E66AD9CFE6FFDACFA4
:102B2A00E6FF050EE66E3CEC1BF0E552E552E55277
:102B3A00E552E66AD950010FE66E000EDA20E66E1B
:102B4A00010EE66E3CEC1BF0E552E552E552E55209
:102B5A00E66AD950020FE66E000EDA20E66E010E22
:102B6A00E66E3CEC1BF0E552E552E552E55229507F
:102B7A0001E0A9D0020EDB50010801E2A0D0010E4B
:102B8A00DB50070801E29BD0410E4B6EDF504B5CD5
:102B9A001AE1020EDB500CE1010EF36EDB5004E089
:102BAA00D890F336E806FCE1F350F31C921689D06C
:102BBA00010EF36EDB5004E0D890F336E806FCE130
:102BCA00F35092127ED0420E4B6EDF504B5C1AE1EC
:102BDA00020EDB500CE1010EF36EDB5004E0D890DC
:102BEA00F336E806FCE1F350F31C93166AD0010EA3
:102BFA00F36EDB5004E0D890F336E806FCE1F350BC
:102C0A0093125FD0430E4B6EDF504B5C1AE1020EFB
:102C1A00DB500CE1010EF36EDB5004E0D890F33682
:102C2A00E806FCE1F350F31C94164BD0010EF36E48
:102C3A00DB5004E0D890F336E806FCE1F350941236
:102C4A0040D0440E4B6EDF504B5C1AE1020EDB5053
:102C5A000CE1010EF36EDB5004E0D890F336E8067F
:102C6A00FCE1F350F31C95162CD0010EF36EDB50E9
:102C7A0004E0D890F336E806FCE1F350951221D02F
:102C8A00450E4B6EDF504B5C1AE1020EDB500CE135
:102C9A00010EF36EDB5004E0D890F336E806FCE14F
:102CAA00F350F31C96160DD0010EF36EDB5004E0C0
:102CBA00D890F336E806FCE1F350961202D0298C3C
:102CCA0002D0CBEC11F0E552E552E552E552E5CFE0
:102CDA00DAFFE7CFD9FF1200D9CFE6FFDACFE6FF56
:102CEA00E1CFD9FFE2CFDAFFE652E652E652020E10
:102CFA00DB6AE66AD9CFE6FFDACFE6FF050EE66EB3
:102D0A003CEC1BF0E552E552E552E552E66AD95031
:102D1A00010FE66E000EDA20E66E010EE66E3CEC5E
:102D2A001BF0E552E552E552E552295001E088D000
:102D3A00010EDB50070865E3410E4B6EDF504B5C1A
:102D4A000EE1010EDB284B6E010E4B5204E0E84601
:102D5A00FE0B4B06FCE1E8407F0B80144BD0420E81
:102D6A004B6EDF504B5C0EE1010EDB284B6E010E01
:102D7A004B5204E0E846FE0B4B06FCE1E8407F0BB1
:102D8A00811438D0430E4B6EDF504B5C0EE1010EBE
:102D9A00DB284B6E010E4B5204E0E846FE0B4B0655
:102DAA00FCE1E8407F0B821425D0440E4B6EDF50C5
:102DBA004B5C0EE1010EDB284B6E010E4B5204E018
:102DCA00E846FE0B4B06FCE1E8407F0B831412D069
:102DDA00450E4B6EDF504B5C14E1010EDB284B6E47
:102DEA00010E4B5204E0E846FE0B4B06FCE1E840BC
:102DFA007F0B8414E76E020EE7CFDBFFDB5008E09F
:102E0A0002D0298C1DD0010EF36E020EF3CFDBFF28
:102E1A00020EDBCFE6FFE66AFA0E4B6E990E4C6E97
:102E2A004D6A4BC0E6FFE66E4DC0E6FF28EC56F051
:102E3A004E6E050EE15C02E2E16AE552E16E4E5029
:102E4A00E552E552E552E552E5CFDAFFE7CFD9FF81
:102E5A001200D9CFE6FFDACFE6FFE1CFD9FFE2CF02
:102E6A00DAFFE652E652E652E66AD9CFE6FFDACF51
:102E7A00E6FF050EE66E3CEC1BF0E552E552E55224
:102E8A00E552E66AD950010FE66E000EDA20E66EC8
:102E9A00010EE66EECDBE552E552E552E552E66AD2
:102EAA00D950020FE66E000EDA20E66E010EE66ECB
:102EBA00DEDBE552E552E552E552295001E0A9D0A0
:102ECA00020EDB50010801E2A0D0010EDB50070818
:102EDA0001E29BD0410E4B6EDF504B5C1AE1020EB1
:102EEA00DB500CE1010EF36EDB5004E0D890F336B0
:102EFA00E806FCE1F350F31C891689D0010EF36E43
:102F0A00DB5004E0D890F336E806FCE1F35089126E
:102F1A007ED0420E4B6EDF504B5C1AE1020EDB5044
:102F2A000CE1010EF36EDB5004E0D890F336E806AC
:102F3A00FCE1F350F31C8A166AD0010EF36EDB50E3
:102F4A0004E0D890F336E806FCE1F3508A125FD029
:102F5A00430E4B6EDF504B5C1AE1020EDB500CE164
:102F6A00010EF36EDB5004E0D890F336E806FCE17C
:102F7A00F350F31C8B164BD0010EF36EDB5004E0BA
:102F8A00D890F336E806FCE1F3508B1240D0440E99
:102F9A004B6EDF504B5C1AE1020EDB500CE1010E66
:102FAA00F36EDB5004E0D890F336E806FCE1F35008
:102FBA00F31C8C162CD0010EF36EDB5004E0D89073
:102FCA00F336E806FCE1F3508C1221D0450E4B6E25
:102FDA00DF504B5C1AE1020EDB500CE1010EF36E7E
:102FEA00DB5004E0D890F336E806FCE1F350F31C1A
:102FFA008D160DD0010EF36EDB5004E0D890F33637
:10300A00E806FCE1F3508D1202D0298C02D0CBECF9
:10301A0011F0E552E552E552E552E5CFDAFFE7CF86
:10302A00D9FF1200CBEF11F0CBEF11F0CBEF11F07B
:10303A00D9CFE6FFDACFE6FFE1CFD9FFE2CFDAFF59
:10304A00E652E652E652E652E66AD9CFE6FFDACF10
:10305A00E6FF050EE66E0BDBE552E552E552E55258
:10306A00E66AD950010FE66E000EDA20E66E010E0E
:10307A00E66EFDDAE552E552E552E552E66AD950C6
:10308A00020FE66E000EDA20E66E030EE66EEFDA47
:10309A00E552E552E552E552295001E078D0D9507F
:1030AA00020FE96E000EDA20EA6E720ED880EE5434
:1030BA002E0EED5442E3D950020FE96E000EDA20CB
:1030CA00EA6EEE50ED101FE04E684F68506A2D0E02
:1030DA00E76E020EDBCF51F0030EDBCF52F0E75062
:1030EA005126000E5222536A51504E5C4B6E52507A
:1030FA004F584C6E535050584D6E020E4BC0DBFF6A
:10310A00030E4CC0DBFF010EDB50070816E3410E2D
:10311A004B6EDF504B5C02E1DF6A11D0420E4B6E00
:10312A00DF504B5C02E1080E06D0430E4B6EDF50B7
:10313A004B5C03E1100EDF6E02D0298C28D0010E01
:10314A00DB50DF24E96EEA6AD890E936EA36410EA6
:10315A00E926010EEA22020EDBCFEEFF030EDBCFD9
:10316A00EDFF010EDB50DF24EA6A290FE96E010E3A
:10317A00EA22EF040AE1010EDB50DF24EA6A290F92
:10318A00E96E010EEA22020EEF6ECBEC11F0040E8C
:10319A00E15C02E2E16AE552E16EE552E5CFDAFF6F
:1031AA00E7CFD9FF1200CBEF11F0CBEF11F0CBEF45
:1031BA0011F0CBEF11F0CBEF11F0CBEF11F0CBEF19
:1031CA0011F0CBEF11F0CBEF11F0D9CFE6FFDACF48
:1031DA00E6FFE1CFD9FFE2CFDAFF070EE12402E3EF
:1031EA00E168E652E16EE66AD9CFE6FFDACFE6FF9A
:1031FA00030EE66E3CDAE552E552E552E552E66A1E
:10320A00D950020FE66E000EDA20E66E030EE66E65
:10321A002EDAE552E552E552E552295065E1DECF54
:10322A0001F5DDCF02F5020EDBCF09F5030EDBCF88
:10323A000AF5040EDB6A030EF36E040EDBCFF4FF0D
:10324A00F350F45C4FE2010EE66ED9CFE6FFDACF17
:10325A00E6FF030EE66E0BDAE552E552E552E55259
:10326A00E76E050EE7CFDBFF010EE66ED950020FBF
:10327A00E66E000EDA20E66E030EE66EF8D9E55227
:10328A00E552E552E552E76E060EE7CFDBFF29501D
:10329A002BE1050EDB5026E1060EDB5023E1040E7E
:1032AA00DB28E96EEA6AD890E936EA36010EE926A1
:1032BA00050EEA22DECFEEFFDDCFEDFF040EDB289E
:1032CA00E96EEA6AD890E936EA36090EE926050E69
:1032DA00EA22020EDBCFEEFF030EDBCFEDFF040E78
:1032EA00DB2AA9D7CBEC11F0070EE15C02E2E16A16
:1032FA00E552E16EE552E5CFDAFFE7CFD9FF1200DA
:10330A00D9CFE6FFDACFE6FFE1CFD9FFE2CFDAFF86
:10331A00E652E66AD9CFE6FFDACFE6FF010EE66E9D
:10332A00A6D9E552E552E552E55229500DE1DF50A2
:10333A0007E0F00E9314936E0501010E006F02D0A0
:10334A000501006BCBEC11F0E552E552E5CFDAFF4F
:10335A00E7CFD9FF1200D9CFE6FFDACFE6FFE1CFF8
:10336A00D9FFE2CFDAFFE652DF6AFF0EDF5C0AE23C
:10337A00E868E85005E0E80600D000D000D0F9D7A8
:10338A00DF2AF3D7E552E552E5CFDAFFE7CFD9FFD7
:10339A001200F29EF29C6592656ADDDF0FEF00F083
:1033AA001200D9CFE6FFDACFE6FFE1CFD9FFE2CFAD
:1033BA00DAFF100EE12402E3E168E652E16EE66A02
:1033CA00D950010FE66E000EDA20E66EE66A4FD992
:1033DA00E552E552E552E552E66AD9CFE6FFDACF81
:1033EA00E6FF010EE66E43D9E552E552E552E55293
:1033FA00E66AD950040FE66E000EDA20E66E020E77
:10340A00E66E35D9E552E552E552E552E66AD950FB
:10341A00020FE66E000EDA20E66E030EE66E27D97C
:10342A00E552E552E552E552E66AD9500A0FE66ED0
:10343A00000EDA20E66E060EE66E19D9E552E5525E
:10344A00E552E552E66AD950060FE66E000EDA201A
:10345A00E66E070EE66E0BD9E552E552E552E552E5
:10346A00E66AD9500E0FE66E000EDA20E66E040EFA
:10347A00E66EFDD8E552E552E552E552E66AD950C4
:10348A000F0FE66E000EDA20E66E050EE66EEFD836
:10349A00E552E552E552E552010EDBCF4BF04C6A9C
:1034AA004BBE4C684BC0E6FF4CC0E6FFEE0E4D6EBD
:1034BA00990E4E6E4F6A4DC0E6FFE66E4FC0E6FFAC
:1034CA0028EC56F0506E050EE15C02E2E16AE55224
:1034DA00E16E5050DFCFE6FFE66AE20E4B6E990EC0
:1034EA004C6E4D6A4BC0E6FFE66E4DC0E6FF28EC17
:1034FA0056F04E6E050EE15C02E2E16AE552E16EBB
:10350A004E50040EDBCFE6FF050EDBCFE6FFD60EEC
:10351A004B6E990E4C6E4D6A4BC0E6FFE66E4DC07F
:10352A00E6FF28EC56F04E6E050EE15C02E2E16A17
:10353A00E552E16E4E50020EDBCFE6FF030EDBCF03
:10354A00E6FFCA0E4B6E990E4C6E4D6A4BC0E6FFF3
:10355A00E66E4DC0E6FF28EC56F04E6E050EE15CB5
:10356A0002E2E16AE552E16E4E50D9500A0FE96E65
:10357A00000EDA20EA6EEECFE6FFEECFE6FFEECFE0
:10358A00E6FFEFCFE6FFBD0E4B6E990E4C6E4D6A0D
:10359A004BC0E6FFE66E4DC0E6FF28EC56F04E6ED5
:1035AA00070EE15C02E2E16AE552E16E4E50D95043
:1035BA00060FE96E000EDA20EA6EEECFE6FFEECFD6
:1035CA00E6FFEECFE6FFEFCFE6FFB00E4B6E990EA9
:1035DA004C6E4D6A4BC0E6FFE66E4DC0E6FF28EC26
:1035EA0056F04E6E070EE15C02E2E16AE552E16EC8
:1035FA004E500E0EDBCFE6FFE66AA40E4B6E990E16
:10360A004C6E4D6A4BC0E6FFE66E4DC0E6FF28ECF5
:10361A0056F04E6E050EE15C02E2E16AE552E16E99
:10362A004E500F0EDBCFE6FFE66A980E4B6E990EF0
:10363A004C6E4D6A4BC0E6FFE66E4DC0E6FF28ECC5
:10364A0056F04E6E050EE15C02E2E16AE552E16E69
:10365A004E50CBEC11F0100EE15C02E2E16AE55249
:10366A00E16EE552E5CFDAFFE7CFD9FF1200D9CFF5
:10367A00E6FFDACFE6FFE1CFD9FFE2CFDAFF090EA4
:10368A00E12402E3E168E652E16E080EDB6A0D0E00
:10369A004B6E0601F851EA6A000FE96E030EEA2240
:1036AA00EF504B5C05E1FA0EDB5048E1298846D021
:1036BA00F851EA6A000FE96E030EEA22EF502C086D
:1036CA0023E0FA0EDB501EE1F851EA6A000FE96EB8
:1036DA00030EEA22EF50E66EE66A710E4B6E990E01
:1036EA004C6E4D6A4BC0E6FFE66E4DC0E6FF28EC15
:1036FA0056F04E6E050EE15C02E2E16AE552E16EB9
:10370A004E50298A020EE5D1F82BF8514B6E4C6ABD
:10371A00000E4B1804E1010E4C1801E1F86B0D0E76
:10372A004B6EF851EA6A000FE96E030EEA22EF5077
:10373A004B5C06E1FA0EDB5001E12988030EC9D180
:10374A002D0E4B6EF851EA6A000FE96E030EEA225B
:10375A00EF504B5C2EE1040E4C6EFD0EDB504C5CC0
:10376A0028E0050E4D6EFD0EDB504D5C22E0FD0E8D
:10377A00DB0401E147D1030E4B6EFD0EDB504B5CBF
:10378A0001E140D1070E4C6EFD0EDB504C5C01E1AD
:10379A0039D1010EF36E080EF3CFDBFFF82BF85187
:1037AA004B6E4C6A000E4B1804E1010E4C1801E1F5
:1037BA00F86B040E4B6EFD0EDB504B5C11E0050EF0
:1037CA004C6EFD0EDB504C5C0BE00A0EE66ED9CF58
:1037DA00E6FFDACFE6FF8BD9E552E552E55242D051
:1037EA00F851EA6A000FE96E030EEA22EFCF4BF0B6
:1037FA00000E4BC0DFFF010EDB6A020EDB6A030E0E
:10380A00DB6A050E4B6EFD0EDB504B5C1FE1000EB2
:10381A00DFCFE6FF010EDBCFE6FFACEC57F0E55257
:10382A00E552F3CF4BF0F4CF4CF04D6A4E6A4CAEF2
:10383A0002D04D684E684BC0DFFF010E4CC0DBFF63
:10384A00020E4DC0DBFF030E4EC0DBFF0601F82B54
:10385A00F8514B6E4C6A000E4B1804E1010E4C18DD
:10386A0001E1F86B080EDB506FE0FD0EDB500FE153
:10387A00D9CFE9FFDACFEAFFD880800EEE54000EE6
:10388A00EE54000EEE54000EEE5401E2BBD0020ECE
:10389A004B6EFD0EDB504B5C0FE1D9CFE9FFDACF5F
:1038AA00EAFFD880000EEE54800EEE54000EEE545D
:1038BA00000EEE5401E2A6D0060E4C6EFD0EDB5051
:1038CA004C5C0FE1D9CFE9FFDACFEAFFD880000ECE
:1038DA00EE54000EEE54000EEE54800EEE5401E249
:1038EA0091D0D9CFE9FFDACFEAFF040EEECFDBFFA2
:1038FA00050EEECFDBFF060EEECFDBFF070EEECF97
:10390A00DBFF080EDB5001E196D0040EDBCF3BF063
:10391A00050EDBCF3CF0060EDBCF3DF0070EDBCF0A
:10392A003EF0406841684268436847EC57F0040E2D
:10393A0037C0DBFF050E38C0DBFF060E39C0DBFFE0
:10394A00070E3AC0DBFF77D0FD0EDB500EE1D9CF70
:10395A00E9FFDACFEAFFD8807F0EEE54000EEE546C
:10396A00000EEE54000EEE544DE3FD0EDB040EE1A4
:10397A00D9CFE9FFDACFEAFFD880FF0EEE54000E66
:10398A00EE54000EEE54000EEE543CE3020E4B6E63
:10399A00FD0EDB504B5C0EE1D9CFE9FFDACFEAFF2F
:1039AA00D880FF0EEE547F0EEE54000EEE54000E39
:1039BA00EE5428E3030E4C6EFD0EDB504C5C0EE118
:1039CA00D9CFE9FFDACFEAFFD880FF0EEE54FF0E17
:1039DA00EE54000EEE54000EEE5414E3060E4D6E35
:1039EA00FD0EDB504D5C11E1D9CFE9FFDACFEAFFDA
:1039FA00D880FF0EEE54FF0EEE54FF0EEE547F0EEB
:103A0A00EE5403E2298C010E64D0070E4B6EFD0EB4
:103A1A00DB504B5C10E0D9CFE9FFDACFEAFF040EA6
:103A2A00EECFDBFF050EEECFDBFF060EEECFDBFFA0
:103A3A00070EEECFDBFFFD0EDB50070A38E0010A66
:103A4A0025E0050A16E0010A14E0030A08E0050A5F
:103A5A0006E0010A04E0050A02E0040E3AD0FB0E71
:103A6A00DBCFE9FFFC0EDBCFEAFF040EDBCFEFFF73
:103A7A002FD0FB0EDBCFE9FFFC0EDBCFEAFF040EF3
:103A8A00DBCFEEFF050EDBCFEDFF22D0FB0EDBCF47
:103A9A00E9FFFC0EDBCFEAFF040EDBCFEEFF050EDB
:103AAA00DBCFEEFF060EDBCFEEFF070E0FD0FB0ECD
:103ABA00DBCFE9FFFC0EDBCFEAFFDFCFEEFF010E23
:103ACA00DBCFEEFF020EDBCFEEFF030EDBCFEEFF06
:103ADA00000E4B6E090EE15C02E2E16AE552E16E0C
:103AEA004B50E552E5CFDAFFE7CFD9FF1200D9CF25
:103AFA00E6FFDACFE6FFE1CFD9FFE2CFDAFFE652FF
:103B0A00E652FC0EDBCFE9FFFD0EDBCFEAFFEE6AE1
:103B1A00EE6AEE6AEE6A010EDB6AFB0EDB50F36EAA
:103B2A00010EDBCFF4FFF350F45C62E20601F851B8
:103B3A00EA6A000FE96E030EEA22EFCFDFFF300ECA
:103B4A00DF5C51E3DF5039084EE3FC0EDBCFE9FFBF
:103B5A00FD0EDBCFEAFFEECF4BF0EECF4CF0EECF0F
:103B6A004DF0EFCF4EF00A0E406E416A426A436A48
:103B7A004BC03BF04CC03CF04DC03DF04EC03EF057
:103B8A0047EC57F037C04BF038C04CF039C04DF015
:103B9A003AC04EF0300EDF5C4F6E506A516A526A7C
:103BAA00E8504B2650504C2251504D2252504E2232
:103BBA00FC0EDBCFE9FFFD0EDBCFEAFF4BC0EEFFC9
:103BCA004CC0EEFF4DC0EEFF4EC0EEFF0601F82BD3
:103BDA00F8514B6E4C6A000E4B1807E1010E4C1857
:103BEA0004E1F86B02D0000E04D0010EDB2A95D74F
:103BFA00010EE552E552E552E5CFDAFFE7CFD9FFEC
:103C0A0012002350E66EE66A650E4B6E990E4C6EF4
:103C1A004D6A4BC0E6FFE66E4DC0E6FF28EC56F053
:103C2A004E6E050EE15C02E2E16AE552E16E4E502B
:103C3A0012000601A85108E0010E4B6E6550020BF6
:103C4A0001E0010E4B5C1BE105016107000E625B9E
:103C5A0063510BE16151621111E18C86A00E616F13
:103C6A000F0E626F010E636F12006151621163E100
:103C7A008C96A00E616F0F0E626F636B1200A8051F
:103C8A0009E0020EA85D06E0040EA85D03E0100E2E
:103C9A00A85D1BE105016107000E625B63510BE140
:103CAA006151621111E18C86200E616F4E0E626FB6
:103CBA00010E636F1200615162113DE18C96200E74
:103CCA00616F4E0E626F636B1200200EA85D33E1C6
:103CDA0005016107000E625B63510AE161516211DD
:103CEA002AE18C86100E616F270E626F010E18D0C2
:103CFA0063050AE1615162111EE18C96100E616F33
:103D0A00270E626F020E0CD0020E635D0BE1615149
:103D1A00621111E18C86A00E616F860E626F030E2E
:103D2A00636F12006151621106E18C96100E616F89
:103D3A00270E626F636B1200D9CFE6FFDACFE6FF78
:103D4A00E1CFD9FFE2CFDAFFFD0EDBCF4BF0190E40
:103D5A00E76E4B18E8AE02D04B3403D0E750D88058
:103D6A004B5453E3FC0EDB5028E0FD0EDBCFE9FF9A
:103D7A00EA6AE9BEEA68C80EE926050EEA22EF50A9
:103D8A004C6E010E4C5204E0E846FE0B4C06FCE178
:103D9A004B6EFD0EDBCFE9FFEA6AE9BEEA68D8900E
:103DAA00E936EA36960EE926050EEA22EE50EFCFFC
:103DBA00EAFFE96E4B50EF1228D0FD0EDBCFE9FF88
:103DCA00EA6AE9BEEA68C80EE926050EEA22EF5059
:103DDA004C6E010E4C5204E0E846FE0B4C06FCE128
:103DEA00E81C4B6EFD0EDBCFE9FFEA6AE9BEEA6822
:103DFA00D890E936EA36960EE926050EEA22EE5002
:103E0A00EFCFEAFFE96E4B50EF16E552E5CFDAFF46
:103E1A00E7CFD9FF1200D9CFE6FFDACFE6FFE1CF2D
:103E2A00D9FFE2CFDAFFFD0EDBCF4BF0190EE76EBA
:103E3A004B18E8AE02D04B3403D0E750D8804B542D
:103E4A0053E3FC0EDB5029E1FD0EDBCFE9FFEA6A02
:103E5A00E9BEEA68C80EE926050EEA22EF504C6E62
:103E6A00010E4C5204E0E846FE0B4C06FCE1E81C4D
:103E7A004B6EFD0EDBCFE9FFEA6AE9BEEA68D8902D
:103E8A00E936EA36640EE926050EEA22EE50EFCF4D
:103E9A00EAFFE96E4B50EF1627D0FD0EDBCFE9FFA4
:103EAA00EA6AE9BEEA68C80EE926050EEA22EF5078
:103EBA004C6E010E4C5204E0E846FE0B4C06FCE147
:103ECA004B6EFD0EDBCFE9FFEA6AE9BEEA68D890DD
:103EDA00E936EA36640EE926050EEA22EE50EFCFFD
:103EEA00EAFFE96E4B50EF12E552E5CFDAFFE7CF72
:103EFA00D9FF1200E9CFE4FFEACFE4FFE652D9CFB7
:103F0A00E6FFDACFE6FFE1CFD9FFE2CFDAFFE652EA
:103F1A009EA0F0D19E908E0ECE6ECF680DC080F21C
:103F2A000201816B0201010E826F0E500F101010F8
:103F3A00111014E0D880000E0E54000E0F54190E02
:103F4A001054000E115405E20E6A0F6A106A116AC3
:103F5A0005D00E06000E0F5A105A115A0E500F10A5
:103F6A001010111002E00201826B8392000401E03A
:103F7A00B3D0055006100710081006E109500A10C0
:103F8A000B100C1001E1A7D00201EB510BE10DA2BD
:103F9A0002D08C8E01D08C9E0DA602D08C8A01D0C4
:103FAA008C9A0DD00201EB050AE10DA202D08B8496
:103FBA0001D08B940DA602D0898401D08994055032
:103FCA0006100710081023E018500124186E195023
:103FDA000220196E000ED8801854800E195415E26A
:103FEA0018C018F019C019F0000E185E800E195A80
:103FFA00010E020180110201806F0201010E816F20
:10400A000506000E065A075A085A0201826B095021
:10401A000A100B100C1023E01A5003241A6E1B50BE
:10402A0004201B6E000ED8801A54800E1B5415E211
:10403A001AC01AF01BC01BF0000E1A5E800E1B5A23
:10404A00040E020180110201806F0201010E816FCC
:10405A000906000E0A5A0B5A0C5A0201826B020117
:10406A00815139E00201EB5107E1020180B18C8CE8
:10407A00020180B58C8809D00201EB0506E1020134
:10408A0080B18B8C020180B5898A00000000000093
:10409A000000000000000000000000000000000016
:1040AA000000000000000000000000000000000006
:1040BA0000000000000000000000000000000000F6
:1040CA000201EB5103E18C9C8C9805D00201EB05AF
:1040DA0002E18B9C899A9DD0030E005C01E099D085
:1040EA000201FC5101E177D01504DF6E1250131062
:1040FA0037E1DF50EA6A310FE96E0E0EEA22EF501D
:10410A000E01EA6AAC25E96EAD51EA22EF6AEA6A63
:10411A00DF34FE0BEA36E96E790EE9260E0EEA2244
:10412A00EE6AED6AEA6ADF34FE0BEA36E96E490E98
:10413A00E9260E0EEA22EE6AED6ADF50EA6A310FCC
:10414A00E96E0E0EEA22EF6AEA6ADF34FE0BEA36FD
:10415A00E96E010EE9260E0EEA22EE6AED6A3BD0FE
:10416A00EA6ADF34FE0BEA36E96E790EE9260E0EAC
:10417A00EA2216C0EEFF17C0EDFFEA6ADF34FE0B33
:10418A00EA36E96E490EE9260E0EEA2212C0EEFF61
:10419A0013C0EDFFDF50EA6A310FE96E0E0EEA2214
:1041AA0014C0EFFFEA6ADF34FE0BEA36E96E010E4D
:1041BA00E9260E0EEA22EE50ED100DE1EA6ADF342E
:1041CA00FE0BEA36E96E010EE9260E0EEA2212C04D
:1041DA00EEFF13C0EDFF0E01B651145C1AE10E0199
:1041EA00B051121802E1B15113180AE10201010E8D
:1041FA00EC6F0201E86B0201FB5101E08A9809D0D9
:10420A000201EC6B0201010EE86F0201FB5101E0B1
:10421A008A880201825162E00E500F1010101110AC
:10422A005DE1006A1C5056E184C200F085C201F0CB
:10423A0086C202F087C203F088C204F089C205F080
:10424A008AC206F08BC207F08CC208F08DC209F050
:10425A008EC20AF08FC20BF090C20CF091C20DF020
:10426A0092C20EF093C20FF094C210F095C211F0F0
:10427A0096C212F097C213F098C214F099C215F0C0
:10428A009AC216F09BC217F00201846B0201856B79
:10429A00866B0201876B886B0201896B8A6B8B6B59
:1042AA008C6B02018D6B8E6B8F6B906B0201916B25
:1042BA000201926B936B946B956B0201966B976BF1
:1042CA000201986B0201996B02019A6B9B6B010EBA
:1042DA001C6E04D00E6A0F6A106A116A8050800B35
:1042EA0006E00201F35106E08150010B03E10201ED
:1042FA00010EF26FE552E552E5CFDAFFE7CFD9FFBB
:10430A00E552E5CFEAFFE5CFE9FF1100D9CFE6FF95
:10431A00DACFE6FFE1CFD9FFE2CFDAFFE652DF6A72
:10432A00DFCF4BF0020EE76E4B18E8AE02D0E7344F
:10433A0002D0E7504B5C24E2DFCFE9FFEA6AE9BE2C
:10434A00EA68D890E936EA36010EE926000EEA2232
:10435A00010EEE6EED6ADFCFE9FFEA6AE9BEEA68AE
:10436A00D890E936EA36D890E936EA36050EE926D3
:10437A00000EEA22EE6AEE6AEE6AEE6ADF2AD0D709
:10438A00006A0D6A0E6A0F6A106A116A126A136A63
:10439A00146A156A166A176A010E1C6ECD92CD9EB2
:1043AA00CD9CCD8ACD98CD96CD948E0ECE6ECF680B
:1043BA00CD809F809E909D8092809F9C010EE66E8C
:1043CA00E66AF1EC12F0E552E552010EE66E0B0ECA
:1043DA00E66EF1EC12F0E552E5528D8496948D82E8
:1043EA009692898C929C8D8096908B8294928C9CCA
:1043FA00959C8C9E959E8C9895988C9A959A949E4D
:10440A00828E000000000000000000000000000092
:10441A000000000000000000000000000000000092
:10442A000000000000000000948E829E0201010E2E
:10443A00FB6F0201010EFC6F8A9893980201010E2C
:10444A00E86F0201EB6B0201010EEC6F0201F16BE6
:10445A000201ED6BEE6BEF6BF06B0201F26B938076
:10446A00F19E0201010EF36F93968196E552E55291
:10447A00E5CFDAFFE7CFD9FF1200D9CFE6FFDACFCF
:10448A00E6FFE1CFD9FFE2CFDAFFE652E652E65283
:10449A00DF6A010EDB6A020EDB6AE66AD9CFE6FF43
:1044AA00DACFE6FF010EE66E3CEC1BF0E552E55270
:1044BA00E552E552E66AD950010FE66E000EDA209F
:1044CA00E66E030EE66E3CEC1BF0E552E552E55251
:1044DA00E552295001E008D1DF043FE1D950010F2C
:1044EA00E96E000EDA20EA6EEE50ED1018E10201D4
:1044FA00010EFB6FFC6B000EE66EE66AE66EE66A7C
:10450A00B6CEE6FFE66EE66AA5EC52F04B6E070EF3
:10451A00E15C02E2E16AE552E16E4B5013D0D950F8
:10452A00010FE96E000EDA20EA6E010EEE1806E1BE
:10453A00ED5004E10201FB6B010E03D00201010EF2
:10454A00FB6FFC6F000EE66EE66AECC2E6FFC3EC98
:10455A002DF0E552E552E552C5D0020EDF5C4AE184
:10456A00D950010FE96E000EDA20EA6EEE50ED1016
:10457A0009E10201EB6B96909492959C959E959811
:10458A00959A31D0D950010FE96E000EDA20EA6E01
:10459A00010EEE1812E1ED5010E10201010EEB6F6F
:1045AA0096809482958C958E9588958A9494929407
:1045BA00949C929A9592929295D0D950010FE96E55
:1045CA00000EDA20EA6E020EEE1801E08BD0ED50F2
:1045DA0001E088D00201020EEB6F96809482958CDE
:1045EA00958E9588958A94849284948C928A9582E1
:1045FA00928278D0040EDF5C07E1010EDBCFB0FEB9
:10460A00020EDBCFB1FE6ED0050EDF5C07E1010EB4
:10461A00DBCFAEFE020EDBCFAFFE64D0080EDF5C4E
:10462A0017E1D950010FE96E000EDA20EA6E180E72
:10463A00D880EE54000EED5407E2180EF36E010E08
:10464A00F3CFDBFF020EDB6A010EDBCFAAFE4AD0F4
:10465A00090EDF5C17E1D950010FE96E000EDA206E
:10466A00EA6E060ED880EE54000EED5407E2060EEE
:10467A00F36E010EF3CFDBFF020EDB6A010EDBCF16
:10468A00ABFE30D00A0EDF5C07E1010EDBCFB2FED3
:10469A00020EDBCFB3FE0DD00B0EDF5C07E1010E7D
:1046AA00DBCFB2FE020EDBCFB3FE1CD00C0EDF5CFA
:1046BA0007E1010EDBCFB4FE020EDBCFB5FE12D04E
:1046CA000D0EDF5C0FE1D950010FE96E000EDA2002
:1046DA00EA6EEE50ED1004E00201010EF36F02D013
:1046EA000201F36BCBEC11F0E552E552E552E552CB
:1046FA00E5CFDAFFE7CFD9FF1200D9CFE6FFDACF4D
:10470A00E6FFE1CFD9FFE2CFDAFF100EE12402E3A0
:10471A00E168E652E16EDE6ADE6ADE6ADD6ADD5271
:10472A00DD52040EDB6A050EDB6A060EDB6A070E33
:10473A00DB6A080EDB6A090EDB6A0A0EDB6A0B0EFD
:10474A00DB6A0C0EDB6A0D0EDB6A0E0EDB6A0F0EDD
:10475A00DB6AE66AD9CFE6FFDACFE6FF070EE66E36
:10476A003CEC1BF0E552E552E552E552E66AD950B7
:10477A00040FE66E000EDA20E66E060EE66E3CECDC
:10478A001BF0E552E552E552E552010EE66ED950AC
:10479A00080FE66E000EDA20E66E060EE66E3CECB8
:1047AA001BF0E552E552E552E552D9CFE9FFDACFDF
:1047BA00EAFFEECF4BF0EECF4CF0EECF4DF0EFCF5D
:1047CA004EF04B504C104D104E1001E1298C040E46
:1047DA00DBCF3CF0050EDBCF3DF0060EDBCF3EF023
:1047EA00070EDBCF3FF03F34000E3F1809E6D880B2
:1047FA00000E3C54000E3D54000E3E54000E3F5431
:10480A0013E2D950040FE96E000EDA20EA6E0C0E9C
:10481A00EECFDBFF0D0EEECFDBFF0E0EEECFDBFF92
:10482A000F0EEECFDBFF1ED0040EDBCF3BF0050EE2
:10483A00DBCF3CF0060EDBCF3DF0070EDBCF3EF0C0
:10484A00406841684268436847EC57F00C0E37C02D
:10485A00DBFF0D0E38C0DBFF0E0E39C0DBFF0F0E7B
:10486A003AC0DBFFD9CFE9FFDACFEAFFD880FF0EE3
:10487A00EE54FF0EEE54FF0EEE54000EEE5404E218
:10488A00320E4B6E990E74D10C0EDBCF3CF00D0E2E
:10489A00DBCF3DF00E0EDBCF3EF00F0EDBCF3FF04D
:1048AA003F34000E3F1809E6D880FF0E3C54FF0E35
:1048BA003D54FF0E3E54000E3F5404E2040E4B6E6C
:1048CA00990E56D10C0EDBCF4BF00D0EDBCF4CF010
:1048DA000E0EDBCF4DF00F0EDBCF4EF04BC03BF090
:1048EA004CC03CF04DC03DF04EC03EF0DFCF40F032
:1048FA00010EDBCF41F0020EDBCF42F0030EDBCF1D
:10490A0043F0D2EC57F0D880190E3B54000E3C54B9
:10491A00000E3D54000E3E5404E2D40E4B6E980E27
:10492A0027D1D9CFE9FFDACFEAFFEECF4BF0EECFAE
:10493A004CF0EECF4DF0EFCF4EF01F0E406E050E4D
:10494A00416E426A436A4BC03BF04CC03CF04DC0DA
:10495A003DF04EC03EF0D2EC57F03BC04BF03CC0AD
:10496A004CF03DC04DF03EC04EF0D9500C0FE96EF0
:10497A00000EDA20EA6EEE503B5CEE503C58EE50E8
:10498A003D58EE503E5815E30C0EDBCF4FF00D0E9E
:10499A00DBCF50F00E0EDBCF51F00F0EDBCF52F013
:1049AA004F5050105110521004E0AE0E4B6E980E3C
:1049BA00DFD0080EDBCF3CF0090EDBCF3DF00A0E4C
:1049CA00DBCF3EF00B0EDBCF3FF03F34000E3F183B
:1049DA0009E6D880000E3C54000E3D54000E3E54A9
:1049EA00000E3F5413E2D950080FE96E000EDA2088
:1049FA00EA6E0C0EEECFDBFF0D0EEECFDBFF0E0ED6
:104A0A00EECFDBFF0F0EEECFDBFF1ED0080EDBCFA3
:104A1A003BF0090EDBCF3CF00A0EDBCF3DF00B0E6C
:104A2A00DBCF3EF0406841684268436847EC57F084
:104A3A000C0E37C0DBFF0D0E38C0DBFF0E0E39C07F
:104A4A00DBFF0F0E3AC0DBFF0C0EDBCF3CF00D0E86
:104A5A00DBCF3DF00E0EDBCF3EF00F0EDBCF3FF08B
:104A6A003F34000E3F1809E6D880FF0E3C54FF0E73
:104A7A003D54FF0E3E54000E3F5404E2800E4B6E2E
:104A8A00980E76D00C0EDBCF4BF00D0EDBCF4CF030
:104A9A000E0EDBCF4DF00F0EDBCF4EF04BC03BF0CE
:104AAA004CC03CF04DC03DF04EC03EF0DFCF40F070
:104ABA00010EDBCF41F0020EDBCF42F0030EDBCF5B
:104ACA0043F0D2EC57F0D880190E3B54000E3C54F8
:104ADA00000E3D54000E3E5404E2500E4B6E980EEA
:104AEA0047D0D9CFE9FFDACFEAFFEECF4BF0EECFCE
:104AFA004CF0EECF4DF0EFCF4EF01F0E406E050E8C
:104B0A00416E426A436A4BC03BF04CC03CF04DC018
:104B1A003DF04EC03EF0D2EC57F03BC04BF03CC0EB
:104B2A004CF03DC04DF03EC04EF0D9500C0FE96E2E
:104B3A00000EDA20EA6EEE503B5CEE503C58EE5026
:104B4A003D58EE503E5821E30C0EDBCF4FF00D0ED0
:104B5A00DBCF50F00E0EDBCF51F00F0EDBCF52F051
:104B6A004F5050105110521010E02A0E4B6E980EF2
:104B7A004C6E4D6A4BC0E6FFE66E4DC0E6FF28EC70
:104B8A0056F0E552E552E55235D0295033E1D95075
:104B9A00080FE96E000EDA20EA6EEECFE6FFEECFDE
:104BAA00E6FFEECFE6FFEFCFE6FFD950040FE96E3E
:104BBA00000EDA20EA6EEECFE6FFEECFE6FFEECF8A
:104BCA00E6FFEFCFE6FFD9CFE9FFDACFEAFFEECF74
:104BDA00E6FFEECFE6FFEECFE6FFEFCFE6FFFEDA27
:104BEA004B6E0C0EE15C02E2E16AE552E16E4B505B
:104BFA00CBEC11F0100EE15C02E2E16AE552E16EE3
:104C0A00E552E5CFDAFFE7CFD9FF1200D9CFE6FFA9
:104C1A00DACFE6FFE1CFD9FFE2CFDAFF180EE124BF
:104C2A0002E3E168E652E16EDE6ADE6ADE6ADD6AA6
:104C3A00DD52DD52040EDB6A050EDB6A060EDB6A04
:104C4A00070EDB6A080EDB6A090EDB6A0A0EDB6AEC
:104C5A000B0EDB6A0C0EDB6A0D0EDB6A0E0EDB6ACC
:104C6A000F0EDB6A100EDB6A110EDB6A120EDB6AAC
:104C7A00130EDB6A140EDB6A150EDB6A160EDB6A8C
:104C8A00170EDB6AE66AD9CFE6FFDACFE6FF070E30
:104C9A00E66E3CEC1BF0E552E552E552E552E66A57
:104CAA00D9500C0FE66E000EDA20E66E060EE66E9E
:104CBA003CEC1BF0E552E552E552E552E66AD95062
:104CCA00100FE66E000EDA20E66E060EE66E3CEC7B
:104CDA001BF0E552E552E552E552D9CFE9FFDACFAA
:104CEA00EAFFEECF4BF0EECF4CF0EECF4DF0EFCF28
:104CFA004EF04B504C104D104E1001E1298C100E05
:104D0A00DBCF4BF0110EDBCF4CF0120EDBCF4DF0A8
:104D1A00130EDBCF4EF0D9500C0FE96E000EDA20DD
:104D2A00EA6EEE504B26EE504C22EE504D22EE50DB
:104D3A004E22040E4BC0DBFF050E4CC0DBFF060EF5
:104D4A004DC0DBFF070E4EC0DBFF0C0EDBCF4FF072
:104D5A000D0EDBCF50F00E0EDBCF51F00F0EDBCF76
:104D6A0052F0D950100FE96E000EDA20EA6EEE50BA
:104D7A004F5C4B6EEE5050584C6EEE5051584D6E83
:104D8A00EE5052584E6E080E4BC0DBFF090E4CC057
:104D9A00DBFF0A0E4DC0DBFF0B0E4EC0DBFF040E1D
:104DAA00DBCF3CF0050EDBCF3DF0060EDBCF3EF04D
:104DBA00070EDBCF3FF03F34000E3F1809E6D880DC
:104DCA00000E3C54000E3D54000E3E54000E3F545B
:104DDA0013E2D950040FE96E000EDA20EA6E140EBF
:104DEA00EECFDBFF150EEECFDBFF160EEECFDBFFAD
:104DFA00170EEECFDBFF1ED0040EDBCF3BF0050E05
:104E0A00DBCF3CF0060EDBCF3DF0070EDBCF3EF0EA
:104E1A00406841684268436847EC57F0140E37C04F
:104E2A00DBFF150E38C0DBFF160E39C0DBFF170E8D
:104E3A003AC0DBFFD9CFE9FFDACFEAFFD880FF0E0D
:104E4A00EE54FF0EEE54FF0EEE54000EEE5404E242
:104E5A00320E4B6E990E74D1140EDBCF3CF0150E48
:104E6A00DBCF3DF0160EDBCF3EF0170EDBCF3FF067
:104E7A003F34000E3F1809E6D880FF0E3C54FF0E5F
:104E8A003D54FF0E3E54000E3F5404E2040E4B6E96
:104E9A00990E56D1140EDBCF4BF0150EDBCF4CF02A
:104EAA00160EDBCF4DF0170EDBCF4EF04BC03BF0AA
:104EBA004CC03CF04DC03DF04EC03EF0DFCF40F05C
:104ECA00010EDBCF41F0020EDBCF42F0030EDBCF47
:104EDA0043F0D2EC57F0D880190E3B54000E3C54E4
:104EEA00000E3D54000E3E5404E2D40E4B6E980E52
:104EFA0027D1D9CFE9FFDACFEAFFEECF4BF0EECFD9
:104F0A004CF0EECF4DF0EFCF4EF01F0E406E050E77
:104F1A00416E426A436A4BC03BF04CC03CF04DC004
:104F2A003DF04EC03EF0D2EC57F03BC04BF03CC0D7
:104F3A004CF03DC04DF03EC04EF0D950140FE96E12
:104F4A00000EDA20EA6EEE503B5CEE503C58EE5012
:104F5A003D58EE503E5815E3140EDBCF4FF0150EB8
:104F6A00DBCF50F0160EDBCF51F0170EDBCF52F02D
:104F7A004F5050105110521004E0AE0E4B6E980E66
:104F8A00DFD0080EDBCF3CF0090EDBCF3DF00A0E76
:104F9A00DBCF3EF00B0EDBCF3FF03F34000E3F1865
:104FAA0009E6D880000E3C54000E3D54000E3E54D3
:104FBA00000E3F5413E2D950080FE96E000EDA20B2
:104FCA00EA6E140EEECFDBFF150EEECFDBFF160EE8
:104FDA00EECFDBFF170EEECFDBFF1ED0080EDBCFC6
:104FEA003BF0090EDBCF3CF00A0EDBCF3DF00B0E97
:104FFA00DBCF3EF0406841684268436847EC57F0AF
:10500A00140E37C0DBFF150E38C0DBFF160E39C091
:10501A00DBFF170E3AC0DBFF140EDBCF3CF0150E98
:10502A00DBCF3DF0160EDBCF3EF0170EDBCF3FF0A5
:10503A003F34000E3F1809E6D880FF0E3C54FF0E9D
:10504A003D54FF0E3E54000E3F5404E2800E4B6E58
:10505A00980E76D0140EDBCF4BF0150EDBCF4CF04A
:10506A00160EDBCF4DF0170EDBCF4EF04BC03BF0E8
:10507A004CC03CF04DC03DF04EC03EF0DFCF40F09A
:10508A00010EDBCF41F0020EDBCF42F0030EDBCF85
:10509A0043F0D2EC57F0D880190E3B54000E3C5422
:1050AA00000E3D54000E3E5404E2500E4B6E980E14
:1050BA0047D0D9CFE9FFDACFEAFFEECF4BF0EECFF8
:1050CA004CF0EECF4DF0EFCF4EF01F0E406E050EB6
:1050DA00416E426A436A4BC03BF04CC03CF04DC043
:1050EA003DF04EC03EF0D2EC57F03BC04BF03CC016
:1050FA004CF03DC04DF03EC04EF0D950140FE96E51
:10510A00000EDA20EA6EEE503B5CEE503C58EE5050
:10511A003D58EE503E5821E3140EDBCF4FF0150EEA
:10512A00DBCF50F0160EDBCF51F0170EDBCF52F06B
:10513A004F5050105110521010E02A0E4B6E980E1C
:10514A004C6E4D6A4BC0E6FFE66E4DC0E6FF28EC9A
:10515A0056F0E552E552E55235D0295033E1D9509F
:10516A00080FE96E000EDA20EA6EEECFE6FFEECF08
:10517A00E6FFEECFE6FFEFCFE6FFD950040FE96E68
:10518A00000EDA20EA6EEECFE6FFEECFE6FFEECFB4
:10519A00E6FFEFCFE6FFD9CFE9FFDACFEAFFEECF9E
:1051AA00E6FFEECFE6FFEECFE6FFEFCFE6FF16D83B
:1051BA004B6E0C0EE15C02E2E16AE552E16E4B5085
:1051CA00CBEC11F0180EE15C02E2E16AE552E16E05
:1051DA00E552E5CFDAFFE7CFD9FF1200D9CFE6FFD4
:1051EA00DACFE6FFE1CFD9FFE2CFDAFFE652E652A5
:1051FA00E652E652DE6ADE6ADE6ADD6ADD52DD52B8
:10520A00D950F20FE96EFF0EDA20EA6EEECFE6FF12
:10521A00EECFE6FFEECFE6FFEFCFE6FFD950F60F6F
:10522A00E96EFF0EDA20EA6EEECFE6FFEECFE6FF7A
:10523A00EECFE6FFEFCFE6FFD950FA0FE96EFF0E89
:10524A00DA20EA6EEECFE6FFEECFE6FFEECFE6FF1C
:10525A00EFCFE6FF100E4B6E980E4C6E4D6A4BC0A8
:10526A00E6FFE66E4DC0E6FF28EC56F04E6E0F0ED6
:10527A00E15C02E2E16AE552E16E4E501C50FEE04A
:10528A00F60EDBCF4BF0F70EDBCF4CF0F80EDBCF90
:10529A004DF0F90EDBCF4EF04B504C104D104E1026
:1052AA0038E1F20EDBCF4FF0F30EDBCF50F0F40E05
:1052BA00DBCF51F0F50EDBCF52F04F5050105110AA
:1052CA00521027E10201020E846FFA0EDBCF92F22E
:1052DA00FB0EDBCF93F2FC0EDBCF94F2FD0EDBCF9D
:1052EA0095F2190E406E416A426A436A92C23BF0D5
:1052FA0093C23CF094C23DF095C23EF047EC57F0A1
:10530A0037C092F238C093F239C094F23AC095F29B
:10531A0062D20201926B936B946B956B916B8D9039
:10532A008B92D950F60FE96EFF0EDA20EA6ED8900A
:10533A00030EEB50000A08E6000EEE5C000EEE5873
:10534A00000EEE58000EEE5821E2020E9111916FF6
:10535A00F60EDBCF3BF0F70EDBCF3CF0F80EDBCFDF
:10536A003DF0F90EDBCF3EF0406841684268436881
:10537A0047EC57F0F60E37C0DBFFF70E38C0DBFFFD
:10538A00F80E39C0DBFFF90E3AC0DBFFD950F20F35
:10539A00E96EFF0EDA20EA6ED890030EEB50000A8F
:1053AA0008E6000EEE5C000EEE58000EEE58000EF7
:1053BA00EE5822E2080E02019111916FF20EDBCF34
:1053CA003BF0F30EDBCF3CF0F40EDBCF3DF0F50EF5
:1053DA00DBCF3EF0406841684268436847EC57F0CB
:1053EA00F20E37C0DBFFF30E38C0DBFFF40E39C014
:1053FA00DBFFF50E3AC0DBFFD950F60FE96EFF0E60
:10540A00DA20EA6ED890030EEB50000A08E6FF0E87
:10541A00EE5CFF0EEE58010EEE58000EEE5828E232
:10542A00F60EDBCF3BF0F70EDBCF3CF0F80EDBCF0E
:10543A003DF0F90EDBCF3EF00F0ED8903B363C36EE
:10544A003D363E36E806F9E1190E406E416A426A77
:10545A00436AD2EC57F0FA0EDBCF40F0FB0EDBCFFB
:10546A0041F0FC0EDBCF42F0FD0EDBCF43F02FD034
:10547A00F60EDBCF4BF0F70EDBCF4CF0F80EDBCF9E
:10548A004DF0F90EDBCF4EF04BC03BF04CC03CF078
:10549A004DC03DF04EC03EF0FA0EDBCF40F0FB0EA1
:1054AA00DBCF41F0FC0EDBCF42F0FD0EDBCF43F049
:1054BA00D2EC57F00F0ED8903B363C363D363E368E
:1054CA00E806F9E1190E406E416A426A436AD2EC73
:1054DA0057F03BC0DEFF3CC0DEFF3DC0DEFF3EC0F2
:1054EA00DDFFDD52DD52D9CFE9FFDACFEAFFD880FE
:1054FA00000EEE54800EEE54000EEE54000EEE54E2
:10550A0027E2D9CFE9FFDACFEAFFEECFE6FFEECF07
:10551A00E6FFEECFE6FFEFCFE6FFDB0E4B6E970E10
:10552A004C6E4D6A4BC0E6FFE66E4DC0E6FF28ECB6
:10553A0056F04E6E070EE15C02E2E16AE552E16E58
:10554A004E50DE6A800EDE6EDE6ADD6ADD52DD52A4
:10555A00D9CFE9FFDACFEAFFEECF4BF0EECF4CF02E
:10556A00EECF4DF0EFCF4EF04B504C104D104E1089
:10557A0027E1F60EDBCF4FF0F70EDBCF50F0F80E37
:10558A00DBCF51F0F90EDBCF52F04F5050105110D3
:10559A00521016E0B00E4B6E970E4C6E4D6A4BC011
:1055AA00E6FFE66E4DC0E6FF28EC56F0E552E552FE
:1055BA00E552010EDE6EDE6ADE6ADD6ADD52DD521A
:1055CA00000EDFCF85F2010EDBCF86F2F60EDBCFBF
:1055DA0089F2F70EDBCF8AF2F80EDBCF8BF2F90EE7
:1055EA00DBCF8CF2D950F20FE96EFF0EDA20EA6EA9
:1055FA00D890030EEB50000A08E6FF0EEE5CFF0E91
:10560A00EE58010EEE58000EEE5828E2F20EDBCFED
:10561A003BF0F30EDBCF3CF0F40EDBCF3DF0F50EA2
:10562A00DBCF3EF00F0ED8903B363C363D363E3649
:10563A00E806F9E1190E406E416A426A436AD2EC01
:10564A0057F0FA0EDBCF40F0FB0EDBCF41F0FC0E39
:10565A00DBCF42F0FD0EDBCF43F02FD0F20EDBCFD3
:10566A004BF0F30EDBCF4CF0F40EDBCF4DF0F50E22
:10567A00DBCF4EF04BC03BF04CC03CF04DC03DF090
:10568A004EC03EF0FA0EDBCF40F0FB0EDBCF41F00E
:10569A00FC0EDBCF42F0FD0EDBCF43F0D2EC57F02D
:1056AA000F0ED8903B363C363D363E36E806F9E1D9
:1056BA00190E406E416A426A436AD2EC57F03BC007
:1056CA00DEFF3CC0DEFF3DC0DEFF3EC0DDFFDD5237
:1056DA00DD52D9CFE9FFDACFEAFFD880000EEE54C7
:1056EA00800EEE54000EEE54000EEE5427E2D9CF8F
:1056FA00E9FFDACFEAFFEECFE6FFEECFE6FFEECF25
:10570A00E6FFEFCFE6FF7B0E4B6E970E4C6E4D6AAF
:10571A004BC0E6FFE66E4DC0E6FF28EC56F04E6E33
:10572A00070EE15C02E2E16AE552E16E4E50DE6A82
:10573A00800EDE6EDE6ADD6ADD52DD52D9CFE9FF08
:10574A00DACFEAFFEECF4BF0EECF4CF0EECF4DF0D2
:10575A00EFCF4EF04B504C104D104E1027E1F20E89
:10576A00DBCF4FF0F30EDBCF50F0F40EDBCF51F06E
:10577A00F50EDBCF52F04F5050105110521016E078
:10578A00500E4B6E970E4C6E4D6A4BC0E6FFE66E9E
:10579A004DC0E6FF28EC56F0E552E552E552010EFF
:1057AA00DE6EDE6ADE6ADD6ADD52DD52000EDFCFB2
:1057BA0087F2010EDBCF88F2F20EDBCF8DF2F30E09
:1057CA00DBCF8EF2F40EDBCF8FF2F50EDBCF90F249
:1057DA000201010E846F1C6A040EE15C02E2E16AB6
:1057EA00E552E16EE552E5CFDAFFE7CFD9FF1200C5
:1057FA00D9CFE6FFDACFE6FFE1CFD9FFE2CFDAFF72
:10580A00110EE12402E3E168E652E16EDF6A010E5D
:10581A00DB6A020EDB6A030EDB6A040EDB6A050E24
:10582A00DB6A060EDB6A070EDB6A080EDB6A090E04
:10583A00DB6A0A0EDB6A0B0EDB6A0C0EDB6A0D0EE4
:10584A00DB6A0E0EDB6A0F0EDB6A100EDB6A1C5077
:10585A0003E10201840502E0000402E1010EDF6EA9
:10586A000201840523E1846B090E89C2DBFF0A0E5B
:10587A008AC2DBFF0B0E8BC2DBFF0C0E8CC2DBFF76
:10588A000D0E8DC2DBFF0E0E8EC2DBFF0F0E8FC216
:10589A00DBFF100E90C2DBFF896B8A6B8B6B8C6B04
:1058AA008D6B8E6B8F6B906B010E1C6E000421E169
:1058BA00006A010E05C0DBFF020E06C0DBFF030E05
:1058CA0007C0DBFF040E08C0DBFF050E09C0DBFFC3
:1058DA00060E0AC0DBFF070E0BC0DBFF080E0CC06A
:1058EA00DBFF056A066A076A086A096A0A6A0B6AB6
:1058FA000C6AD950050FE96E000EDA20EA6EEECF77
:10590A00E6FFEECFE6FFEECFE6FFEFCFE6FFD95098
:10591A00010FE96E000EDA20EA6EEECFE6FFEECF57
:10592A00E6FFEECFE6FFEFCFE6FFD9500D0FE96EA7
:10593A00000EDA20EA6EEECFE6FFEECFE6FFEECFFC
:10594A00E6FFEFCFE6FFD950090FE96E000EDA2025
:10595A00EA6EEECFE6FFEECFE6FFEECFE6FFEFCF41
:10596A00E6FFDFCFE6FFE66A3B0E4B6E970E4C6E04
:10597A004D6A4BC0E6FFE66E4DC0E6FF28EC56F0D6
:10598A004E6E150EE15C02E2E16AE552E16E4E509E
:10599A00CBEC11F0110EE15C02E2E16AE552E16E34
:1059AA00E552E5CFDAFFE7CFD9FF1200ECC24BF0A0
:1059BA004C6A4BBE4C684BC0E6FF4CC0E6FF360E45
:1059CA004D6E970E4E6E4F6A4DC0E6FFE66E4FC0A3
:1059DA00E6FF28EC56F0506E050EE15C02E2E16A41
:1059EA00E552E16E5050CBEF11F0D9CFE6FFDACF96
:1059FA00E6FFE1CFD9FFE2CFDAFFE652E652DE6AEE
:105A0A00DD6A010EE66ED9CFE6FFDACFE6FF030EB6
:105A1A00E66E3CEC1BF0E552E552E552E5522950A0
:105A2A0015E10201EC0506E1DECFE6FFDDCFE6FF78
:105A3A00E66A06D0DECFE6FFDDCFE6FF010EE66EB0
:105A4A009DD8E552E552E552CBEC11F0E552E5520C
:105A5A00E552E5CFDAFFE7CFD9FF1200D9CFE6FF4B
:105A6A00DACFE6FFE1CFD9FFE2CFDAFFE652E6521C
:105A7A00E652E652E652DF6A010EDB6A020EDB6A82
:105A8A00010EF36E030EF3CFDBFFE66AD9CFE6FF12
:105A9A00DACFE6FF010EE66E3CEC1BF0E552E5526A
:105AAA00E552E552010EE66ED950010FE66E000E80
:105ABA00DA20E66E030EE66E3CEC1BF0E552E55288
:105ACA00E552E552010EE66ED950030FE66E000E5E
:105ADA00DA20E66E010EE66E3CEC1BF0E552E5526A
:105AEA00E552E552E76E040EE7CFDBFF29503AE1B3
:105AFA00030EDB50070805E2010EF36E030EF3CF27
:105B0A00DBFFDF50010802E2010EDF6E030EDB50FD
:105B1A00030F0E01B65D18E0000EE66EE66AE66E49
:105B2A00E66AB6CEE6FFE66EE66AA5EC52F04B6E82
:105B3A00070EE15C02E2E16AE552E16E4B50030EA8
:105B4A00DB50030F0E01B66F010EDBCFE6FF020E2C
:105B5A00DBCFE6FFDFCFE6FF11D8E552E552E5528B
:105B6A00CBEC11F0050EE15C02E2E16AE552E16E6E
