:020000040000FA
:0610000023EF58F012007E
:061008007FEF1FF0120053
:0610180022EF08F01200B7
:06102A000200AAB0000064
:1010300000050000E1000000A8B00000BC0E0000A8
:0410400002000000AA
:0C104400D8CFE4FFE0CFE4FFE46EE9CF7A
:10105000E4FFEACFE4FFF3CFE4FFF4CFE4FFE6528E
:10106000D9CFE6FFDACFE6FFE1CFD9FFE2CFDAFF53
:10107000E652E652E652E652020EDB6A030EDB6AE5
:10108000A4A6F7D2A4960E01002B0E01AB510E01BF
:10109000005D01E255D1006B0E01A951EA6A310FE2
:1010A000E96E0E0EEA22EF500E01EA6AAC25E96EF7
:1010B000AD51EA22EF6A79907B6A7A6A0E01A92B18
:1010C0000E01AA510E01A95D01E3A96BA951E96EB8
:1010D000EA6AD890E936EA36010EE9260E0EEA22CF
:1010E000EE50ED1001E12CD1A951E96EEA6AD890D9
:1010F000E936EA36490EE9260E0EEA22EECF57F01F
:10110000EFCF58F0A951E96EEA6AD890E936EA368D
:10111000010EE9260E0EEA22EECF59F0EFCF5AF07B
:101120005950571802E15A50581801E1CBD0A95133
:10113000E96EEA6AD890E936EA36790EE9260E0EAB
:10114000EA22EE50ED1001E1A1D0A951E96EEA6A60
:10115000D890E936EA36490EE9260E0EEA22EECF9D
:1011600059F0EFCF5AF0A951E96EEA6AD890E93602
:10117000EA36010EE9260E0EEA22EE50595C576E51
:10118000EE505A58586E020E57C0DBFF030E58C07F
:10119000DBFF020EDBCF57F0030EDBCF58F05834E5
:1011A0003BE257500008000E585436E2020EDBCFE7
:1011B00057F0030EDBCF58F0A951E96EEA6AD890D8
:1011C000E936EA36790EE9260E0EEA22EECF59F01C
:1011D000EFCF5AF05750595C58505A5857E2A9511E
:1011E000E96EEA6AD890E936EA36790EE9260E0EFB
:1011F000EA22EECF57F0EFCF58F0A951E96EEA6A34
:10120000D890E936EA36010EE9260E0EEA2257504A
:10121000EE265850ED2256D0020EDBCF57F0030ECB
:10122000DBCF58F0576C581E000E5822A951E96EBA
:10123000EA6AD890E936EA36790EE9260E0EEA22F5
:10124000EECF59F0EFCF5AF05750595C58505A58DA
:101250001DE2A951E96EEA6AD890E936EA36790EBC
:10126000E9260E0EEA22EECF57F0EFCF58F0A95143
:10127000E96EEA6AD890E936EA36010EE9260E0EE2
:10128000EA225750EE5E5850ED5A1CD0A951E96E33
:10129000EA6AD890E936EA36490EE9260E0EEA22C5
:1012A000EECF57F0EFCF58F0A951E96EEA6AD89027
:1012B000E936EA36010EE9260E0EEA2257C0EEFFA5
:1012C00058C0EDFFA951EA6A310FE96E0E0EEA220D
:1012D000EF500E01EA6AAC25E96EAD51EA22120E1A
:1012E000EF6EF29E0E01A951E96EEA6AD890E936D6
:1012F000EA36010EE9260E0EEA22EECF57F0EFCFC6
:1013000058F058C057F0586A5750B66EA951E96E58
:10131000EA6AD890E936EA36010EE9260E0EEA228C
:10132000EECF57F0EFCF58F05750B56EF00EB41423
:101330000009B46EF00EB4140909B46E7980F28E0F
:10134000000ED8801F54000E20542EE22D2A000ECD
:101350002E221F502D5C20502E5826E32D6A2E6A17
:10136000030E235C1FE22150EA6A200FE96E010E92
:10137000EA2280CFEFFF2150EA6A230FE96E010EC7
:10138000EA2281CFEFFF2150EA6A260FE96E010EB3
:10139000EA2282CFEFFF212A030E215C01E3216ABA
:1013A000232A02D01F6A206A000ED8802454000E1F
:1013B00025541CE2000ED8803354000E345416E23B
:1013C0002F2A000E302224502F5C255030580EE377
:1013D0002F6A306A030E285C07E2262A030E265C79
:1013E00001E3266A282A02D0246A256A3350341081
:1013F0000BE0050E325C07E3C18C9E9C9D8CC28085
:10140000C282326A01D0322A0501005101E11DD1A8
:10141000DE6ADD6ADECF57F0DDCF58F0040E575C90
:10142000000E585801E311D1DECFE9FFDDCFEAFF0E
:10143000010ED890E936EA36E806FBE1010EE9260E
:10144000050EEA22EE50ED1001E1D3D0DECFE9FF28
:10145000DDCFEAFF010ED890E936EA36E806FBE177
:10146000110EE926050EEA22EE50ED1026E1D9CF45
:10147000E9FFDACFEAFFEE50ED1001E18180D9CF2C
:10148000E9FFDACFEAFF010EEE1803E1ED5001E1CA
:101490008182D9CFE9FFDACFEAFF020EEE1803E12D
:1014A000ED5001E18184D9CFE9FFDACFEAFF030EE5
:1014B000EE1803E1ED5001E18186DECFE9FFDDCFDB
:1014C000EAFF010ED890E936EA36E806FBE1110E94
:1014D000E926050EEA22EECF57F0EFCF58F0DECF27
:1014E000E9FFDDCFEAFF010ED890E936EA36E806DB
:1014F000FBE1010EE926050EEA22EECF59F0EFCF0F
:101500005AF05950571829E15A50581826E1D9CFA6
:10151000E9FFDACFEAFFEE50ED1001E18190D9CF7B
:10152000E9FFDACFEAFF010EEE1803E1ED5001E129
:101530008192D9CFE9FFDACFEAFF020EEE1803E17C
:10154000ED5001E18194D9CFE9FFDACFEAFF030E34
:10155000EE1803E1ED5001E18196DECFE9FFDDCF2A
:10156000EAFF010ED890E936EA36E806FBE1110EF3
:10157000E926050EEA22EE2A000EEF22DECFE9FF71
:10158000DDCFEAFF010ED890E936EA36E806FBE146
:10159000110EE926050EEA22EECF57F0EFCF58F0F4
:1015A000DECFE9FFDDCFEAFF010ED890E936EA365B
:1015B000E806FBE1090EE926050EEA22EECF59F016
:1015C000EFCF5AF0595057183AE15A50581837E1AE
:1015D000DECFE9FFDDCFEAFF010ED890E936EA362B
:1015E000E806FBE1110EE926050EEA22EE6AED6A35
:1015F00026D0D9CFE9FFDACFEAFFEE50ED1001E1B6
:101600008190D9CFE9FFDACFEAFF010EEE1803E1AE
:10161000ED5001E18192D9CFE9FFDACFEAFF020E66
:10162000EE1803E1ED5001E18194D9CFE9FFDACF63
:10163000EAFF030EEE1803E1ED5001E18196DF2A87
:10164000010E01E2E7D6DB2AE5D60201F45101E002
:10165000F4070201FF0EF55DFF0EF65903E2F52BCC
:10166000000EF6230201F751F81103E0F707000E10
:10167000F85B9EAC40D09E9CC1AC06D0C19C010ED4
:10168000356E366A316A1CD0C450596E5A6E596A2A
:10169000C35000015910576E5AC058F03150E96ECE
:1016A000EA6AD890E936EA36000EE926010EEA2207
:1016B00057C0EEFF58C0EDFFD89035363636312A88
:1016C000100E315C0EE235503314576E3650341420
:1016D000586E5750581005E1312AD89035363636B5
:1016E000EFD7100E315C02E39D9C05D03150040D04
:1016F000F328C26EC282F2A442D0D59EF294F29A2E
:10170000040E576E2C50EA6A290FE96E010EEA2288
:10171000EF50575C34E1080E2C5C0DE2070E2C14E0
:10172000576E010E575204E0E846FE0B5706FCE1E7
:10173000E81C89161CD0100E2C5C0DE2070E2C1430
:10174000576E010E575204E0E846FE0B5706FCE1C7
:10175000E81C8A160CD0070E2C14576E010E575237
:1017600004E0E846FE0B5706FCE1E81C8B162C5003
:10177000EA6A290FE96E010EEA22020EEF6E040EEC
:10178000E15C02E2E16AE552E16EE552E5CFDAFFA3
:10179000E7CFD9FFE552E5CFF4FFE5CFF3FFE5CF83
:1017A000EAFFE5CFE9FFE550E5CFE0FFE5CFD8FF61
:1017B0001000D9CFE6FFDACFE6FFE1CFD9FFE2CFC5
:1017C000DAFFE652E652896A9268336A346A8A6AB4
:1017D00093688B6A94688C968C9495969594928E67
:1017E0000601010EFD6F0E01BC69BD69276A266AFC
:1017F000286A226A216A236A1F6A206A246A256A83
:101800002D6A2E6A2F6A306A316A76827680769CDB
:10181000769A76887696FA0E776EDF6ADFCF4BF08F
:10182000100EE76E4B18E8AE02D0E73402D0E75056
:101830004B5C10E2DFCFE9FFEA6AE9BEEA68D890C4
:10184000E936EA36000EE926010EEA22EE6AED6A72
:10185000DF2AE4D70601F76BF86BF56BF66BF96BD3
:10186000FA6BFB6BFC6B2A6A2B6A2C6ADF6ADFCF90
:101870004BF0180EE76E4B18E8AE02D0E73402D0FA
:10188000E7504B5C1BE2DFCFE9FFEA6AE9BEEA689A
:10189000D890E936EA36410EE926010EEA22EE6AD0
:1018A000ED6ADFCFE9FFEA6AE9BEEA68290EE926B8
:1018B000010EEA22010EEF6EDF2AD9D7D586D59A1E
:1018C000D59CF294F29AF1940F01498FBE0EC16E2D
:1018D000D08E7694A386A5968BEC21F06EEC51F019
:1018E000F28EF28C768464EC3AF0E552E552E552E1
:1018F000E5CFDAFFE7CFD9FF1200D9CFE6FFDACF85
:10190000E6FFE1CFD9FFE2CFDAFFE652E652E65238
:10191000E652E652020EDB6A030EDB6A040EDB6A55
:101920001EEC1EF06FEC3AF02350000809E234EC94
:1019300014F0222A030E225C01E1226A2306F4D766
:101940002850000809E268EC14F0272A030E275CEF
:1019500001E1276A2806F4D7200E0601E76EA819D0
:10196000E8AE02D0E73402D0E750A85D01E2BCD176
:101970006550020B01E0B8D1400EE66E400EE66EF7
:10198000020EE66EAFEC4FF0E552E552E552E76E1F
:10199000030EE7CFDBFFDB50000801E328D1040E84
:1019A000DB6A030EDB50F36E040EDBCFF4FFF35063
:1019B000F45C01E31CD1040EDB50EA6A400FE96ECF
:1019C000020EEA22EFCFDFFF05015D5141E10D0E6E
:1019D0004B6EDF504B5C05E00A0E4C6EDF504C5CEA
:1019E00037E1010E5D6F0601F751EA6A000FE96EFB
:1019F000030EEA220D0EEF6EF72B010EDB6AF75194
:101A0000F36E010EDBCFF4FFF350F45C1CE2010E29
:101A1000DBCFE9FFEA6AE9BEEA68000EE926030EB9
:101A2000EA22EF50E66E010EDBCFE9FFEA6AE9BE7B
:101A3000EA68190EE926050EEA22E552E750EF6E34
:101A4000010EDB2ADCD7E8D90601F76BF86BBFD0B3
:101A50001B0EDF5C09E1595107E1010E596F1B0EA6
:101A60005A6F5B6B5C6BB3D059050BE15B0EDF5CAF
:101A700008E11B0E5A5D05E15B5103E15B0E5B6FF4
:101A8000A6D059056AE1410EDF5C67E11B0E5A5D85
:101A900064E15B0E5B5D61E15A6B5B6B5C6B596B88
:101AA000010EDB6ADBCFE9FFEA6AE9BEEA68000EF5
:101AB000E926030EEA22EF500D081CE0010EDBCFF1
:101AC000E9FFEA6AE9BEEA68190EE926050EEA228C
:101AD000EF50E66E010EDBCFE9FFEA6AE9BEEA6885
:101AE000000EE926030EEA22E552E750EF6E010EE2
:101AF000DB2AD8D7010EDBCFF7F60601F751EA6AE9
:101B0000000FE96E030EEA22EF6A3E0E4B6E9B0E4B
:101B10004C6E4D6A4BC0E6FFE66E4DC0E6FF28EC0A
:101B200056F0E552E552E552000EE66E030EE66E03
:101B30003B0E4B6E9B0E4C6E4D6A4BC0E6FFE66E45
:101B40004DC0E6FF28EC56F04E6E050EE15C02E259
:101B5000E16AE552E16E4E503AD0080EDF5C1CE1BE
:101B60000601F751000818E2F707F751EA6A000F7B
:101B7000E96E030EEA22EF6A380E4B6E9B0E4C6E36
:101B80004D6A4BC0E6FFE66E4DC0E6FF28EC56F00E
:101B9000E552E552E5521BD00D0EDF5C18E00A0E4F
:101BA000DF5C15E0200EDF5C12E305015A6B5B6B16
:101BB0005C6B596B0601F751EA6A000FE96E030E80
:101BC000EA22DFCFEFFF05015D6B0601F72B06016F
:101BD000F7514B6E4C6A000E4B1806E1010E4C1883
:101BE00003E12986F76BF86B040EDB2ADAD629505D
:101BF00001E179D029A00FD0320E4B6E9B0E4C6EB6
:101C00004D6A4BC0E6FFE66E4DC0E6FF28EC56F08D
:101C1000E552E552E55229A20FD0130E4B6E9B0EF2
:101C20004C6E4D6A4BC0E6FFE66E4DC0E6FF28ECF9
:101C300056F0E552E552E55229A40FD0F70E4B6E4F
:101C40009A0E4C6E4D6A4BC0E6FFE66E4DC0E6FF45
:101C500028EC56F0E552E552E55229A60FD0DB0EEE
:101C60004B6E9A0E4C6E4D6A4BC0E6FFE66E4DC051
:101C7000E6FF28EC56F0E552E552E55229A80FD0D0
:101C8000BC0E4B6E9A0E4C6E4D6A4BC0E6FFE66E74
:101C90004DC0E6FF28EC56F0E552E552E55229AC7E
:101CA0000FD09B0E4B6E9A0E4C6E4D6A4BC0E6FFEA
:101CB000E66E4DC0E6FF28EC56F0E552E552E552DF
:101CC000000E29140FE0820E4B6E9A0E4C6E4D6A78
:101CD0004BC0E6FFE66E4DC0E6FF28EC56F0E5523D
:101CE000E552E552296A47D8050EE15C02E2E16A55
:101CF000E552E16EE552E5CFDAFFE7CFD9FF1200FA
:101D0000D9CFE6FFDACFE6FFE1CFD9FFE2CFDAFFA6
:101D1000E652F5C6DFFFDF2A400E4B6EDF504B5C0C
:101D200001E1DF6A0601F651DF5C01E124D806011A
:101D3000F551EA6A000FE96E020EEA22FD0EDBCFD2
:101D4000EFFFF52B400EF55D01E1F56BF651F55D0A
:101D500001E12984FD0EDBCF4BF04C6A4BBE4C6891
:101D60004BC0F3FF4CC0F4FFE552E552E5CFDAFF7C
:101D7000E7CFD9FF1200D9CFE6FFDACFE6FFE1CFF8
:101D8000D9FFE2CFDAFFE6520601F551F65D3DE0FC
:101D90000601905105E0BFEC50F050EC3CF0F8D754
:101DA0000601F651D880F55517E2F651F55DDF6E64
:101DB000DFCFE6FFF6514C6A000F4B6E020E4C224D
:101DC0004BC0E6FF4CC0E6FF19EC50F0E552E5527F
:101DD000E552F5C6F6F617D0400ED880F655DF6E00
:101DE000DFCFE6FFF6514C6A000F4B6E020E4C221D
:101DF0004BC0E6FF4CC0E6FF19EC50F0E552E5524F
:101E0000E5520601F66BBFEC50F0E552E552E5CF26
:101E1000DAFFE7CFD9FF1200D9CFE6FFDACFE6FF2E
:101E2000E1CFD9FFE2CFDAFFE652E652E652E652C0
:101E3000DE6ADD6A020EDB6A030EDB6A0601F85118
:101E4000EA6A000FE96E030EEA22EF50E66EE66AD8
:101E5000ACEC57F0E552E552020EF3CFDBFF060182
:101E6000F82BF8514B6E4C6A000E4B1804E1010E32
:101E70004C1801E1F86B020EDB50DE6EDD6AF851A2
:101E8000EA6A000FE96E030EEA22EF502C0836E0F2
:101E9000F851EA6A000FE96E030EEA22EF500D08CE
:101EA0002DE0F851EA6A000FE96E030EEA22EF50C6
:101EB000E66EE66AACEC57F0E552E552030EF3CF5E
:101EC000DBFF0601F82BF8514B6E4C6A000E4B18E5
:101ED00004E1010E4C1801E1F86B020EDBCF4DF06E
:101EE0004DC04EF04D6A030EDB5000014D244B6E89
:101EF000000E4E204C6E4BC0DEFFDD6E000EDFCFBD
:101F00003DF0010EDBCF3EF04D0E3D1802E1580EC4
:101F10003E1801E1F4D1530E3D1802E1450E3E1882
:101F200001E1EAD1430E3D1802E1410E3E1801E104
:101F3000E1D14D0E3D1802E1510E3E1801E1D7D11D
:101F40004D0E3D1802E1520E3E1801E1CDD1320E88
:101F50003D1802E1530E3E1801E1C3D1450E3D1874
:101F600002E1530E3E1801E1B9D1430E3D1802E1E2
:101F7000510E3E1801E1AFD14B0E3D1802E1430E68
:101F80003E1801E1A5D14C0E3D1802E1420E3E186B
:101F900001E19BD1440E3D1802E14E0E3E1801E1D5
:101FA00091D1490E3D1802E14E0E3E1801E187D154
:101FB000420E3D1802E1510E3E1801E17DD14C0E5A
:101FC0003D1802E1510E3E1801E173D14C0E3D184F
:101FD00002E1530E3E1801E169D14E0E3D1802E1B7
:101FE000510E3E1801E15FD14E0E3D1802E1530E35
:101FF0003E1801E155D1430E3D1802E1530E3E1843
:1020000001E14BD14D0E3D1802E1450E3E1801E1B4
:1020100041D1500E3D1802E1510E3E1801E137D179
:10202000500E3D1802E1540E3E1801E12DD1500E24
:102030003D1802E1530E3E1801E123D14D0E3D182B
:1020400002E1530E3E1801E119D1470E3D1802E19D
:10205000500E3E1801E10FD1430E3D1802E1500E23
:102060003E1801E105D1490E3D1802E1430E3E182C
:1020700001E1FBD0490E3D1802E1520E3E1801E18C
:10208000F1D0490E3D1802E1530E3E1801E1E7D0B0
:10209000530E3D1802E1430E3E1801E1DDD0530E10
:1020A0003D1802E1520E3E1801E1D3D0530E3D1807
:1020B00002E1530E3E1801E1C9D0530E3D1802E172
:1020C000420E3E1801E1BFD0430E3D1802E1420E20
:1020D0003E1801E1B5D0430E3D1802E1520E3E1804
:1020E00001E1ABD04F0E3D1802E1420E3E1801E176
:1020F000A1D0570E3D1802E14D0E3E1801E198D0D7
:10210000520E3D1802E14D0E3E1801E18ED0440EF4
:102110003D1802E1500E3E1801E184D04F0E3D18EB
:1021200002E1500E3E1801E17AD0490E3D1802E15D
:10213000500E3E1871E0580E3D1802E1540E3E1844
:1021400068E0540E3D1801E13E5061E0410E3D183B
:1021500001E13E505AE0560E3D1801E13E5053E079
:10216000490E3D1801E13E504CE04F0E3D1801E193
:102170003E5045E0550E3D1802E1430E3E183DE04D
:10218000580E3D1802E1430E3E1834E0430E3D1850
:1021900001E13E502DE0520E3D1801E13E5026E097
:1021A000580E3D1802E1520E3E181DE0030EDB50A2
:1021B00001E0A8D0020EDBCFE6FFE66ADBCFE6FF48
:1021C000E66A5F0E4B6E9A0E4C6E4D6A4BC0E6FF90
:1021D000E66E4DC0E6FF28EC56F04E6E070EE15C51
:1021E00001E3B2D0AFD019EC18F0B0D0E7D8AED040
:1021F00085D9ACD01BEC18F0A9D0E4D8A7D0A9DAC7
:10220000A5D032DBA3D054DBA1D062DB9FD027D98D
:102210009DD017EC18F09AD071EC16F097D02EECF8
:1022200017F094D086EC15F091D03BEC15F08ED0E1
:10223000DFDB8CD0DAEC18F089D01DEC18F086D0FA
:10224000D8EC18F083D0DCEC18F080D0DEEC18F07D
:102250007DD0E0EC18F07AD0E2EC18F077D0E4EC26
:1022600018F074D0E6EC18F071D0E8EC18F06ED0ED
:10227000EAEC18F06BD085EC19F068D082EC23F012
:1022800065D033EC2DF062D0FAEC2CF05FD0DBECB3
:102290002CF05CD00FEC2EF059D042EC22F056D04E
:1022A000BAEC2EF053D0F3EC2EF050D011EC2FF00E
:1022B0004DD023EC2FF04AD042EC2FF047D09CECCD
:1022C0002EF044D0ADEC2EF041D0CEEC19F03ED043
:1022D000D6EC19F03BD063EC2FF038D083EC2FF024
:1022E00035D01BEC52F032D02BEC30F02FD02CEC50
:1022F00030F02CD0F5D92AD0FDEC2BF027D00BEC08
:1023000026F024D0030EDBCFE6FFE66A020EDBCF19
:10231000E6FFE66A030EDBCFE6FFE66A020EDBCFDE
:10232000E6FFE66A370E4B6E9A0E4C6E4D6A4BC056
:10233000E6FFE66E4DC0E6FF28EC56F04E6E0B0E43
:10234000E15C02E2E16AE552E16E4E500601F851AD
:10235000EA6A000FE96E030EEA22EF500D080DE065
:1023600029500BE1520E4B6E4C6ADF504B1803E1C3
:10237000DE52DD504C1801E0298EF7C6F8F6040E47
:10238000E15C02E2E16AE552E16EE552E5CFDAFF97
:10239000E7CFD9FF12000601FD510FE0EC0E4B6EA6
:1023A000AF0E4C6E4D6A4BC0E6FFE66E4DC0E6FFC9
:1023B00028EC56F0E552E552E5521200D9EC0BF04C
:1023C000CBEF11F0D9CFE6FFDACFE6FFE1CFD9FFAF
:1023D000E2CFDAFFE652E652E652E66AD9CFE6FFEE
:1023E000DACFE6FF010EE66E3CEC1BF0E552E5525B
:1023F000E552E552E66AD950010FE66E000EDA208A
:10240000E66E020EE66E3CEC1BF0E552E552E5523C
:10241000E55229501BE1DF0418E1D950010FE96EA4
:10242000000EDA20EA6EEE50ED100AE0010E4B6E5F
:102430004C6ADB504B1808E1020EDB504C1804E1EB
:10244000010EDBCFFDF601D0298CA5DFE552E55268
:10245000E552E552E5CFDAFFE7CFD9FF1200D9CF39
:10246000E6FFDACFE6FFE1CFD9FFE2CFDAFFE652AF
:10247000E652E652020EDB6AE66A1D0EE66E000EBA
:10248000E66E030EE66E3CEC1BF0E552E552E552BB
:10249000E552E66AD950020FE66E000EDA20E66ECB
:1024A000010EE66E3CEC1BF0E552E552E552E552BA
:1024B00029501BE1020EDB500CE11D501E1003E100
:1024C0001F6A206A11D076841DC01FF01EC020F044
:1024D0000BD01D501E1003E1246A256A05D07684B6
:1024E0001DC024F01EC025F056DFE552E552E5522E
:1024F000E552E5CFDAFFE7CFD9FF1200D9CFE6FFEB
:10250000DACFE6FFE1CFD9FFE2CFDAFFE652E652BB
:10251000E652E652E652E66AD9CFE6FFDACFE6FFA8
:10252000010EE66E3CEC1BF0E552E552E552E55239
:10253000E66AD950010FE66E000EDA20E66E010E53
:10254000E66E3CEC1BF0E552E552E552E552E66AD8
:10255000D950020FE66E000EDA20E66E010EE66E2E
:102560003CEC1BF0E552E552E552E552E66AD950E3
:10257000030FE66E000EDA20E66E010EE66E3CEC0E
:102580001BF0E552E552E552E552E66AD950040FD8
:10259000E66E000EDA20E66E010EE66E3CEC1BF0F5
:1025A000E552E552E552E55229500FE1DF50926EB7
:1025B000010EDB50936E020EDB50946E030EDB5067
:1025C000956E040EDB50966EE6DE050EE15C02E2CF
:1025D000E16AE552E16EE552E5CFDAFFE7CFD9FFD8
:1025E0001200D9CFE6FFDACFE6FFE1CFD9FFE2CF85
:1025F000DAFFFD0EDB50100805E2100EF36EFD0E43
:10260000F3CFDBFFFC0EDB5031E0FD0EDB503FEC87
:1026100058F0F3503312F4503412080EF36EFD0EDE
:10262000DBCFF4FFF350F45C0EE2010EF36EFD0E0F
:10263000DB5004E0D890F336E806FCE1F350F31CDD
:102640000F01481747D0FD0EDB500C0843E3FD0E89
:10265000DB50F80F4B6E010E4B5204E0E846FE0BC8
:102660004B06FCE1E81C0F01491734D0FD0EDB508E
:102670003FEC58F0F3CF4BF0F4CF4CF04B1E4C1E18
:102680004B5033164C503416080EF36EFD0EDBCF54
:10269000F4FFF350F45C0DE2010EF36EFD0EDB501F
:1026A00004E0D890F336E806FCE1F3500F0148133C
:1026B00011D0FD0EDB500C080DE3FD0EDB50F80FC2
:1026C0004B6E010E4B5204E0E846FE0B4B06FCE15C
:1026D0000F014913E552E5CFDAFFE7CFD9FF12002A
:1026E000D9CFE6FFDACFE6FFE1CFD9FFE2CFDAFFBD
:1026F000E652E652E66AD9CFE6FFDACFE6FF010EF0
:10270000E66E3CEC1BF0E552E552E552E552E66A16
:10271000D950010FE66E000EDA20E66E010EE66E6D
:102720003CEC1BF0E552E552E552E552295009E137
:10273000010EDBCFE6FFDFCFE6FF53DFE552E552C8
:102740002ADEE552E552E552E5CFDAFFE7CFD9FFC1
:102750001200D9CFE6FFDACFE6FFE1CFD9FFE2CF13
:10276000DAFFE652E652E66AD9CFE6FFDACFE6FFB5
:10277000010EE66E3CEC1BF0E552E552E552E552E7
:10278000E76E010EE7CFDBFF295066E1010EDB505B
:1027900002E1DF50896E010EE66ED9CFE6FFDACF97
:1027A000E6FFE66E3CEC1BF0E552E552E552E552E1
:1027B000E76E010EE7CFDBFF29504EE1010EDB5043
:1027C00002E1DF508A6E010EE66ED9CFE6FFDACF66
:1027D000E6FFE66E3CEC1BF0E552E552E552E552B1
:1027E000E76E010EE7CFDBFF295036E1010EDB502B
:1027F00002E1DF508B6E010EE66ED9CFE6FFDACF35
:10280000E6FFE66E3CEC1BF0E552E552E552E55280
:10281000E76E010EE7CFDBFF29501EE1010EDB5012
:1028200002E1DF508C6E010EE66ED9CFE6FFDACF03
:10283000E6FFE66E3CEC1BF0E552E552E552E55250
:10284000E76E010EE7CFDBFF295006E1010EDB50FA
:1028500002E1DF508D6E9FDDE552E552E552E5CF96
:10286000DAFFE7CFD9FF12008450E66EE66A8350A4
:10287000E66EE66A8250E66EE66A8150E66EE66AC9
:102880008050E66EE66A1A0E4B6E9A0E4C6E4D6ADA
:102890004BC0E6FFE66E4DC0E6FF28EC56F04E6EEC
:1028A0000D0EE15C02E2E16AE552E16E4E5012006B
:1028B000F40E4B6EAF0E4C6E4D6A4BC0E6FFE66EEB
:1028C0004DC0E6FF28EC56F0E552E552E552120005
:1028D000D9CFE6FFDACFE6FFE1CFD9FFE2CFDAFFCB
:1028E000E652E652E652DF6A010EF36EDB6E020E2E
:1028F000DB6A180E4B6E9A0E4C6E4D6A4BC0E6FFAB
:10290000E66E4DC0E6FF28EC56F0E552E552E55282
:102910009DBCFED7DF6ADFCF4BF0100EE76E4B1881
:10292000E8AE02D0E73402D0E7504B5C49E2010E3A
:10293000DB5033144B6E020EDB5034144C6E4B5094
:102940004C102DE0DFCFE9FFEA6AE9BEEA68D890D3
:10295000E936EA36000EE926010EEA22EECFE6FF5E
:10296000EFCFE6FFDFCF4BF04C6A4BBE4C684BC05D
:10297000E6FF4CC0E6FF0D0E4D6E9A0E4E6E4F6A8E
:102980004DC0E6FFE66E4FC0E6FF28EC56F0506EF5
:10299000070EE15C02E2E16AE552E16E5050010E81
:1029A000DBCF4BF0020EDBCF4CF0D8904B364C36E1
:1029B000010E4BC0DBFF020E4CC0DBFFDF2AABD7A2
:1029C000F10E4B6EAF0E4C6E4D6A4BC0E6FFE66EDD
:1029D0004DC0E6FF28EC56F0E552E552E552E552CF
:1029E000E552E552E552E5CFDAFFE7CFD9FF120015
:1029F000D9CFE6FFDACFE6FFE1CFD9FFE2CFDAFFAA
:102A0000E652E652E652E66AD9CFE6FFDACFE6FFB3
:102A1000030EE66E3CEC1BF0E552E552E552E55242
:102A2000E66AD950020FE66E000EDA20E66E010E5D
:102A3000E66E3CEC1BF0E552E552E552E5522950BA
:102A400011E1DECF4BF0DDCF4CF0000E4B5C100EF1
:102A50004C5807E2DECFE9FFDDCFEAFF020EDBCF05
:102A6000EFFF99DCE552E552E552E552E5CFDAFF9A
:102A7000E7CFD9FF1200D9CFE6FFDACFE6FFE1CFEB
:102A8000D9FFE2CFDAFFE652E652E652E66AD9CF44
:102A9000E6FFDACFE6FF030EE66E3CEC1BF0E552F4
:102AA000E552E552E552295028E1DECF4BF0DDCF6B
:102AB0004CF0000E4B5C100E4C5807E2DECFE9FFE5
:102AC000DDCFEAFF020EEFCFDBFF020EDBCFE6FF2A
:102AD000E66A030E4B6E9A0E4C6E4D6A4BC0E6FFD3
:102AE000E66E4DC0E6FF28EC56F04E6E050EE15C3A
:102AF00002E2E16AE552E16E4E50E552E552E552DE
:102B0000E552E5CFDAFFE7CFD9FF1200D9CFE6FFD4
:102B1000DACFE6FFE1CFD9FFE2CFDAFFE652E652A5
:102B2000E652E66AD9CFE6FFDACFE6FF050EE66E9B
:102B30003CEC1BF0E552E552E552E552E66AD9500D
:102B4000010FE66E000EDA20E66E010EE66E3CEC3A
:102B50001BF0E552E552E552E552E66AD950020F04
:102B6000E66E000EDA20E66E010EE66E3CEC1BF01F
:102B7000E552E552E552E552295001E0A9D0020E96
:102B8000DB50010801E2A0D0010EDB50070801E292
:102B90009BD0410E4B6EDF504B5C1AE1020EDB50B6
:102BA0000CE1010EF36EDB5004E0D890F336E8063A
:102BB000FCE1F350F31C921689D0010EF36EDB504A
:102BC00004E0D890F336E806FCE1F35092127ED090
:102BD000420E4B6EDF504B5C1AE1020EDB500CE1F3
:102BE000010EF36EDB5004E0D890F336E806FCE10A
:102BF000F350F31C93166AD0010EF36EDB5004E021
:102C0000D890F336E806FCE1F35093125FD0430E00
:102C10004B6EDF504B5C1AE1020EDB500CE1010EF3
:102C2000F36EDB5004E0D890F336E806FCE1F35095
:102C3000F31C94164BD0010EF36EDB5004E0D890D9
:102C4000F336E806FCE1F350941240D0440E4B6E8C
:102C5000DF504B5C1AE1020EDB500CE1010EF36E0B
:102C6000DB5004E0D890F336E806FCE1F350F31CA7
:102C700095162CD0010EF36EDB5004E0D890F3369D
:102C8000E806FCE1F350951221D0450E4B6EDF5063
:102C90004B5C1AE1020EDB500CE1010EF36EDB50CF
:102CA00004E0D890F336E806FCE1F350F31C9616E6
:102CB0000DD0010EF36EDB5004E0D890F336E80639
:102CC000FCE1F350961202D0298C02D0CBEC11F02B
:102CD000E552E552E552E552E5CFDAFFE7CFD9FFFD
:102CE0001200D9CFE6FFDACFE6FFE1CFD9FFE2CF7E
:102CF000DAFFE652E652E652020EDB6AE66AD9CF06
:102D0000E6FFDACFE6FF050EE66E3CEC1BF0E5527F
:102D1000E552E552E552E66AD950010FE66E000E23
:102D2000DA20E66E010EE66E3CEC1BF0E552E55251
:102D3000E552E552295001E088D0010EDB5007082A
:102D400065E3410E4B6EDF504B5C0EE1010EDB285C
:102D50004B6E010E4B5204E0E846FE0B4B06FCE1C5
:102D6000E8407F0B80144BD0420E4B6EDF504B5C23
:102D70000EE1010EDB284B6E010E4B5204E0E846DB
:102D8000FE0B4B06FCE1E8407F0B811438D0430E6C
:102D90004B6EDF504B5C0EE1010EDB284B6E010EDB
:102DA0004B5204E0E846FE0B4B06FCE1E8407F0B8B
:102DB000821425D0440E4B6EDF504B5C0EE1010EA9
:102DC000DB284B6E010E4B5204E0E846FE0B4B062F
:102DD000FCE1E8407F0B831412D0450E4B6EDF50B0
:102DE0004B5C14E1010EDB284B6E010E4B5204E0EC
:102DF000E846FE0B4B06FCE1E8407F0B8414E76ECF
:102E0000020EE7CFDBFFDB5008E002D0298C1DD09B
:102E1000010EF36E020EF3CFDBFF020EDBCFE6FFF7
:102E2000E66AFA0E4B6E990E4C6E4D6A4BC0E6FF89
:102E3000E66E4DC0E6FF28EC56F04E6E050EE15CE6
:102E400002E2E16AE552E16E4E50E552E552E5528A
:102E5000E552E5CFDAFFE7CFD9FF1200D9CFE6FF81
:102E6000DACFE6FFE1CFD9FFE2CFDAFFE652E65252
:102E7000E652E66AD9CFE6FFDACFE6FF050EE66E48
:102E80003CEC1BF0E552E552E552E552E66AD950BA
:102E9000010FE66E000EDA20E66E010EE66EECDB48
:102EA000E552E552E552E552E66AD950020FE66E68
:102EB000000EDA20E66E010EE66EDEDBE552E5522C
:102EC000E552E552295001E0A9D0020EDB5001087D
:102ED00001E2A0D0010EDB50070801E29BD0410EB9
:102EE0004B6EDF504B5C1AE1020EDB500CE1010E21
:102EF000F36EDB5004E0D890F336E806FCE1F350C3
:102F0000F31C891689D0010EF36EDB5004E0D890D3
:102F1000F336E806FCE1F35089127ED0420E4B6E88
:102F2000DF504B5C1AE1020EDB500CE1010EF36E38
:102F3000DB5004E0D890F336E806FCE1F350F31CD4
:102F40008A166AD0010EF36EDB5004E0D890F33697
:102F5000E806FCE1F3508A125FD0430E4B6EDF505F
:102F60004B5C1AE1020EDB500CE1010EF36EDB50FC
:102F700004E0D890F336E806FCE1F350F31C8B161E
:102F80004BD0010EF36EDB5004E0D890F336E80628
:102F9000FCE1F3508B1240D0440E4B6EDF504B5C83
:102FA0001AE1020EDB500CE1010EF36EDB5004E07F
:102FB000D890F336E806FCE1F350F31C8C162CD0C5
:102FC000010EF36EDB5004E0D890F336E806FCE126
:102FD000F3508C1221D0450E4B6EDF504B5C1AE142
:102FE000020EDB500CE1010EF36EDB5004E0D890D2
:102FF000F336E806FCE1F350F31C8D160DD0010EFC
:10300000F36EDB5004E0D890F336E806FCE1F350B1
:103010008D1202D0298C02D0CBEC11F0E552E55292
:10302000E552E552E5CFDAFFE7CFD9FF1200CBEF4B
:1030300011F0CBEF11F0CBEF11F0D9CFE6FFDACFE3
:10304000E6FFE1CFD9FFE2CFDAFFE652E652E652E1
:10305000E652E66AD9CFE6FFDACFE6FF050EE66E66
:103060000BDBE552E552E552E552E66AD950010F15
:10307000E66E000EDA20E66E010EE66EFDDAE5522F
:10308000E552E552E552E66AD950020FE66E000EAF
:10309000DA20E66E030EE66EEFDAE552E552E5520F
:1030A000E552295001E078D0D950020FE96E000EA8
:1030B000DA20EA6E720ED880EE542E0EED5442E302
:1030C000D950020FE96E000EDA20EA6EEE50ED10D4
:1030D0001FE04E684F68506A2D0EE76E020EDBCF80
:1030E00051F0030EDBCF52F0E7505126000E522272
:1030F000536A51504E5C4B6E52504F584C6E535069
:1031000050584D6E020E4BC0DBFF030E4CC0DBFF70
:10311000010EDB50070816E3410E4B6EDF504B5C8F
:1031200002E1DF6A11D0420E4B6EDF504B5C02E1D0
:10313000080E06D0430E4B6EDF504B5C03E1100EC1
:10314000DF6E02D0298C28D0010EDB50DF24E96E1F
:10315000EA6AD890E936EA36410EE926010EEA22FB
:10316000020EDBCFEEFF030EDBCFEDFF010EDB50D7
:10317000DF24EA6A290FE96E010EEA22EF040AE170
:10318000010EDB50DF24EA6A290FE96E010EEA2204
:10319000020EEF6ECBEC11F0040EE15C02E2E16A8C
:1031A000E552E16EE552E5CFDAFFE7CFD9FF120035
:1031B000CBEF11F0CBEF11F0CBEF11F0CBEF11F023
:1031C000CBEF11F0CBEF11F0CBEF11F0CBEF11F013
:1031D000CBEF11F0D9CFE6FFDACFE6FFE1CFD9FF91
:1031E000E2CFDAFF070EE12402E3E168E652E16E86
:1031F000E66AD9CFE6FFDACFE6FF030EE66E3CDAE9
:10320000E552E552E552E552E66AD950020FE66E04
:10321000000EDA20E66E030EE66E2EDAE552E55277
:10322000E552E552295065E1DECF01F5DDCF02F52B
:10323000020EDBCF09F5030EDBCF0AF5040EDB6AC5
:10324000030EF36E040EDBCFF4FFF350F45C4FE299
:10325000010EE66ED9CFE6FFDACFE6FF030EE66E8B
:103260000BDAE552E552E552E552E76E050EE7CF7F
:10327000DBFF010EE66ED950020FE66E000EDA207B
:10328000E66E030EE66EF8D9E552E552E552E552D8
:10329000E76E060EE7CFDBFF29502BE1050EDB5072
:1032A00026E1060EDB5023E1040EDB28E96EEA6A14
:1032B000D890E936EA36010EE926050EEA22DECF7D
:1032C000EEFFDDCFEDFF040EDB28E96EEA6AD89051
:1032D000E936EA36090EE926050EEA22020EDBCFB0
:1032E000EEFF030EDBCFEDFF040EDB2AA9D7CBECFC
:1032F00011F0070EE15C02E2E16AE552E16EE5528F
:10330000E5CFDAFFE7CFD9FF1200D9CFE6FFDACF5A
:10331000E6FFE1CFD9FFE2CFDAFFE652E66AD9CF86
:10332000E6FFDACFE6FF010EE66EA6D9E552E552DA
:10333000E552E55229500DE1DF5007E0F00E9314FD
:10334000936E0501010E006F02D00501006BCBECFE
:1033500011F0E552E552E5CFDAFFE7CFD9FF1200D1
:10336000D9CFE6FFDACFE6FFE1CFD9FFE2CFDAFF30
:10337000E652DF6AFF0EDF5C0AE2E868E85005E02B
:10338000E80600D000D000D0F9D7DF2AF3D7E55205
:10339000E552E5CFDAFFE7CFD9FF1200F29EF29CAB
:1033A0006592656ADDDF0FEF00F01200D9CFE6FF0E
:1033B000DACFE6FFE1CFD9FFE2CFDAFF100EE1244A
:1033C00002E3E168E652E16EE66AD950010FE66E6B
:1033D000000EDA20E66EE66A4FD9E552E552E55274
:1033E000E552E66AD9CFE6FFDACFE6FF010EE66ED8
:1033F00043D9E552E552E552E552E66AD950040F49
:10340000E66E000EDA20E66E020EE66E35D9E55263
:10341000E552E552E552E66AD950020FE66E000E1B
:10342000DA20E66E030EE66E27D9E552E552E55244
:10343000E552E66AD9500A0FE66E000EDA20E66E13
:10344000060EE66E19D9E552E552E552E552E66AF6
:10345000D950060FE66E000EDA20E66E070EE66E15
:103460000BD9E552E552E552E552E66AD9500E0F06
:10347000E66E000EDA20E66E040EE66EFDD8E5522A
:10348000E552E552E552E66AD9500F0FE66E000E9E
:10349000DA20E66E050EE66EEFD8E552E552E5520B
:1034A000E552010EDBCF4BF04C6A4BBE4C684BC073
:1034B000E6FF4CC0E6FFEE0E4D6E990E4E6E4F6A63
:1034C0004DC0E6FFE66E4FC0E6FF28EC56F0506EAA
:1034D000050EE15C02E2E16AE552E16E5050DFCF99
:1034E000E6FFE66AE20E4B6E990E4C6E4D6A4BC0DB
:1034F000E6FFE66E4DC0E6FF28EC56F04E6E050E78
:10350000E15C02E2E16AE552E16E4E50040EDBCF6F
:10351000E6FF050EDBCFE6FFD60E4B6E990E4C6E26
:103520004D6A4BC0E6FFE66E4DC0E6FF28EC56F054
:103530004E6E050EE15C02E2E16AE552E16E4E502C
:10354000020EDBCFE6FF030EDBCFE6FFCA0E4B6EAB
:10355000990E4C6E4D6A4BC0E6FFE66E4DC0E6FF1D
:1035600028EC56F04E6E050EE15C02E2E16AE5528F
:10357000E16E4E50D9500A0FE96E000EDA20EA6E65
:10358000EECFE6FFEECFE6FFEECFE6FFEFCFE6FFB2
:10359000BD0E4B6E990E4C6E4D6A4BC0E6FFE66E4B
:1035A0004DC0E6FF28EC56F04E6E070EE15C02E2DD
:1035B000E16AE552E16E4E50D950060FE96E000EF9
:1035C000DA20EA6EEECFE6FFEECFE6FFEECFE6FFC3
:1035D000EFCFE6FFB00E4B6E990E4C6E4D6A4BC0AE
:1035E000E6FFE66E4DC0E6FF28EC56F04E6E070E85
:1035F000E15C02E2E16AE552E16E4E500E0EDBCF75
:10360000E6FFE66AA40E4B6E990E4C6E4D6A4BC0F7
:10361000E6FFE66E4DC0E6FF28EC56F04E6E050E56
:10362000E15C02E2E16AE552E16E4E500F0EDBCF43
:10363000E6FFE66A980E4B6E990E4C6E4D6A4BC0D3
:10364000E6FFE66E4DC0E6FF28EC56F04E6E050E26
:10365000E15C02E2E16AE552E16E4E50CBEC11F022
:10366000100EE15C02E2E16AE552E16EE552E5CF5F
:10367000DAFFE7CFD9FF1200D9CFE6FFDACFE6FFB6
:10368000E1CFD9FFE2CFDAFF090EE12402E3E168DE
:10369000E652E16E080EDB6A0D0E4B6E0601F85124
:1036A000EA6A000FE96E030EEA22EF504B5C05E177
:1036B000FA0EDB5048E1298846D0F851EA6A000F3B
:1036C000E96E030EEA22EF502C0823E0FA0EDB50DD
:1036D0001EE1F851EA6A000FE96E030EEA22EF508C
:1036E000E66EE66A710E4B6E990E4C6E4D6A4BC0DB
:1036F000E6FFE66E4DC0E6FF28EC56F04E6E050E76
:10370000E15C02E2E16AE552E16E4E50298A020E66
:10371000E5D1F82BF8514B6E4C6A000E4B1804E1C2
:10372000010E4C1801E1F86B0D0E4B6EF851EA6A70
:10373000000FE96E030EEA22EF504B5C06E1FA0E31
:10374000DB5001E12988030EC9D12D0E4B6EF851D3
:10375000EA6A000FE96E030EEA22EF504B5C2EE19D
:10376000040E4C6EFD0EDB504C5C28E0050E4D6ED9
:10377000FD0EDB504D5C22E0FD0EDB0401E147D184
:10378000030E4B6EFD0EDB504B5C01E140D1070E8A
:103790004C6EFD0EDB504C5C01E139D1010EF36E35
:1037A000080EF3CFDBFFF82BF8514B6E4C6A000E7E
:1037B0004B1804E1010E4C1801E1F86B040E4B6E3E
:1037C000FD0EDB504B5C11E0050E4C6EFD0EDB5028
:1037D0004C5C0BE00A0EE66ED9CFE6FFDACFE6FFCF
:1037E0008BD9E552E552E55242D0F851EA6A000F12
:1037F000E96E030EEA22EFCF4BF0000E4BC0DFFF65
:10380000010EDB6A020EDB6A030EDB6A050E4B6EED
:10381000FD0EDB504B5C1FE1000EDFCFE6FF010E1B
:10382000DBCFE6FFACEC57F0E552E552F3CF4BF0BF
:10383000F4CF4CF04D6A4E6A4CAE02D04D684E68E3
:103840004BC0DFFF010E4CC0DBFF020E4DC0DBFFA3
:10385000030E4EC0DBFF0601F82BF8514B6E4C6A8D
:10386000000E4B1804E1010E4C1801E1F86B080E34
:10387000DB506FE0FD0EDB500FE1D9CFE9FFDACF6F
:10388000EAFFD880800EEE54000EEE54000EEE5487
:10389000000EEE5401E2BBD0020E4B6EFD0EDB506B
:1038A0004B5C0FE1D9CFE9FFDACFEAFFD880000EF9
:1038B000EE54800EEE54000EEE54000EEE5401E273
:1038C000A6D0060E4C6EFD0EDB504C5C0FE1D9CF3E
:1038D000E9FFDACFEAFFD880000EEE54000EEE5476
:1038E000000EEE54800EEE5401E291D0D9CFE9FFE4
:1038F000DACFEAFF040EEECFDBFF050EEECFDBFFE3
:10390000060EEECFDBFF070EEECFDBFF080EDB501F
:1039100001E196D0040EDBCF3BF0050EDBCF3CF08F
:10392000060EDBCF3DF0070EDBCF3EF0406841686E
:103930004268436847EC57F0040E37C0DBFF050EC2
:1039400038C0DBFF060E39C0DBFF070E3AC0DBFFD5
:1039500077D0FD0EDB500EE1D9CFE9FFDACFEAFFD9
:10396000D8807F0EEE54000EEE54000EEE54000E82
:10397000EE544DE3FD0EDB040EE1D9CFE9FFDACFC3
:10398000EAFFD880FF0EEE54000EEE54000EEE5407
:10399000000EEE543CE3020E4B6EFD0EDB504B5C12
:1039A0000EE1D9CFE9FFDACFEAFFD880FF0EEE545F
:1039B0007F0EEE54000EEE54000EEE5428E3030E7C
:1039C0004C6EFD0EDB504C5C0EE1D9CFE9FFDACF37
:1039D000EAFFD880FF0EEE54FF0EEE54000EEE54B8
:1039E000000EEE5414E3060E4D6EFD0EDB504D5CE2
:1039F00011E1D9CFE9FFDACFEAFFD880FF0EEE540C
:103A0000FF0EEE54FF0EEE547F0EEE5403E2298CAF
:103A1000010E64D0070E4B6EFD0EDB504B5C10E0C8
:103A2000D9CFE9FFDACFEAFF040EEECFDBFF050EB8
:103A3000EECFDBFF060EEECFDBFF070EEECFDBFF98
:103A4000FD0EDB50070A38E0010A25E0050A16E002
:103A5000010A14E0030A08E0050A06E0010A04E08E
:103A6000050A02E0040E3AD0FB0EDBCFE9FFFC0EA4
:103A7000DBCFEAFF040EDBCFEFFF2FD0FB0EDBCF57
:103A8000E9FFFC0EDBCFEAFF040EDBCFEEFF050EF5
:103A9000DBCFEDFF22D0FB0EDBCFE9FFFC0EDBCF4F
:103AA000EAFF040EDBCFEEFF050EDBCFEEFF060EC6
:103AB000DBCFEEFF070E0FD0FB0EDBCFE9FFFC0ED6
:103AC000DBCFEAFFDFCFEEFF010EDBCFEEFF020E12
:103AD000DBCFEEFF030EDBCFEEFF000E4B6E090EC9
:103AE000E15C02E2E16AE552E16E4B50E552E5CF5E
:103AF000DAFFE7CFD9FF1200D9CFE6FFDACFE6FF32
:103B0000E1CFD9FFE2CFDAFFE652E652FC0EDBCF7F
:103B1000E9FFFD0EDBCFEAFFEE6AEE6AEE6AEE6ABF
:103B2000010EDB6AFB0EDB50F36E010EDBCFF4FF00
:103B3000F350F45C62E20601F851EA6A000FE96EA4
:103B4000030EEA22EFCFDFFF300EDF5C51E3DF50E0
:103B500039084EE3FC0EDBCFE9FFFD0EDBCFEAFFB9
:103B6000EECF4BF0EECF4CF0EECF4DF0EFCF4EF06E
:103B70000A0E406E416A426A436A4BC03BF04CC039
:103B80003CF04DC03DF04EC03EF047EC57F037C022
:103B90004BF038C04CF039C04DF03AC04EF0300E0A
:103BA000DF5C4F6E506A516A526AE8504B265050A3
:103BB0004C2251504D2252504E22FC0EDBCFE9FFD9
:103BC000FD0EDBCFEAFF4BC0EEFF4CC0EEFF4DC059
:103BD000EEFF4EC0EEFF0601F82BF8514B6E4C6A1B
:103BE000000E4B1807E1010E4C1804E1F86B02D0EF
:103BF000000E04D0010EDB2A95D7010EE552E552E6
:103C0000E552E5CFDAFFE7CFD9FF12002350E66E89
:103C1000E66A650E4B6E990E4C6E4D6A4BC0E6FF20
:103C2000E66E4DC0E6FF28EC56F04E6E050EE15CE8
:103C300002E2E16AE552E16E4E5012000601A8511F
:103C400008E0010E4B6E6550020B01E0010E4B5C6B
:103C50001BE105016107000E625B63510BE16151DD
:103C6000621111E18C86A00E616F0F0E626F010E62
:103C7000636F12006151621163E18C96A00E616F57
:103C80000F0E626F636B1200A80509E0020EA85DBB
:103C900006E0040EA85D03E0100EA85D1BE105011F
:103CA0006107000E625B63510BE16151621111E12A
:103CB0008C86200E616F4E0E626F010E636F1200D4
:103CC000615162113DE18C96200E616F4E0E626F64
:103CD000636B1200200EA85D33E105016107000E41
:103CE000625B63510AE1615162112AE18C86100E18
:103CF000616F270E626F010E18D063050AE16151F2
:103D000062111EE18C96100E616F270E626F020E1B
:103D10000CD0020E635D0BE16151621111E18C86E2
:103D2000A00E616F860E626F030E636F1200615109
:103D3000621106E18C96100E616F270E626F636B45
:103D40001200D9CFE6FFDACFE6FFE1CFD9FFE2CF0D
:103D5000DAFFFD0EDBCF4BF0190EE76E4B18E8AE25
:103D600002D04B3403D0E750D8804B5453E3FC0EC1
:103D7000DB5028E0FD0EDBCFE9FFEA6AE9BEEA6826
:103D8000C80EE926050EEA22EF504C6E010E4C5289
:103D900004E0E846FE0B4C06FCE14B6EFD0EDBCF6B
:103DA000E9FFEA6AE9BEEA68D890E936EA36960E93
:103DB000E926050EEA22EE50EFCFEAFFE96E4B50FE
:103DC000EF1228D0FD0EDBCFE9FFEA6AE9BEEA6810
:103DD000C80EE926050EEA22EF504C6E010E4C5239
:103DE00004E0E846FE0B4C06FCE1E81C4B6EFD0EC1
:103DF000DBCFE9FFEA6AE9BEEA68D890E936EA363D
:103E0000960EE926050EEA22EE50EFCFEAFFE96EA4
:103E10004B50EF16E552E5CFDAFFE7CFD9FF12009E
:103E2000D9CFE6FFDACFE6FFE1CFD9FFE2CFDAFF65
:103E3000FD0EDBCF4BF0190EE76E4B18E8AE02D04B
:103E40004B3403D0E750D8804B5453E3FC0EDB5087
:103E500029E1FD0EDBCFE9FFEA6AE9BEEA68C80E98
:103E6000E926050EEA22EF504C6E010E4C5204E09A
:103E7000E846FE0B4C06FCE1E81C4B6EFD0EDBCF6A
:103E8000E9FFEA6AE9BEEA68D890E936EA36640EE4
:103E9000E926050EEA22EE50EFCFEAFFE96E4B501D
:103EA000EF1627D0FD0EDBCFE9FFEA6AE9BEEA682C
:103EB000C80EE926050EEA22EF504C6E010E4C5258
:103EC00004E0E846FE0B4C06FCE14B6EFD0EDBCF3A
:103ED000E9FFEA6AE9BEEA68D890E936EA36640E94
:103EE000E926050EEA22EE50EFCFEAFFE96E4B50CD
:0E3EF000EF12E552E5CFDAFFE7CFD9FF12005F
:023EFE00E9CF0A
:103F0000E4FFEACFE4FFE652D9CFE6FFDACFE6FFDF
:103F1000E1CFD9FFE2CFDAFFE6529EA0F0D19E902A
:103F20008E0ECE6ECF680DC080F20201816B020151
:103F3000010E826F0E500F101010111014E0D88077
:103F4000000E0E54000E0F54190E1054000E115492
:103F500005E20E6A0F6A106A116A05D00E06000E9D
:103F60000F5A105A115A0E500F101010111002E073
:103F70000201826B8392000401E0B3D00550061069
:103F80000710081006E109500A100B100C1001E18F
:103F9000A7D00201EB510BE10DA202D08C8E01D013
:103FA0008C9E0DA602D08C8A01D08C9A0DD0020175
:103FB000EB050AE10DA202D08B8401D08B940DA6F3
:103FC00002D0898401D0899405500610071008108A
:103FD00023E018500124186E19500220196E000EAB
:103FE000D8801854800E195415E218C018F019C062
:103FF00019F0000E185E800E195A010E0201801190
:104000000201806F0201010E816F0506000E065A43
:10401000075A085A0201826B09500A100B100C1043
:1040200023E01A5003241A6E1B5004201B6E000E4E
:10403000D8801A54800E1B5415E21AC01AF01BC007
:104040001BF0000E1A5E800E1B5A040E0201801136
:104050000201806F0201010E816F0906000E0A5AEB
:104060000B5A0C5A0201826B0201815139E00201A4
:10407000EB5107E1020180B18C8C020180B58C8884
:1040800009D00201EB0506E1020180B18B8C02012F
:1040900080B5898A000000000000000000000000D8
:1040A0000000000000000000000000000000000010
:1040B0000000000000000000000000000000000000
:1040C000000000000000000000000201EB5103E1CD
:1040D0008C9C8C9805D00201EB0502E18B9C899A9F
:1040E0009DD0030E005C01E099D00201FC5101E17A
:1040F00077D01504DF6E1250131037E1DF50EA6AF3
:10410000310FE96E0E0EEA22EF500E01EA6AAC257D
:10411000E96EAD51EA22EF6AEA6ADF34FE0BEA3655
:10412000E96E790EE9260E0EEA22EE6AED6AEA6A77
:10413000DF34FE0BEA36E96E490EE9260E0EEA225E
:10414000EE6AED6ADF50EA6A310FE96E0E0EEA227E
:10415000EF6AEA6ADF34FE0BEA36E96E010EE92601
:104160000E0EEA22EE6AED6A3BD0EA6ADF34FE0BFD
:10417000EA36E96E790EE9260E0EEA2216C0EEFF47
:1041800017C0EDFFEA6ADF34FE0BEA36E96E490E2E
:10419000E9260E0EEA2212C0EEFF13C0EDFFDF503B
:1041A000EA6A310FE96E0E0EEA2214C0EFFFEA6AE6
:1041B000DF34FE0BEA36E96E010EE9260E0EEA2226
:1041C000EE50ED100DE1EA6ADF34FE0BEA36E96EDF
:1041D000010EE9260E0EEA2212C0EEFF13C0EDFF1B
:1041E0000E01B651145C1AE10E01B051121802E131
:1041F000B15113180AE10201010EEC6F0201E86BE4
:104200000201FB5101E08A9809D00201EC6B020126
:10421000010EE86F0201FB5101E08A880201825120
:1042200062E00E500F10101011105DE1006A1C507A
:1042300056E184C200F085C201F086C202F087C256
:1042400003F088C204F089C205F08AC206F08BC26E
:1042500007F08CC208F08DC209F08EC20AF08FC23E
:104260000BF090C20CF091C20DF092C20EF093C20E
:104270000FF094C210F095C211F096C212F097C2DE
:1042800013F098C214F099C215F09AC216F09BC2AE
:1042900017F00201846B0201856B866B0201876B4C
:1042A000886B0201896B8A6B8B6B8C6B02018D6B47
:1042B0008E6B8F6B906B0201916B0201926B936B13
:1042C000946B956B0201966B976B0201986B0201E0
:1042D000996B02019A6B9B6B010E1C6E04D00E6AE7
:1042E0000F6A106A116A8050800B06E00201F351D8
:1042F00006E08150010B03E10201010EF26FE5526D
:10430000E552E5CFDAFFE7CFD9FFE552E5CFEAFF87
:10431000E5CFE9FF1100D9CFE6FFDACFE6FFE1CF25
:10432000D9FFE2CFDAFFE652DF6ADFCF4BF0020EB1
:10433000E76E4B18E8AE02D0E73402D0E7504B5C92
:1043400024E2DFCFE9FFEA6AE9BEEA68D890E936FD
:10435000EA36010EE926000EEA22010EEE6EED6A43
:10436000DFCFE9FFEA6AE9BEEA68D890E936EA36C3
:10437000D890E936EA36050EE926000EEA22EE6A02
:10438000EE6AEE6AEE6ADF2AD0D7006A0D6A0E6A1C
:104390000F6A106A116A126A136A146A156A166A39
:1043A000176A010E1C6ECD92CD9ECD9CCD8ACD9804
:1043B000CD96CD948E0ECE6ECF68CD809F809E9090
:1043C0009D8092809F9C010EE66EE66AF1EC12F0F1
:1043D000E552E552010EE66E0B0EE66EF1EC12F0C0
:1043E000E552E5528D8496948D829692898C929CAA
:1043F0008D8096908B8294928C9C959C8C9E959EA1
:104400008C9895988C9A959A949E828E00000000C4
:10441000000000000000000000000000000000009C
:10442000000000000000000000000000000000008C
:104430000000948E829E0201010EFB6F0201010EAC
:10444000FC6F8A9893980201010EE86F0201EB6BF2
:104450000201010EEC6F0201F16B0201ED6BEE6BDC
:10446000EF6BF06B0201F26B9380F19E0201010E83
:10447000F36F93968196E552E552E5CFDAFFE7CFE9
:10448000D9FF1200D9CFE6FFDACFE6FFE1CFD9FF9F
:10449000E2CFDAFFE652E652E652DF6A010EDB6A4D
:1044A000020EDB6AE66AD9CFE6FFDACFE6FF010E3D
:1044B000E66E3CEC1BF0E552E552E552E552E66A49
:1044C000D950010FE66E000EDA20E66E030EE66E9E
:1044D0003CEC1BF0E552E552E552E552295001E073
:1044E00008D1DF043FE1D950010FE96E000EDA2058
:1044F000EA6EEE50ED1018E10201010EFB6FFC6B4D
:10450000000EE66EE66AE66EE66AB6CEE6FFE66E98
:10451000E66AA5EC52F04B6E070EE15C02E2E16A3E
:10452000E552E16E4B5013D0D950010FE96E000EE9
:10453000DA20EA6E010EEE1806E1ED5004E1020108
:10454000FB6B010E03D00201010EFB6FFC6F000E2E
:10455000E66EE66AECC2E6FFC3EC2DF0E552E552EA
:10456000E552C5D0020EDF5C4AE1D950010FE96E79
:10457000000EDA20EA6EEE50ED1009E10201EB6B5D
:1045800096909492959C959E9598959A31D0D950F5
:10459000010FE96E000EDA20EA6E010EEE1812E14C
:1045A000ED5010E10201010EEB6F96809482958C24
:1045B000958E9588958A94949294949C929A9592CB
:1045C000929295D0D950010FE96E000EDA20EA6E72
:1045D000020EEE1801E08BD0ED5001E088D0020110
:1045E000020EEB6F96809482958C958E9588958AB5
:1045F00094849284948C928A9582928278D0040ECC
:10460000DF5C07E1010EDBCFB0FE020EDBCFB1FEB7
:104610006ED0050EDF5C07E1010EDBCFAEFE020EB1
:10462000DBCFAFFE64D0080EDF5C17E1D950010F7D
:10463000E96E000EDA20EA6E180ED880EE54000EF5
:10464000ED5407E2180EF36E010EF3CFDBFF020EFE
:10465000DB6A010EDBCFAAFE4AD0090EDF5C17E150
:10466000D950010FE96E000EDA20EA6E060ED880EE
:10467000EE54000EED5407E2060EF36E010EF3CF7A
:10468000DBFF020EDB6A010EDBCFABFE30D00A0E81
:10469000DF5C07E1010EDBCFB2FE020EDBCFB3FE23
:1046A0000DD00B0EDF5C07E1010EDBCFB2FE020E78
:1046B000DBCFB3FE1CD00C0EDF5C07E1010EDBCFBD
:1046C000B4FE020EDBCFB5FE12D00D0EDF5C0FE1A3
:1046D000D950010FE96E000EDA20EA6EEE50ED10AF
:1046E00004E00201010EF36F02D00201F36BCBEC88
:1046F00011F0E552E552E552E552E5CFDAFFE7CF9A
:10470000D9FF1200D9CFE6FFDACFE6FFE1CFD9FF1C
:10471000E2CFDAFF100EE12402E3E168E652E16E37
:10472000DE6ADE6ADE6ADD6ADD52DD52040EDB6AB5
:10473000050EDB6A060EDB6A070EDB6A080EDB6A13
:10474000090EDB6A0A0EDB6A0B0EDB6A0C0EDB6AF3
:104750000D0EDB6A0E0EDB6A0F0EDB6AE66AD9CF3E
:10476000E6FFDACFE6FF070EE66E3CEC1BF0E55203
:10477000E552E552E552E66AD950040FE66E000EA6
:10478000DA20E66E060EE66E3CEC1BF0E552E552D2
:10479000E552E552010EE66ED950080FE66E000EA6
:1047A000DA20E66E060EE66E3CEC1BF0E552E552B2
:1047B000E552E552D9CFE9FFDACFEAFFEECF4BF071
:1047C000EECF4CF0EECF4DF0EFCF4EF04B504C1003
:1047D0004D104E1001E1298C040EDBCF3CF0050E8C
:1047E000DBCF3DF0060EDBCF3EF0070EDBCF3FF018
:1047F0003F34000E3F1809E6D880000E3C54000EEE
:104800003D54000E3E54000E3F5413E2D950040FA5
:10481000E96E000EDA20EA6E0C0EEECFDBFF0D0E15
:10482000EECFDBFF0E0EEECFDBFF0F0EEECFDBFF8A
:104830001ED0040EDBCF3BF0050EDBCF3CF0060EA6
:10484000DBCF3DF0070EDBCF3EF0406841684268A9
:10485000436847EC57F00C0E37C0DBFF0D0E38C035
:10486000DBFF0E0E39C0DBFF0F0E3AC0DBFFD9CFE6
:10487000E9FFDACFEAFFD880FF0EEE54FF0EEE54C8
:10488000FF0EEE54000EEE5404E2320E4B6E990E03
:1048900074D10C0EDBCF3CF00D0EDBCF3DF00E0ED5
:1048A000DBCF3EF00F0EDBCF3FF03F34000E3F1862
:1048B00009E6D880FF0E3C54FF0E3D54FF0E3E54D7
:1048C000000E3F5404E2040E4B6E990E56D10C0EAE
:1048D000DBCF4BF00D0EDBCF4CF00E0EDBCF4DF0EF
:1048E0000F0EDBCF4EF04BC03BF04CC03CF04DC048
:1048F0003DF04EC03EF0DFCF40F0010EDBCF41F087
:10490000020EDBCF42F0030EDBCF43F0D2EC57F0C8
:10491000D880190E3B54000E3C54000E3D54000E3E
:104920003E5404E2D40E4B6E980E27D1D9CFE9FF46
:10493000DACFEAFFEECF4BF0EECF4CF0EECF4DF0FA
:10494000EFCF4EF01F0E406E050E416E426A436A75
:104950004BC03BF04CC03CF04DC03DF04EC03EF073
:10496000D2EC57F03BC04BF03CC04CF03DC04DF09A
:104970003EC04EF0D9500C0FE96E000EDA20EA6E00
:10498000EE503B5CEE503C58EE503D58EE503E58D9
:1049900015E30C0EDBCF4FF00D0EDBCF50F00E0EFB
:1049A000DBCF51F00F0EDBCF52F04F5050105110B3
:1049B000521004E0AE0E4B6E980EDFD0080EDBCF27
:1049C0003CF0090EDBCF3DF00A0EDBCF3EF00B0EC4
:1049D000DBCF3FF03F34000E3F1809E6D880000ED1
:1049E0003C54000E3D54000E3E54000E3F5413E262
:1049F000D950080FE96E000EDA20EA6E0C0EEECFE9
:104A0000DBFF0D0EEECFDBFF0E0EEECFDBFF0F0E4A
:104A1000EECFDBFF1ED0080EDBCF3BF0090EDBCF65
:104A20003CF00A0EDBCF3DF00B0EDBCF3EF04068D2
:104A300041684268436847EC57F00C0E37C0DBFF13
:104A40000D0E38C0DBFF0E0E39C0DBFF0F0E3AC073
:104A5000DBFF0C0EDBCF3CF00D0EDBCF3DF00E0E7E
:104A6000DBCF3EF00F0EDBCF3FF03F34000E3F18A0
:104A700009E6D880FF0E3C54FF0E3D54FF0E3E5415
:104A8000000E3F5404E2800E4B6E980E76D00C0E52
:104A9000DBCF4BF00D0EDBCF4CF00E0EDBCF4DF02D
:104AA0000F0EDBCF4EF04BC03BF04CC03CF04DC086
:104AB0003DF04EC03EF0DFCF40F0010EDBCF41F0C5
:104AC000020EDBCF42F0030EDBCF43F0D2EC57F007
:104AD000D880190E3B54000E3C54000E3D54000E7D
:104AE0003E5404E2500E4B6E980E47D0D9CFE9FFEA
:104AF000DACFEAFFEECF4BF0EECF4CF0EECF4DF039
:104B0000EFCF4EF01F0E406E050E416E426A436AB3
:104B10004BC03BF04CC03CF04DC03DF04EC03EF0B1
:104B2000D2EC57F03BC04BF03CC04CF03DC04DF0D8
:104B30003EC04EF0D9500C0FE96E000EDA20EA6E3E
:104B4000EE503B5CEE503C58EE503D58EE503E5817
:104B500021E30C0EDBCF4FF00D0EDBCF50F00E0E2D
:104B6000DBCF51F00F0EDBCF52F04F5050105110F1
:104B7000521010E02A0E4B6E980E4C6E4D6A4BC0D0
:104B8000E6FFE66E4DC0E6FF28EC56F0E552E55232
:104B9000E55235D0295033E1D950080FE96E000EA7
:104BA000DA20EA6EEECFE6FFEECFE6FFEECFE6FFCD
:104BB000EFCFE6FFD950040FE96E000EDA20EA6E5F
:104BC000EECFE6FFEECFE6FFEECFE6FFEFCFE6FF5C
:104BD000D9CFE9FFDACFEAFFEECFE6FFEECFE6FF6F
:104BE000EECFE6FFEFCFE6FFFEDA4B6E0C0EE15C98
:104BF00002E2E16AE552E16E4B50CBEC11F0100E8F
:104C0000E15C02E2E16AE552E16EE552E5CFDAFFEE
:104C1000E7CFD9FF1200D9CFE6FFDACFE6FFE1CF29
:104C2000D9FFE2CFDAFF180EE12402E3E168E65291
:104C3000E16EDE6ADE6ADE6ADD6ADD52DD52040E96
:104C4000DB6A050EDB6A060EDB6A070EDB6A080EFE
:104C5000DB6A090EDB6A0A0EDB6A0B0EDB6A0C0EDE
:104C6000DB6A0D0EDB6A0E0EDB6A0F0EDB6A100EBE
:104C7000DB6A110EDB6A120EDB6A130EDB6A140E9E
:104C8000DB6A150EDB6A160EDB6A170EDB6AE66A54
:104C9000D9CFE6FFDACFE6FF070EE66E3CEC1BF05D
:104CA000E552E552E552E552E66AD9500C0FE66E40
:104CB000000EDA20E66E060EE66E3CEC1BF0E552C6
:104CC000E552E552E552E66AD950100FE66E000E45
:104CD000DA20E66E060EE66E3CEC1BF0E552E5527D
:104CE000E552E552D9CFE9FFDACFEAFFEECF4BF03C
:104CF000EECF4CF0EECF4DF0EFCF4EF04B504C10CE
:104D00004D104E1001E1298C100EDBCF4BF0110E2F
:104D1000DBCF4CF0120EDBCF4DF0130EDBCF4EF09D
:104D2000D9500C0FE96E000EDA20EA6EEE504B26D9
:104D3000EE504C22EE504D22EE504E22040E4BC04F
:104D4000DBFF050E4CC0DBFF060E4DC0DBFF070E80
:104D50004EC0DBFF0C0EDBCF4FF00D0EDBCF50F063
:104D60000E0EDBCF51F00F0EDBCF52F0D950100FEB
:104D7000E96E000EDA20EA6EEE504F5C4B6EEE509C
:104D800050584C6EEE5051584D6EEE5052584E6E7B
:104D9000080E4BC0DBFF090E4CC0DBFF0A0E4DC0F6
:104DA000DBFF0B0E4EC0DBFF040EDBCF3CF0050E2D
:104DB000DBCF3DF0060EDBCF3EF0070EDBCF3FF042
:104DC0003F34000E3F1809E6D880000E3C54000E18
:104DD0003D54000E3E54000E3F5413E2D950040FD0
:104DE000E96E000EDA20EA6E140EEECFDBFF150E30
:104DF000EECFDBFF160EEECFDBFF170EEECFDBFFA5
:104E00001ED0040EDBCF3BF0050EDBCF3CF0060ED0
:104E1000DBCF3DF0070EDBCF3EF0406841684268D3
:104E2000436847EC57F0140E37C0DBFF150E38C04F
:104E3000DBFF160E39C0DBFF170E3AC0DBFFD9CF00
:104E4000E9FFDACFEAFFD880FF0EEE54FF0EEE54F2
:104E5000FF0EEE54000EEE5404E2320E4B6E990E2D
:104E600074D1140EDBCF3CF0150EDBCF3DF0160EE7
:104E7000DBCF3EF0170EDBCF3FF03F34000E3F1884
:104E800009E6D880FF0E3C54FF0E3D54FF0E3E5401
:104E9000000E3F5404E2040E4B6E990E56D1140ED0
:104EA000DBCF4BF0150EDBCF4CF0160EDBCF4DF009
:104EB000170EDBCF4EF04BC03BF04CC03CF04DC06A
:104EC0003DF04EC03EF0DFCF40F0010EDBCF41F0B1
:104ED000020EDBCF42F0030EDBCF43F0D2EC57F0F3
:104EE000D880190E3B54000E3C54000E3D54000E69
:104EF0003E5404E2D40E4B6E980E27D1D9CFE9FF71
:104F0000DACFEAFFEECF4BF0EECF4CF0EECF4DF024
:104F1000EFCF4EF01F0E406E050E416E426A436A9F
:104F20004BC03BF04CC03CF04DC03DF04EC03EF09D
:104F3000D2EC57F03BC04BF03CC04CF03DC04DF0C4
:104F40003EC04EF0D950140FE96E000EDA20EA6E22
:104F5000EE503B5CEE503C58EE503D58EE503E5803
:104F600015E3140EDBCF4FF0150EDBCF50F0160E0D
:104F7000DBCF51F0170EDBCF52F04F5050105110D5
:104F8000521004E0AE0E4B6E980EDFD0080EDBCF51
:104F90003CF0090EDBCF3DF00A0EDBCF3EF00B0EEE
:104FA000DBCF3FF03F34000E3F1809E6D880000EFB
:104FB0003C54000E3D54000E3E54000E3F5413E28C
:104FC000D950080FE96E000EDA20EA6E140EEECF0B
:104FD000DBFF150EEECFDBFF160EEECFDBFF170E5D
:104FE000EECFDBFF1ED0080EDBCF3BF0090EDBCF90
:104FF0003CF00A0EDBCF3DF00B0EDBCF3EF04068FD
:1050000041684268436847EC57F0140E37C0DBFF35
:10501000150E38C0DBFF160E39C0DBFF170E3AC085
:10502000DBFF140EDBCF3CF0150EDBCF3DF0160E90
:10503000DBCF3EF0170EDBCF3FF03F34000E3F18C2
:1050400009E6D880FF0E3C54FF0E3D54FF0E3E543F
:10505000000E3F5404E2800E4B6E980E76D0140E74
:10506000DBCF4BF0150EDBCF4CF0160EDBCF4DF047
:10507000170EDBCF4EF04BC03BF04CC03CF04DC0A8
:105080003DF04EC03EF0DFCF40F0010EDBCF41F0EF
:10509000020EDBCF42F0030EDBCF43F0D2EC57F031
:1050A000D880190E3B54000E3C54000E3D54000EA7
:1050B0003E5404E2500E4B6E980E47D0D9CFE9FF14
:1050C000DACFEAFFEECF4BF0EECF4CF0EECF4DF063
:1050D000EFCF4EF01F0E406E050E416E426A436ADE
:1050E0004BC03BF04CC03CF04DC03DF04EC03EF0DC
:1050F000D2EC57F03BC04BF03CC04CF03DC04DF003
:105100003EC04EF0D950140FE96E000EDA20EA6E60
:10511000EE503B5CEE503C58EE503D58EE503E5841
:1051200021E3140EDBCF4FF0150EDBCF50F0160E3F
:10513000DBCF51F0170EDBCF52F04F505010511013
:10514000521010E02A0E4B6E980E4C6E4D6A4BC0FA
:10515000E6FFE66E4DC0E6FF28EC56F0E552E5525C
:10516000E55235D0295033E1D950080FE96E000ED1
:10517000DA20EA6EEECFE6FFEECFE6FFEECFE6FFF7
:10518000EFCFE6FFD950040FE96E000EDA20EA6E89
:10519000EECFE6FFEECFE6FFEECFE6FFEFCFE6FF86
:1051A000D9CFE9FFDACFEAFFEECFE6FFEECFE6FF99
:1051B000EECFE6FFEFCFE6FF16D84B6E0C0EE15CAC
:1051C00002E2E16AE552E16E4B50CBEC11F0180EB1
:1051D000E15C02E2E16AE552E16EE552E5CFDAFF19
:1051E000E7CFD9FF1200D9CFE6FFDACFE6FFE1CF54
:1051F000D9FFE2CFDAFFE652E652E652E652DE6A25
:10520000DE6ADE6ADD6ADD52DD52D950F20FE96EE8
:10521000FF0EDA20EA6EEECFE6FFEECFE6FFEECF2E
:10522000E6FFEFCFE6FFD950F60FE96EFF0EDA206A
:10523000EA6EEECFE6FFEECFE6FFEECFE6FFEFCF72
:10524000E6FFD950FA0FE96EFF0EDA20EA6EEECFD4
:10525000E6FFEECFE6FFEECFE6FFEFCFE6FF100E64
:105260004B6E980E4C6E4D6A4BC0E6FFE66E4DC01D
:10527000E6FF28EC56F04E6E0F0EE15C02E2E16AAA
:10528000E552E16E4E501C50FEE0F60EDBCF4BF0C7
:10529000F70EDBCF4CF0F80EDBCF4DF0F90EDBCF85
:1052A0004EF04B504C104D104E1038E1F20EDBCF4B
:1052B0004FF0F30EDBCF50F0F40EDBCF51F0F50ED4
:1052C000DBCF52F04F5050105110521027E1020125
:1052D000020E846FFA0EDBCF92F2FB0EDBCF93F25D
:1052E000FC0EDBCF94F2FD0EDBCF95F2190E406E73
:1052F000416A426A436A92C23BF093C23CF094C254
:105300003DF095C23EF047EC57F037C092F238C0FE
:1053100093F239C094F23AC095F262D20201926BD4
:10532000936B946B956B916B8D908B92D950F60F1C
:10533000E96EFF0EDA20EA6ED890030EEB50000AF9
:1053400008E6000EEE5C000EEE58000EEE58000E61
:10535000EE5821E2020E9111916FF60EDBCF3BF079
:10536000F70EDBCF3CF0F80EDBCF3DF0F90EDBCFD4
:105370003EF0406841684268436847EC57F0F60EDB
:1053800037C0DBFFF70E38C0DBFFF80E39C0DBFF9C
:10539000F90E3AC0DBFFD950F20FE96EFF0EDA20AA
:1053A000EA6ED890030EEB50000A08E6000EEE5CA1
:1053B000000EEE58000EEE58000EEE5822E2080ED7
:1053C00002019111916FF20EDBCF3BF0F30EDBCFB8
:1053D0003CF0F40EDBCF3DF0F50EDBCF3EF0406845
:1053E00041684268436847EC57F0F20E37C0DBFF74
:1053F000F30E38C0DBFFF40E39C0DBFFF50E3AC008
:10540000DBFFD950F60FE96EFF0EDA20EA6ED89076
:10541000030EEB50000A08E6FF0EEE5CFF0EEE589E
:10542000010EEE58000EEE5828E2F60EDBCF3BF0F0
:10543000F70EDBCF3CF0F80EDBCF3DF0F90EDBCF03
:105440003EF00F0ED8903B363C363D363E36E806F1
:10545000F9E1190E406E416A426A436AD2EC57F094
:10546000FA0EDBCF40F0FB0EDBCF41F0FC0EDBCFC2
:1054700042F0FD0EDBCF43F02FD0F60EDBCF4BF02A
:10548000F70EDBCF4CF0F80EDBCF4DF0F90EDBCF93
:105490004EF04BC03BF04CC03CF04DC03DF04EC018
:1054A0003EF0FA0EDBCF40F0FB0EDBCF41F0FC0EFE
:1054B000DBCF42F0FD0EDBCF43F0D2EC57F00F0E06
:1054C000D8903B363C363D363E36E806F9E1190EBB
:1054D000406E416A426A436AD2EC57F03BC0DEFF3D
:1054E0003CC0DEFF3DC0DEFF3EC0DDFFDD52DD52D1
:1054F000D9CFE9FFDACFEAFFD880000EEE54800E54
:10550000EE54000EEE54000EEE5427E2D9CFE9FF20
:10551000DACFEAFFEECFE6FFEECFE6FFEECFE6FF13
:10552000EFCFE6FFDB0E4B6E970E4C6E4D6A4BC015
:10553000E6FFE66E4DC0E6FF28EC56F04E6E070E15
:10554000E15C02E2E16AE552E16E4E50DE6A800EF5
:10555000DE6EDE6ADD6ADD52DD52D9CFE9FFDACFD9
:10556000EAFFEECF4BF0EECF4CF0EECF4DF0EFCFA9
:105570004EF04B504C104D104E1027E1F60EDBCF85
:105580004FF0F70EDBCF50F0F80EDBCF51F0F90EF5
:10559000DBCF52F04F5050105110521016E0B00EA9
:1055A0004B6E970E4C6E4D6A4BC0E6FFE66E4DC0DB
:1055B000E6FF28EC56F0E552E552E552010EDE6EAC
:1055C000DE6ADE6ADD6ADD52DD52000EDFCF85F273
:1055D000010EDBCF86F2F60EDBCF89F2F70EDBCFC2
:1055E0008AF2F80EDBCF8BF2F90EDBCF8CF2D950BA
:1055F000F20FE96EFF0EDA20EA6ED890030EEB5040
:10560000000A08E6FF0EEE5CFF0EEE58010EEE58A3
:10561000000EEE5828E2F20EDBCF3BF0F30EDBCFAC
:105620003CF0F40EDBCF3DF0F50EDBCF3EF00F0E7D
:10563000D8903B363C363D363E36E806F9E1190E49
:10564000406E416A426A436AD2EC57F0FA0EDBCFF1
:1056500040F0FB0EDBCF41F0FC0EDBCF42F0FD0E45
:10566000DBCF43F02FD0F20EDBCF4BF0F30EDBCFCE
:105670004CF0F40EDBCF4DF0F50EDBCF4EF04BC00F
:105680003BF04CC03CF04DC03DF04EC03EF0FA0E39
:10569000DBCF40F0FB0EDBCF41F0FC0EDBCF42F066
:1056A000FD0EDBCF43F0D2EC57F00F0ED8903B3617
:1056B0003C363D363E36E806F9E1190E406E416A49
:1056C000426A436AD2EC57F03BC0DEFF3CC0DEFFCB
:1056D0003DC0DEFF3EC0DDFFDD52DD52D9CFE9FF28
:1056E000DACFEAFFD880000EEE54800EEE54000EA2
:1056F000EE54000EEE5427E2D9CFE9FFDACFEAFFED
:10570000EECFE6FFEECFE6FFEECFE6FFEFCFE6FF10
:105710007B0E4B6E970E4C6E4D6A4BC0E6FFE66EED
:105720004DC0E6FF28EC56F04E6E070EE15C02E23B
:10573000E16AE552E16E4E50DE6A800EDE6EDE6A90
:10574000DD6ADD52DD52D9CFE9FFDACFEAFFEECFD5
:105750004BF0EECF4CF0EECF4DF0EFCF4EF04B5084
:105760004C104D104E1027E1F20EDBCF4FF0F30E30
:10577000DBCF50F0F40EDBCF51F0F50EDBCF52F063
:105780004F5050105110521016E0500E4B6E970EA5
:105790004C6E4D6A4BC0E6FFE66E4DC0E6FF28EC4E
:1057A00056F0E552E552E552010EDE6EDE6ADE6A23
:1057B000DD6ADD52DD52000EDFCF87F2010EDBCF56
:1057C00088F2F20EDBCF8DF2F30EDBCF8EF2F40E09
:1057D000DBCF8FF2F50EDBCF90F20201010E846F6A
:1057E0001C6A040EE15C02E2E16AE552E16EE552F8
:1057F000E5CFDAFFE7CFD9FF1200D9CFE6FFDACF46
:10580000E6FFE1CFD9FFE2CFDAFF110EE12402E398
:10581000E168E652E16EDF6A010EDB6A020EDB6AC6
:10582000030EDB6A040EDB6A050EDB6A060EDB6A1A
:10583000070EDB6A080EDB6A090EDB6A0A0EDB6AFA
:105840000B0EDB6A0C0EDB6A0D0EDB6A0E0EDB6ADA
:105850000F0EDB6A100EDB6A1C5003E102018405A7
:1058600002E0000402E1010EDF6E0201840523E183
:10587000846B090E89C2DBFF0A0E8AC2DBFF0B0EA6
:105880008BC2DBFF0C0E8CC2DBFF0D0E8DC2DBFF6B
:105890000E0E8EC2DBFF0F0E8FC2DBFF100E90C20A
:1058A000DBFF896B8A6B8B6B8C6B8D6B8E6B8F6B5D
:1058B000906B010E1C6E000421E1006A010E05C010
:1058C000DBFF020E06C0DBFF030E07C0DBFF040E8A
:1058D00008C0DBFF050E09C0DBFF060E0AC0DBFFB8
:1058E000070E0BC0DBFF080E0CC0DBFF056A066A63
:1058F000076A086A096A0A6A0B6A0C6AD950050FB6
:10590000E96E000EDA20EA6EEECFE6FFEECFE6FF9C
:10591000EECFE6FFEFCFE6FFD950010FE96E000EA4
:10592000DA20EA6EEECFE6FFEECFE6FFEECFE6FF3F
:10593000EFCFE6FFD9500D0FE96E000EDA20EA6EC8
:10594000EECFE6FFEECFE6FFEECFE6FFEFCFE6FFCE
:10595000D950090FE96E000EDA20EA6EEECFE6FFAD
:10596000EECFE6FFEECFE6FFEFCFE6FFDFCFE6FFBD
:10597000E66A3B0E4B6E970E4C6E4D6A4BC0E6FFCF
:10598000E66E4DC0E6FF28EC56F04E6E150EE15C5B
:1059900002E2E16AE552E16E4E50CBEC11F0110EDD
:1059A000E15C02E2E16AE552E16EE552E5CFDAFF41
:1059B000E7CFD9FF1200ECC24BF04C6A4BBE4C68EB
:1059C0004BC0E6FF4CC0E6FF360E4D6E970E4E6E96
:1059D0004F6A4DC0E6FFE66E4FC0E6FF28EC56F07A
:1059E000506E050EE15C02E2E16AE552E16E505054
:1059F000CBEF11F0D9CFE6FFDACFE6FFE1CFD9FF49
:105A0000E2CFDAFFE652E652DE6ADD6A010EE66EAA
:105A1000D9CFE6FFDACFE6FF030EE66E3CEC1BF0D3
:105A2000E552E552E552E552295015E10201EC0537
:105A300006E1DECFE6FFDDCFE6FFE66A06D0DECF89
:105A4000E6FFDDCFE6FF010EE66E9DD8E552E5529A
:105A5000E552CBEC11F0E552E552E552E5CFDAFF25
:105A6000E7CFD9FF1200D9CFE6FFDACFE6FFE1CFCB
:105A7000D9FFE2CFDAFFE652E652E652E652E652AC
:105A8000DF6A010EDB6A020EDB6A010EF36E030EA3
:105A9000F3CFDBFFE66AD9CFE6FFDACFE6FF010EF0
:105AA000E66E3CEC1BF0E552E552E552E552010E84
:105AB000E66ED950010FE66E000EDA20E66E030E98
:105AC000E66E3CEC1BF0E552E552E552E552010E64
:105AD000E66ED950030FE66E000EDA20E66E010E78
:105AE000E66E3CEC1BF0E552E552E552E552E76EFE
:105AF000040EE7CFDBFF29503AE1030EDB50070825
:105B000005E2010EF36E030EF3CFDBFFDF50010859
:105B100002E2010EDF6E030EDB50030F0E01B65DD5
:105B200018E0000EE66EE66AE66EE66AB6CEE6FFBE
:105B3000E66EE66AA5EC52F04B6E070EE15C02E2FF
:105B4000E16AE552E16E4B50030EDB50030F0E018C
:105B5000B66F010EDBCFE6FF020EDBCFE6FFDFCF35
:105B6000E6FF11D8E552E552E552CBEC11F0050EF7
:105B7000E15C02E2E16AE552E16EE552E5CFDAFF6F
:105B8000E7CFD9FF1200D9CFE6FFDACFE6FFE1CFAA
:105B9000D9FFE2CFDAFFE652E652E652E652FD0EB8
:105BA000DB040BE1B0CEDEFFB1CEDDFF020EB2CEE4
:105BB000DBFF030EB3CEDBFF0AD0AECEDEFFAFCEEF
:105BC000DDFF020EB4CEDBFF030EB5CEDBFFFB0E16
:105BD000DBCFE6FFFC0EDBCFE6FF020EDBCFE6FFFE
:105BE000030EDBCFE6FFB6CEE6FFDECFE6FFDDCF6E
:105BF000E6FFA5EC52F04B6E070EE15C02E2E16AB3
:105C0000E552E16E4B50040EE15C02E2E16AE552BE
:105C1000E16EE552E5CFDAFFE7CFD9FF1200D9CF29
:105C2000E6FFDACFE6FFE1CFD9FFE2CFDAFFE652B7
:105C3000E652E652E66AD9CFE6FFDACFE6FF010E7A
:105C4000E66E3CEC1BF0E552E552E552E552E76E9C
:105C5000020EE7CFDBFFDB5038E1295064E102019F
:105C6000EB5103E0020EEB5D28E1DF50000821E27A
:105C7000EB5101E18D90DF0403E18D848D82898CED
:105C8000020EDF5C03E18D848D82899C030EDF5C54
:105C900003E18D948D82899C040EDF5C03E18D8489
:105CA0008D92899C050EDF5C10E18D948D92899C0C
:105CB0000CD0EB510AE18D8008D0EB0506E1DF50F6
:105CC000000802E28C9201D08C82010EE66ED9505F
:105CD000010FE66E000EDA20E66E010EE66E3CEC79
:105CE0001BF0E552E552E552E552E76E020EE7CFB2
:105CF000DBFFDB5016E1295016E10201EB5108E110
:105D0000010EDB50000802E28B920BD08B8209D08F
:105D1000EB0507E1010EDB50000802E2899201D099
:105D20008982CBEC11F0E552E552E552E552E5CF20
:105D3000DAFFE7CFD9FF1200FE0E0201ED5DFF0E84
:105D4000EE59FF0EEF59FF0EF05905E2ED2B000E54
:105D5000EE23EF23F023CBEF11F00201ED51EE1112
:105D6000EF11F01105E0ED07000EEE5BEF5BF05B6D
:105D7000CBEF11F0D9CFE6FFDACFE6FFE1CFD9FFC5
:105D8000E2CFDAFFE652E652E652E652E652E66A21
:105D9000D9CFE6FFDACFE6FF070EE66E3CEC1BF04C
:105DA000E552E552E552E552E76E040EE7CFDBFF20
:105DB000DB500BE1DFCFEDF2010EDBCFEEF2020E96
:105DC000DBCFEFF2030EDBCFF0F2CBEC11F0050EE0
:105DD000E15C02E2E16AE552E16EE552E5CFDAFF0D
:105DE000E7CFD9FF1200EDC2E6FFEEC2E6FFEFC239
:105DF000E6FFF0C2E6FF2D0E4B6E970E4C6E4D6A1D
:105E00004BC0E6FFE66E4DC0E6FF28EC56F04E6E46
:105E1000070EE15C02E2E16AE552E16E4E50CBEF23
:105E200011F0E66AF10EE66E020EE66E010EE66E07
:105E30003CEC1BF0E552E552E552E552295001E0F9
:105E40001200CBEF11F0F1C24BF04C6A4BBE4C6824
:105E50004BC0E6FF4CC0E6FF260E4D6E970E4E6E11
:105E60004F6A4DC0E6FFE66E4FC0E6FF28EC56F0E5
:105E7000506E050EE15C02E2E16AE552E16E5050BF
:105E8000CBEF11F0F2C24BF04C6A4BBE4C684BC0EA
:105E9000E6FF4CC0E6FF200E4D6E970E4E6E4F6A29
:105EA0004DC0E6FFE66E4FC0E6FF28EC56F0506EA0
:105EB000050EE15C02E2E16AE552E16E505002013A
:105EC000F26BCBEF11F09DBCFED716C1E6FF17C1F8
:105ED000E6FF00C1E6FF01C1E6FF140E4B6E970E10
:105EE0004C6E4D6A4BC0E6FFE66E4DC0E6FF28ECF7
:105EF00056F04E6E070EE15C02E2E16AE552E16E99
:105F00004E50CBEF11F0D9CFE6FFDACFE6FFE1CF6D
:105F1000D9FFE2CFDAFFE652E652E652DF6A010E1F
:105F2000DB6A020EDB6AE66AD9CFE6FFDACFE6FF6C
:105F3000010EE66E3CEC1BF0E552E552E552E552EF
:105F4000010EE66ED950010FE66E000EDA20E66E05
:105F5000030EE66E3CEC1BF0E552E552E552E552CD
:105F6000295070E1D950010FE96E000EDA20EA6E77
:105F7000FF0ED880EE54030EED5407E2010EDB68ED
:105F8000030EF36E020EF3CFDBFFDF50010802E2D7
:105F9000010EDF6ED950010FE96E000EDA20EA6EB5
:105FA000EE50ED1007E1DF0405E10201F96B020E8E
:105FB000FA6F06D0010EDBCFF9F2020EDBCFFAF258
:105FC000CAB415D0CB68FC0ECA140009CA6E9D92E3
:105FD0000F0152815293F00EBA140C09BA6E3F0EA3
:105FE000BA140009BA6E0E010E0ECC6FCA84DF50CF
:105FF00023E0F9C24BF0FAC24CF0D8904C324B324D
:10600000D8904C324B324B50BB6EF9C24DF0FAC2B5
:106010004EF0040ED8904D364E36E804FBE1300EBB
:106020004D16000E4E16CF0EBA1400014D104B6ED9
:106030004EC04CF0E85003D0BB6ACF0EBA14BA6E13
:10604000CBEC11F0E552E552E552E552E5CFDAFF2F
:10605000E7CFD9FF12001200D9CFE6FFDACFE6FF73
:10606000E1CFD9FFE2CFDAFF1B0EE12402E3E168C2
:10607000E652E16EDF6A010EDB6A020EDB6AF29E17
:10608000030E00C0DBFF040E01C0DBFF050E02C0E3
:10609000DBFF060E03C0DBFF070E04C0DBFF080EAC
:1060A00005C0DBFF090E06C0DBFF0A0E07C0DBFFE1
:1060B0000B0E08C0DBFF0C0E09C0DBFF0D0E0AC083
:1060C000DBFF0E0E0BC0DBFF0F0E0CC0DBFF100E54
:1060D0000DC0DBFF110E0EC0DBFF120E0FC0DBFF89
:1060E000130E10C0DBFF140E11C0DBFF150E12C023
:1060F000DBFF160E13C0DBFF170E14C0DBFF180EFC
:1061000015C0DBFF190E16C0DBFF1A0E17C0DBFF30
:10611000F28E110EDBCF4BF0120EDBCF4CF0130ED4
:10612000DBCF4DF0140EDBCF4EF04B504C104D102A
:106130004E1002E0010EDF6E030EDB5002E0010E96
:10614000DF6E1C5002E1010EDF6EDF5014E0080E1E
:10615000DBCF4BF0090EDBCF4CF00A0EDBCF4DF05E
:106160000B0EDBCF4EF04B504C104D104E1003E099
:10617000DE52010EDD6EDF5016E00C0EDBCF4BF071
:106180000D0EDBCF4CF00E0EDBCF4DF00F0EDBCF44
:106190004EF04B504C104D104E1005E0010EF36EBA
:1061A000020EF3CFDBFF020EDBCFE6FFE66A010E45
:1061B000DBCFE6FFE66ADFCFE6FFE66A060E4B6E50
:1061C000970E4C6E4D6A4BC0E6FFE66E4DC0E6FF83
:1061D00028EC56F04E6E090EE15C02E2E16AE552EF
:1061E000E16E4E501B0EE15C02E2E16AE552E16EA7
:0C61F000E552E5CFDAFFE7CFD9FF12003F
:0461FC00D9CFE6FF12
:10620000DACFE6FFE1CFD9FFE2CFDAFF080EE124D3
:1062100002E3E168E652E16ED9CFE6FFDACFE6FFAE
:10622000080EE66EE66AF80EE66EE668E66AE66A6C
:1062300074EC56F04B6E080EE15C02E2E16AE55246
:10624000E16E4B50E668E668E66AE66AE66AC00E0A
:10625000E66EE66AE66A10EC55F04B6E080EE15CFD
:1062600002E2E16AE552E16E4B50D9CFE6FFDACFA8
:10627000E6FF080EE66EE66AF80EE66EE668E66A87
:10628000E66A74EC53F04B6E080EE15C02E2E16AE0
:10629000E552E16E4B50080EE15C02E2E16AE55224
:1062A000E16EE552E5CFDAFFE7CFD9FF1200D9CF93
:1062B000E6FFDACFE6FFE1CFD9FFE2CFDAFF230E28
:1062C000E12402E3E168E652E16E200EDB6AC00ED3
:1062D000F36E210EF3CFDBFFA50E4B6E9D0E4C6EC1
:1062E0004D6A4BC0E6FFE66E4DC0E6FF28EC56F067
:1062F000E552E552E552220EDB6A040EF36E220EE1
:10630000DBCFF4FFF350F45C01E3C0D0D9CFE6FF5C
:10631000DACFE6FF200EE66EE66ADBCF4BF0210E09
:10632000DBCF4CF04D6A4E6A4BC0E6FF4CC0E6FF37
:106330004DC0E6FF4EC0E6FF74EC56F04F6E080EFF
:10634000E15C02E2E16AE552E16E4F501F0EDBCFE5
:10635000E6FFE66A1E0EDBCFE6FFE66A1D0EDBCF28
:10636000E6FFE66A1C0EDBCFE6FFE66A1B0EDBCF1C
:10637000E6FFE66A1A0EDBCFE6FFE66A190EDBCF10
:10638000E6FFE66A180EDBCFE6FFE66A170EDBCF04
:10639000E6FFE66A160EDBCFE6FFE66A150EDBCFF8
:1063A000E6FFE66A140EDBCFE6FFE66A130EDBCFEC
:1063B000E6FFE66A120EDBCFE6FFE66A110EDBCFE0
:1063C000E6FFE66A100EDBCFE6FFE66A0F0EDBCFD4
:1063D000E6FFE66A0E0EDBCFE6FFE66A0D0EDBCFC8
:1063E000E6FFE66A0C0EDBCFE6FFE66A0B0EDBCFBC
:1063F000E6FFE66A0A0EDBCFE6FFE66A090EDBCFB0
:10640000E6FFE66A080EDBCFE6FFE66A070EDBCFA3
:10641000E6FFE66A060EDBCFE6FFE66A050EDBCF97
:10642000E6FFE66A040EDBCFE6FFE66A030EDBCF8B
:10643000E6FFE66A020EDBCFE6FFE66A010EDBCF7F
:10644000E6FFE66ADFCFE6FFE66A030E4B6E9D0EBF
:106450004C6E4D6A4BC0E6FFE66E4DC0E6FF28EC81
:1064600056F04E6E430EE15C02E2E16AE552E16EE7
:106470004E50D950200FE96E000EDA20EA6E200E41
:10648000EE26000EED22220EDB2A37D7230EE15C2A
:1064900002E2E16AE552E16EE552E5CFDAFFE7CFCD
:1064A000D9FF1200D9CFE6FFDACFE6FFE1CFD9FF5F
:1064B000E2CFDAFF100EE12402E3E168E652E16E7A
:1064C000F6DE010EE66EE66A000EE66EE66AE66E3F
:1064D000E66A43EC3BF04B6E060EE15C02E2E16AD9
:1064E000E552E16E4B50F20EDF6EDE52010EDD6EB4
:1064F000D40EF36E020EF3CFDBFFC00EF36E030E6D
:10650000F3CFDBFF010EF36E040EF3CFDBFF860E3D
:10651000F36E050EF3CFDBFFA00EF36E060EF3CF86
:10652000DBFFFE0EF36E070EF3CFDBFF790EF36E8B
:10653000080EF3CFDBFF600EF36E090EF3CFDBFF27
:10654000E66AE66AD9CFE6FFDACFE6FF0A0EE66E24
:10655000E66A43EC3BF04B6E060EE15C02E2E16A58
:10656000E552E16E4B50C80EDF6EDE52DD6E7F0EDF
:10657000F36E020EF3CFDBFFE66AE66AD9CFE6FFE1
:10658000DACFE6FF030EE66EE66A43EC3BF04B6EB5
:10659000060EE15C02E2E16AE552E16E4B50F10E5B
:1065A000DF6EDE52030EDD6EE80EF36E020EF3CFE9
:1065B000DBFF030EDB6EE80EF36E040EF3CFDBFFA2
:1065C000030EF36E050EF3CFDBFFE80EF36E060E3F
:1065D000F3CFDBFFE66AE66AD9CFE6FFDACFE6FF64
:1065E000070EE66EE66A43EC3BF04B6E060EE15C8E
:1065F00002E2E16AE552E16E4B50F10EDF6EDE52CF
:10660000070EDD6ED00EF36E020EF3CFDBFF0F0E22
:10661000F36E030EF3CFDBFFA00EF36E040EF3CF89
:10662000DBFFF00EF36E050EF3CFDBFF600EF36EB3
:10663000060EF3CFDBFFE66AE66AD9CFE6FFDACFD4
:10664000E6FF070EE66EE66A43EC3BF04B6E060E85
:10665000E15C02E2E16AE552E16E4B50FD0EDF6E55
:10666000E66AE66AD9CFE6FFDACFE6FF010EE66E0C
:10667000E66A43EC3BF04B6E060EE15C02E2E16A37
:10668000E552E16E4B50FB0EDF6EDE52130EDD6EF7
:10669000880EF36E020EF3CFDBFFE66AE66AD9CF0F
:1066A000E6FFDACFE6FF030EE66EE66A43EC3BF068
:1066B0004B6E060EE15C02E2E16AE552E16E4B5080
:1066C000F10EDF6EDE52070EDD6ED00EF36E020E9F
:1066D000F3CFDBFF0F0EF36E030EF3CFDBFFA00E45
:1066E000F36E040EF3CFDBFFF00EF36E050EF3CF67
:1066F000DBFF600EF36E060EF3CFDBFFE66AE66AA1
:10670000D9CFE6FFDACFE6FF070EE66EE66A43EC86
:106710003BF04B6E060EE15C02E2E16AE552E16E8F
:106720004B50FE0EDF6EE66AE66AD9CFE6FFDACF9F
:10673000E6FF010EE66EE66A43EC3BF04B6E060E9A
:10674000E15C02E2E16AE552E16E4B50FB0EDF6E66
:10675000DE52130EDD6E880EF36E020EF3CFDBFFFA
:10676000E66AE66AD9CFE6FFDACFE6FF030EE66E09
:10677000E66A43EC3BF04B6E060EE15C02E2E16A36
:10678000E552E16E4B50C80EDF6EDE52500EDD6EEC
:10679000A00EF36E020EF3CFDBFFE66AE66AD9CFF6
:1067A000E6FFDACFE6FF030EE66EE66A43EC3BF067
:1067B0004B6E060EE15C02E2E16AE552E16E4B507F
:1067C000FC0EDF6EDE52C80EDD6EE66AE66AD9CFD9
:1067D000E6FFDACFE6FF020EE66EE66A43EC3BF038
:1067E0004B6E060EE15C02E2E16AE552E16E4B504F
:1067F000C80EDF6EDE52500EDD6EA00EF36E020E7E
:10680000F3CFDBFFE66AE66AD9CFE6FFDACFE6FF31
:10681000030EE66EE66A43EC3BF04B6E060EE15C5F
:1068200002E2E16AE552E16E4B50FB0EDF6EDE5292
:10683000130EDD6E880EF36E020EF3CFDBFFE66AF9
:10684000E66AD9CFE6FFDACFE6FF030EE66EE66A28
:1068500043EC3BF04B6E060EE15C02E2E16AE5526E
:10686000E16E4B50C80EDF6EDE52500EDD6EA00E94
:10687000F36E020EF3CFDBFFE66AE66AD9CFE6FFDE
:10688000DACFE6FF030EE66EE66A43EC3BF04B6EB2
:10689000060EE15C02E2E16AE552E16E4B50DF6810
:1068A000E66AE66AD9CFE6FFDACFE6FF010EE66ECA
:1068B000E66A43EC3BF04B6E060EE15C02E2E16AF5
:1068C000E552E16E4B50E66A010EE66E000EE66E92
:1068D000E66AE66EE66A43EC3BF04B6E060EE15C60
:1068E00002E2E16AE552E16E4B50100EE15C02E219
:1068F000E16AE552E16EE552E5CFDAFFE7CFD9FF75
:1069000012000E01B96BC00EBA6F1200D9CFE6FFAC
:10691000DACFE6FFE1CFD9FFE2CFDAFF1D0EE124A7
:1069200002E3E168E652E16EDF6A1C5002E11AEF11
:106930003AF0D9CFE6FFDACFE6FF010EE66EE66A5F
:10694000B9CE4BF0BACE4CF04D6A4E6AB9CEE6FFE6
:10695000BACEE6FF4DC0E6FF4EC0E6FF74EC56F03F
:106960004F6E080EE15C02E2E16AE552E16E4F50C3
:10697000B9CEE6FFBACEE6FFDFCFE6FFE66AE80E65
:106980004B6E9C0E4C6E4D6A4BC0E6FFE66E4DC0E2
:10699000E6FF28EC56F04E6E070EE15C02E2E16A7B
:1069A000E552E16E4E50DF50F10A01E18ED3030A49
:1069B00001E119D2080A01E1B4D1010A01E109D1CA
:1069C000070A01E177D0010A59E0030A42E0010A0F
:1069D00030E0CF0E4B6E9B0E4C6E4D6A4BC0E6FF07
:1069E000E66E4DC0E6FF28EC56F0E552E552E55262
:1069F000D950010FE66E000EDA20E66E030EE66E49
:106A0000E66AB9CE4BF0BACE4CF04D6A4E6AB9CEBA
:106A1000E6FFBACEE6FF4DC0E6FF4EC0E6FF74ECDF
:106A200056F04F6E080EE15C02E385EF39F083EF1C
:106A300039F00E01B76BB86BD90E4B6E9C0E4C6ED5
:106A40004D6A4BC0E6FFE66E4DC0E6FF28EC56F0FF
:106A50002AD0C70E4B6E9C0E4C6E4D6A4BC0E6FFA3
:106A6000E66E4DC0E6FF28EC56F0E552E552E552E1
:106A7000000EE66EE66A010EE66E13D0B30E4B6EA4
:106A80009C0E4C6E4D6A4BC0E6FFE66E4DC0E6FFB5
:106A900028EC56F0E552E552E552000EE66EE66A45
:106AA000E66AC3EC2DF0E552E552E5520E01B92B32
:106AB00018EF3AF09C0E4B6E9C0E4C6E4D6A4BC01C
:106AC000E6FFE66E4DC0E6FF28EC56F0E552E552D3
:106AD000E552D950010FE66E000EDA20E66E020E86
