:020000040000FA
:061000009DEF4DF012000F
:06100800C9EF1AF012000E
:061018002EEF08F01200AB
:06102A000400259C0000FB
:1010300000050000EA0000001C9C0000EA0500001A
:10104000090000001A9C0000FE01000002000000E0
:0C1050009C9B0000800200007E0000005D
:04105C00D8CFE4FF06
:10106000E0CFE4FFE46EE9CFE4FFEACFE4FFF3CFA3
:10107000E4FFF4CFE4FFE6528EEC1AF0E65257ECB0
:1010800019F0A4A65FD1A4960E01002B0E01AB515E
:101090000E01005D01E284D0006B0E01FDEC18F042
:1010A000EF6A79907B6A7A6A0E01A92B0E01AA5128
:1010B0000E01A95D01E3A96BB9EC19F0EA22EE502B
:1010C000ED106EE0A5EC1AF046EC1AF002E14B5080
:1010D000491847E0C6EC19F0EA22EE50ED103AE06C
:1010E00006EC1AF0C4EC18F0B9EC19F0EA22EE5054
:1010F0004A5C486EEE504B58496E020E48C0DBFF0A
:10110000030E49C0DBFF50EC19F0493412E248509D
:101110000008000E49540DE250EC19F0C6EC19F02D
:1011200017EC1AF017E288EC1AF0EE264950ED227F
:1011300018D050EC19F0486C491E000E4922C6EC3C
:1011400019F017EC1AF006E288EC1AF0EE5E49503E
:10115000ED5A07D0A5EC1AF0EA2248C0EEFF49C0CC
:10116000EDFFFDEC18F0120EEF6EF29E0E01B9ECE1
:1011700019F08CEC18F049C048F0496A4850B66E36
:10118000B9EC19F08CEC18F04850B56EF00EB414B0
:101190000009B46EF00EB4140909B46E7980F28EB1
:1011A00004017C517D110BE0050E7B5D07E3C18CD2
:1011B0009E9C9D8CC280C2827B6B01D07B2B0501E3
:1011C000015101E1AAD0DE6ADD6ADECF48F0DDCF51
:1011D00049F0040E485C000E495801E39ED07AECB9
:1011E00018F0010ECAEC18F0FDE1020EE926050E1A
:1011F000EA22EE50ED1075E07AEC18F0010ECAEC20
:1012000018F0FDE14AEC1AF0EE50ED1016E14FEC4B
:101210001AF001E1818053EC1AF003E1ED5001E195
:10122000818257EC1AF003E1ED5001E181845BEC1F
:101230001AF003E1ED5001E181867AEC18F0010E1D
:10124000CAEC18F0FDE1FFEC19F0CAEC18F0FDE172
:10125000020EE926050E46EC1AF019E14B5049182A
:1012600016E14FEC1AF001E1819053EC1AF003E122
:10127000ED5001E1819257EC1AF003E1ED5001E1EC
:1012800081945BEC1AF003E1ED5001E181967AEC78
:1012900018F0010ECAEC18F0FDE14AEC1AF0EE2A43
:1012A000000EEF227AEC18F0010ECAEC18F0FDE106
:1012B000FFEC19F0CAEC18F0FDE10A0EE926050E64
:1012C00046EC1AF024E14B50491821E17AEC18F071
:1012D000010ECAEC18F0FDE14AEC1AF0EE6AED6A74
:1012E00016D04FEC1AF001E1819053EC1AF003E1B3
:1012F000ED5001E1819257EC1AF003E1ED5001E16C
:1013000081945BEC1AF003E1ED5001E18196DF2A54
:10131000010E01E25AD7DB2A58D70601E05101E05D
:10132000E00705011A511B111C111D110BE01A07D2
:10133000000E1B5B1C5B1D5B1A511B111C111D1148
:1013400001E189969EAC3DD09E9CC1AC07D0C19C6A
:10135000010E04017E6F7F6B7A6B18D0C4504A6E09
:101360004B6E4A6AC35000014A10486E4BC049F0A8
:1013700004017A51E96EEA6A2EEC19F048C0EEFFDA
:1013800049C0EDFFD8907E377F377A2B100E7A5DFB
:101390000EE27E517C15486E7F517D15496E485096
:1013A000491005E17A2BD8907E377F37EFD7100EA2
:1013B0007A5D02E39D9C05D07A51040DF328C26E3C
:1013C000C282040EE15C02E2E16AE552E16EE5529E
:1013D000E5CFDAFFE7CFD9FFE552E5CFF4FFE5CF60
:1013E000F3FFE5CFEAFFE5CFE9FFE550E5CFE0FF0A
:1013F000E5CFD8FF1000D9EC19F019EC19F0896A83
:10140000926804017C6B7D6B8A6A93688B6A94682E
:101410008C968B9C9596949C948E010EA16F0101E5
:10142000FE69FF6904017A6B76827680769C769AF3
:1014300076887696FA0E776EDE6ADD6ADBEC18F057
:1014400004E6100E005C000E01580BE27AEC18F076
:101450002EEC19F0EE6AED6ADF2A010EEFE3DB2ACB
:10146000EDD704019B6B9C6B996B9A6BDE6ADD6A0E
:10147000DBEC18F004E6400E005C000E01580CE2B4
:101480007AEC18F0000EE926020EEA22EF6ADF2A53
:10149000010EEEE3DB2AECD7DE6ADD6ADBEC18F046
:1014A00004E6400E005C000E01580CE27AEC18F0E5
:1014B000400EE926020EEA22EF6ADF2A010EEEE371
:1014C000DB2AECD7DE6ADD6ADBEC18F004E6000EFE
:1014D000005C010E01580AE27AEC18F074EC19F085
:1014E000EF6ADF2A010EF0E3DB2AEED704019D6BE1
:1014F0009E6B9F6BA06B0F01498FBE0EC16ED08E8D
:101500007694A386A5960FEC1CF030EC44F0F28E96
:10151000F28C76843BEC14F0F6EC45F0040EE15CC2
:1015200002E2E16AE552E16E50EF18F0D9EC19F0F1
:10153000E65219EC19F057EC19F0040EDB6A74EC62
:1015400017F0200E0101E76EC819E8AE02D0E734AB
:1015500002D0E750C85D01E23CD16550020B01E0CA
:1015600038D1400EE66E400EE66E020EE66EC7EC17
:1015700042F084EC1AF0E76E030EE7CFDBFFDB509E
:10158000000801E3E9D0040EDB6A030EDB50F36EC2
:10159000040EBFEC18F001E3DFD0040EDB50EA6A62
:1015A000400FE96E020EEA22EFCFDFFF0501665120
:1015B00034E10D0EA9EC18F005E00A0E016EDF50C3
:1015C000015C2BE1010E666F0401E2EC18F00D0ED8
:1015D000EF6E9B2B010EDB6A9B51F36E010EBFEC8D
:1015E00018F016E279EC19F0E9BEEA6874EC19F02B
:1015F000EF50E66E79EC19F0E9BEEA68220EE926B2
:10160000050EEA22E552E750EF6E010EDB2AE4D721
:101610003ED904019B6B9C6B8DD01B0EDF5C09E1F6
:10162000625107E1010E626F1B0E636F646B656BA5
:1016300081D062050BE15B0EDF5C08E11B0E635D90
:1016400005E1645103E15B0E646F74D062054AE109
:10165000410EDF5C47E11B0E635D44E15B0E645DA0
:1016600041E1636B646B656B626B010EDB6ADBCF20
:10167000E9FFEA6AE9BEEA6874EC19F0EF500D0878
:1016800016E079EC19F0E9BEEA68220EE926050EAB
:10169000EA22EF50E66E79EC19F0E9BEEA6874ECE4
:1016A00019F0E552E750EF6E010EDB2AE0D7010E8C
:1016B000DBCF9BF40401E2EC18F0EF6A060E006E3B
:1016C000800EAFEC19F0000EE66E030EE66E030E10
:1016D000006E800EB6EC19F002E2E16AE552E16EAE
:1016E000035028D0080EDF5C0EE104019B51000876
:1016F0000AE29B07E2EC18F0EF6A000E006E800E23
:10170000AFEC19F017D00D0EDF5C14E00A0EDF5CB1
:1017100011E0200EDF5C0EE30501636B646B656B0B
:10172000626B0401E2EC18F0DFCFEFFF0501666B9E
:1017300004019B2B04019B51006E016A000E0018EE
:1017400008E1010E011805E10501008704019B6B0A
:101750009C6B040EDB2A19D70501005139E000A16A
:1017600005D0FA0E006E7F0EAFEC19F0050100A354
:1017700005D0DB0E006E7F0EAFEC19F0050100A561
:1017800005D0BF0E006E7F0EAFEC19F0050100A76B
:1017900005D0A30E006E7F0EAFEC19F0050100A975
:1017A00005D0840E006E7F0EAFEC19F0050100AD80
:1017B00005D0630E006E7F0EAFEC19F0050100AF8F
:1017C00005D04A0E006E7F0EAFEC19F00501006BDC
:1017D00038D8050EE15C02E2E16AE552E16E50EFB5
:1017E00018F0D9EC19F099C4DFFFDF2A400EA9ECFC
:1017F00018F001E1DF6A04019A51DF5C01E121D8B0
:1018000004019951EA6A000FE96E020EEA22FD0E08
:10181000DBCFEFFF992B400E995D01E1996B9A5157
:10182000995D02E105010085FD0EDBCF00F0016A44
:1018300000BE016800C0F3FF01C0F4FFE55250EFA5
:1018400018F0D9EC19F0040199519A5D1DE00101DD
:10185000B05105E051EC43F0B6EC2DF0F8D704019F
:101860009A51D880995507E29A51995DADEC18F0DC
:1018700099C49AF407D0400ED8809A55ADEC18F070
:1018800004019A6B51EC43F0E55250EF18F0D9EC9B
:1018900019F019EC19F0DE6ADD6A57EC19F0040151
:1018A00056EC18F089EC19F0020EF3CFDBFF0401BF
:1018B0006CEC18F004E1010E011801E19C6B020EC2
:1018C000DB50DE6EDD6A56EC18F02C0824E056EC96
:1018D00018F00D0820E056EC18F089EC19F0030E12
:1018E000F3CFDBFF04016CEC18F004E1010E0118EA
:1018F00001E19C6B020EDBCF02F002C003F0026A32
:10190000030EDB5000010224006E000E0320016E66
:1019100000C0DEFFDD6E000EDFCF3AF0010EDBCF40
:101920003BF0530E3A1802E1540E3B1801E10DD280
:10193000520E3A1802E1530E3B1801E103D2520E47
:101940003A1802E1510E3B1801E1F9D1420E3A1862
:1019500002E1520E3B1801E1EFD1540E3A1802E1B8
:10196000510E3B1801E1E5D1540E3A1802E1530E35
:101970003B1801E1DBD1530E3A1802E1430E3B184C
:1019800001E1D1D1530E3A1802E1510E3B1801E1A9
:10199000C7D14D0E3A1802E1580E3B1801E1BDD1F6
:1019A000530E3A1802E1450E3B1801E1B3D1430E44
:1019B0003A1802E1410E3B1801E1AAD14D0E3A1846
:1019C00002E1510E3B1801E1A0D14D0E3A1802E19F
:1019D000520E3B1801E196D1320E3A1802E1530E35
:1019E0003B1801E18CD1450E3A1802E1530E3B1829
:1019F00001E182D1430E3A1802E1510E3B1801E198
:101A000078D14B0E3A1802E1430E3B1801E16ED13A
:101A10004C0E3A1802E1420E3B1801E164D1440E2B
:101A20003A1802E14E0E3B1801E15AD1490E3A181C
:101A300002E14E0E3B1801E150D1420E3A1802E18C
:101A4000510E3B1801E146D14C0E3A1802E1510EFD
:101A50003B1801E13CD14C0E3A1802E1530E3B1801
:101A600001E132D14E0E3A1802E1510E3B1801E16C
:101A700028D14E0E3A1802E1530E3B1801E11ED157
:101A8000430E3A1802E1530E3B1801E114D14D0EFA
:101A90003A1802E1450E3B1801E10AD1500E3A18FE
:101AA00002E1510E3B1801E100D1500E3A1802E15B
:101AB000540E3B1801E1F6D0500E3A1802E1530ED5
:101AC0003B1801E1ECD04D0E3A1802E1410E3B18F3
:101AD00001E1E2D04D0E3A1802E1530E3B1801E14C
:101AE000D8D0470E3A1802E1500E3B1801E1CED093
:101AF000430E3A1802E1500E3B1801E1C4D0490EE2
:101B00003A1802E1430E3B1801E1BAD0490E3A18E7
:101B100002E1520E3B1801E1B0D0490E3A1802E141
:101B2000530E3B1801E1A6D0530E3A1802E1520EB3
:101B30003B1801E19CD0530E3A1802E1530E3B18BA
:101B400001E192D0570E3A1802E14D0E3B1801E127
:101B500089D0520E3A1802E14D0E3B1801E180D0B7
:101B6000440E3A1802E1500E3B1801E177D04F0EB7
:101B70003A1802E1500E3B186FE0490E3A1802E1A4
:101B8000500E3B1867E0580E3A1802E1540E3B180D
:101B90005EE0410E3A1801E13B5057E0560E3A180C
:101BA00001E13B5050E0490E3A1801E13B5049E059
:101BB0004F0E3A1801E13B5042E0550E3A1802E14F
:101BC000430E3B183AE0580E3A1802E1430E3B1818
:101BD00031E0430E3A1801E13B502AE0520E3A1828
:101BE00001E13B5023E0580E3A1802E1520E3B1837
:101BF0001AE04D0E3A1802E14C0E3B1811E0030EAC
:101C0000DB5001E0A5D0020E41EC19F041EC19F0D7
:101C1000270E006E7F0EE2EC19F001E3A8D0A5D0EC
:101C200049EC20F0A6D03FEC12F0A3D0C8D8A1D048
:101C300003D99FD041EC12F09CD0C5D89AD0A3D93B
:101C400098D0D2D996D0EDD994D0F0D992D03DEC9D
:101C500012F08FD012DB8DD07BDB8BD079DA89D07C
:101C60005ADA87D044DA85D043EC12F082D045ECC2
:101C700012F07FD047EC12F07CD049EC12F079D012
:101C80004BEC12F076D04DEC12F073D0ADEC12F0BC
:101C900070D0D1EC21F06DD09AEC1DF06AD0F4EC4C
:101CA00025F067D0D6EC25F064D0C3EC25F061D0E8
:101CB0004DEC26F05ED0DAEC1CF05BD0B0EC26F0F8
:101CC00058D0D2EC26F055D0E4EC26F052D0F0EC0F
:101CD00026F04FD002EC27F04CD092EC26F049D001
:101CE000A3EC26F046D0E0EC12F043D037EC13F032
:101CF00040D016EC27F03DD02AEC27F03AD0A6ECE5
:101D000044F037D0C6EC27F034D0C7EC27F031D000
:101D100028D92FD03BEC25F02CD06CEC22F029D028
:101D2000AAEC28F026D0DEEC28F023D0A4EC14F0A6
:101D300020D0EAEC14F01DD0E8EC12F01AD0EFEC51
:101D400012F017D001EC13F014D0A2EC46F011D031
:101D50001DEC1AF01DEC1AF0FF0E006E7E0E3EEC2C
:101D600018F0036E0B0EE15C02E2E16AE552E16EEF
:101D70000350040156EC18F00D080EE00501005167
:101D80000BE1520E006E016ADF50001803E1DE52D3
:101D9000DD50011801E0008F9BC49CF4040EE15C4F
:101DA00002E2E16AE552E16E50EF18F00401A15140
:101DB00005E0F00E006E9A0EAFEC19F01200FBEC8D
:101DC00009F0D6EF0EF0BEEC19F0010EB6EC1AF0E9
:101DD000010F5FEC18F0020EAFEC1AF02BE1DF04FC
:101DE00012E122EC1AF00AE0010E006E016ADB50EB
:101DF000001808E1020EDB50011804E1010EDBCFF0
:101E0000A1F401D0008D020EA9EC18F012E122EC31
:101E10001AF00AE0010E006E016ADB50001808E1BA
:101E2000020EDB50011804E1010EDBCFF2F501D008
:101E3000008DBCDFCBEF19F0D9EC19F0E65219ECAC
:101E400019F069EC18F0010E70EC1AF0E66AD9503E
:101E5000030FB2EC19F0E66AD950040FC5EC1AF082
:101E60000FE1DF50926E010EDB50936E020EDB50DD
:101E7000946E030EDB50956E040EDB50966E96DF6B
:101E8000050EE15C02E2E16AE552E16E50EF18F006
:101E90004AEC18F0FD0EDB50100805E2100EF36E50
:101EA000FD0EF3CFDBFFFC0EDB502BE0FD0EDB5015
:101EB000B9EC4DF0F35004017C13F4507D13080E7F
:101EC000F36EFD0EBFEC18F00DE2010EF36EFD0E89
:101ED000DB5003E07FEC18F0FDE1F350F31C0F0141
:101EE00048173DD0FD0EDB500C0839E390EC19F09B
:101EF00004E0E846FE0B0006FCE1E81C0F01491770
:101F00002ED0FD0EDB50B9EC4DF0F3CF00F0F4CF46
:101F100001F0001E011E005004017C1701507D17C6
:101F2000080EF36EFD0EBFEC18F00CE2010EF36E1E
:101F3000FD0EDB5003E07FEC18F0FDE1F3500F01E4
:101F400048130DD0FD0EDB500C0809E390EC19F09E
:101F500004E0E846FE0B0006FCE10F01491350EFD8
:101F600018F0C0EC1AF078EC1AF009E1010EDBCFA2
:101F7000E6FFDFCFE6FF8CDFE552E55217DFE552E3
:101F8000E55250EF18F0C0EC1AF047EC18F0BBEC3B
:101F900018F026E1010EDB5002E1DF50896EC1EC42
:101FA00019F01EE1010EDB5002E1DF508A6EC1EC38
:101FB00019F016E1010EDB5002E1DF508B6EC1EC2F
:101FC00019F00EE1010EDB5002E1DF508C6EC1EC26
:101FD00019F006E1010EDB5002E1DF508D6EE6DE06
:101FE000E552E55250EF18F08450E66EE66A8350F1
:101FF000E66EE66A8250E66EE66A8150E66EE66A52
:102000008050E66EE66AE20E006E7E0E3EEC18F040
:10201000036E0D0EE15C02E2E16AE552E16E0350EF
:102020001200F80E006E9A0EAFEF19F08EEC1AF057
:10203000DF6A010EF36EDB6E020EDB6AE00E006EED
:102040007E0EAFEC19F09DBCFED7DF6ADFCF00F04B
:10205000100EE76E0018E8AE02D0E73402D0E75069
:10206000005C3EE2010EDB5004017C150001006EB5
:10207000020EDB5004017D150001016E00500110BD
:102080001EE0DFCFE9FFEA6AE9BEEA682EEC19F04C
:10209000EECFE6FFEFCFE6FFDFCF00F0016A00BE34
:1020A00001685FEC1AF0D50E026E7E0E45EC19F059
:1020B000070EE15C02E2E16AE552E16E0550010EB5
:1020C000DBCF00F0020EDBCF01F0D89000360136F6
:1020D000010E00C0DBFF020E01C0DBFFDF2AB6D716
:1020E000F50E006E9A0EAFEC19F0CBEF19F0BEECC6
:1020F00019F0030EB6EC1AF0020FC5EC1AF009E164
:102100005CEC19F005E27AEC18F0020EDBCFEFFF81
:102110004DDECBEF19F0BEEC19F0030EAFEC1AF068
:1021200015E15CEC19F005E27AEC18F0020EEFCF45
:10213000DBFF020E41EC19F0CB0E006E7E0EB6EC0A
:1021400019F002E2E16AE552E16E0350CBEF19F0BB
:10215000BAEC1AF001E08FD0020EDB50010801E268
:1021600087D0010EDB50070801E282D0410EA9ECB6
:1021700018F016E1020EDB500AE183EC18F003E0E0
:102180007FEC18F0FDE1F350F31C921673D083EC52
:1021900018F003E07FEC18F0FDE1F35092126AD0E2
:1021A000420EA9EC18F016E1020EDB500AE183ECB6
:1021B00018F003E07FEC18F0FDE1F350F31C9316E8
:1021C00059D083EC18F003E07FEC18F0FDE1F350F8
:1021D000931250D0430EA9EC18F016E1020EDB501A
:1021E0000AE183EC18F003E07FEC18F0FDE1F35016
:1021F000F31C94163FD083EC18F003E07FEC18F04A
:10220000FDE1F350941236D0440EA9EC18F016E11B
:10221000020EDB500AE183EC18F003E07FEC18F0CB
:10222000FDE1F350F31C951625D083EC18F003E084
:102230007FEC18F0FDE1F35095121CD0450EA9EC8F
:1022400018F016E1020EDB500AE183EC18F003E00F
:102250007FEC18F0FDE1F350F31C96160BD083ECE5
:1022600018F003E07FEC18F0FDE1F350961202D075
:10227000008D01D09BDDCBEF19F08EEC1AF0020E31
:10228000DB6A69EC18F0050E78EC1AF05FE1010EDC
:10229000DB50070847E3410EA9EC18F009E183EC95
:1022A00018F003E07FEC18F0FDE1F350801433D018
:1022B000420EA9EC18F009E183EC18F003E07FEC82
:1022C00018F0FDE1F350811426D0430EA9EC18F06C
:1022D00009E183EC18F003E07FEC18F0FDE1F35026
:1022E000821419D0440EA9EC18F009E183EC18F01F
:1022F00003E07FEC18F0FDE1F35083140CD0450EA1
:10230000A9EC18F00FE183EC18F003E07FEC18F073
:10231000FDE1F3508414E76E020EE7CFDBFFDB50E4
:1023200008E002D0008D12D0010EF36E020EF3CF42
:10233000DBFF020E41EC19F0C20E006E7E0EB6EC11
:1023400019F002E2E16AE552E16E0350CBEF19F0B9
:10235000BAEC1AF001E08FD0020EDB50010801E266
:1023600087D0010EDB50070801E282D0410EA9ECB4
:1023700018F016E1020EDB500AE183EC18F003E0DE
:102380007FEC18F0FDE1F350F31C891673D083EC59
:1023900018F003E07FEC18F0FDE1F35089126AD0E9
:1023A000420EA9EC18F016E1020EDB500AE183ECB4
:1023B00018F003E07FEC18F0FDE1F350F31C8A16EF
:1023C00059D083EC18F003E07FEC18F0FDE1F350F6
:1023D0008A1250D0430EA9EC18F016E1020EDB5021
:1023E0000AE183EC18F003E07FEC18F0FDE1F35014
:1023F000F31C8B163FD083EC18F003E07FEC18F051
:10240000FDE1F3508B1236D0440EA9EC18F016E122
:10241000020EDB500AE183EC18F003E07FEC18F0C9
:10242000FDE1F350F31C8C1625D083EC18F003E08B
:102430007FEC18F0FDE1F3508C121CD0450EA9EC96
:1024400018F016E1020EDB500AE183EC18F003E00D
:102450007FEC18F0FDE1F350F31C8D160BD083ECEC
:1024600018F003E07FEC18F0FDE1F3508D1202D07C
:10247000008D01D09BDCCBEF19F0D6EF0EF0D6EF3C
:102480000EF0D6EF0EF0D6EF0EF0D6EF0EF0D6EF40
:102490000EF0D6EF0EF0D6EF0EF04AEC18F0070E65
:1024A000E12402E3E168E652E16E69EC18F0030E04
:1024B000B6EC1AF0F1EC19F00501005146E1DECF5F
:1024C00002F5DDCF03F5020EDBCF0AF5030EDBCFFD
:1024D0000BF5040EDB6A030EF36E040EBFEC18F06E
:1024E00033E2010E92EC18F0030E47EC18F0E76EA1
:1024F000050EE7CFDBFF010EE66ED950F1EC19F0C7
:10250000E76E060E64EC1AF020E1050EDB501CE1CC
:10251000060EDB5019E183EC19F0020EE926050ED8
:10252000EA22DECFEEFFDDCFEDFF83EC19F00A0EDD
:10253000E926050EEA22020EDBCFEEFF030EDBCF0B
:10254000EDFF040EDB2AC7D731DC070EE15C02E2A7
:10255000E16AE552E16E50EF18F0D9EC19F069EC40
:1025600018F0010EAFEC1AF00AE1DF5006E0F00EB1
:102570009314936E010E016F01D0016B17DCE552CD
:1025800050EF18F0D9CFE6FFDACFE6FFE1CFD9FF61
:10259000E2CFDAFFE652DF6AFF0EDF5C0AE2E868AC
:1025A000E85005E0E80600D000D000D0F9D7DF2AD7
:1025B000F3D7E552E552E5CFDAFFE7CFD9FF1200B6
:1025C000F29EF29C6592656ADDDF0FEF00F012006B
:1025D000F29EF29C6592656AD5DFFF001200805082
:1025E000080B01E0010EE66EE66ABC0E006E7E0E80
:1025F000B6EC19F002E2E16AE552E16E0350D6EF63
:102600000EF04AEC18F0060EE12402E3E168E6520F
:10261000E16E69EC18F0070E47EC18F0010EE66E5B
:10262000D950040FB2EC19F0E76E050E64EC1AF005
:1026300016E1DFCF1EF5010EDBCF1FF5020EDBCF5B
:1026400020F5030EDBCF21F5050EDB5006E1040E6D
:10265000DB5002E0898601D08996D6EC0EF0060E9A
:10266000E15C02E2E16AE552E16E50EF18F04AECFB
:1026700018F0140EE12402E3E168E652E16EDF6A2D
:10268000010EDB6A57EC19F0040EDB6A050EDB6AFB
:10269000060EDB6A070EDB6A080EDB6A090EDB6AD0
:1026A0000A0EDB6A0B0EDB6A0C0EDB6A0D0EDB6AB0
:1026B000300EF36E0E0EF3CFDBFF300EF36E0F0E07
:1026C000F3CFDBFF100EDB6A110EDB6A120EDB6A42
:1026D000130EDB6AE66AD950010F5FEC18F0E66A68
:1026E00028EC1AF0000901E0BED0010EDBCF00F0AB
:1026F000016A00BE01685FEC1AF0B00E026E7E0E39
:1027000045EC19F0050EE15C02E2E16AE552E16E8A
:10271000055069EC18F0010E91EC1AF001E0A3D01D
:10272000DFCFE6FFE66AA40E006E7E0EB6EC19F06F
:1027300002E2E16AE552F3EC18F0040F5FEC18F0E6
:10274000020E91EC1AF001E08ED0040EDBCFE6FF12
:10275000050EDBCFE6FF980E006E7E0EB6EC19F08C
:1027600002E2E16AE552F3EC18F0F1EC19F000092D
:1027700001E079D0020EDBCFE6FF030EDBCFE6FFF0
:102780008C0E006E7E0EB6EC19F002E2E16AE552A4
:10279000F3EC18F00A0F5FEC18F0060E91EC1AF04B
:1027A00062E1D9500A0F69EC1AF07F0E006E7E0EBE
:1027B000E2EC19F002E2E16AE552F3EC18F0060FE0
:1027C0005FEC18F0070E91EC1AF04DE1D950060FAE
:1027D00069EC1AF0720E006E7E0EE2EC19F002E265
:1027E000E16AE552F3EC18F00E0F5FEC18F0040EFE
:1027F00091EC1AF038E10E0E41EC19F0660E006E05
:102800007E0EB6EC19F002E2E16AE552F3EC18F044
:102810000F0F5FEC18F0050E91EC1AF024E10F0E8B
:1028200041EC19F05A0E006E7E0EB6EC19F002E281
:10283000E16AE552F3EC18F0100F5FEC18F0080EA7
:1028400091EC1AF010E1D950100F69EC1AF04D0E0E
:10285000006E7E0EE2EC19F002E2E16AE552E16EF2
:102860000350D6EC0EF0140EE15C02E2E16AE55290
:10287000E16E50EF18F04AEC18F0120EE12402E37A
:10288000E168E652E16E110EDB6AF36EDBCFF4FF16
:10289000E850F45C03E2DCEC19F0F7D710EC1AF026
:1028A00002E2E16AE552E16E0050110EDB6A100EA1
:1028B000F36E110EBFEC18F02EE20BEC1AF0EF5095
:1028C000006E016A013404E200508008000E0154D9
:1028D00022E30BEC1AF0EFCF04F0200E045C1BE3B4
:1028E0000BEC1AF0EF50E66E180E0201016AFA25A1
:1028F000006EFB510BEC19F0DB50D92487EC18F07B
:10290000EF50E66E020E016AFC25006EFD510BECE5
:1029100019F0DB2ACCD7110EDB50E824180FFAC2CD
:10292000E9FFFBC2EAFFEF6E110EDB50E824020F55
:10293000FCC2E9FFFDC2EAFFEF6E120EE15C02E2AB
:10294000E16AE552E16EACD3A5DB130EE12402E3AC
:10295000E168E652E16E110EDB6A120EDB6A110EBF
:10296000F36E120EBFEC18F008E2A5EC19F0120E8F
:10297000A9EC1AF0120EDB2AF2D7100ED3DB6CD8BA
:1029800084EC1AF0E76E110EE7CFDBFFE668FB0E72
:10299000E66EE66A2DEC1AF0C5EC4AF0006E080E01
:1029A000E15C02E2E16AE552E16E0050BEDB7BECE5
:1029B00047F0006E080EE15C02E2E16AE552E16E6A
:1029C0000050D6EC0EF0130EE15C02E2E16AE55233
:1029D000E16E66D35FDB120EE12402E3E168E652AA
:1029E000E16E110EDB6AF36EDBCFF4FFE850F45CAE
:1029F00003E2DCEC19F0F7D710EC1AF002E2E16A1E
:102A0000E552E16E0050DF50006E016AD89001502F
:102A100004E6800E005C000E015803E2200EDF5C2D
:102A200006E2120E006E800EAFEC19F00CD0F6EC40
:102A300019F0480E006E7E0EB6EC19F002E2E16A63
:102A4000E552E16E0350D6EC0EF0120EE15C02E2AC
:102A5000E16AE552E16E24D3D9EC19F0DF6A43DB79
:102A6000EF6A34EC1AF003E1050100890CD01EDB9B
:102A70002C080BE07CEC1AF002E2E16AE552E16E10
:102A800003500501008B000E28D026DB04E1010E67
:102A9000011801E19C6B0D0E6CEC1AF009E02C0E94
:102AA000016E04DB015C04E0FB0EDB50DF5C02E343
:102AB000DF5013D0FBDAE66E16DBE552E750EF6E1F
:102AC0000BDB04E1010E011801E19C6BDF2AFC0E17
:102AD000DB2AFD0EE0E3DB2ADED7E552E1D2DADACB
:102AE000090EE12402E3E168E652E16E080EDB6ABA
:102AF00034EC1AF004E1FA0EDB5021E11ED0D6DAF4
:102B00002C080EE0FA0EDB5009E17CEC1AF002E230
:102B1000E16AE552E16E03500501008B020E46D1D9
:102B2000DBDA04E1010E011801E19C6B0D0E6CEC87
:102B30001AF007E1FA0EDB5002E105010089030EED
:102B400035D12D0E6CEC1AF021E1040E8DDB1EE068
:102B5000050ED4DB1BE0FD0EDB0409E0030E48DBB1
:102B600006E0070E81DB03E0080EC8DB04E11C0E63
:102B7000006E7E0EDAD0010EF36E080EF3CFDBFF8F
:102B8000ABDA04E1010E011801E19C6B040E30DBAD
:102B900011E0050E69DB0EE0080EB0DB0BE00A0E5B
:102BA000C1DA0DD984EC1AF0000949E1F60E006E85
:102BB0007D0E0DD0080E1CDB0EE1080EB3DA47D9EE
:102BC00084EC1AF000093BE1CC0E006E7D0EC7DBF1
:102BD0000501008BADD09C51E7EC19F0EFCF00F070
:102BE000000E00C0DFFF010EDB6A61DB050E00DBBB
:102BF0001FE1000EDFCFE6FF010EDBCFE6FF18EC92
:102C00004DF0E552E552F3CF00F0F4CF01F0026A47
:102C1000036A01AE02D00268036800C0DFFF010E44
:102C200001C0DBFF020E02C0DBFF030E03C0DBFFAF
:102C3000040152DA04E1010E011801E19C6B080E57
:102C4000DB5046E0FD0EDB5007E1B3EC1AF0800EDE
:102C50007ADA000EEE5414E3020ECADA07E1B3EC9E
:102C60001AF0000EEE54800E6EDA0AE3060EFCDA5D
:102C70000BE1B3EC1AF0000E66DA800EEE5404E2BB
:102C8000C70E006E7D0E51D01FDADBDA080EDB5066
:102C900059E0040EDBCF38F0050EDBCF39F0060E1D
:102CA000DBCF3AF0070EDBCF3BF03D683E683F6874
:102CB0004068B4EC4CF0040E34C0DBFF050E35C0A8
:102CC000DBFF060E36C0DBFF070E37C0DBFF3AD056
:102CD000FD0EDB5007E1B3EC1AF07F0EEE54000E50
:102CE00032DA20E3FD0EDB0404E177DB000E2BDAA1
:102CF00019E3020E7DDA04E170DB7F0E24DA12E3C1
:102D0000030EB2DA04E169DBFF0E1DDA0BE3060EF7
:102D1000F5DA10E162DBFF0EEE54FF0EEE547F0E8B
:102D2000EE5408E2C20E006E7D0E19DB0501008D27
:102D3000010E3CD0070E5CDA05E0080E95DA02E0E1
:102D4000C3D97FDAFD0EDB50070A23E00F0A21E02A
:102D50000E0A17E0050A11E0010A0FE0030A08E075
:102D6000050A06E0010A04E0050A02E0040E1ED08E
:102D70002CDA040EDBCFEFFF18D07CDBDBCFEDFFCE
:102D800014D078DBDBCFEEFF060EDBCFEEFF070EB5
:102D90000AD01BDADFCFEEFF010EDBCFEEFF020E13
:102DA000DBCFEEFF030EDBCFEEFF000E006E090E51
:102DB000E15C02E2E16AE552E16E005071D1B4DB00
:102DC0005FDB41E256DA31E3DF5039082EE38BD97D
:102DD0007CDA0A0E3D6E3E6A3F6A406A00C038F0F7
:102DE00001C039F002C03AF003C03BF0B4EC4CF043
:102DF00034C000F035C001F036C002F037C003F037
:102E0000300EDF5C046E056A066A076AE850002629
:102E1000055001220650022207500322BEDA10E1BB
:102E2000010E01180DE19C6B0BD02C0EDF5C0BE04A
:102E30000D0EDF5C08E00A0EDF5C05E0000E04D03A
:102E4000010EDB2ABDD7010EE552E55229D16CDB1C
:102E500017DB46E20EDA05E3DF50390802E3300EF5
:102E60000FD0410EDF5C05E3DF50460802E3370E6A
:102E700007D0610EDF5C0CE3DF50660809E3570EF4
:102E8000DF5CDF6E30D921DA040E1F0B13E00BD0AC
:102E90002C0EDF5C25E00D0EDF5C22E00A0EDF5C0D
:102EA0001FE0000E1ED0D8900036013602360336E1
:102EB000E806F9E1DFCF04F0056A066A076A045004
:102EC000001205500112065002120750031265DA73
:102ED00004E1010E011801E19C6B010EDB2AB8D759
:102EE000010EE552E552DCD00101C85108E0010EA7
:102EF000006E6550020B01E0010E005C17E1EED997
:102F00000BE16A516B1111E18B8CA00E6A6F0F0EF1
:102F10006B6F010E6C6F12006A516B1152E18B9C4A
:102F2000A00E6A6F0F0E6B6F6C6B1200C80509E084
:102F3000020EC85D06E0040EC85D03E0100EC85D19
:102F400017E1CCD90BE16A516B1111E18B8C200E8A
:102F50006A6F4E0E6B6F010E6C6F12006A516B112F
:102F600030E18B9C200E6A6F4E0E6B6F6C6B120003
:102F7000200EC85D26E1B2D907E16A516B1121E14B
:102F80008B8CE8D9010E15D06C0507E16A516B11E5
:102F900018E18B9CDFD9020E0CD0020E6C5D0BE1A8
:102FA0006A516B110EE18B8CA00E6A6F860E6B6FEF
:102FB000030E6C6F12006A516B1103E18B9CCAD92E
:102FC0006C6B120067D8BAD9E8AE02D0003403D0D7
:102FD000E750D880005423E3FC0EDB5010E0DDD82E
:102FE000E9BEEA68A7D804E0E846FE0B0106FCE16A
:102FF000006ED3D8E9BEEA689CDAEF1210D0CDD8C3
:10300000E9BEEA6897D804E0E846FE0B0106FCE159
:10301000E81C006EC2D8E9BEEA688BDAEF1640D031
:1030200039D88CD9E8AE02D0003403D0E750D8802C
:10303000005423E3FC0EDB5011E1AFD8E9BEEA688F
:1030400079D804E0E846FE0B0106FCE1E81C006EBE
:10305000A4D8E9BEEA6873DAEF160FD09ED8E9BEAD
:10306000EA6868D804E0E846FE0B0106FCE1006E61
:1030700094D8E9BEEA6863DAEF1212D0016E026AF0
:1030800000C0E6FFE66E02C0E6FFDDEF4BF0E66E45
:1030900028EF1AF0ABD9E1CFD9FFE2CFDAFF120067
:1030A000E552E5CFDAFFE7CFD9FF12009C518FD967
:1030B000EF501200A951E96EEA6AFBEF19F0E66ED3
:1030C000000EDA20E66E1200D9CFE9FFDACFEAFF70
:1030D0001200E66AF6EF19F09C2B9C51006E016A13
:1030E000000E00181200FC0EDBCFE9FFFD0EDBCF57
:1030F000EAFF1200DECFE9FFDDCFEAFF1200D89031
:10310000F336E8061200010EF36EDB501200E96E92
:10311000000EDA20EA6E1200EA22EECF48F0EFCF7E
:1031200049F01200E66EF6EF19F060D9100EE66E67
:103130002DEF1AF0D10EE926050EEA22EF50016EAE
:10314000010E01521200EE54000EEE54000EEE5429
:103150001200006EDF50005C1200DF6EDFCFE6FF72
:103160009A51016A000F006E020E0122A8D90AECE2
:1031700043F084EF1AF0E76E010E64EF1AF0DBCF34
:10318000F4FFF350F45C1200EA22EECF4AF0EFCFE6
:103190004BF0120030D9E8061200FD0EDBCFE9FF3C
:1031A000EA6A1200EECFE6FFEECFE6FFEECFE6FFD3
:1031B000EFCFE6FF1200DECF00F0DDCF01F0D890B8
:1031C000015012009B51E7EF19F0FB0EDBCFE9FF36
:1031D000FC0EDBCFEAFF1200EA22EE50EFCFEAFF4F
:1031E000E96E00501200E16E0350E66AD9501200F9
:1031F000006EFD0EDB50005C1200A951EA6A310F2F
:10320000E96E0E0EEA22EF500E01EA6AAC25E96E75
:10321000AD51EA2212000122110EDB50E8240024F5
:10322000E96E000E0120EA6EE552E750EF6E110ED6
:103230001200E652E652E6521200036E050EE15C01
:103240001200040EEECFDBFF050EEECFDBFF060E05
:10325000EECFDBFF070EEECFDBFF1200CCD8000E67
:10326000E926010EEA221200016EFD0EDB50015C20
:10327000120004019C51ABD8EFCFDFFF300EDF5CB2
:103280001200DBCFE6FFE66A1200036E046A02C09A
:10329000E6FFE66E04C0E6FFDDEC4BF0056E1200C3
:1032A000020EDBCF48F0030EDBCF49F01200020E16
:1032B000DB6A030EDB6A1200DECF00F0DDCF01F027
:1032C000000E005C100E01581200EECF00F0EECFA1
:1032D00001F0EECF02F0EFCF03F0120005016A0714
:1032E000000E6B5B6C511200000EE926030EEA2201
:1032F0001200010EDBCFE9FFEA6A1200026EFD0E3A
:10330000DB50025C1200040EDB28E96EEA6AFBEF78
:1033100019F0E66EE66A18EC4DF0E552E55212003F
:10332000FD0EDB50F80F006E010E00521200EE6A27
:10333000EE6AEE6AEE6A010EDB6A1200FD0EDBCF6A
:1033400000F0190EE76E00181200D9CF00F0DACFA6
:1033500001F01200100E6A6F270E6B6F12008EDEE6
:1033600084EF1AF0ACDE010E47EF18F087DE1DEF98
:1033700019F0A0DE010EE9260E0E1200CFD869EF7B
:1033800018F0010ECFDE83DEBBEF18F093DE790E6E
:10339000E9260E0E1200B8D883D6A5DE00C0EEFFD7
:1033A00001C0EEFF02C0EEFF03C0EEFF04016CEFB0
:1033B00018F070DEE6521200C8DF110ECAD8110EE6
:1033C000DB2A12005BDE036E070EE15C1200EA6A84
:1033D000000FE96E030EEA221200C5D8FF0EEE546C
:1033E0001200020F6CDE030E47EF18F0D9CFE6FF94
:1033F000DACFE6FF1200D890E936EA361200120E54
:10340000E926050E89DE76DE010E120053DE490E36
:10341000E9260E0E1200110EDB50D92487EF18F0AA
:1034200084DE29EC4CF0006E080EE15C1200ACDE8C
:1034300048504A5C49504B581200030E22DF020EDE
:1034400041EF19F0D950010F62DEEE50ED1012007D
:103450006FEC15F059D8E5521200E66AE66AF80EEC
:10346000E66EE66AE66A12000D0E006E04011EDECC
:10347000005C1200AADE040EDBCFEEFF050E120088
:10348000FB0EDB50F36E010EBFEF18F07DDE4A50ED
:1034900048181200120EE926050EEA22120014DE68
:1034A000EE50ED10120010DE010EEE1812000CDED0
:1034B000020EEE18120008DE030EEE18120000C015
:1034C000E6FF01C0E6FF1200E7CFDBFF0501005178
:1034D00012001DDED2EF18F0006EE8DD005C120075
:1034E00045D8010F3FDFE66AD950020FB2EF19F05D
:1034F0003DD8010FC5EF1AF0D9DDE66EE66A210E60
:10350000006E7E0EB6EF19F0E552E552E55212005C
:103510003DDF02DE2EDFEA2248501200BBDD19EF4C
:1035200019F0B5DD0009120044DFE652DCDD97EF4B
:1035300019F061DF9F0EE926050EECEF18F05BDF56
:103540006D0EE926050EECEF18F060DFE5DDB9EF52
:1035500019F0DB500F01D924DADDEF6A120097DD94
:10356000050100511200B0DDD880120090DDE66A3E
:10357000D950120003DF050EB3DF05010051120020
:1035800018DFE652A6DD010E1200ECDE0501005147
:02359000120027
:0E359200E9CFE4FFEACFE4FFE6521DEC29F09A
:1035A000E6529EA030D19E90FE0ECF6E3D0ECE6EA6
:1035B00019C630F60601316B010E326F98EC2BF014
:1035C00014E0D880000E1A55000E1B55190E1C551C
:1035D000000E1D5505E21A6B1B6B1C6B1D6B05D095
:1035E0001A07000E1B5B1C5B1D5B98EC2BF001E0C7
:1035F000326B000501E189D0030E005D58E1E45112
:103600003AE02105DF6E1E511F111AE113EC2BF079
:10361000EF500E01EA6AAC25E96EAD51EA22EF6A7D
:10362000DEEC2CF0EE6AED6AE4EC2CF0EE6AED6A6A
:1036300013EC2BF0EF6A02EC2DF0EE6AED6A1BD072
:10364000DEEC2CF022C6EEFF23C6EDFFE4EC2CF0FE
:103650001EC6EEFF1FC6EDFF13EC2BF020C6EFFFDA
:1036600002EC2DF0EE50ED1006E102EC2DF01EC63E
:10367000EEFF1FC6EDFF150E0601205D46E10E01AF
:10368000B05106011E190CE10E01B15106011F19BE
:1036900007E1010ED86FD46BE35137E08A9435D03F
:1036A000D86B010ED46FE35130E08A842ED0040E23
:1036B000005D2BE1245122E025C64CF026C64DF0DA
:1036C000D8904D324C32D8904D324C324C50BB6E6B
:1036D000E1C64EF0E2C64FF0040ED8904E364F369B
:1036E000E804FBE1300E4E16000E4F16CF0EBA1452
:1036F0004E104C6E4FC04DF0E85003D0BB6ACF0E59
:10370000BA14BA6E0601010E326F325172E098ECB3
:103710002BF06FE1006B275168E134C600F635C627
:1037200001F636C602F637C603F638C604F639C6C1
:1037300005F63AC606F63BC607F63CC608F63DC691
:1037400009F63EC60AF63FC60BF640C60CF641C661
:103750000DF642C60EF643C60FF644C610F645C631
:1037600011F646C612F647C613F648C614F649C601
:1037700015F64AC616F64BC617F64CC618F64DC6D1
:1037800019F64EC61AF64FC61BF650C61CF651C6A1
:103790001DF652C61EF653C61FF654C620F655C671
:1037A00021F656C622F657C623F658C624F659C641
:1037B00025F65AC626F6346B356B366B376B386B8D
:1037C000396B3A6B3B6B3C6B3CEC2BF04D6BA2ECDA
:1037D0002BF0526B536B546B556B566B576B586B8E
:1037E000596B5A6B010E276F04D01A6B1B6B1C6B45
:1037F0001D6B8250800B05E0DF5105E08150010B0D
:1038000002E1010EDE6FE552E552E5CFDAFFE7CFC8
:10381000D9FFE552E5CFEAFFE5CFE9FF1100D9CFA7
:10382000E6FFDACFE6FFE1CFD9FFE2CFDAFFE652DB
:10383000DF6ADFCF00F0020EE76E0018E8AE02D0BC
:10384000E73402D0E750005C3CE2DFCFE9FFEA6AF0
:10385000E9BEEA68D890E936EA36D890E936EA3621
:10386000010EE926060EEA22010EEE6EEE6AEE6AFF
:10387000EE6ADFCFE9FFEA6AE9BEEA68D890E93686
:10388000EA36D890E936EA36110EE926060EEA2223
:10389000EE6AEE6AEE6AEE6ADFCFE9FFEA6AE9BE37
:1038A000EA68D890E936EA36D890E936EA36090E61
:1038B000E926060EEA22EE6AEE6AEE6AEE6ADF2A70
:1038C000B8D70601006B0601196B06011A6B1B6B5A
:1038D0001C6B1D6B06011E6B1F6B0601206B060126
:1038E000216B0601226B236B0601010E276FCD822F
:1038F000CD9ECD9CCD9ACD98CD96CD94FE0ECF6E1B
:103900003D0ECE6ECD809F809E909D80F19E9F9CAF
:10391000010EE66E0A0EE66E48EC0FF0E552E55237
:10392000949282820000000000000000000000006D
:103930000000000000000000000000000000000087
:103940000000000000000000000094828292060146
:10395000010EE36F0601010EE46F8A949394899639
:1039600092960601010ED46F0601D76B0601010E77
:10397000D86F0601DD6B0601D96BDA6BDB6BDC6B94
:103980000601DE6B0601010EDF6FDEEC28F0929A75
:103990009692929E9490898A8D82898E8B80899A44
:1039A0008D92899E8B90E552E552E5CFDAFFE7CF05
:1039B000D9FF12001DEC29F0D3EC2AF015EC2AF007
:1039C000010EEBEC28F0E66AD950010F9EEC29F0CD
:1039D000030E30EC2DF001E0ABD0DF0431E1DCEC84
:1039E0002AF019E10601010EE36FE46B000EE66EAA
:1039F000E66AE66EE66A150EE66E000EE66EE66AAA
:103A0000FBEC44F0006E070EE15C02E2E16AE55275
:103A1000E16E00500DD045EC2BF006E1ED5004E1D5
:103A20000601E36B010E03D00601010EE36FE46FA4
:103A3000000EE66EE66AD8C6E6FF75EC2BF076D08F
:103A4000020EDF5C19E1DCEC2AF003E10601D76B22
:103A50006DD045EC2BF005E1ED5003E10601010EC0
:103A600009D022EC2DF0020EEE1860E1ED505EE17F
:103A70000601020ED76F5AD0040EDF5C07E1010E7B
:103A8000DBCFB0FE020EDBCFB1FE50D0050EDF5C07
:103A900007E1010EDBCFAEFE020EDBCFAFFE46D05C
:103AA000080EDF5C0FE122EC2DF0180ED880EE54EA
:103AB000000EED5403E2180E7CEC2BF0010EDBCF70
:103AC000AAFE34D0090EDF5C0FE122EC2DF0060EC9
:103AD000D880EE54000EED5403E2060E7CEC2BF081
:103AE000010EDBCFABFE22D00A0EDF5C03E183ECDC
:103AF0002BF009D00B0EDF5C03E183EC2BF016D02A
:103B00000C0EDF5C07E1010EDBCFB4FE020EDBCF53
:103B1000B5FE0CD00D0EDF5C09E1DCEC2AF004E010
:103B20000601010EDF6F02D00601DF6BD6EC0EF04E
:103B300005EF2DF01DEC29F0200EE12402E3E168F1
:103B4000E6522EEC2CF049EC2BF0E66AD950040F2B
:103B500040EC2DF0060F40EC2DF0080F26EC2DF078
:103B60000C0FBAEC2BF0D950040F28EC2BF004E228
:103B7000700E006E7D0E7CD2D950060F28EC2BF013
:103B800004E2420E006E7D0E73D21AEC2BF0040E8E
:103B9000005C000E015804E2180E006E7D0E68D223
:103BA000060EDBCF00F0070EDBCF01F0040E005C49
:103BB000000E015804E2F00E006E7C0E59D2050191
:103BC000005101E05ED2080EDBCF10F0090EDBCF12
:103BD00011F00A0EDBCF12F00B0EDBCF13F010C08A
:103BE00038F011C039F012C03AF013C03BF0080EA3
:103BF000DBCF3DF0090EDBCF3EF00A0EDBCF3FF00E
:103C00000B0EDBCF40F0B4EC4CF034C00CF035C000
:103C10000DF036C00EF037C00FF00C0EDBCF14F0F5
:103C20000D0EDBCF15F00E0EDBCF16F00F0EDBCF37
:103C300017F014C038F015C039F016C03AF017C0AC
:103C40003BF00C0EDBCF3DF00D0EDBCF3EF00E0E49
:103C5000DBCF3FF00F0EDBCF40F0B4EC4CF00C505C
:103C60003424086E0D503520096E0E5036200A6E31
:103C70000F5037200B6E21EC2BF03B6E46EC3AF0E8
:103C8000F9EC29F039C0E6FF3AC0E6FF3BC0E6FF99
:103C90003CC0E6FF11EC40F0E552E552E552E5523A
:103CA000B2EC2CF038C039F0EAEC2CF0B6EC3BF07A
:103CB000140E38C0DBFF150E39C0DBFF160E3AC0FC
:103CC000DBFF170E3BC0DBFF06012751FDE0A2EC36
:103CD0002BF04D6B7DEC29F0D950080FD2EC2CF075
:103CE00002E6BAEC29F004E2DBEC2BF018EC2AF047
:103CF000D9500C0FD2EC2CF002E6BAEC29F00EE20F
:103D00000C0EDBCF38F00D0EDBCF39F00E0EDBCF13
:103D10003AF00F0E49EC29F025EC2AF0E7EC2BF0F5
:103D200002E694EC29F004E2C20E006E7C0EA0D1F3
:103D3000F3EC2BF002E694EC29F004E2940E006E12
:103D40007C0E96D1E0EC2AF0F9EC29F0AC0E3E6E38
:103D5000C50E3F6EA70E406E470E416EB2EC3AF0B4
:103D60002FEC2BF0DBCF0CF0150EDBCF0DF0160E89
:103D7000DBCF0EF0170EDBCF0FF00CC038F00DC00C
:103D800039F00EC03AF00FC03BF044EC3AF052EC80
:103D90002BF078EC29F05FEC3AF0180E39C0DBFF1D
:103DA000190E3AC0DBFF1A0E3BC0DBFF1B0E3CC0F6
:103DB000DBFFF9EC2AF0080EDBCF08F0090EDBCFB1
:103DC00009F00A0EDBCF0AF00B0E17EC2CF038C00E
:103DD00035F639C036F63AC037F63BC038F6080E2D
:103DE000DBCF45F6090EDBCF46F60A0EDBCF47F6F2
:103DF0000B0EDBCF48F65BEC2BF052EC2BF05BECC0
:103E00002BF039C00CF03AC00DF03BC00EF03CC0B6
:103E10000FF0C9EC2BF008C039F009C03AF00AC025
:103E20003BF00BC03CF0B2EC3AF0F9EC29F0E0ECDE
:103E30002AF039C014F03AC015F03BC016F03CC06F
:103E400017F0E0EC2AF039C018F03AC019F03BC086
:103E50001AF03CC01BF0C9EC2BF014C039F015C0AF
:103E60003AF016C03BF017C03CF0B2EC3AF039C063
:103E700010F03AC011F03BC012F03CC013F0C9EC96
:103E80002BF004C039F005C03AF006C03BF007C083
:103E90003CF01FEC3BF02FEC2BF0DBCF28F0150EA5
:103EA000DBCF29F0160EDBCF2AF0170EDBCF2BF07D
:103EB00028C038F029C039F02AC03AF02BC03BF0B6
:103EC00044EC3AF039C024F03AC025F03BC026F06B
:103ED0003CC027F0140EDBCF30F0150EDBCF31F0F5
:103EE000160EDBCF32F0170EDBCF33F030C038F0D8
:103EF00031C039F032C03AF033C03BF044EC3AF014
:103F000039C02CF03AC02DF03BC02EF03CC02FF051
:103F1000C9EC2BF024C039F025C03AF026C03BF0A4
:103F200027C03CF0B2EC3AF039C020F03AC021F0A2
:103F30003BC022F03CC023F03E6A3F6A406A400E1C
:103F4000416EB2EC3AF039C01CF03AC01DF03BC0F3
:103F50001EF03CC01FF078EC29F05FEC3AF01C0E2C
:103F600039C0DBFF1D0E3AC0DBFF1E0E3BC0DBFF7E
:103F70001F0E3CC0DBFF080EDBCF04F0090EDBCFC9
:103F800005F00A0EDBCF06F00B0E51EC29F038C01D
:103F90003DF639C03EF63AC03FF63BC040F6F9EC7C
:103FA0002AF00C0EDBCF08F00D0EDBCF09F00E0E61
:103FB000DBCF0AF00F0E17EC2CF038C039F639C001
:103FC0003AF63AC03BF63BC03CF60C0EDBCF49F666
:103FD0000D0EDBCF4AF60E0EDBCF4BF60F0EDBCF0E
:103FE0004CF6BEEC2BF051EC29F038C041F639C04C
:103FF00042F63AC043F63BC044F61AEC2BF0060EEC
:10400000DB50001803E1070EDB50011814E0060135
:104010003D513E113F1140110EE1D880000E455533
:10402000000E4655000E4755000E485504E2690E35
:10403000006E7C0E1DD01AEC2BF0060EDB50001823
:1040400003E1070EDB50011816E006014151421151
:104050004311441110E1D880000E4955000E4A5515
:10406000000E4B55000E4C5506E23E0E006E7C0EC7
:1040700033EC2CF006D00601010E346F276BD6EC22
:104080000EF0200EE15C02E2E16AE552E16E43EFE0
:1040900029F01DEC29F03F0EE12402E3E168E6522D
:1040A000E16E09EC2CF017EC2DF0100F26EC2DF042
:1040B000040F26EC2DF0080F40EC2DF0140F26EC29
:1040C0002DF00C0FBAEC2BF00501005101E061D18D
:1040D00040EC29F00DE1040EDBCF04F0050EDBCF40
:1040E00005F0060EDBCF06F0070ECAEC29F011E052
:1040F000100EDBCF08F0110EDBCF09F0120EDBCF74
:104100000AF0130EDBCF0BF0085009100A100B1049
:1041100035E1080EDBCF0CF0090EDBCF0DF00A0EF7
:10412000DBCF0EF00B0EDBCF0FF00C500D100E108E
:104130000F1012E10C0EDBCF10F00D0EDBCF11F0E3
:104140000E0EDBCF12F00F0EDBCF13F0105011105C
:104150001210131001E11DD1140EDBCF14F0150E57
:10416000DBCF15F0160EDBCF16F0170EDBCF17F0F6
:10417000145015101610171001E10BD1320EDB6A26
:10418000330EDB6A340EDB6A350EDB6A310EDB6A16
:104190007DEC29F0D950100FD2EC2CF002E6BAECED
:1041A00029F018E2100EDBCF38F0110EDBCF39F01A
:1041B000120EDBCF3AF0130E49EC29F0100E34C08A
:1041C000DBFF110E35C0DBFF120E36C0DBFF130E16
:1041D00037C0DBFFD950140FD2EC2CF002E6BAEC5A
:1041E00029F00EE2140EDBCF38F0150EDBCF39F0DC
:1041F000160EDBCF3AF0170E49EC29F032EC2AF01C
:1042000012EC2DF0190EEECFDBFF1A0EEECFDBFF16
:104210001B0EEECFDBFF1C0EDAEC2CF0100FB5EC12
:104220002BF0290EEECFDBFF2A0EEECFDBFF2B0E9D
:10423000EECFDBFF2C0EDAEC2CF0040FE96E000E53
:1042400096EC2AF0D950080FB5EC2BF01D0EEECFEE
:10425000DBFF1E0EEECFDBFF1F0EEECFDBFF200ECF
:10426000DAEC2CF0140FB5EC2BF02D0EEECFDBFFBB
:104270002E0EEECFDBFF2F0EEECFDBFF300EDAEC93
:104280002CF00C0FE96E000EA5EC2AF0010EF36E77
:10429000180EF3CFDBFF06012751FDE0180EDBCF30
:1042A00034F6190EDBCF35F61A0EDBCF36F61B0EC1
:1042B000DBCF37F61C0EDBCF38F61D0EDBCF39F621
:1042C0001E0EDBCF3AF61F0EDBCF3BF6200EDBCF08
:1042D0003CF6210EDBCF3DF6220EDBCF3EF6230E61
:1042E000DBCF3FF6240EDBCF40F6250EDBCF41F6C9
:1042F000260EDBCF42F6270EDBCF43F6280EDBCFB0
:1043000044F6290EDBCF45F62A0EDBCF46F62B0E00
:10431000DBCF47F62C0EDBCF48F62D0EDBCF49F670
:104320002E0EDBCF4AF62F0EDBCF4BF6300EDBCF57
:104330004CF6310EDBCF4DF6320EDBCF4EF6330EA0
:10434000DBCF4FF6340EDBCF50F6350EDBCF51F618
:10435000360EDBCF52F6370EDBCF53F6380EDBCFFF
:1043600054F6390EDBCF55F63A0EDBCF56F63B0E40
:10437000DBCF57F63C0EDBCF58F63D0EDBCF59F6C0
:104380003E0EDBCF5AF6276B0401A15102E0D6ECBA
:104390000EF03F0EE15C02E2E16AE552E16E43EFAE
:1043A00029F01DEC29F0100EE12402E3E168E65249
:1043B0002EEC2CF015EC2AF012EC2CF0040FBAECD9
:1043C0002BF0B1EC2BF0080FBAEC2BF00501F251F9
:1043D0006FE040EC29F002E10501008D050100517C
:1043E00073E1E8EC2AF004E20B0E006E7C0E5DD067
:1043F0003EEC2CF002E610EC2AF005E2D950040F56
:1044000075EC2AF004D04AEC2CF025EC2AF0F3EC01
:104410002BF002E694EC29F004E2C20E006E7C0E52
:1044200044D056EC2CF004E2DB0E006E7B0E3DD047
:10443000F1EC28F00C0FA3EC29F009E3BEEC2BF013
:10444000CAEC29F004E0B50E006E7B0E2ED0E7EC2E
:104450002BF002E610EC2AF005E2D950080F75ECBB
:104460002AF004D0DBEC2BF025EC2AF0F3EC2BF057
:1044700002E694EC29F004E2940E006E7C0E15D056
:1044800056EC2CF004E2850E006E7B0E0ED0F1ECA3
:1044900028F00C0FA3EC29F00BE3BEEC2BF0CAECD8
:1044A00029F006E05F0E006E7B0E33EC2CF00CD092
:1044B00024EC2CF002E2E16AE552E16E00500401C6
:1044C000A15102E0D6EC0EF0100EE15C02E2E16ACE
:1044D000E552E16E43EF29F01DEC29F0180EE124BE
:1044E00002E3E168E6522EEC2CF049EC2BF017ECDD
:1044F0002DF00C0F26EC2DF0100FBAEC2BF040EC49
:1045000029F002E10501008D100EDBCF00F0110E45
:10451000DBCF01F0120EDBCF02F0130EDBCF03F086
:10452000D9500C0FB5EC2BF0EE500026EE500122C6
:10453000EE500222EE500322040E00C0DBFF050EF7
:1045400001C0DBFF060E02C0DBFF070E03C0DBFF6E
:10455000BEEC2BF0DBCF07F0D950100FB5EC2BF0F1
:10456000EE50045C006EEE500558016EEE50065899
:10457000026EEE500758036E080E00C0DBFF090EF6
:1045800001C0DBFF0A0E02C0DBFF0B0E03C0DBFF26
:104590003EEC2CF002E610EC2AF005E2D950040FB4
:1045A00083EC2AF004D04AEC2CF032EC2AF0E8EC50
:1045B0002AF004E20B0E006E7C0E4AD062EC2CF066
:1045C00002E694EC29F004E2C20E006E7C0E40D0AC
:1045D0006EEC2CF004E2DB0E006E7B0E39D0F1ECB9
:1045E00028F0140FA3EC29F007E37AEC2CF004E098
:1045F000B50E006E7B0E2CD0E7EC2BF002E610EC33
:104600002AF005E2D950080F83EC2AF004D0DBEC45
:104610002BF032EC2AF062EC2CF002E694EC29F05C
:1046200004E2940E006E7C0E13D06EEC2CF004E2CB
:10463000850E006E7B0E0CD0F1EC28F0140FA3EC6D
:1046400029F009E37AEC2CF006E05F0E006E7B0E99
:1046500033EC2CF00CD00501005109E124EC2CF0D6
:1046600002E2E16AE552E16E0050D6EC0EF0180E5F
:10467000E15C02E2E16AE552E16E43EF29F01DECF4
:1046800029F0370EE12402E3E168E6522EEC2CF02B
:10469000ADEC29F043EC2DF017E186EC2CF014E1A1
:1046A000020EF36E100EF3CFDBFFDEEC29F02A0EC4
:1046B00034C0DBFF2B0E35C0DBFF2C0E36C0DBFF1A
:1046C0002D0E37C0DBFF56D12A0EDB6A2B0EDB6ABC
:1046D0002C0EDB6A2D0EDB6A290EDB6A7DEC29F0DD
:1046E000D950F60FD6EC2CF002E6BAEC29F018E21D
:1046F000F60EDBCF38F0F70EDBCF39F0F80EDBCF5C
:104700003AF0F90E49EC29F0F60E34C0DBFFF70E53
:1047100035C0DBFFF80E36C0DBFFF90E37C0DBFF1C
:10472000D950F20FD6EC2CF002E6BAEC29F018E2E0
:10473000F20EDBCF38F0F30EDBCF39F0F40EDBCF27
:104740003AF0F50E49EC29F0F20E34C0DBFFF30E1F
:1047500035C0DBFFF40E36C0DBFFF50E37C0DBFFE4
:10476000D950F60FD6EC2CF002E663EC2BF030E2D9
:10477000DEEC29F0040E34C0DBFF050E35C0DBFF94
:10478000060E36C0DBFF070E37C0DBFFADEC29F0AD
:104790000F0E1F0B03E0D1EC29F0FDE1FEEC28F039
:1047A000EEEC29F0ADEC29F00F0E1F0B03E0D1EC7D
:1047B00029F0FDE1F1EC2CF014E2B4EC2AF003E076
:1047C000D1EC29F0FDE1FEEC28F006EC2BF009D04D
:1047D000ADEC29F002EC2AF08AEC2BF0FDE12AEC9A
:1047E0002DF0F3EC2AF00CE287EC29F02A0E006E93
:1047F0007B0E92EC2CF002E2E16AE55232EC2BF0F7
:1048000040EC29F012E1F60EDBCF04F0F70EDBCF1F
:1048100005F0F80EDBCF06F0F90ECAEC29F005E042
:10482000FF0E006E7A0E35EC2DF089EC29F009E2CE
:10483000C3EC2AF003E091EC2BF0FDE15FEC2AF0F1
:1048400006D0CFEC2AF003E0D1EC29F0FDE189ECB1
:104850002AF0110EEECFDBFF120EEECFDBFF130EB0
:10486000EECFDBFF140EDAEC2CF0F60FE96EFF0E44
:1048700096EC2AF0190EDB6A1A0EDB6A1B0EDB6A55
:104880001C0EDB6AD950F20FD6EC2CF002E663EC7A
:104890002BF022E23FEC2AF00F0E1F0B03E0D1ECCD
:1048A00029F0FDE1FEEC28F0EEEC29F03FEC2AF0D7
:1048B0000F0E1F0B03E0D1EC29F0FDE1F1EC2CF021
:1048C00014E2B4EC2AF003E0D1EC29F0FDE1FEECB7
:1048D00028F006EC2BF009D03FEC2AF002EC2AF08D
:1048E0008AEC2BF0FDE12AEC2DF0F3EC2AF00CE23F
:1048F00087EC29F0CA0E006E7A0E92EC2CF002E2E0
:10490000E16AE55232EC2BF040EC29F008E186EC4C
:104910002CF005E09F0E006E7A0E35EC2DF089EC40
:1049200029F009E2C3EC2AF003E091EC2BF0FDE161
:104930005FEC2AF006D0CFEC2AF003E0D1EC29F0AE
:10494000FDE189EC2AF09FEC2CF0180EDAEC2CF04B
:10495000F20FE96EFF0EA5EC2AF01D0EDB6A1E0EAB
:10496000DB6A1F0EDB6A200EDB6A010EF36E100E8F
:10497000F3CFDBFF06012751FDE0100EDBCF34F64D
:10498000110EDBCF35F6120EDBCF36F6130EDBCF72
:1049900037F6140EDBCF38F6150EDBCF39F6160ED0
:1049A000DBCF3AF6170EDBCF3BF6180EDBCF3CF62B
:1049B000190EDBCF3DF61A0EDBCF3EF61B0EDBCF1A
:1049C0003FF61C0EDBCF40F61D0EDBCF41F61E0E70
:1049D000DBCF42F61F0EDBCF43F6200EDBCF44F6D3
:1049E000210EDBCF45F6220EDBCF46F6230EDBCFC2
:1049F00047F6240EDBCF48F6250EDBCF49F6260E10
:104A0000DBCF4AF6270EDBCF4BF6280EDBCF4CF67A
:104A1000290EDBCF4DF62A0EDBCF4EF62B0EDBCF69
:104A20004FF62C0EDBCF50F62D0EDBCF51F62E0EAF
:104A3000DBCF52F62F0EDBCF53F6300EDBCF54F622
:104A4000310EDBCF55F6320EDBCF56F6330EDBCF11
:104A500057F6340EDBCF58F6350EDBCF59F6360E4F
:104A6000DBCF5AF6276B370EE15C02E2E16AE552D2
:104A7000E16E43EF29F0E1DB110EE12402E3E1688E
:104A8000E6526CEC2BF0DFDB100EDB6A06012751DF
:104A900002E1340502E0000502E1010EDF6E34059B
:104AA00025E1346B090E45C6DBFF0A0E46C6DBFF67
:104AB0000B0E47C6DBFF0C0E48C6DBFF0D0E49C6CA
:104AC000DBFF0E0E4AC6DBFF0F0E4BC6DBFF100EE0
:104AD0004CC6DBFF3CEC2BF03D6B3E6B3F6B406B01
:104AE000416B426B436B446B010E276F000529E15C
:104AF000006B010E11C6DBFF020E12C6DBFF030EB8
:104B000013C6DBFF040E14C6DBFF050E15C6DBFF64
:104B1000060E16C6DBFF070E17C6DBFF080E18C60B
:104B2000DBFF116B126B136B146B156B166B176B32
:104B3000186B096B0A6B0B6B0C6B0D6B0E6B0F6BB1
:104B4000106BD950050F91DBD950010F8EDBD95076
:104B50000D0F8BDBD950090F88DBDFCFE6FFE66A4C
:104B60008A0E006E7A0E83DB036E150EE15C02E2A4
:104B7000E16AE55278EC2BF0110EE15C02E2E16AA9
:104B8000E552E16E80D3D8C600F0016A00BE01682C
:104B9000A7EC2BF0850E026E7A0E4CEC2AF002E2A6
:104BA000E16AE552E16E0550D6EF0EF09BEC2CF079
:104BB000DE6ADD6A010EE66E09EC2DF0030E30ECC4
:104BC0002DF00FE10601D80504E1ACEC2BF0E66A0C
:104BD00004D0ACEC2BF0010EE66E75EC2BF0D6ECAD
:104BE0000EF0E552E5524FD328DBD3EC2AF035EC3A
:104BF0002CF00501005111E1DF50010802E2010E25
:104C0000DF6E010EDBCFE6FF020EDBCFE6FFDFCF6C
:104C1000E6FF75EC2BF0D6EC0EF005EF2DF09BECDB
:104C20002CF0E652E652FD0EDB040BE1B0CEDEFFC7
:104C3000B1CEDDFF020EB2CEDBFF030EB3CEDBFF43
:104C40000AD0AECEDEFFAFCEDDFF020EB4CEDBFF6C
:104C5000030EB5CEDBFF51DBFB0EDBCFE6FFFC0E18
:104C6000DBCFE6FF020EDBCFE6FF030EDBCFE6FF76
:104C7000150EE66EACEC2BF0FBEC44F0006E070E6C
:104C8000E15C02E2E16AE552E16E0050040EE15C93
:104C900002E2E16AE552E16EF6D29BEC2CF0E652BC
:104CA000C4DBBBEC2CF021E10501005139E1060128
:104CB000D75103E0020ED75D12E1DF5000080DE28C
:104CC000D75101E11ADBDF04020EDF5C030EDF5C6B
:104CD000040EDF5C050EDF5C08D0D75106D0D70587
:104CE00004E1DF50000801E208DBB1EC2BF0010F1A
:104CF00025DBBBEC2CF012E10501005111E10601AE
:104D0000D75105E1010EDB50000808E206D0D705B7
:104D100005E1010EDB50000801E2EFDAD6EC0EF0FF
:104D200005EF2DF0FE0E0601D95DFF0EDA59FF0EDC
:104D3000DB59FF0EDC5905E2D92B000EDA23DB2309
:104D4000DC23D6EF0EF00601D951DA11DB11DC11AC
:104D500005E0D907000EDA5BDB5BDC5BD6EF0EF01B
:104D60009BEC2CF0E652E652E6525FDB070E33DA9C
:104D7000E76E040EE7CFDBFFDB500BE1DFCFD9F6A8
:104D8000010EDBCFDAF6020EDBCFDBF6030EDBCF54
:104D9000DCF6D6EC0EF0050EE15C02E2E16AE552CB
:104DA000E16E71D2D9C6E6FFDAC6E6FFDBC6E6FFE2
:104DB000DCC6E6FF7C0E006E7A0E92EC2CF002E26E
:104DC000E16AE55278EF2BF0E66ADD0EE66E060E3C
:104DD000E66E010E30EC2DF001E01200D6EF0EF081
:104DE000DDC600F0016A00BE0168A7EC2BF0750E6D
:104DF000026E7A0E51DB02E2E16AE552E16E055085
:104E0000D6EF0EF0DEC600F0016A00BE0168A7EC26
:104E10002BF06F0E026E7A0E3FDB02E2E16AE55282
:104E2000E16E05500601DE6BD6EF0EF09DBCFED79D
:104E300016C1E6FF17C1E6FF00C1E6FF01C1E6FFAC
:104E4000630E006E7A0E92EC2CF002E2E16AE552FB
:104E500078EF2BF09BEC2CF0A6DB030EDB6A35EC35
:104E60002CF0E76E040EE7CFDBFFB1EC2BF0030F65
:104E700065DA010E30EC2DF001E081D022EC2DF04E
:104E8000FF0ED880EE54030EED5407E2010EDB68EE
:104E9000030EF36E020EF3CFDBFFDF50010802E2D8
:104EA000010EDF6E030EDB50010805E2010EF36E0A
:104EB000030EF3CFDBFFDF0409E1040EDB50030830
:104EC00005E10601E16B020EE26F06D0010EDBCFB9
:104ED000E1F6020EDBCFE2F6CAB415D0CB68FC0EC9
:104EE000CA140009CA6E9D920F0152815293F00EAE
:104EF000BA140C09BA6E3F0EBA140009BA6E0E014C
:104F00000E0EDD6FCA84030EDB502AE1DF5023E072
:104F1000E1C600F0E2C601F0D89001320032D8902C
:104F2000013200320050BB6EE1C602F0E2C603F06F
:104F3000040ED89002360336E804FBE1300E021668
:104F4000000E0316CF0EBA1400010210006E03C04B
:104F500001F0E85003D0BB6ACF0EBA14BA6E0DD080
:104F600006012751FDE0E1C659F6E2C65AF6EADB32
:104F7000DFCF58F6040E346F276BD6EC0EF0050E1B
:104F8000E15C02E2E16AE552E16E7DD1120055D9A1
:104F90002B0EE12402E3E168E6529EDBF29E040E52
:104FA00000C6DBFF050E01C6DBFF060E02C6DBFFF7
:104FB000070E03C6DBFF080E04C6DBFF090E05C69D
:104FC000DBFF0A0E06C6DBFF0B0E07C6DBFF0C0E6F
:104FD00008C6DBFF0D0E09C6DBFF0E0E0AC6DBFF9F
:104FE0000F0E0BC6DBFF100E0CC6DBFF110E0DC63D
:104FF000DBFF120E0EC6DBFF130E0FC6DBFF140E17
:1050000010C6DBFF150E11C6DBFF160E12C6DBFF46
:10501000170E13C6DBFF180E14C6DBFF190E15C6DC
:10502000DBFF1A0E16C6DBFF1B0E17C6DBFF1C0EBE
:1050300018C6DBFF1D0E19C6DBFF1E0E1AC6DBFFEE
:105040001F0E1BC6DBFF200E1CC6DBFF210E1DC67C
:10505000DBFF220E1EC6DBFF230E1FC6DBFF240E66
:1050600020C6DBFF250E21C6DBFF260E22C6DBFF96
:10507000270E23C6DBFF280E24C6DBFF290E25C61C
:10508000DBFF2A0E26C6DBFFF28E1E0EDBCF00F002
:105090001F0EDBCF01F0200EDBCF02F0210E97ECCC
:1050A0002CF002E0010EDF6E040EDB5002E0010E78
:1050B000DF6E0601275106E1010EDF6EF36E030E6F
:1050C000F3CFDBFFDF5010E0150EDBCF00F0160E44
:1050D000DBCF01F0170EDBCF02F0180E97EC2CF0AF
:1050E00003E0DE52010EDD6EDF5012E0190EDBCF61
:1050F00000F01A0EDBCF01F01B0EDBCF02F01C0E0E
:1051000097EC2CF005E0010EF36E020EF3CFDBFFFF
:10511000030EDBCFE6FFE66A020EDBCFE6FFE66AB0
:10512000010EDBCFE6FFE66ADFCFE6FFE66A520E4E
:10513000006E7A0E9CD8036E0B0EE15C02E2E16A0F
:10514000E552E16E03502B0EE15C02E2E16AE552AA
:10515000E16E99D072D8080EE12402E3E168E652CC
:10516000E16EF29E28C6DFFF010E29C6DBFF020EAC
:105170002AC6DBFF030E2BC6DBFF040E2CC6DBFFAB
:10518000050E2DC6DBFF060E2EC6DBFF070E2FC653
:10519000DBFFF28E3AEC2DF0480E006E7A0E67D8E7
:1051A000036E0B0EE15C02E2E16AE552A1DA080E41
:1051B000E15C02E2E16AE552E16E65D0F29E060131
:1051C000286B296B2A6B2B6B2C6B2D6B2E6B2F6B2B
:1051D000F28ED6EF0EF0E66E6FEC15F0E55248EF6A
:1051E0002DF00DDB1F0E3D6E050E3E6E3F6A406AD0
:1051F000D9DA3EEC4DF0B6DBD9501200D3DA040E0A
:10520000DBCF3DF0050EDBCF3EF0060EDBCF3FF0EF
:10521000070E0EEF2DF0DBCF03F0C4DADFCF3DF049
:10522000010EDBCF3EF0020EDBCF3FF0030EF6DBCC
:10523000D880190E3854F5EF2CF0EBDBE1CFD9FF15
:10524000E2CFDAFF1200040EDB6A050EDB6A060EFF
:10525000DB6A070EDB6A080EDB6A090EDB6A0A0EE0
:10526000DB6A0B0EDB6A09EF2CF07FDA72D3016E7A
:10527000026A00C0E6FFE66E02C0E6FFDDEF4BF01B
:10528000BEDA43EF2DF0E552E5CFDAFFE7CFD9FFE5
:105290001200DBCF3BF03D683E683F684068B4EFEA
:1052A0004CF0DBCF07F004C038F005C039F006C081
:1052B0003AF007C03BF046EC3AF01C0EDBCF3EF074
:1052C0001D0EDBCF3FF01E0EDBCF40F01F0EDBCFFD
:1052D00041F0B2EC3AF057DB210E3E6EE60E3F6E27
:1052E0005B0E406E400E416EB2EC3AF0B6EF3BF012
:1052F00050DA00C039F0EAEF2CF089861EC51AF5A5
:105300001FC51BF520C51CF521C51DF512008ADB44
:1053100020D3D950FA0FE96EFF0EDA20EA6ED8805A
:105320001E0EEE54000E68D3D880FF0E3954FF0EC7
:105330003A54FF0E3B54000E3C541200E66E000E31
:10534000DA20E66E120011DAEE50385CEE50395871
:10535000EE503A58EE503B581200F60EDBCF00F0FC
:10536000F70EDBCF01F0F80EDBCF02F0F90EDBCF4A
:1053700003F01200000EEE5C000EEE58000EEE5828
:10538000000EEE581200DA20EA6ED890030EEB50B1
:10539000000A1200DBCF07F00450051006100710BA
:1053A0001200D8900036013602360336E8061200A5
:1053B000DBCF3CF03C34000E3C181200FA0EDBCF81
:1053C00000F0FB0EDBCF01F0FC0EDBCF02F0FD0E98
:1053D000DBCF03F0E1DAE6D9B4EF4CF038C0DEFF02
:1053E00039C0DEFF3AC0DEFF3BC0DDFFDD52DD52DB
:1053F000120039C004F03AC005F03BC006F03CC0D2
:1054000007F01200CFD9FA0EDBCF3DF0FB0EDBCF59
:105410003EF0FC0EDBCF3FF0FD0E00DB0F0E120066
:10542000D880E3DA000E3C541200E66A09EF2DF052
:10543000080E34C0DBFF090E35C0DBFF0A0E36C094
:10544000DBFF0B0E37C0DBFF12000C0E34C0DBFF9E
:105450000D0E35C0DBFF0E0E36C0DBFF0F0E37C062
:10546000DBFF1200140E34C0DBFF150E35C0DBFF6E
:10547000160E36C0DBFF170E37C0DBFF1200F20E30
:10548000DBCF00F0F30EDBCF01F0F40EDBCF02F048
:10549000F50EDBCF03F01200036E046A02C0E6FFD4
:1054A000E66E04C0E6FFDDEC4BF0056E050EE15C38
:1054B0001200EA6ADF34FE0BEA36E96E1200D950B8
:1054C0000C0F53D90450EE24006E0550EE20016EEF
:1054D0000650EE20026E0750EE20036E1200DE6AC8
:1054E000DE6ADD6ADD52DD5212003FD90C0EEECFCE
:1054F000DBFF0D0EEECFDBFF0E0EEECFDBFF0F0E50
:10550000EECFDBFF120031D9140EEECFDBFF9FEFA1
:105510002CF000C0DFFF010E01C0DBFF020E02C055
:10552000DBFF030E03C0DBFF12EF2DF0DA20EA6E83
:10553000210EEECFDBFF220EEECFDBFF230EEECFF0
:10554000DBFF240EEECFDBFF1200DA20EA6E250E21
:10555000EECFDBFF260EEECFDBFF270EEECFDBFF1D
:10556000280EEECFDBFF1200080EDBCF00F0090E95
:10557000DBCF01F00A0EDBCF02F00B0EDBCF03F026
:10558000100E1F0B12004EDAEECF04F0EECF05F036
:10559000EECF06F0EFCF07F0100E1F0B12002FD941
:1055A000100E1F0B1200E652E652E652DF6A010EA1
:1055B000DB6A020EDB6A120045DAEE50ED101200D3
:1055C000040EDBCF3AF0050EDBCF3BF02FEF3AF0C5
:1055D00029DAD880FF0EEE54FF0EEE54FF0EEE5483
:1055E000000EEE5412001EDAD880000EEE54800E2B
:1055F00003D2180EDBCF00F0190EDBCF01F01A0E2C
:10560000DBCF02F01B0EDBCF03F012000C0E38C014
:10561000DBFF0D0E39C0DBFF0E0E3AC0DBFF0F0EB5
:105620003BC0DBFF1200DF50EA6A310FE96E0E0E5D
:10563000EA221200040EDBCF00F0050EDBCF01F0F2
:10564000120008C038F009C039F00AC03AF0120060
:105650008CD8A80ED880EE54610EED54120093D968
:10566000140E1200E16E0350DE6A800EDE6EDE6AFA
:10567000DD6ADD52DD521200456B466B476B486BAD
:10568000496B4A6B4B6B4C6B1200DCD9010EEE1868
:105690001200100EDB6A110EDB6A120EDB6A130EAB
:1056A000DB6A120039C008F03AC009F03BC00AF0CA
:1056B0003CC00BF01200060EDBCF3AF0070EDBCF3A
:1056C0003BF02FEF3AF0FF0EEE5CFF0EEE58010EAE
:1056D000EE58000EEE581200E16EDF6A010EDB6A32
:1056E000020EDB6A030EDB6A12000FEC26F0D0D14B
:1056F000E16E0350D6EF0EF0F36E010EF3CFDBFF39
:10570000020EDB6A1200010EDBCFB2FE020EDBCF0F
:10571000B3FE1200D890383639363A363B36E806B2
:105720001200D8900436053606360736E806120011
:105730001A511B111C111D111200010EE9260E0E2B
:10574000EA2212004E6B4F6B506B516B120000C07F
:10575000E6FF01C0E6FF1200DECFE6FFDDCFE6FF89
:105760001200010EE66ED9501200E96E000EDA202A
:10577000EA6E1200E3DD060EEBEF28F00C0EDBCF35
:1057800004F00D0EDBCF05F00E0EDBCF06F00F0E92
:10579000120039C03EF03AC03FF03BC040F03CC080
:1057A00041F0120000C038F001C039F002C03AF0F8
:1057B00003C03BF01200080EDBCF38F0090EDBCF40
:1057C00039F00A0EDBCF3AF00B0E49EF29F0080E44
:1057D000DBCF39F0090EDBCF3AF00A0EDBCF3BF01E
:1057E0000B0ED8EF29F00C0EDBCF39F00D0EDBCF0E
:1057F0003AF00E0EDBCF3BF00F0ED8EF29F012D9A6
:10580000EECF00F0EECF01F0EECF02F0EFCF03F0DD
:1058100012000C0EDB6A0D0EDB6A0E0EDB6A0F0E39
:10582000DB6A1200070ED7DCE66AD9501200DBCF24
:105830000BF007DF0BC03BF046EC3AF0DADD58DD49
:10584000B2EC3AF0B6EF3BF0D950080F0EDD12D9AA
:105850003FEC23F0006E0C0EE15C1200E16EDE6A9C
:105860003EDE23EF29F003DD13D1DFDD010EB3DCD3
:1058700078DF010F63DD030EEBEF28F0040EDBCFC2
:1058800039F0050EDBCF3AF0060EDBCF3BF0070E0A
:10589000D8EF29F0040EDBCF38F0050EDBCF39F05E
:1058A000060EDBCF3AF0070E49EF29F00C0EDBCFE6
:1058B00000F00D0EDBCF01F00E0EDBCF02F00F0E6D
:1058C0000BEF29F0140EDBCF39F0150EDBCF3AF0D9
:1058D000160EDBCF3BF0170ED8EF29F0140EDBCFFE
:1058E00000F0150EDBCF01F0160EDBCF02F0170E25
:1058F0000BEF29F0140EDBCF04F0150EDBCF05F013
:10590000160EDBCF06F0170ECAEF29F0F20EDBCF32
:1059100004F0F30EDBCF05F0F40EDBCF06F0F50E4E
:10592000CAEF29F0A4DC036E070EE15C1200DBCFA6
:1059300003F043EF2DF081DCE652E6521200150E23
:10594000EECFDBFF160EEECFDBFF170EEECFDBFF49
:105950001200EECFE6FFEECFE6FFEECFE6FFEFCF91
:10596000E6FF120038C000F039C001F03AC002F082
:105970003BC003F01200010E2EDCE76E020EE7CFF3
:10598000DBFFDB50120039C000F03AC001F03BC031
:1059900002F03CC003F01200190E3D6E3E6A3F6AF1
:1059A000406A1200E96E000EC3EF29F0E96EFF0EA7
:1059B000C3EF29F0EECFDBFFD95012007ADD790E6C
:1059C000E9260E0EEA22120074DD490EE9260E0EBB
:1059D000EA22120001C03AF002C03BF003C03CF0E2
:1059E00012000CDC25DD89EF29F0000E3954000E81
:1059F0003A54000E3B541200EE54000EEE54000ECA
:105A0000EE54120056DD9DEF2BF0E552E552E552C3
:105A10003AD4D9CFE6FFDACFE6FF1200DBCF40F071
:105A20003EEF4DF0D9CFE9FFDACFEAFF1200140EB6
:105A3000DB6A150EDB6A160EDB6A170EDB6AF5DC15
:105A400012EF2CF0D950010FB5EF2BF093DEE66A80
:105A5000D9501200A1DF3EEC4DF0C0DC09EF2CF074
:105A6000EBEC28F0050100511200FDDE010EDE6EA8
:105A70006FEF2AF0D950040F35EC29F087EF29F0A9
:105A80005DDC12EF2CF00050011002100310120028
:085A9000E552E552E552120057
:085A9800FEEC32F0A098636AF5
:105AA000626A0F01266BC6EC33F002E2E16AE5524E
:105AB000E16E00500F018AEC33F0DF6ADF50006EB8
:105AC000016A0C0E005C000E015810E2DF50040D5C
:105AD000F3CFE9FFF4CFEAFF000EE926040EEA2235
:105AE000EE6AEE6AEE6AEE6ADF2AE8D7658C0F018D
:105AF000386B6598659C62A607D062960101DF6BE2
:105B0000E46BE56BE66BF7D70101010EF86FF96FF7
:105B1000FA6BFB6BEC6BDF6A030EDF5C11E2EA6A87
:105B2000DF34F3EC33F0EA22EE6AED6AEA6ADF343E
:105B3000FAEC33F0EA22EE6AED6A3CEC33F0ECD793
:105B40000101080ED56F040ED66F0F01160E266FD9
:105B50000401300E026F040E036F400E016F840EBD
:105B6000006F0101C96BC86B01EF33F0FEEC32F03E
:105B700082B206D0656A0F01366B0101C86B7CD01A
:105B80000101C8510CE1656A0F01366B8AEC33F0F4
:105B900065B602D06586FCD70101010EC86FC80545
:105BA0000AE165BA08D0626A0F01366B3681368920
:105BB0000101020EC86F6250040B06E00F0136515E
:105BC000040B02E0629459DB65B256D06250010BBF
:105BD00009E00F013651010B05E05EDF0101040E03
:105BE000C86F62906250100B06E00F013651100B27
:105BF00002E033DB629862AC15D00F0136AD0AD0FB
:105C000091EC33F0730E08EC33F002E2E16AE552F6
:105C1000E16E0050629C0101F65101E0F607F65179
:105C200001E1F3D86250200B05E00F013651200B43
:105C300001E002DB6250020B14E00F013651020B4F
:105C400010E091EC33F0E6687F0EE66EBBEC48F0B6
:105C5000006E060EE15C02E2E16AE552E16E005080
:105C6000636A040E0101E76EC819E8AE02D0E7349A
:105C700002D0E750C85D02E2A19834D00F0136A7E8
:105C800030D0DF6A040EDF5C2CE262A62AD064CF3B
:105C9000EDF10101ED51780BE842E842E842EE6F88
:105CA0006296EDB504D0EE5101EC34F003D0EE5124
:105CB00006EC34F0EA22EF70EE5102E1F0DA0FD098
:105CC000000EE66EE66AED0EE66E010EE66E720EF0
:105CD00008EC33F002E2E16AE552E16E0050DF2A9F
:105CE000D1D7A19801EF33F0F0EC33F0FC0EDBA438
:105CF00003D0E66A7AEC33F0FC0EDBA204D0010E8E
:105D0000E66E7AEC33F0FD0EDB50016A260F006E72
:105D10000F0E74EC33F010EC33F0FC0EDBCFEFFF22
:105D2000E55201EF33F0F0EC33F0FC0EDB5003E012
:105D300003EC33F002D02DEC33F060EC33F0D9CF2C
:105D4000E9FFDACFEAFFEE50ED1003E1F36AF46AFF
:105D500028D010EC33F015EC34F0FA0EDBCFEEFF68
:105D6000FB0EDBCFEDFF10EC33F0EE52F90EDBCF84
:105D7000EFFF400E0BEC34F0880E1AEC34F0FC0E02
:105D8000DB5003E003EC33F002D02DEC33F0EA22D9
:105D9000EF74DECF00F0DDCF01F000C0F3FF01C0F3
:105DA000F4FFE55201EF33F0F0EC33F0FD0EDB5081
:105DB00003E1CFEC33F009D032EC33F0A4EC33F054
:105DC00032EC33F0010FA4EC33F0E55201EF33F085
:105DD000D6EC33F065A817D0E9EC33F0400EEE16A0
:105DE000EE6AEE6AEE6AE9EC33F0EE7C03EC33F037
:105DF000EA22EF74400E006EE9EC33F00050EF162B
:105E0000E9EC33F0EF7CC0EF33F00101F85127E10A
:105E1000010EF86FF95123E1010EF96F020EDC5DFE
:105E200009E115EC33F0EE52EF6A15EC33F0C80ED1
:105E3000EF6E1200DC0513E1EF6B22EC33F0EE5253
:105E4000400EEF6E22EC33F0B0EC33F022EC33F086
:105E5000840EEF6E010EEF6FCDDB800EEF6E120041
:105E60000101FA6BFB6B020EDC5D07E10FEC34F015
:105E700027EC33F09FEC33F010D0E0510401365D95
:105E80000101E1510401375904E236C4E0F137C49D
:105E9000E1F15CD8CADBDBDBC8DBC80EEF6E1200B9
:105EA000F0EC33F0000EDE6E040EDD6EDBDB040D75
:105EB000F4CF01F0D9CFE9FFDACFEAFFF350EE26B5
:105EC0000150ED22ADDBEF9EFC0EDB5002E1C5DBA5
:105ED00001D099DBEA22DECFEEFFDDCFEDFFA0DBC4
:105EE000EF9C9EDB040EE926000EEA22EF8CE552C1
:105EF00088D365980101DFBF0DD0E4AF09D0020E51
:105F0000DC6FFB5101E1ACDF0101F96BF86B1200B2
:105F1000CFEF33F0040130AF0DD00101010EDC6F83
:105F2000FA5101E19DDF0101F96BF86BF7510DE1C9
:105F300005EF2FF00101020EDC6F5CDB840EEF6ECB
:105F4000F96BF86BF75101E160DF120057DB400E8F
:105F5000DF6E0101E05D000EE1590AE2E0C1DFFF02
:105F6000DB5102E1010E03D0DB0502E1020EDB6F23
:105F7000DF50016AE850E05DE06F0150E159E16FE8
:105F800054DBEE52DFCFEFFF380EE96F040EEA6FFD
:105F9000DFB10DD0DF5017E0DDC1F6FFDEC1F7FF46
:105FA000DD2B000EDE230800F5507DDBF3D7DF503C
:105FB0000AE0DDC1E9FFDEC1EAFFDD2B000EDE23D2
:105FC000EF5071DBF4D71DD3F0EC33F03BDBEE5236
:105FD000EFCFDFFFDFCF00F000500101E55D000EE5
:105FE000E65902E2E5C1DFFFDF50006E016AE850CA
:105FF000E55DE56F0150E659E66F010EDB6ADF50A3
:10600000F36E010EDBCFF4FFF350F45C16E2010EE9
:10601000DB50EA6A380FE96E040EEA22EF50E66EB2
:10602000E2C1E9FFE3C1EAFFE22B000EE323E55200
:10603000E750EF6E010EDB2AE2D7000ED880E5555F
:10604000000EE6550DE2EBDB02DBFCDAEF50400B15
:1060500003E175DBC80E02D072DB880EEF6E12D042
:10606000C9DA840EEF6EE751E81107E005D0E8C108
:10607000FAFF0101E751F96EFADF0101E49FF751E0
:1060800001E1C3DEE552BDD2B9DA0101DF8F7EDB6B
:1060900002E2E16AE552E16E0050300EE66EE66A19
:1060A000E66A000EE66E040EF1DA02E2E16AE552FB
:1060B000E16E0050658CDF6A030EDF5C02E2DCDA21
:1060C000FBD7010EE66EE66AE66ACA0EE66E010EC0
:1060D000DDDA02E2E16AE552E16E0050659C010101
:1060E000080ED56F040ED66F000ECB6F040ECC6F6A
:1060F000CBC1CDF1CE6F32C4C9F1C95102E1100E4E
:1061000010D0010EE66EE66AC90EE66E010EE66E6E
:10611000010E7EDA02E2E16AE552E16E0050010111
:10612000200EC86F6ED2800E0401305D4EE1010179
:10613000C00EDF6F04013351030A25E0010A09E0B4
:10614000030A41E10101D80EDD6F990EDE6F120ED8
:1061500034D03251F66EF76AD890F636F7362D0EF7
:10616000F6269A0EF7220900F5CFDDF10A00F5CFE9
:10617000DEF1020E0101DCDAF5CFE0F1030ED8DA30
:10618000F5CFE1F11200040E325D1AE20101DF8168
:1061900004013251E96EEA6AD890E936EA36F60E21
:1061A000E926020EEA22EECFDDF1EDCFDEF1DDC110
:1061B000E9FFDEC1EAFFEF500101E06FE16B120081
:1061C0000101DF6B12000101DF6B120009DB04012A
:1061D000386B396B30511F0B020A11E0030A0CE0D7
:1061E000010A1EE10101DF8F040138810101EB0585
:1061F00017E10401388314D00101DF8F11D00101B0
:10620000DF8F040134BF02D0DADA01D0DDDA58DAE8
:10621000E3DA06E005DAEF50040B02E0010E386F16
:106220000101DFAF07D0380EDD6F040EDE6FDF81B6
:10623000020EE06FE552E5D10F0126A10CD002DA83
:10624000EF50800807E1F1D9EF50840803E1FAD953
:106250008C0EEF6E2691629A12000F0136856298BD
:1062600065820101010EEC6F31DA750ED1D902E2BF
:10627000E16AE552E16E005012000101EC6B26DA92
:10628000740EC6D902E2E16AE552E16E00506592F1
:106290000F01369562A402D06294FCD71200AED9E9
:1062A00001012D0EF66FFD0EED1539E17E0EED1597
:1062B000E8407F0B040DF3CFCBF1F4CFCCF1000E0F
:1062C000CB27040ECC23CBC1CDF1CCC1CEF1CD7503
:1062D000B9D9EF503C0BE842E8420D081EE1DF6AF5
:1062E000080EDF5C16E2AED9020EE926000ED5D903
:1062F000EF50E66EDF50EA6A300FE96E040EEA22D4
:10630000E552E750EF6E9ED990DAEE2AEF22DF2AAF
:10631000E7D798D925DA09D807D027D805D0FD0EB8
:10632000ED15040801E130D86CD10101DB6BF76B8E
:10633000FA6BFB6BEF6BDC6B78D9EF9ED57575D97B
:10634000EF9ED575FCD9EF9EDF6BE06BE16BE46BE4
:10635000E56BE66B55D8BAD9030E5AD902E2E16A69
:10636000E552E16E005079EF2FF0020E0101DC5D85
:1063700002E1E4EF2FF0DC6BEF5104E13BD98C0E2E
:10638000EF6E1200EF6B120039D94FD9EF50400B6E
:1063900001E0010EDF6E0101D575080EC85D0BE14D
:1063A00032C438FF0F01385103E00101100E02D052
:1063B0000101040EC86FDC0513E137D948D9C6DDE9
:1063C000020E0101DB5D03E130D9840E07D0DF50FE
:1063D00003E12BD9C80E02D028D9880EEF6E0FD05A
:1063E000E4AF0CD0E751E81107E005D0E8C1FAFFAF
:1063F0000101E751F96EFADF0101E49FDC6B01D185
:1064000004013051600BE842E842E842E842E842C9
:10641000000901E0120031510C0A4AE00B0A3FE08A
:106420000C0A31E0010A22E00B0A1EE0020A1CE01D
:10643000030A18E0080A10E0010A0CE00F0A08E05D
:10644000030A01E012000101DF8F080EC86F12007D
:1064500093EF30F044EF30F00101C90EDD6F010E13
:10646000DE6F0CD0E6EF30F059EF32F0345101011D
:10647000DD6FDE6BCA0EDD27010EDE23DF81010E2C
:10648000E06FDF8F12000101DF8F04013451EA6AEF
:10649000CA0FE96E010EEA2232C4EFFF120016D9CC
:1064A000020EB6D802E2E16AE552E16E0050120037
:1064B000120096D9E652E652E6520401320510E186
:1064C00030511F0B00090CE10101DF8F030E0401A5
:1064D000315D04E10101010EEB6F02D00101EB6BB4
:1064E0000401325101E07FD030511F0B020801E05E
:1064F0007AD034510F0B000901E175D034510F0BE4
:10650000020871E3200E0101C85D6DE1DF8F040117
:1065100034BF04D054D9D4D8DFD803D055D9D0D87B
:10652000DFD8EA22020EEFCFDBFFECD8010B02E14D
:10653000DF9401D0DF8434BF02D041D901D044D9E7
:10654000EA22DECFEEFFDDCFEDFF030E315D0CE181
:1065500043D907E034BF02D0BFD801D0C1D8EA2266
:10656000EF82840E67D93FD0DF7436D90BE058D85C
:10657000EF9E56D8EF8CFAD802E2E16AE552E16E5E
:10658000005002D04DD8EF8CDF74BCD8020B02E172
:1065900023D912E0040134BF02D09ED801D0A0D884
:1065A000EA22EF923B0E006E36D9E0D802E2E16AB1
:1065B000E552E16E005002D03B0E2DD9040134515A
:1065C0000F0B016A260F006E0F0E0122030E00C092
:1065D000DBFF040E01C0DBFF030EDBCFE9FF040E7F
:1065E000DBCFEAFFEF90050EE15C02E2E16AE552E3
:1065F000E16EC6D014D9B4D89FEF33F0D7D8E652A5
:106600001200E552BDD0FD0EEA6ADB34F3EF33F041
:10661000E66EE66ABBEC48F0006E060EE15C120026
:10662000DECFE9FFDDCFEAFF1200D5C1E9FFD6C119
:10663000EAFF120034510F0BE96EEA6AD890E9368E
:10664000EA361200CBC1E9FFCCC1EAFF1200EDD857
:10665000380EEE6E040EED6E1200FD0EEA6ADB34AB
:10666000FAEF33F0FC0EDB50E824026EFD0EDB5037
:10667000040DF35002241200DF50C8D8EA22EF6A5A
:10668000DF50BFD8EA22EF6ADF2A1200E66E90ECF4
:106690004BF0006E050EE15C1200EA22EE50EFCFE7
:1066A000EAFFE96E1200E66EE9C1E9FFEAC1EAFF1E
:1066B000E92B000EEA23E552E750EF6EDF061200E9
:1066C000EA22EECFDEFFEDCFDDFF1200000EE66E18
:1066D000E66AE66EE66A120034510F0B01EF34F001
:1066E00034510F0B06EF34F0012200C0DEFF01C071
:1066F000DDFF1200FD0EDBCFE6FF50EC2FF0E55280
:10670000E5521200D950020FE96E000EDA20EA6E4F
:10671000EF501200160E396F9F0E376F7B0E366FDB
:106720001200010EE66EE66A000EE66EE66A1200E0
:10673000F76ADD25F66EDE51F72208001200CDC1A2
:10674000E9FFCEC1EAFF1200040DF3CF00F0F4CF51
:1067500001F0000E0026040EC7DF840E1AEF34F09D
:1067600064D8300EEE6E040EED6E1200020EE66E70
:10677000E66ADECFE6FFDDCFE6FF050E08EF33F079
:10678000E552E5CFDAFFE7CFD9FF1200020EE66E41
:10679000E66AE66A270EE66E0F0E46EF33F02ADF52
:1067A0008C0EEF6E42DF840EEF6E1200D9CFE6FF43
:1067B000DACFE6FFE1CFD9FFE2CFDAFF12003ADF0E
:1067C000CF0EE926010E120035DFD50EE926010EA7
:1067D000120019DF4DEF33F023DFEF50800B120072
:1067E0000DDFE6521200FE0BEA36E96ED50EE92601
:1067F000010E1200FE0BEA36E96ECF0EE926010EFD
:106800001200EA6AF30FE96E010E1200EA6AF00F55
:10681000E96E010E120004DFE850EF1612008FDF60
:10682000EE52400EEF6E9FEF33F0020EE926000E9F
:0C683000EA221200F5DEE850EF12120020
:04683C005AEC39F0E9
:10684000FB0EDBCFF3FFDB06F35000090AE0A8ECF8
:1068500039F0FA0E13EC3AF0F3E1011CF1E1010E0C
:1068600001D0000E89EF39F05AEC39F03B0EE124EB
:1068700002E3E168E652E16E010EDB6A020EDB6ABA
:10688000F90EDBCFF6FFFA0EDBCFF7FFFB0EDBCF07
:10689000F8FF0800F550DF6EDF5002E1ADEF38F091
:1068A000250EDF5C02E0A0EF38F0030EDB6A040E79
:1068B000DB6A050EDB6A060EDB6A070EDB6AC2ECDA
:1068C00038F02D0EDF5C0CE02B0EDF5C09E0200EB3
:1068D000DF5C06E0230EDF5C03E0300EDF5C1AE1D4
:1068E000DF50300A14E0130A0FE0030A0AE00B0A33
:1068F00005E0060AE4E1030EDB80E1D7030EDB824C
:10690000DED7030EDB84DBD7030EDB86D8D7030E7E
:10691000DB88D5D72A0EDF5C1BE1BEEC38F00CEC2F
:1069200039F010E0030EDB803A683B68130EDBCFD2
:106930003FF0140EDBCF40F0F7EC3CF0040E38C013
:10694000DBFF03D0130EF5EC38F0C2EC38F00BD0BF
:10695000090EDB6A63EC39F003E0D7EC39F0FAD7C3
:10696000090EF5EC38F0030EDBB0DB982E0EDF5C81
:106970001BE1C2EC38F02A0EDF5C0BE1BEEC38F014
:106980000CEC39F003E1130E47EC39F0C2EC38F0AF
:106990000BD0090EDB6A63EC39F003E0D7EC39F079
:1069A000FAD7090E47EC39F0680EDF5C07E1C2EC5C
:1069B00038F0680EDF5C1DE1030E18D0740EDF5C4A
:1069C00017E07A0EDF5C14E0480EDF5C06E0540E40
:1069D000DF5C03E05A0EDF5C02E1020E07D06C0EB2
:1069E000DF5C03E06A0EDF5C04E1010E9AEC39F033
:1069F000C9DBDF506E0A01E17FD31E0A01E192D1AB
:106A0000200A01E18FD13F0A01E149D11A0A01E1CF
:106A100046D10D0A01E143D1200A01E140D13A0AF1
:106A200001E13DD1200A01E13AD1260A01E135D147
:106A30000D0A01E132D11A0A01E1D9D0200A4AE057
:106A4000300A1FE0460A0EE0250A01E083D3D95040
:106A5000F90FE96EFF0EDA20EA6E010EEE5E000E0F
:106A6000EE5AEE5AA8EC39F0250EE66E95DB03E1FE
:106A7000011C01E169D3A4EC39F001E26BD3DB2AFC
:106A800069D3080EDB6A040EDB50010806E2040E2F
:106A9000DB046CEC39F0DB508BDB080EDB5009E0DB
:106AA000030EDB50010B05E172DB01E04DD3080E54
:106AB000DB6A64DBEFCFDFFF1CEC3AF003E1011C83
:106AC00001E142D3A4EC39F001E3DB2A60DB01E110
