:020000040000FA
:06100000ABEF4DF0120001
:061008002EEF08F01200BB
:06101800D5EF1AF01200F2
:06102A000400419C0000DF
:1010300000050000EA000000389C0000B70E000028
:1010400009000000369C0000FE01000002000000C4
:0C105000B89B0000800200007E00000041
:04105C00E9CFE4FFF5
:10106000EACFE4FFE6528AEC16F0E6529EA031D1B8
:101070009E90FE0ECF6E3D0ECE6E19C630F6060166
:10108000316B010E326F1FEC19F014E0D880000EA6
:101090001A55000E1B55190E1C55000E1D5505E264
:1010A0001A6B1B6B1C6B1D6B05D01A07000E1B5BAC
:1010B0001C5B1D5B1FEC19F001E0326B000501E1C8
:1010C0008AD0030E005D59E1E4513AE02105DF6E5C
:1010D0001E511F111AE190EC18F0EF500E01EA6A50
:1010E000AC25E96EAD51EA22EF6A67EC1AF0EE6AC0
:1010F000ED6A6DEC1AF0EE6AED6A90EC18F0EF6AAA
:101100008CEC1AF0EE6AED6A1BD067EC1AF022C67E
:10111000EEFF23C6EDFF6DEC1AF01EC6EEFF1FC6F4
:10112000EDFF90EC18F020C6EFFF8CEC1AF0EE50BB
:10113000ED1006E18CEC1AF01EC6EEFF1FC6EDFFA7
:101140000E01B6510601205D46E10E01B0510601C7
:101150001E190CE10E01B15106011F1907E1010E24
:10116000D86FD46BE35137E08C9A35D0D86B010E31
:10117000D46FE35130E08C8A2ED0040E005D2BE159
:10118000245122E025C64CF026C64DF0D8904D32B1
:101190004C32D8904D324C324C50BB6EE1C64EF0C2
:1011A000E2C64FF0040ED8904E364F36E804FBE10D
:1011B000300E4E16000E4F16CF0EBA144E104C6E57
:1011C0004FC04DF0E85003D0BB6ACF0EBA14BA6ED0
:1011D0000601010E326F325172E01FEC19F06FE11F
:1011E000006B275168E134C600F635C601F636C6F5
:1011F00002F637C603F638C604F639C605F63AC60F
:1012000006F63BC607F63CC608F63DC609F63EC6DE
:101210000AF63FC60BF640C60CF641C60DF642C6AE
:101220000EF643C60FF644C610F645C611F646C67E
:1012300012F647C613F648C614F649C615F64AC64E
:1012400016F64BC617F64CC618F64DC619F64EC61E
:101250001AF64FC61BF650C61CF651C61DF652C6EE
:101260001EF653C61FF654C620F655C621F656C6BE
:1012700022F657C623F658C624F659C625F65AC68E
:1012800026F6346B356B366B376B386B396B3A6BD4
:101290003B6B3C6BB9EC18F04D6B29EC19F0526BC1
:1012A000536B546B556B566B576B586B596B5A6B32
:1012B000010E276F04D01A6B1B6B1C6B1D6B8250C9
:1012C000800B05E0DF5105E08150010B02E1010ECA
:1012D000DE6FE552E552E5CFDAFFE7CFD9FFE55201
:1012E000E5CFEAFFE5CFE9FF1100D9CFE6FFDACF7E
:1012F000E6FFE1CFD9FFE2CFDAFFE652DF6ADFCFC8
:1013000000F0020EE76E0018E8AE02D0E73402D01B
:10131000E750005C3CE2DFCFE9FFEA6AE9BEEA6839
:10132000D890E936EA36D890E936EA36010EE92651
:10133000060EEA22010EEE6EEE6AEE6AEE6ADFCF6C
:10134000E9FFEA6AE9BEEA68D890E936EA36D89059
:10135000E936EA36110EE926060EEA22EE6AEE6A50
:10136000EE6AEE6ADFCFE9FFEA6AE9BEEA68D89082
:10137000E936EA36D890E936EA36090EE926060E4D
:10138000EA22EE6AEE6AEE6AEE6ADF2AB8D7060152
:10139000006B0601196B06011A6B1B6B1C6B1D6B36
:1013A00006011E6B1F6B0601206B0601216B0601F7
:1013B000226B236B0601010E276FCD82CD9ECD9C43
:1013C000CD9ACD98CD96CD94FE0ECF6E3D0ECE6EBD
:1013D000CD809F809E909D80F19E9F9C010EE66E29
:1013E0000A0EE66EE6EC21F0E552E5529492828216
:1013F00000000000000000000000000000000000ED
:1014000000000000000000000000000000000000DC
:10141000000000000000948282920601010EE36F3A
:101420000601010EE46F8C9A959A8C9E959E06019A
:10143000010ED46F0601D76B0601010ED86F0601AD
:10144000DD6B0601D96BDA6BDB6BDC6B0601DE6BE7
:101450000601010EDF6F49EC16F0E552E552E5CFCB
:10146000DAFFE7CFD9FF12008AEC16F050EC18F043
:1014700083EC17F0D2EC1AF0E66AD950BAEC1AF005
:101480000501005101E09ED0DF0424E159EC18F081
:101490000CE10601010EE36FE46B04EC18F002E2CC
:1014A000E16AE552E16E00500DD0C2EC18F006E1A1
:1014B000ED5004E10601E36B010E03D00601010EBD
:1014C000E36FE46F000EE66EE66AD8C6E6FFF2EC64
:1014D00018F076D0020EDF5C19E159EC18F003E148
:1014E0000601D76B6DD0C2EC18F005E1ED5003E1B9
:1014F0000601010E09D0A8EC1AF0020EEE1860E108
:10150000ED505EE10601020ED76F5AD0040EDF5C8B
:1015100007E1010EDBCFB0FE020EDBCFB1FE50D0F3
:10152000050EDF5C07E1010EDBCFAEFE020EDBCF66
:10153000AFFE46D0080EDF5C0FE1A8EC1AF0180EE3
:10154000D880EE54000EED5403E2180E03EC19F0AF
:10155000010EDBCFAAFE34D0090EDF5C0FE1A8EC50
:101560001AF0060ED880EE54000EED5403E2060E7B
:1015700003EC19F0010EDBCFABFE22D00A0EDF5CCC
:1015800003E10AEC19F009D00B0EDF5C03E10AEC71
:1015900019F016D00C0EDF5C07E1010EDBCFB4FEB4
:1015A000020EDBCFB5FE0CD00D0EDF5C09E159EC6D
:1015B00018F004E00601010EDF6F02D00601DF6BB8
:1015C00074EC21F0B6EC1AF0B1EF16F08AEC16F0DC
:1015D000200EE12402E3E168E652B6EC19F0C6EC15
:1015E00018F0E66AD950040FCAEC1AF0060FCAECDC
:1015F0001AF0080FACEC1AF00C0F42EC19F0D950AD
:10160000040FA5EC18F004E2880E006E7D0E7BD26C
:10161000D950060FA5EC18F004E25A0E006E7D0EAC
:1016200072D297EC18F0040E005C000E015804E230
:10163000300E006E7D0E67D2060EDBCF00F0070E77
:10164000DBCF01F0040E005C000E015804E2080E2E
:10165000006E7D0E58D20501005101E05DD2080EEA
:10166000DBCF10F0090EDBCF11F00A0EDBCF12F04A
:101670000B0EDBCF13F010C038F011C039F012C0E0
:101680003AF013C03BF0080EDBCF3DF0090EDBCF84
:101690003EF00A0EDBCF3FF00B0EDBCF40F0C2EC8A
:1016A0004CF034C00CF035C00DF036C00EF037C031
:1016B0000FF00C0EDBCF14F00D0EDBCF15F00E0E7D
:1016C000DBCF16F00F0EDBCF17F014C038F015C0CB
:1016D00039F016C03AF017C03BF00C0EDBCF3DF0EE
:1016E0000D0EDBCF3EF00E0EDBCF3FF00F0EDBCF4B
:1016F00040F0C2EC4CF00C503424086E0D503520F4
:10170000096E0E5036200A6E0F5037200B6E9EEC7D
:1017100018F03B6E52EC3AF067EC17F039C0E6FF78
:101720003AC0E6FF3BC0E6FF3CC0E6FF1DEC40F0E0
:10173000B6EC1AF0E55237EC1AF038C039F073EC19
:101740001AF0C2EC3BF0140E38C0DBFF150E39C0A6
:10175000DBFF160E3AC0DBFF170E3BC0DBFF0601B6
:101760002751FDE029EC19F04D6BEBEC16F0D95048
:10177000080F5BEC1AF002E628EC17F004E263ECC9
:1017800019F086EC17F0D9500C0F5BEC1AF002E65A
:1017900028EC17F00EE20C0EDBCF38F00D0EDBCF8D
:1017A00039F00E0EDBCF3AF00F0EB7EC16F093ECDB
:1017B00017F06FEC19F002E607EC17F004E2DA0E0E
:1017C000006E7C0EA0D17BEC19F002E607EC17F05E
:1017D00004E2AC0E006E7C0E96D15DEC18F067EC66
:1017E00017F0AC0E3E6EC50E3F6EA70E406E470E54
:1017F000416EBEEC3AF0ACEC18F0DBCF0CF0150EFD
:10180000DBCF0DF0160EDBCF0EF0170EDBCF0FF097
:101810000CC038F00DC039F00EC03AF00FC03BF0EC
:1018200050EC3AF0CFEC18F0E6EC16F06BEC3AF036
:10183000180E39C0DBFF190E3AC0DBFF1A0E3BC091
:10184000DBFF1B0E3CC0DBFF76EC18F0080EDBCF95
:1018500008F0090EDBCF09F00A0EDBCF0AF00B0E01
:101860009FEC19F038C035F639C036F63AC037F675
:101870003BC038F6080EDBCF45F6090EDBCF46F647
:101880000A0EDBCF47F60B0EDBCF48F6D8EC18F08C
:10189000CFEC18F0D8EC18F039C00CF03AC00DF0CD
:1018A0003BC00EF03CC00FF051EC19F008C039F00D
:1018B00009C03AF00AC03BF00BC03CF0BEEC3AF075
:1018C00067EC17F05DEC18F039C014F03AC015F071
:1018D0003BC016F03CC017F05DEC18F039C018F0B2
:1018E0003AC019F03BC01AF03CC01BF051EC19F0A3
:1018F00014C039F015C03AF016C03BF017C03CF0E8
:10190000BEEC3AF039C010F03AC011F03BC012F012
:101910003CC013F051EC19F004C039F005C03AF0A6
:1019200006C03BF007C03CF02BEC3BF0ACEC18F0F1
:10193000DBCF28F0150EDBCF29F0160EDBCF2AF017
:10194000170EDBCF2BF028C038F029C039F02AC0A1
:101950003AF02BC03BF050EC3AF039C024F03AC0DA
:1019600025F03BC026F03CC027F0140EDBCF30F052
:10197000150EDBCF31F0160EDBCF32F0170EDBCFBA
:1019800033F030C038F031C039F032C03AF033C0F3
:101990003BF050EC3AF039C02CF03AC02DF03BC08F
:1019A0002EF03CC02FF051EC19F024C039F025C0C6
:1019B0003AF026C03BF027C03CF0BEEC3AF039C00C
:1019C00020F03AC021F03BC022F03CC023F03E6A38
:1019D0003F6A406A400E416EBEEC3AF039C01CF0DE
:1019E0003AC01DF03BC01EF03CC01FF0E6EC16F004
:1019F0006BEC3AF01C0E39C0DBFF1D0E3AC0DBFF6A
:101A00001E0E3BC0DBFF1F0E3CC0DBFF080EDBCF12
:101A100004F0090EDBCF05F00A0EDBCF06F00B0E4B
:101A2000BFEC16F038C03DF639C03EF63AC03FF67E
:101A30003BC040F676EC18F00C0EDBCF08F00D0E34
:101A4000DBCF09F00E0EDBCF0AF00F0E9FEC19F082
:101A500038C039F639C03AF63AC03BF63BC03CF6DE
:101A60000C0EDBCF49F60D0EDBCF4AF60E0EDBCFA8
:101A70004BF60F0EDBCF4CF646EC19F0BFEC16F030
:101A800038C041F639C042F63AC043F63BC044F68E
:101A900097EC18F0060EDB50001803E1070EDB5040
:101AA000011814E006013D513E113F1140110EE1B5
:101AB000D880000E4555000E4655000E4755000EC5
:101AC000485504E2810E006E7C0E1DD097EC18F094
:101AD000060EDB50001803E1070EDB50011816E07C
:101AE0000601415142114311441110E1D880000E0A
:101AF0004955000E4A55000E4B55000E4C5506E256
:101B0000560E006E7C0EBBEC19F006D00601010EDD
:101B1000346F276B74EC21F0200EE15C02E2E16A85
:101B2000E552E16EB1EF16F08AEC16F03F0EE124BB
:101B300002E3E168E652E16E91EC19F09DEC1AF0D7
:101B4000100FACEC1AF0040FACEC1AF0080FCAEC52
:101B50001AF0140FACEC1AF00C0F42EC19F005015E
:101B6000005101E061D1AEEC16F00DE1040EDBCFC7
:101B700004F0050EDBCF05F0060EDBCF06F0070EF6
:101B800038EC17F011E0100EDBCF08F0110EDBCFB0
:101B900009F0120EDBCF0AF0130EDBCF0BF008506A
:101BA00009100A100B1035E1080EDBCF0CF0090EFE
:101BB000DBCF0DF00A0EDBCF0EF00B0EDBCF0FF0FC
:101BC0000C500D100E100F1012E10C0EDBCF10F0A8
:101BD0000D0EDBCF11F00E0EDBCF12F00F0EDBCFB0
:101BE00013F0105011101210131001E11DD1140E3A
:101BF000DBCF14F0150EDBCF15F0160EDBCF16F091
:101C0000170EDBCF17F0145015101610171001E146
:101C10000BD1320EDB6A330EDB6A340EDB6A350E13
:101C2000DB6A310EDB6AEBEC16F0D950100F5BEC7F
:101C30001AF002E628EC17F018E2100EDBCF38F0AD
:101C4000110EDBCF39F0120EDBCF3AF0130EB7ECEA
:101C500016F0100E34C0DBFF110E35C0DBFF120E84
:101C600036C0DBFF130E37C0DBFFD950140F5BEC1F
:101C70001AF002E628EC17F00EE2140EDBCF38F073
:101C8000150EDBCF39F0160EDBCF3AF0170EB7EC9E
:101C900016F0A0EC17F098EC1AF0190EEECFDBFF5F
:101CA0001A0EEECFDBFF1B0EEECFDBFF1C0E63EC3C
:101CB0001AF0100F3DEC19F0290EEECFDBFF2A0EC3
:101CC000EECFDBFF2B0EEECFDBFF2C0E63EC1AF01A
:101CD000040FE96E000E13EC18F0D950080F3DEC1C
:101CE00019F01D0EEECFDBFF1E0EEECFDBFF1F0E39
:101CF000EECFDBFF200E63EC1AF0140F3DEC19F071
:101D00002D0EEECFDBFF2E0EEECFDBFF2F0EEECF34
:101D1000DBFF300E63EC1AF00C0FE96E000E22ECC4
:101D200018F0010EF36E180EF3CFDBFF06012751FA
:101D3000FDE0180EDBCF34F6190EDBCF35F61A0EA8
:101D4000DBCF36F61B0EDBCF37F61C0EDBCF38F6BB
:101D50001D0EDBCF39F61E0EDBCF3AF61F0EDBCFA2
:101D60003BF6200EDBCF3CF6210EDBCF3DF6220EFC
:101D7000DBCF3EF6230EDBCF3FF6240EDBCF40F663
:101D8000250EDBCF41F6260EDBCF42F6270EDBCF4A
:101D900043F6280EDBCF44F6290EDBCF45F62A0E9C
:101DA000DBCF46F62B0EDBCF47F62C0EDBCF48F60B
:101DB0002D0EDBCF49F62E0EDBCF4AF62F0EDBCFF2
:101DC0004BF6300EDBCF4CF6310EDBCF4DF6320E3C
:101DD000DBCF4EF6330EDBCF4FF6340EDBCF50F6B3
:101DE000350EDBCF51F6360EDBCF52F6370EDBCF9A
:101DF00053F6380EDBCF54F6390EDBCF55F63A0EDC
:101E0000DBCF56F63B0EDBCF57F63C0EDBCF58F65A
:101E10003D0EDBCF59F63E0EDBCF5AF6276B0401A1
:101E2000A15102E074EC21F03F0EE15C02E2E16AB4
:101E3000E552E16EB1EF16F08AEC16F0100EE124D7
:101E400002E3E168E652B6EC19F083EC17F09AEC85
:101E500019F0040F42EC19F0FFEC18F0080F42ECF7
:101E600019F00E01BF516FE0AEEC16F002E1050172
:101E7000008D0501005173E165EC18F004E2230EBA
:101E8000006E7C0E5DD0C3EC19F002E67EEC17F01C
:101E900005E2D950040FE3EC17F004D0CFEC19F0B1
:101EA00093EC17F07BEC19F002E607EC17F004E274
:101EB000DA0E006E7C0E44D0DBEC19F004E2F30E77
:101EC000006E7B0E3DD05DEC16F00C0F11EC17F0A0
:101ED00009E346EC19F038EC17F004E0CD0E006E83
:101EE0007B0E2ED06FEC19F002E67EEC17F005E2C7
:101EF000D950080FE3EC17F004D063EC19F093EC21
:101F000017F07BEC19F002E607EC17F004E2AC0ED8
:101F1000006E7C0E15D0DBEC19F004E29D0E006E15
:101F20007B0E0ED05DEC16F00C0F11EC17F00BE3EE
:101F300046EC19F038EC17F006E0770E006E7B0ED9
:101F4000BBEC19F00CD0ACEC19F002E2E16AE552FE
:101F5000E16E00500401A15102E074EC21F0100E7A
:101F6000E15C02E2E16AE552E16EB1EF16F08AEC63
:101F700016F0180EE12402E3E168E652B6EC19F01F
:101F8000C6EC18F09DEC1AF00C0FACEC1AF0100F28
:101F900042EC19F0AEEC16F002E10501008D100ED6
:101FA000DBCF00F0110EDBCF01F0120EDBCF02F021
:101FB000130EDBCF03F0D9500C0F3DEC19F0EE50AF
:101FC0000026EE500122EE500222EE500322040EB3
:101FD00000C0DBFF050E01C0DBFF060E02C0DBFF09
:101FE000070E03C0DBFF46EC19F0DBCF07F0D9503A
:101FF000100F3DEC19F0EE50045C006EEE500558E9
:10200000016EEE500658026EEE500758036E080E31
:1020100000C0DBFF090E01C0DBFF0A0E02C0DBFFC0
:102020000B0E03C0DBFFC3EC19F002E67EEC17F0E9
:1020300005E2D950040FF1EC17F004D0CFEC19F001
:10204000A0EC17F065EC18F004E2230E006E7C0E95
:102050004AD0E7EC19F002E607EC17F004E2DA0EDA
:10206000006E7C0E40D0F3EC19F004E2F30E006E2B
:102070007B0E39D05DEC16F0140F11EC17F007E36E
:10208000FFEC19F004E0CD0E006E7B0E2CD06FEC4F
:1020900019F002E67EEC17F005E2D950080FF1ECDA
:1020A00017F004D063EC19F0A0EC17F0E7EC19F08E
:1020B00002E607EC17F004E2AC0E006E7C0E13D0C3
:1020C000F3EC19F004E29D0E006E7B0E0CD05DEC7B
:1020D00016F0140F11EC17F009E3FFEC19F006E00D
:1020E000770E006E7B0EBBEC19F00CD00501005191
:1020F00009E1ACEC19F002E2E16AE552E16E005050
:1021000074EC21F0180EE15C02E2E16AE552E16E46
:10211000B1EF16F08AEC16F0370EE12402E3E16825
:10212000E652B6EC19F01BEC17F0CDEC1AF017E103
:102130000BEC1AF014E1020EF36E100EF3CFDBFF7E
:102140004CEC17F02A0E34C0DBFF2B0E35C0DBFF42
:102150002C0E36C0DBFF2D0E37C0DBFF56D12A0E0A
:10216000DB6A2B0EDB6A2C0EDB6A2D0EDB6A290E76
:10217000DB6AEBEC16F0D950F60F5FEC1AF002E6D2
:1021800028EC17F018E2F60EDBCF38F0F70EDBCFB5
:1021900039F0F80EDBCF3AF0F90EB7EC16F0F60E88
:1021A00034C0DBFFF70E35C0DBFFF80E36C0DBFFB7
:1021B000F90E37C0DBFFD950F20F5FEC1AF002E6E0
:1021C00028EC17F018E2F20EDBCF38F0F30EDBCF7D
:1021D00039F0F40EDBCF3AF0F50EB7EC16F0F20E54
:1021E00034C0DBFFF30E35C0DBFFF40E36C0DBFF7F
:1021F000F50E37C0DBFFD950F60F5FEC1AF002E6A0
:10220000E0EC18F030E24CEC17F0040E34C0DBFFC9
:10221000050E35C0DBFF060E36C0DBFF070E37C0EC
:10222000DBFF1BEC17F00F0E1F0B03E03FEC17F06A
:10223000FDE16AEC16F05CEC17F01BEC17F00F0EEA
:102240001F0B03E03FEC17F0FDE17AEC1AF014E20B
:1022500031EC18F003E03FEC17F0FDE16AEC16F00A
:1022600083EC18F009D01BEC17F070EC17F011ECB0
:1022700019F0FDE1B0EC1AF070EC18F00CE2F5EC9E
:1022800016F0420E006E7B0E1BEC1AF002E2E16AC1
:10229000E552AFEC18F0AEEC16F012E1F60EDBCF23
:1022A00004F0F70EDBCF05F0F80EDBCF06F0F90EE9
:1022B00038EC17F005E0170E006E7B0EBFEC1AF03D
:1022C000F7EC16F009E240EC18F003E018EC19F016
:1022D000FDE1CDEC17F006D04CEC18F003E03FEC3C
:1022E00017F0FDE1F7EC17F0110EEECFDBFF120E49
:1022F000EECFDBFF130EEECFDBFF140E63EC1AF014
:10230000F60FE96EFF0E13EC18F0190EDB6A1A0EC9
:10231000DB6A1B0EDB6A1C0EDB6AD950F20F5FEC26
:102320001AF002E6E0EC18F022E2ADEC17F00F0E26
:102330001F0B03E03FEC17F0FDE16AEC16F05CECDC
:1023400017F0ADEC17F00F0E1F0B03E03FEC17F08A
:10235000FDE17AEC1AF014E231EC18F003E03FEC06
:1023600017F0FDE16AEC16F083EC18F009D0ADEC43
:1023700017F070EC17F011EC19F0FDE1B0EC1AF069
:1023800070EC18F00CE2F5EC16F0E20E006E7A0E2E
:102390001BEC1AF002E2E16AE552AFEC18F0AEEC89
:1023A00016F008E10BEC1AF005E0B70E006E7A0E9D
:1023B000BFEC1AF0F7EC16F009E240EC18F003E07D
:1023C00018EC19F0FDE1CDEC17F006D04CEC18F04C
:1023D00003E03FEC17F0FDE1F7EC17F024EC1AF006
:1023E000180E63EC1AF0F20FE96EFF0E22EC18F0F3
:1023F0001D0EDB6A1E0EDB6A1F0EDB6A200EDB6A17
:10240000010EF36E100EF3CFDBFF06012751FDE046
:10241000100EDBCF34F6110EDBCF35F6120EDBCF0C
:1024200036F6130EDBCF37F6140EDBCF38F6150E6B
:10243000DBCF39F6160EDBCF3AF6170EDBCF3BF6C5
:10244000180EDBCF3CF6190EDBCF3DF61A0EDBCFB4
:102450003EF61B0EDBCF3FF61C0EDBCF40F61D0E0B
:10246000DBCF41F61E0EDBCF42F61F0EDBCF43F66D
:10247000200EDBCF44F6210EDBCF45F6220EDBCF5C
:1024800046F6230EDBCF47F6240EDBCF48F6250EAB
:10249000DBCF49F6260EDBCF4AF6270EDBCF4BF615
:1024A000280EDBCF4CF6290EDBCF4DF62A0EDBCF04
:1024B0004EF62B0EDBCF4FF62C0EDBCF50F62D0E4B
:1024C000DBCF51F62E0EDBCF52F62F0EDBCF53F6BD
:1024D000300EDBCF54F6310EDBCF55F6320EDBCFAC
:1024E00056F6330EDBCF57F6340EDBCF58F6350EEB
:1024F000DBCF59F6360EDBCF5AF6276B370EE15C91
:1025000002E2E16AE552E16EB1EF16F08AEC16F0F4
:10251000110EE12402E3E168E652E9EC18F091ECD7
:1025200016F0100EDB6A0601275102E1340502E0C5
:10253000000502E1010EDF6E340525E1346B090E62
:1025400045C6DBFF0A0E46C6DBFF0B0E47C6DBFFA8
:102550000C0E48C6DBFF0D0E49C6DBFF0E0E4AC649
:10256000DBFF0F0E4BC6DBFF100E4CC6DBFFB9ECDA
:1025700018F03D6B3E6B3F6B406B416B426B436BA6
:10258000446B010E276F000529E1006B010E11C697
:10259000DBFF020E12C6DBFF030E13C6DBFF040EC9
:1025A00014C6DBFF050E15C6DBFF060E16C6DBFFE5
:1025B000070E17C6DBFF080E18C6DBFF116B126B88
:1025C000136B146B156B166B176B186B096B0A6B1F
:1025D0000B6B0C6B0D6B0E6B0F6B106BD950050FEB
:1025E000B2DBD950010FAFDBD9500D0FACDBD950A6
:1025F000090FA9DBDFCFE6FFE66AA20E006E7A0EB6
:10260000A4DB036E150EE15C02E2E16AE552F6EC32
:1026100018F0110EE15C02E2E16AE552E16EA1D32D
:10262000D8C600F0016A00BE01682EEC19F09D0EBC
:10263000026E7A0EBAEC17F002E2E16AE552E16E40
:10264000055074EF21F017EC1AF0DE6ADD6A010E16
:10265000E66E8FEC1AF0030E29DB050100510FE145
:102660000601D80504E133EC19F0E66A04D033EC36
:1026700019F0010EE66EF2EC18F074EC21F0E55260
:10268000E5526FD317EC1AF050EC18F0040EFAEC88
:1026900018F0BEEC19F040EC1AF038EC19F0050116
:1026A00000512AE1030EDB50070803E2040EFAECA6
:1026B00018F0DF50010802E2010EDF6E030EDB505E
:1026C000030F0E01B65D0CE004EC18F002E2E16AC3
:1026D000E552E16E0050030EDB50030F0E01B66FA2
:1026E000010EDBCFE6FF020EDBCFE6FFDFCFE6FF1A
:1026F000F2EC18F074EC21F0050EE15C02E2E16A04
:10270000E552E16E2ED317EC1AF0E652E652FD0EBA
:10271000DB040BE1B0CEDEFFB1CEDDFF020EB2CEA8
:10272000DBFF030EB3CEDBFF0AD0AECEDEFFAFCEB3
:10273000DDFF020EB4CEDBFF030EB5CEDBFF4BDBBD
:10274000FB0EDBCFE6FFFC0EDBCFE6FF020EDBCF9E
:10275000E6FF030EDBCFE6FFB6CEE6FF33EC19F063
:1027600009EC45F0006E070EE15C02E2E16AE55219
:10277000E16E0050040EE15C02E2E16AE552E16EB6
:10278000F0D217EC1AF0E652BEDB45EC1AF021E16C
:102790000501005139E10601D75103E0020ED75D72
:1027A00012E1DF5000080DE2D75101E114DBDF0434
:1027B000020EDF5C030EDF5C040EDF5C050EDF5CE7
:1027C00008D0D75106D0D70504E1DF50000801E258
:1027D00002DBFFEC18F0010F15DB45EC1AF012E1FB
:1027E0000501005111E10601D75105E1010EDB5051
:1027F000000808E206D0D70505E1010EDB5000080D
:1028000001E2E9DA74EC21F0B6EC1AF0AAD2FE0E7D
:102810000601D95DFF0EDA59FF0EDB59FF0EDC59B8
:1028200005E2D92B000EDA23DB23DC2374EF21F041
:102830000601D951DA11DB11DC1105E0D907000ED0
:10284000DA5BDB5BDC5B74EF21F017EC1AF0E6522D
:10285000E652E65258DB070E29DA38EC19F0DB5065
:102860000BE1DFCFD9F6010EDBCFDAF6020EDBCFBC
:10287000DBF6030EDBCFDCF674EC21F0050EE15C39
:1028800002E2E16AE552E16E6CD2D9C6E6FFDAC631
:10289000E6FFDBC6E6FFDCC6E6FF940E006E7A0EAE
:1028A0001BEC1AF002E2E16AE552F6EF18F0E66A74
:1028B000DD0EE66E060EE66ED2EC1AF00501005152
:1028C00001E0120074EF21F0DDC600F0016A00BEE5
:1028D00001682EEC19F08D0E026E7A0E4BDB02E2CF
:1028E000E16AE552E16E055074EF21F0DEC600F0BA
:1028F000016A00BE01682EEC19F0870E026E7A0E96
:1029000039DB02E2E16AE552E16E05500601DE6B59
:1029100074EF21F09DBCFED716C1E6FF17C1E6FF9C
:1029200000C1E6FF01C1E6FF7B0E006E7A0E1BECD4
:102930001AF002E2E16AE552F6EF18F017EC1AF02D
:10294000AFDB030EDB6ABEEC19F038EC19F040EC9B
:102950001AF00501005101E080D0A8EC1AF0FF0E3A
:10296000D880EE54030EED5407E2010EDB68030E2F
:10297000F36E020EF3CFDBFFDF50010802E2010E1F
:10298000DF6E030EDB50010803E2010EFAEC18F0D3
:10299000DF0409E1040EDB50030805E10601E16BE9
:1029A000020EE26F06D0010EDBCFE1F6020EDBCFA6
:1029B000E2F6CAB415D0CB68FC0ECA140009CA6E80
:1029C0009D920F0152815293F00EBA140C09BA6E07
:1029D0003F0EBA140009BA6E0E010E0ECC6FCA84F7
:1029E000030EDB502AE1DF5023E0E1C600F0E2C62F
:1029F00001F0D89001320032D890013200320050FC
:102A0000BB6EE1C602F0E2C603F0040ED8900236B7
:102A10000336E804FBE1300E0216000E0316CF0E5B
:102A2000BA1400010210006E03C001F0E85003D098
:102A3000BB6ACF0EBA14BA6E0ED006012751FDE064
:102A4000E1C659F6E2C65AF629EC19F0DFCF58F67E
:102A5000040E346F276B74EC21F0050EE15C02E28A
:102A6000E16AE552E16E7DD1120054D92B0EE124CA
:102A700002E3E168E652ADDBF29E040E00C6DBFF26
:102A8000050E01C6DBFF060E02C6DBFF070E03C6FE
:102A9000DBFF080E04C6DBFF090E05C6DBFF0A0ECE
:102AA00006C6DBFF0B0E07C6DBFF0C0E08C6DBFFFE
:102AB0000D0E09C6DBFF0E0E0AC6DBFF0F0E0BC69E
:102AC000DBFF100E0CC6DBFF110E0DC6DBFF120E76
:102AD0000EC6DBFF130E0FC6DBFF140E10C6DBFFA6
:102AE000150E11C6DBFF160E12C6DBFF170E13C63E
:102AF000DBFF180E14C6DBFF190E15C6DBFF1A0E1E
:102B000016C6DBFF1B0E17C6DBFF1C0E18C6DBFF4D
:102B10001D0E19C6DBFF1E0E1AC6DBFF1F0E1BC6DD
:102B2000DBFF200E1CC6DBFF210E1DC6DBFF220EC5
:102B30001EC6DBFF230E1FC6DBFF240E20C6DBFFF5
:102B4000250E21C6DBFF260E22C6DBFF270E23C67D
:102B5000DBFF280E24C6DBFF290E25C6DBFF2A0E6D
:102B600026C6DBFFF28E1E0EDBCF00F01F0EDBCF82
:102B700001F0200EDBCF02F0210E20EC1AF002E073
:102B8000010EDF6E040EDB5002E0010EDF6E060167
:102B9000275103E1010EDF6E2DDBDF5010E0150E33
:102BA000DBCF00F0160EDBCF01F0170EDBCF02F00B
:102BB000180E20EC1AF003E0DE52010EDD6EDF503D
:102BC00012E0190EDBCF00F01A0EDBCF01F01B0E66
:102BD000DBCF02F01C0E20EC1AF005E0010EF36EC4
:102BE000020EF3CFDBFF030EDBCFE6FFE66A020E39
:102BF000DBCFE6FFE66A010EDBCFE6FFE66ADFCF5A
:102C0000E6FFE66A6A0E006E7A0E9FD8036E0B0E20
:102C1000E15C02E2E16AE552E16E03502B0EE15CF9
:102C200002E2E16AE552E16E9CD074D8080EE1241C
:102C300002E3E168E652E16EF29E28C6DFFF010E74
:102C400029C6DBFF020E2AC6DBFF030E2BC6DBFF05
:102C5000040E2CC6DBFF050E2DC6DBFF060E2EC6AE
:102C6000DBFF070E2FC6DBFFF28EC4EC1AF0600EFE
:102C7000006E7A0E6AD8036E0B0EE15C02E2E16A26
:102C8000E552B4DA080EE15C02E2E16AE552E16E77
:102C900068D0F29E0601286B296B2A6B2B6B2C6B7C
:102CA0002D6B2E6B2F6BF28E74EF21F0E66E0DEC18
:102CB00028F0B6EC1AF0E552120029DB1F0E3D6E2B
:102CC000050E3E6E3F6A406AF5DA4CEC4DF0CFDB04
:102CD000D9501200EFDA040EDBCF3DF0050EDBCF4A
:102CE0003EF0060EDBCF3FF0070E94EF1AF0DBCF7D
:102CF00003F0E0DADFCF3DF0010EDBCF3EF0020E55
:102D0000DBCF3FF0030E94EC1AF0D880190E385444
:102D10007FEF1AF08FEC1AF0E1CFD9FFE2CFDAFFA4
:102D20001200040EDB6A050EDB6A060EDB6A070E74
:102D3000DB6A080EDB6A090EDB6A0A0EDB6A0B0E21
:102D4000DB6A91EF19F099DA89D3016E026A00C04B
:102D5000E6FFE66E02C0E6FFEBEF4BF0D8DACDEF10
:102D60001AF0E552E5CFDAFFE7CFD9FF1200DBCF4B
:102D70003BF03D683E683F684068C2EF4CF0DBCFF7
:102D800007F004C038F005C039F006C03AF007C0BB
:102D90003BF052EC3AF01C0EDBCF3EF01D0EDBCFC9
:102DA0003FF01E0EDBCF40F01F0EDBCF41F0BEEC3C
:102DB0003AF072DB210E3E6EE60E3F6E5B0E406E09
:102DC000400E416EBEEC3AF0C2EF3BF06ADA00C052
:102DD00039F073EF1AF08C8E1EC51AF51FC51BF55E
:102DE00020C51CF521C51DF51200A2DB37D3D95033
:102DF000FA0FE96EFF0EDA20EA6ED8801E0EEE544E
:102E0000000E84D3E66E000EDA20E66E1200D88043
:102E1000FF0E3954FF0E3A54FF0E3B54000E3C5443
:102E200012002BDAEE50385CEE503958EE503A581A
:102E3000EE503B581200F60EDBCF00F0F70EDBCF62
:102E400001F0F80EDBCF02F0F90EDBCF03F0120039
:102E5000000EEE5C000EEE58000EEE58000EEE581E
:102E60001200DA20EA6ED890030EEB50000A12002E
:102E7000DBCF07F004500510061007101200D890A1
:102E80000036013602360336E8061200DBCF3CF08E
:102E90003C34000E3C181200FA0EDBCF00F0FB0EA3
:102EA000DBCF01F0FC0EDBCF02F0FD0EDBCF03F039
:102EB000FCDA00DAC2EF4CF038C0DEFF39C0DEFFCA
:102EC0003AC0DEFF3BC0DDFFDD52DD52120039C0EB
:102ED00004F03AC005F03BC006F03CC007F0120019
:102EE000E9D9FA0EDBCF3DF0FB0EDBCF3EF0FC0E56
:102EF000DBCF3FF0FD0E18DB0F0E1200D880FFDA9B
:102F0000000E3C541200E66A8FEF1AF0080E34C02F
:102F1000DBFF090E35C0DBFF0A0E36C0DBFF0B0EF0
:102F200037C0DBFF12000C0E34C0DBFF0D0E35C0C6
:102F3000DBFF0E0E36C0DBFF0F0E37C0DBFF1200CB
:102F4000140E34C0DBFF150E35C0DBFF160E36C085
:102F5000DBFF170E37C0DBFF1200F20EDBCF00F0F5
:102F6000F30EDBCF01F0F40EDBCF02F0F50EDBCF7A
:102F700003F01200036E046A02C0E6FFE66E04C0AE
:102F8000E6FFEBEC4BF0056E050EE15C1200EA6A21
:102F9000DF34FE0BEA36E96E1200D9500C0F6DD902
:102FA0000450EE24006E0550EE20016E0650EE2017
:102FB000026E0750EE20036E1200DE6ADE6ADD6AE2
:102FC000DD52DD52120059D90C0EEECFDBFF0D0E93
:102FD000EECFDBFF0E0EEECFDBFF0F0EEECFDBFFF3
:102FE00012004BD9140EEECFDBFF24EF1AF000C015
:102FF000DFFF010E01C0DBFF020E02C0DBFF030E8C
:1030000003C0DBFF98EF1AF0000EE66EE66AE66E8C
:10301000E66AB6CEE6FFE66EE66A09EC45F0006EBB
:10302000070EE15C1200DA20EA6E210EEECFDBFF24
:10303000220EEECFDBFF230EEECFDBFF240EEECF12
:10304000DBFF1200DA20EA6E250EEECFDBFF260E44
:10305000EECFDBFF270EEECFDBFF280EEECFDBFF40
:103060001200080EDBCF00F0090EDBCF01F00A0ED4
:10307000DBCF02F00B0EDBCF03F0100E1F0B1200A4
:1030800057DAEECF04F0EECF05F0EECF06F0EFCF3B
:1030900007F0100E1F0B12003AD9100E1F0B120072
:1030A000E652E652E652DF6A010EDB6A020EDB6A86
:1030B00012004EDAEE50ED101200040EDBCF3AF0A3
:1030C000050EDBCF3BF03BEF3AF032DAD880FF0E53
:1030D000EE54FF0EEE54FF0EEE54000EEE541200AE
:1030E00027DAD880000EEE54800E10D2180EDBCFF7
:1030F00000F0190EDBCF01F01A0EDBCF02F01B0E31
:10310000DBCF03F012000C0E38C0DBFF0D0E39C010
:10311000DBFF0E0E3AC0DBFF0F0E3BC0DBFF1200E1
:10312000DF50EA6A310FE96E0E0EEA221200040E39
:10313000DBCF00F0050EDBCF01F0120008C038F045
:1031400009C039F00AC03AF0120097D8A80ED8800A
:10315000EE54610EED5412009FD9140E1200E16E70
:103160000350DE6A800EDE6EDE6ADD6ADD52DD52FD
:103170001200456B466B476B486B496B4A6B4B6B58
:103180004C6B1200E5D9010EEE181200100EDB6A2E
:10319000110EDB6A120EDB6A130EDB6A120039C0F5
:1031A00008F03AC009F03BC00AF03CC00BF0120036
:1031B000060EDBCF3AF0070EDBCF3BF03BEF3AF0E9
:1031C000FF0EEE5CFF0EEE58010EEE58000EEE58AC
:1031D0001200E16EDF6A010EDB6A020EDB6A030E8B
:1031E000DB6A120083EC13F0B6EF1AF0E16E0350C5
:1031F00074EF21F0F36E030EF3CFDBFF1200010E2C
:10320000E66ED9501200F36E010EF3CFDBFF020E13
:10321000DB6A1200010EDBCFB2FE020EDBCFB3FE83
:103220001200D890383639363A363B36E806120066
:10323000D8900436053606360736E80612001A51CD
:103240001B111C111D111200010EE9260E0EEA229F
:1032500012004E6B4F6B506B516B120000C0E6FFBB
:1032600001C0E6FF1200DECFE6FFDDCFE6FF120071
:10327000E76E040EE7CFDBFF1200E96E000EDA20E6
:10328000EA6E1200BFDD060E56EF16F00C0EDBCF15
:1032900004F00D0EDBCF05F00E0EDBCF06F00F0EA7
:1032A000120039C03EF03AC03FF03BC040F03CC095
:1032B00041F0120000C038F001C039F002C03AF00D
:1032C00003C03BF01200080EDBCF38F0090EDBCF55
:1032D00039F00A0EDBCF3AF00B0EB7EF16F0080EFE
:1032E000DBCF39F0090EDBCF3AF00A0EDBCF3BF033
:1032F0000B0E46EF17F00C0EDBCF39F00D0EDBCFC7
:103300003AF00E0EDBCF3BF00F0E46EF17F010D960
:10331000EECF00F0EECF01F0EECF02F0EFCF03F0F2
:1033200012000C0EDB6A0D0EDB6A0E0EDB6A0F0E4E
:10333000DB6A1200070EBADCE66AD9501200DBCF56
:103340000BF0FCDE0BC03BF052EC3AF0C0DD3EDD92
:10335000BEEC3AF0C2EF3BF0D950080FF4DC14D9C0
:103360008AEC10F0006E0C0EE15C1200E16EDE6A79
:1033700024DE91EF16F0E9DCB6EF1AF0C4DD12D9C5
:103380003EDFBAEF1AF0040EDBCF39F0050EDBCFCB
:103390003AF0060EDBCF3BF0070E46EF17F0040EB7
:1033A000DBCF38F0050EDBCF39F0060EDBCF3AF07D
:1033B000070EB7EF16F00C0EDBCF00F00D0EDBCFD3
:1033C00001F00E0EDBCF02F00F0E77EF16F0140EA9
:1033D000DBCF39F0150EDBCF3AF0160EDBCF3BF02A
:1033E000170E46EF17F0140EDBCF00F0150EDBCFF3
:1033F00001F0160EDBCF02F0170E77EF16F0140E69
:10340000DBCF04F0150EDBCF05F0160EDBCF06F098
:10341000170E38EF17F0F20EDBCF04F0F30EDBCF10
:1034200005F0F40EDBCF06F0F50E38EF17F072DC86
:10343000E652E652120089DC036E070EE15C1200D0
:10344000DBCF03F0CDEF1AF0150EEECFDBFF160E3B
:10345000EECFDBFF170EEECFDBFF1200EECFE6FF65
:10346000EECFE6FFEECFE6FFEFCFE6FF120038C06B
:1034700000F039C001F03AC002F03BC003F0120086
:10348000BEDE030FBFDCD2EF1AF08CD8E76E020E5F
:10349000E7CFDBFFDB50120039C000F03AC001F08B
:1034A0003BC002F03CC003F01200190E3D6E3E6AB4
:1034B0003F6A406A1200E96E000E31EF17F0E96EC4
:1034C000FF0E31EF17F0EECFDBFFD95012005FDDBA
:1034D000790EE9260E0EEA22120059DD490EE92680
:1034E0000E0EEA22120001C03AF002C03BF003C007
:1034F0003CF012006AEC16F009DDF7EF16F0000E52
:103500003954000E3A54000E3B541200EE54000E93
:10351000EE54000EEE5412003ADD24EF19F0D9CF2C
:10352000E6FFDACFE6FF1200DBCF40F04CEF4DF0C4
:10353000D9CFE9FFDACFEAFF1200140EDB6A150ECD
:10354000DB6A160EDB6A170EDB6ADDDC9AEF19F018
:10355000D950010F3DEF19F095DEE66AD9501200FF
:10356000A4DF4CEC4DF0A8DC91EF19F0E552E552E8
:10357000E5521200010F46DC030E56EF16F0FBDE9B
:10358000010EDE6EDDEF17F0D950040FA3EC16F03C
:10359000F5EF16F037DC9AEF19F000500110021029
:0A35A00003101200010E56EF16F0A2
:0635AA00D8CFE4FFE0CFE2
:1035B000E4FFE46EE9CFE4FFEACFE4FFF3CFE4FFFA
:1035C000F4CFE4FFE6521DEC2DF0E652E6EC2BF0D2
:1035D000A4A656D1A4960E01002B0E01AB510E01EC
:1035E000005D01E27BD0006B79907B6A7A6A0E0104
:1035F000A92B0E01AA510E01A95D01E3A96B48ECAC
:103600002CF0EA22EE50ED1069E034EC2DF0D5EC10
:103610002CF002E14B50491847E055EC2CF0EA221F
:10362000EE50ED103AE095EC2CF061EC2BF048EC0C
:103630002CF0EA22EE504A5C486EEE504B58496E30
:10364000020E48C0DBFF030E49C0DBFFDFEC2BF0AE
:10365000493412E248500008000E49540DE2DFECF4
:103660002BF055EC2CF0A6EC2CF017E217EC2DF01B
:10367000EE264950ED2218D0DFEC2BF0486C491EA5
:10368000000E492255EC2CF0A6EC2CF006E217ECCB
:103690002DF0EE5E4950ED5A07D034EC2DF0EA22C1
:1036A00048C0EEFF49C0EDFFF29E48EC2CF029EC3B
:1036B0002BF049C048F0496A4850B66E48EC2CF0EF
:1036C00029EC2BF04850B56EF00EB4140009B46E1E
:1036D000F00EB4140909B46E7980F28E04017C51A5
:1036E0007D110BE0050E7B5D07E3C18C9E9C9D8CDC
:1036F000C280C2827B6B01D07B2B0501015101E1AD
:10370000AAD0DE6ADD6ADECF48F0DDCF49F0040ED4
:10371000485C000E495801E39ED017EC2BF0010ED7
:1037200067EC2BF0FDE1020EE926050EEA22EE50D1
:10373000ED1075E017EC2BF0010E67EC2BF0FDE1BE
:10374000D9EC2CF0EE50ED1016E1DEEC2CF001E19E
:103750008180E2EC2CF003E1ED5001E18182E6ECA6
:103760002CF003E1ED5001E18184EAEC2CF003E15F
:10377000ED5001E1818617EC2BF0010E67EC2BF088
:10378000FDE18EEC2CF067EC2BF0FDE1020EE9265A
:10379000050ED5EC2CF019E14B50491816E1DEEC82
:1037A0002CF001E18190E2EC2CF003E1ED5001E11D
:1037B0008192E6EC2CF003E1ED5001E18194EAEC1A
:1037C0002CF003E1ED5001E1819617EC2BF0010E96
:1037D00067EC2BF0FDE1D9EC2CF0EE2A000EEF2285
:1037E00017EC2BF0010E67EC2BF0FDE18EEC2CF0CA
:1037F00067EC2BF0FDE10A0EE926050ED5EC2CF066
:1038000024E14B50491821E117EC2BF0010E67EC35
:103810002BF0FDE1D9EC2CF0EE6AED6A16D0DEEC6F
:103820002CF001E18190E2EC2CF003E1ED5001E19C
:103830008192E6EC2CF003E1ED5001E18194EAEC99
:103840002CF003E1ED5001E18196DF2A010E01E247
:103850005AD7DB2A58D70601E05101E0E0070501FD
:103860001A511B111C111D110BE01A07000E1B5BD6
:103870001C5B1D5B1A511B111C111D1101E18C9E5B
:103880009EAC3DD09E9CC1AC07D0C19C010E0401F2
:103890007E6F7F6B7A6B18D0C4504A6E4B6E4A6A4B
:1038A000C35000014A10486E4BC049F004017A51E0
:1038B000E96EEA6ABDEC2BF048C0EEFF49C0EDFFAF
:1038C000D8907E377F377A2B100E7A5D0EE27E51CC
:1038D0007C15486E7F517D15496E4850491005E1B1
:1038E0007A2BD8907E377F37EFD7100E7A5D02E3C0
:1038F0009D9C05D07A51040DF328C26EC282040E3D
:10390000E15C02E2E16AE552E16EE552E5CFDAFF01
:10391000E7CFD9FFE552E5CFF4FFE5CFF3FFE5CFE1
:10392000EAFFE5CFE9FFE550E5CFE0FFE5CFD8FFBF
:10393000100068EC2CF0A8EC2BF0896A9268040166
:103940007C6B7D6B8A6A93688B6A94688C968B9C7F
:103950009596949C948E010EA16F0101FE69FF69FA
:1039600004017A6B76827680769C769A7688769653
:10397000FA0E776EDE6ADD6A78EC2BF004E6100E44
:10398000005C000E01580BE217EC2BF0BDEC2BF0A5
:10399000EE6AED6ADF2A010EEFE3DB2AEDD70401C0
:1039A0009B6B9C6B996B9A6BDE6ADD6A78EC2BF0F3
:1039B00004E6400E005C000E01580CE217EC2BF000
:1039C000000EE926020EEA22EF6ADF2A010EEEE37C
:1039D000DB2AECD7DE6ADD6A78EC2BF004E6400ED9
:1039E000005C000E01580CE217EC2BF0400EE926AB
:1039F000020EEA22EF6ADF2A010EEEE3DB2AECD7A1
:103A0000DE6ADD6A78EC2BF004E6000E005C010E45
:103A100001580AE217EC2BF003EC2CF0EF6ADF2AD6
:103A2000010EF0E3DB2AEED704019D6B9E6B9F6BCA
:103A3000A06B0F01498FBE0EC16ED08E7694A38607
:103A4000A59675EC09F03CEC44F0F28EF28C76848D
:103A5000D9EC26F004EC46F0040EE15C02E2E16AE7
:103A6000E552E16EEDEF2AF068EC2CF0E652A8EC9E
:103A70002BF0E6EC2BF0040EDB6A11EC2AF0200EA2
:103A80000101E76EC819E8AE02D0E73402D0E75072
:103A9000C85D01E23CD16550020B01E038D1400E17
:103AA000E66E400EE66E020EE66ED3EC42F013ECCC
:103AB0002DF0E76E030EE7CFDBFFDB50000801E3DC
:103AC000E9D0040EDB6A030EDB50F36E040E5CECEF
:103AD0002BF001E3DFD0040EDB50EA6A400FE96E01
:103AE000020EEA22EFCFDFFF0501665134E10D0E31
:103AF00046EC2BF005E00A0E016EDF50015C2BE175
:103B0000010E666F04017FEC2BF00D0EEF6E9B2B08
:103B1000010EDB6A9B51F36E010E5CEC2BF016E29A
:103B200008EC2CF0E9BEEA6803EC2CF0EF50E66EEE
:103B300008EC2CF0E9BEEA68220EE926050EEA221E
:103B4000E552E750EF6E010EDB2AE4D73ED90401BF
:103B50009B6B9C6B8DD01B0EDF5C09E1625107E112
:103B6000010E626F1B0E636F646B656B81D0620523
:103B70000BE15B0EDF5C08E11B0E635D05E1645148
:103B800003E15B0E646F74D062054AE1410EDF5CB5
:103B900047E11B0E635D44E15B0E645D41E1636BD5
:103BA000646B656B626B010EDB6ADBCFE9FFEA6A6F
:103BB000E9BEEA6803EC2CF0EF500D0816E008ECC3
:103BC0002CF0E9BEEA68220EE926050EEA22EF5043
:103BD000E66E08EC2CF0E9BEEA6803EC2CF0E55246
:103BE000E750EF6E010EDB2AE0D7010EDBCF9BF42E
:103BF00004017FEC2BF0EF6A1E0E006E800E3EEC8F
:103C00002CF0000EE66E030EE66E1B0E006E800EAC
:103C100045EC2CF002E2E16AE552E16E035028D057
:103C2000080EDF5C0EE104019B5100080AE29B07CD
:103C30007FEC2BF0EF6A180E006E800E3EEC2CF03D
:103C400017D00D0EDF5C14E00A0EDF5C11E0200ED1
:103C5000DF5C0EE30501636B646B656B626B0401F3
:103C60007FEC2BF0DFCFEFFF0501666B04019B2B90
:103C700004019B51006E016A000E001808E1010E5C
:103C8000011805E10501008704019B6B9C6B040E84
:103C9000DB2A19D70501005139E000A105D0120E29
:103CA000006E800E3EEC2CF0050100A305D0F30E53
:103CB000006E7F0E3EEC2CF0050100A505D0D70E5E
:103CC000006E7F0E3EEC2CF0050100A705D0BB0E68
:103CD000006E7F0E3EEC2CF0050100A905D09C0E75
:103CE000006E7F0E3EEC2CF0050100AD05D07B0E82
:103CF000006E7F0E3EEC2CF0050100AF05D0620E89
:103D0000006E7F0E3EEC2CF00501006B38D8050EDE
:103D1000E15C02E2E16AE552E16EEDEF2AF068EC67
:103D20002CF099C4DFFFDF2A400E46EC2BF001E1B6
:103D3000DF6A04019A51DF5C01E121D80401995145
:103D4000EA6A000FE96E020EEA22FD0EDBCFEFFFFA
:103D5000992B400E995D01E1996B9A51995D02E1B1
:103D600005010085FD0EDBCF00F0016A00BE016891
:103D700000C0F3FF01C0F4FFE552EDEF2AF068EC5C
:103D80002CF0040199519A5D1DE00101B05105E04C
:103D90005DEC43F0C2EC2DF0F8D704019A51D880C5
:103DA000995507E29A51995D4AEC2BF099C49AF41F
:103DB00007D0400ED8809A554AEC2BF004019A6B3C
:103DC0005DEC43F0E552EDEF2AF068EC2CF0A8EC46
:103DD0002BF0DE6ADD6AE6EC2BF00401F3EC2AF04E
:103DE00018EC2CF0020EF3CFDBFF040109EC2BF0F2
:103DF00004E1010E011801E19C6B020EDB50DE6E46
:103E0000DD6AF3EC2AF02C0824E0F3EC2AF00D082C
:103E100020E0F3EC2AF018EC2CF0030EF3CFDBFFDC
:103E2000040109EC2BF004E1010E011801E19C6B87
:103E3000020EDBCF02F002C003F0026A030EDB5079
:103E400000010224006E000E0320016E00C0DEFFA0
:103E5000DD6E000EDFCF3AF0010EDBCF3BF0530EEC
:103E60003A1802E1540E3B1801E10DD2520E3A18F5
:103E700002E1530E3B1801E103D2520E3A1802E15F
:103E8000510E3B1801E1F9D1420E3A1802E1520EEF
:103E90003B1801E1EFD1540E3A1802E1510E3B18E4
:103EA00001E1E5D1540E3A1802E1530E3B1801E14D
:103EB000DBD1530E3A1802E1430E3B1801E1D1D198
:103EC000530E3A1802E1510E3B1801E1C7D14D0ED5
:103ED0003A1802E1580E3B1801E1BDD1530E3A18D1
:103EE00002E1450E3B1801E1B3D1430E3A1802E15D
:103EF000410E3B1801E1AAD14D0E3A1802E1510ED4
:103F00003B1801E1A0D14D0E3A1802E1520E3B18C8
:103F100001E196D1320E3A1802E1530E3B1801E14D
:103F20008CD1450E3A1802E1530E3B1801E182D1C3
:103F3000430E3A1802E1510E3B1801E178D14B0EC5
:103F40003A1802E1430E3B1801E16ED14C0E3A18CB
:103F500002E1420E3B1801E164D1440E3A1802E13D
:103F60004E0E3B1801E15AD1490E3A1802E14E0EAD
:103F70003B1801E150D1420E3A1802E1510E3B18B4
:103F800001E146D14C0E3A1802E1510E3B1801E115
:103F90003CD14C0E3A1802E1530E3B1801E132D1EC
:103FA0004E0E3A1802E1510E3B1801E128D14E0E97
:103FB0003A1802E1530E3B1801E11ED1430E3A18A4
:103FC00002E1530E3B1801E114D14D0E3A1802E103
:103FD000450E3B1801E10AD1500E3A1802E1510E8C
:103FE0003B1801E100D1500E3A1802E1540E3B1883
:103FF00001E1F6D0500E3A1802E1530E3B1801E1F0
:10400000ECD04D0E3A1802E1410E3B1801E1E2D02E
:104010004D0E3A1802E1530E3B1801E1D8D0470E7D
:104020003A1802E1500E3B1801E1CED0430E3A1887
:1040300002E1500E3B1801E1C4D0490E3A1802E1EA
:10404000430E3B1801E1BAD0490E3A1802E1520E74
:104050003B1801E1B0D0490E3A1802E1530E3B186B
:1040600001E1A6D0530E3A1802E1520E3B1801E1CD
:104070009CD0530E3A1802E1530E3B1801E192D046
:10408000570E3A1802E14D0E3B1801E189D0520E4D
:104090003A1802E14D0E3B1801E180D0440E3A1867
:1040A00002E1500E3B1801E177D04F0E3A1802E1C1
:1040B000500E3B186FE0490E3A1802E1500E3B18C3
:1040C00067E0580E3A1802E1540E3B185EE0410ECC
:1040D0003A1801E13B5057E0560E3A1801E13B50C7
:1040E00050E0490E3A1801E13B5049E04F0E3A18B2
:1040F00001E13B5042E0550E3A1802E1430E3B18F5
:104100003AE0580E3A1802E1430E3B1831E0430EF4
:104110003A1801E13B502AE0520E3A1801E13B50B7
:1041200023E0580E3A1802E1520E3B181AE04D0EE9
:104130003A1802E14C0E3B1811E0030EDB5001E08F
:10414000A5D0020ED0EC2BF0D0EC2BF03F0E006E81
:104150007F0E71EC2CF001E3A8D0A5D094EC0DF00B
:10416000A6D0DDEC24F0A3D0C8D8A1D003D99FD02D
:10417000DFEC24F09CD0C5D89AD0A3D998D0D2D95E
:1041800096D0EDD994D0F0D992D0DBEC24F08FD03A
:1041900012DB8DD07BDB8BD079DA89D05ADA87D0ED
:1041A00044DA85D0E1EC24F082D0E3EC24F07FD037
:1041B000E5EC24F07CD0E7EC24F079D0E9EC24F0B5
:1041C00076D0EBEC24F073D04BEC25F070D01CECE7
:1041D0000FF06DD0E6EC0AF06AD042EC13F067D035
:1041E00023EC13F064D010EC13F061D0C1EC13F0A9
:1041F0005ED034EC0AF05BD025EC14F058D045ECDE
:1042000014F055D057EC14F052D064EC14F04FD0A9
:1042100076EC14F04CD007EC14F049D018EC14F004
:1042200046D07EEC25F043D0D5EC25F040D08AEC8A
:1042300014F03DD09EEC14F03AD0B4EC44F037D0FA
:1042400034EC15F034D035EC15F031D028D92FD01E
:1042500086EC12F02CD0B7EC0FF029D015EC16F04C
:1042600026D049EC16F023D042EC27F020D088EC81
:1042700027F01DD086EC25F01AD08DEC25F017D054
:104280009FEC25F014D0B0EC46F011D0ACEC2CF043
:10429000ACEC2CF0170E006E7F0EDBEC2AF0036EF8
:1042A0000B0EE15C02E2E16AE552E16E03500401AB
:1042B000F3EC2AF00D080EE0050100510BE1520E5F
:1042C000006E016ADF50001803E1DE52DD50011874
:1042D00001E0008F9BC49CF4040EE15C02E2E16A01
:1042E000E552E16EEDEF2AF00401A15105E00C0E5C
:1042F000006E9B0E3EEC2CF0120099EC1CF074EF5B
:1043000021F04DEC2CF0010E45EC2DF0010FFCECF2
:104310002AF0020E3EEC2DF02BE1DF0412E1B1ECAD
:104320002CF00AE0010E006E016ADB50001808E173
:10433000020EDB50011804E1010EDBCFA1F401D025
:10434000008D020E46EC2BF012E1B1EC2CF00AE0ED
:10435000010E006E016ADB50001808E1020EDB500E
:10436000011804E1010EDBCFBFFE01D0008DBCDFE0
:104370005AEF2CF068EC2CF0E652A8EC2BF006EC8F
:104380002BF0010EFFEC2CF0E66AD950030F41EC44
:104390002CF0E66AD950040F54EC2DF00FE1DF50F9
:1043A000926E010EDB50936E020EDB50946E030E84
:1043B000DB50956E040EDB50966E96DF050EE15CC9
:1043C00002E2E16AE552E16EEDEF2AF0E7EC2AF055
:1043D000FD0EDB50100805E2100EF36EFD0EF3CF5C
:1043E000DBFFFC0EDB502BE0FD0EDB50C7EC4DF08D
:1043F000F35004017C13F4507D13080EF36EFD0E90
:104400005CEC2BF00DE2010EF36EFD0EDB5003E0D1
:104410001CEC2BF0FDE1F350F31C0F0148173DD0CD
:10442000FD0EDB500C0839E31FEC2CF004E0E846ED
:10443000FE0B0006FCE1E81C0F0149172ED0FD0E13
:10444000DB50C7EC4DF0F3CF00F0F4CF01F0001ECD
:10445000011E005004017C1701507D17080EF36EF9
:10446000FD0E5CEC2BF00CE2010EF36EFD0EDB504A
:1044700003E01CEC2BF0FDE1F3500F0148130DD0CD
:10448000FD0EDB500C0809E31FEC2CF004E0E846BD
:10449000FE0B0006FCE10F014913EDEF2AF04FEC93
:1044A0002DF007EC2DF009E1010EDBCFE6FFDFCFA9
:1044B000E6FF8CDFE552E55217DFE552E552EDEFFE
:1044C0002AF04FEC2DF0E4EC2AF058EC2BF026E12A
:1044D000010EDB5002E1DF50896E50EC2CF01EE142
:1044E000010EDB5002E1DF508A6E50EC2CF016E139
:1044F000010EDB5002E1DF508B6E50EC2CF00EE130
:10450000010EDB5002E1DF508C6E50EC2CF006E126
:10451000010EDB5002E1DF508D6EE6DEE552E55222
:10452000EDEF2AF08450E66EE66A8350E66EE66AA6
:104530008250E66EE66A8150E66EE66A8050E66E6C
:10454000E66AFA0E006E7E0EDBEC2AF0036E0D0EAC
:10455000E15C02E2E16AE552E16E03501200140EE2
:10456000006E9B0E3EEF2CF01DEC2DF0DF6A010E6D
:10457000F36EDB6E020EDB6AF80E006E7E0E3EEC12
:104580002CF09DBCFED7DF6ADFCF00F0100EE76E87
:104590000018E8AE02D0E73402D0E750005C3EE2FB
:1045A000010EDB5004017C150001006E020EDB5091
:1045B00004017D150001016E005001101EE0DFCFE7
:1045C000E9FFEA6AE9BEEA68BDEC2BF0EECFE6FF50
:1045D000EFCFE6FFDFCF00F0016A00BE0168EEEC2E
:1045E0002CF0ED0E026E7E0ED4EC2BF0070EE15C8B
:1045F00002E2E16AE552E16E0550010EDBCF00F008
:10460000020EDBCF01F0D89000360136010E00C05B
:10461000DBFF020E01C0DBFFDF2AB6D7110E006EF2
:104620009B0E3EEC2CF05AEF2CF04DEC2CF0030ED0
:1046300045EC2DF0020F54EC2DF009E1EBEC2BF0E2
:1046400005E217EC2BF0020EDBCFEFFF4DDE5AEF49
:104650002CF04DEC2CF0030E3EEC2DF015E1EBECC4
:104660002BF005E217EC2BF0020EEFCFDBFF020E72
:10467000D0EC2BF0E30E006E7E0E45EC2CF002E247
:10468000E16AE552E16E03505AEF2CF049EC2DF04F
:1046900001E08FD0020EDB50010801E287D0010E4D
:1046A000DB50070801E282D0410E46EC2BF016E108
:1046B000020EDB500AE120EC2BF003E01CEC2BF0A7
:1046C000FDE1F350F31C921673D020EC2BF003E0C5
:1046D0001CEC2BF0FDE1F35092126AD0420E46EC36
:1046E0002BF016E1020EDB500AE120EC2BF003E088
:1046F0001CEC2BF0FDE1F350F31C931659D020EC89
:104700002BF003E01CEC2BF0FDE1F350931250D0A2
:10471000430E46EC2BF016E1020EDB500AE120ECD2
:104720002BF003E01CEC2BF0FDE1F350F31C94168E
:104730003FD020EC2BF003E01CEC2BF0FDE1F3501C
:10474000941236D0440E46EC2BF016E1020EDB50EC
:104750000AE120EC2BF003E01CEC2BF0FDE1F35020
:10476000F31C951625D020EC2BF003E01CEC2BF06D
:10477000FDE1F35095121CD0450E46EC2BF016E1EE
:10478000020EDB500AE120EC2BF003E01CEC2BF0D6
:10479000FDE1F350F31C96160BD020EC2BF003E058
:1047A0001CEC2BF0FDE1F350961202D0008D01D0ED
:1047B0009BDD5AEF2CF01DEC2DF0020EDB6A06ECAF
:1047C0002BF0050E07EC2DF05FE1010EDB50070822
:1047D00047E3410E46EC2BF009E120EC2BF003E01F
:1047E0001CEC2BF0FDE1F350801433D0420E46EC6C
:1047F0002BF009E120EC2BF003E01CEC2BF0FDE1A9
:10480000F350811426D0430E46EC2BF009E120EC46
:104810002BF003E01CEC2BF0FDE1F350821419D0D7
:10482000440E46EC2BF009E120EC2BF003E01CECED
:104830002BF0FDE1F35083140CD0450E46EC2BF029
:104840000FE120EC2BF003E01CEC2BF0FDE1F3502A
:104850008414E76E020EE7CFDBFFDB5008E002D0E6
:10486000008D12D0010EF36E020EF3CFDBFF020EAD
:10487000D0EC2BF0DA0E006E7E0E45EC2CF002E24E
:10488000E16AE552E16E03505AEF2CF049EC2DF04D
:1048900001E08FD0020EDB50010801E287D0010E4B
:1048A000DB50070801E282D0410E46EC2BF016E106
:1048B000020EDB500AE120EC2BF003E01CEC2BF0A5
:1048C000FDE1F350F31C891673D020EC2BF003E0CC
:1048D0001CEC2BF0FDE1F35089126AD0420E46EC3D
:1048E0002BF016E1020EDB500AE120EC2BF003E086
:1048F0001CEC2BF0FDE1F350F31C8A1659D020EC90
:104900002BF003E01CEC2BF0FDE1F3508A1250D0A9
:10491000430E46EC2BF016E1020EDB500AE120ECD0
:104920002BF003E01CEC2BF0FDE1F350F31C8B1695
:104930003FD020EC2BF003E01CEC2BF0FDE1F3501A
:104940008B1236D0440E46EC2BF016E1020EDB50F3
:104950000AE120EC2BF003E01CEC2BF0FDE1F3501E
:10496000F31C8C1625D020EC2BF003E01CEC2BF074
:10497000FDE1F3508C121CD0450E46EC2BF016E1F5
:10498000020EDB500AE120EC2BF003E01CEC2BF0D4
:10499000FDE1F350F31C8D160BD020EC2BF003E05F
:1049A0001CEC2BF0FDE1F3508D1202D0008D01D0F4
:1049B0009BDC5AEF2CF074EF21F074EF21F074EFD0
:1049C00021F074EF21F074EF21F074EF21F074EF17
:1049D00021F074EF21F0E7EC2AF0070EE12402E366
:1049E000E168E652E16E06EC2BF0030E45EC2DF08B
:1049F00080EC2CF00501005146E1DECF02F5DDCF61
:104A000003F5020EDBCF0AF5030EDBCF0BF5040E28
:104A1000DB6A030EF36E040E5CEC2BF033E2010E46
:104A20002FEC2BF0030EE4EC2AF0E76E050EE7CF37
:104A3000DBFF010EE66ED95080EC2CF0E76E060E1F
:104A4000F3EC2CF020E1050EDB501CE1060EDB50F0
:104A500019E112EC2CF0020EE926050EEA22DECF57
:104A6000EEFFDDCFEDFF12EC2CF00A0EE926050E6D
:104A7000EA22020EDBCFEEFF030EDBCFEDFF040ECA
:104A8000DB2AC7D731DC070EE15C02E2E16AE552BE
:104A9000E16EEDEF2AF068EC2CF006EC2BF0010E45
:104AA0003EEC2DF00AE1DF5006E0F00E9314936E19
:104AB000010E016F01D0016B17DCE552EDEF2AF01A
:104AC000D9CFE6FFDACFE6FFE1CFD9FFE2CFDAFFB9
:104AD000E652DF6AFF0EDF5C0AE2E868E85005E0B4
:104AE000E80600D000D000D0F9D7DF2AF3D7E5528E
:104AF000E552E5CFDAFFE7CFD9FF1200F29EF29C34
:104B00006592656ADDDF0FEF00F01200F29EF29C05
:104B10006592656AD5DFFF0012008350800B01E0CB
:104B2000010EE66EE66AD40E006E7E0E45EC2CF0A9
:104B300002E2E16AE552E16E035074EF21F0E7EC26
:104B40002AF0060EE12402E3E168E652E16E06EC8B
:104B50002BF0070EE4EC2AF0010EE66ED950040F9C
:104B600041EC2CF0E76E050EF3EC2CF016E1DFCFF4
:104B70001EF5010EDBCF1FF5020EDBCF20F5030E75
:104B8000DBCF21F5050EDB5006E1040EDB5002E021
:104B90008C8E01D08C9E74EC21F0060EE15C02E25A
:104BA000E16AE552E16EEDEF2AF0E7EC2AF0140E2F
:104BB000E12402E3E168E652E16EDF6A010EDB6A9E
:104BC000E6EC2BF0040EDB6A050EDB6A060EDB6AF0
:104BD000070EDB6A080EDB6A090EDB6A0A0EDB6A67
:104BE0000B0EDB6A0C0EDB6A0D0EDB6A300EF36E09
:104BF0000E0EF3CFDBFF300EF36E0F0EF3CFDBFFA5
:104C0000100EDB6A110EDB6A120EDB6A130EDB6A12
:104C1000E66AD950010FFCEC2AF0E66AB7EC2CF0FA
:104C2000000901E0BED0010EDBCF00F0016A00BE3A
:104C30000168EEEC2CF0C80E026E7E0ED4EC2BF068
:104C4000050EE15C02E2E16AE552E16E055006EC18
:104C50002BF0010E20EC2DF001E0A3D0DFCFE6FF1A
:104C6000E66ABC0E006E7E0E45EC2CF002E2E16AB4
:104C7000E55290EC2BF0040FFCEC2AF0020E20EC35
:104C80002DF001E08ED0040EDBCFE6FF050EDBCF6A
:104C9000E6FFB00E006E7E0E45EC2CF002E2E16AFB
:104CA000E55290EC2BF080EC2CF0000901E079D07B
:104CB000020EDBCFE6FF030EDBCFE6FFA40E006E95
:104CC0007E0E45EC2CF002E2E16AE55290EC2BF00E
:104CD0000A0FFCEC2AF0060E20EC2DF062E1D95010
:104CE0000A0FF8EC2CF0970E006E7E0E71EC2CF093
:104CF00002E2E16AE55290EC2BF0060FFCEC2AF0A0
:104D0000070E20EC2DF04DE1D950060FF8EC2CF0F9
:104D10008A0E006E7E0E71EC2CF002E2E16AE55222
:104D200090EC2BF00E0FFCEC2AF0040E20EC2DF092
:104D300038E10E0ED0EC2BF07E0E006E7E0E45ECB0
:104D40002CF002E2E16AE55290EC2BF00F0FFCEC44
:104D50002AF0050E20EC2DF024E10F0ED0EC2BF004
:104D6000720E006E7E0E45EC2CF002E2E16AE55216
:104D700090EC2BF0100FFCEC2AF0080E20EC2DF03C
:104D800010E1D950100FF8EC2CF0650E006E7E0E7D
:104D900071EC2CF002E2E16AE552E16E035074EC32
:104DA00021F0140EE15C02E2E16AE552E16EEDEF02
:104DB0002AF0E7EC2AF0120EE12402E3E168E65261
:104DC000E16E110EDB6AF36EDBCFF4FFE850F45CAA
:104DD00003E26BEC2CF0F7D79FEC2CF002E2E16AD7
:104DE000E552E16E0050110EDB6A100EF36E110EEB
:104DF0005CEC2BF02EE29AEC2CF0EF50006E016A86
:104E0000013404E200508008000E015422E39AECC1
:104E10002CF0EFCF04F0200E045C1BE39AEC2CF096
:104E2000EF50E66E180E0201016AFA25006EFB5182
:104E30009AEC2BF0DB50D92424EC2BF0EF50E66EEB
:104E4000020E016AFC25006EFD519AEC2BF0DB2A64
:104E5000CCD7110EDB50E824180FFAC2E9FFFBC2D1
:104E6000EAFFEF6E110EDB50E824020FFCC2E9FFEF
:104E7000FDC2EAFFEF6E120EE15C02E2E16AE5526A
:104E8000E16EABD3A4DB130EE12402E3E168E6524A
:104E9000E16E110EDB6A120EDB6A110EF36E120E5A
:104EA0005CEC2BF008E234EC2CF0120E38EC2DF018
:104EB000120EDB2AF2D7100ED2DB6CD813EC2DF0D9
:104EC000E76E110EE7CFDBFFE668FB0EE66EE66AE3
:104ED000BCEC2CF0D3EC4AF0006E080EE15C02E270
:104EE000E16AE552E16E0050BDDB89EC47F0006EEF
:104EF000080EE15C02E2E16AE552E16E005074ECFA
:104F000021F0130EE15C02E2E16AE552E16E65D345
:104F10005EDB120EE12402E3E168E652E16E110E5F
:104F2000DB6AF36EDBCFF4FFE850F45C03E26BEC7A
:104F30002CF0F7D79FEC2CF002E2E16AE552E16E2B
:104F40000050DF50006E016AD890015004E6800ED8
:104F5000005C000E015803E2200EDF5C06E22A0E20
:104F6000006E800E3EEC2CF00CD085EC2CF0600E28
:104F7000006E7E0E45EC2CF002E2E16AE552E16E35
:104F8000035074EC21F0120EE15C02E2E16AE5529A
:104F9000E16E23D368EC2CF0DF6A42DBEF6AC3ECEE
:104FA0002CF003E1050100890CD01DDB2C080BE07F
:104FB0000BEC2DF002E2E16AE552E16E03500501CF
:104FC000008B000E28D025DB04E1010E011801E161
:104FD0009C6B0D0EFBEC2CF009E02C0E016E03DB3C
:104FE000015C04E0FB0EDB50DF5C02E3DF5013D01A
:104FF000FADAE66E15DBE552E750EF6E0ADB04E104
:10500000010E011801E19C6BDF2AFC0EDB2AFD0E6C
:10501000E0E3DB2ADED7E552E0D2D9DA090EE1245B
:1050200002E3E168E652E16E080EDB6AC3EC2CF0A5
:1050300004E1FA0EDB5021E11ED0D5DA2C080EE097
:10504000FA0EDB5009E10BEC2DF002E2E16AE552C9
:10505000E16E03500501008B020E45D1DADA04E15E
:10506000010E011801E19C6B0D0EFBEC2CF007E129
:10507000FA0EDB5002E105010089030E34D12D0E3A
:10508000FBEC2CF021E1040E7EDB1EE0050EC5DBFF
:105090001BE0FD0EDB0409E0030E47DB06E0070E14
:1050A00072DB03E0080EB9DB04E1340E006E7E0E05
:1050B000D9D0010EF36E080EF3CFDBFFAADA04E1BC
:1050C000010E011801E19C6B040E2FDB11E0050EAF
:1050D0005ADB0EE0080EA1DB0BE00A0EC0DA0CD999
:1050E00013EC2DF0000948E10E0E006E7E0E0DD07F
:1050F000080E1BDB0EE1080EB2DA46D913EC2DF0D8
:1051000000093AE1E40E006E7D0EB8DB0501008B6C
:10511000ACD09C51EBDBEFCF00F0000E00C0DFFF06
:10512000010EDB6A53DB050E00DB1FE1000EDFCF53
:10513000E6FF010EDBCFE6FF26EC4DF0E552E5522F
:10514000F3CF00F0F4CF01F0026A036A01AE02D09F
:105150000268036800C0DFFF010E01C0DBFF020E22
:1051600002C0DBFF030E03C0DBFF040152DA04E1DF
:10517000010E011801E19C6B080EDB5046E0FD0EAC
:10518000DB5007E142EC2DF0800E7ADA000EEE548F
:1051900014E3020ECADA07E142EC2DF0000EEE54E1
:1051A000800E6EDA0AE3060EEEDA0BE142EC2DF029
:1051B000000E66DA800EEE5404E2DF0E006E7D0E05
:1051C00051D01FDACDDA080EDB5059E0040EDBCFE8
:1051D00038F0050EDBCF39F0060EDBCF3AF0070EC4
:1051E000DBCF3BF03D683E683F684068C2EC4CF066
:1051F000040E34C0DBFF050E35C0DBFF060E36C0E3
:10520000DBFF070E37C0DBFF3AD0FD0EDB5007E1B6
:1052100042EC2DF07F0EEE54000E32DA20E3FD0E4C
:10522000DB0404E169DB000E2BDA19E3020E7DDA00
:1052300004E162DB7F0E24DA12E3030EA4DA04E158
:105240005BDBFF0E1DDA0BE3060EE7DA10E154DB41
:10525000FF0EEE54FF0EEE547F0EEE5408E2DA0E0F
:10526000006E7D0E0BDB0501008D010E3CD0070E9C
:105270005CDA05E0080E87DA02E0C3D971DAFD0EC8
:10528000DB50070A23E00F0A21E00E0A17E0050AA7
:1052900011E0010A0FE0030A08E0050A06E0010A2E
:1052A00004E0050A02E0040E1ED02CDA040EDBCF67
:1052B000EFFF18D06EDBDBCFEDFF14D06ADBDBCF66
:1052C000EEFF060EDBCFEEFF070E0AD01BDADFCFB4
:1052D000EEFF010EDBCFEEFF020EDBCFEEFF030E83
:1052E000DBCFEEFF000E006E090EE15C02E2E16A28
:1052F000E552E16E005071D1A6DB51DB41E248DAA4
:1053000031E3DF5039082EE38BD96EDA0A0E3D6E99
:105310003E6A3F6A406A00C038F001C039F002C0FE
:105320003AF003C03BF0C2EC4CF034C000F035C0A2
:1053300001F036C002F037C003F0300EDF5C046EBF
:10534000056A066A076AE8500026055001220650E1
:10535000022207500322B0DA10E1010E01180DE11C
:105360009C6B0BD02C0EDF5C0BE00D0EDF5C08E0BD
:105370000A0EDF5C05E0000E04D0010EDB2ABDD76B
:10538000010EE552E55229D15EDB09DB46E200DA87
:1053900005E3DF50390802E3300E0FD0410EDF5C29
:1053A00005E3DF50460802E3370E07D0610EDF5CED
:1053B0000CE3DF50660809E3570EDF5CDF6E30D97F
:1053C00013DA040E1F0B13E00BD02C0EDF5C25E06C
:1053D0000D0EDF5C22E00A0EDF5C1FE0000E1ED027
:1053E000D8900036013602360336E806F9E1DFCF01
:1053F00004F0056A066A076A04500012055001129B
:10540000065002120750031257DA04E1010E011888
:1054100001E19C6B010EDB2AB8D7010EE552E55283
:10542000DCD00101C85108E0010E006E6550020B8E
:1054300001E0010E005C17E1E0D90BE16A516B114C
:1054400011E18B8CA00E6A6F0F0E6B6F010E6C6FEB
:1054500012006A516B1152E18B9CA00E6A6F0F0E05
:105460006B6F6C6B1200C80509E0020EC85D06E0A8
:10547000040EC85D03E0100EC85D17E1BED90BE154
:105480006A516B1111E18B8C200E6A6F4E0E6B6F9F
:10549000010E6C6F12006A516B1130E18B9C200E73
:1054A0006A6F4E0E6B6F6C6B1200200EC85D26E1AA
:1054B000A4D907E16A516B1121E18B8CDAD9010E75
:1054C00015D06C0507E16A516B1118E18B9CD1D99D
:1054D000020E0CD0020E6C5D0BE16A516B110EE1F5
:1054E0008B8CA00E6A6F860E6B6F030E6C6F1200B2
:1054F0006A516B1103E18B9CBCD96C6B120067D8AD
:10550000ACD9E8AE02D0003403D0E750D8800054C4
:1055100023E3FC0EDB5010E0DDD8E9BEEA68A7D833
:1055200004E0E846FE0B0106FCE1006ED3D8E9BEBC
:10553000EA688EDAEF1210D0CDD8E9BEEA6897D8C3
:1055400004E0E846FE0B0106FCE1E81C006EC2D850
:10555000E9BEEA687DDAEF1640D039D87ED9E8AEE8
:1055600002D0003403D0E750D880005423E3FC0E6F
:10557000DB5011E1AFD8E9BEEA6879D804E0E8462B
:10558000FE0B0106FCE1E81C006EA4D8E9BEEA6847
:1055900065DAEF160FD09ED8E9BEEA6868D804E055
:1055A000E846FE0B0106FCE1006E94D8E9BEEA680D
:1055B00055DAEF1212D0016E026A00C0E6FFE66E05
:1055C00002C0E6FFEBEF4BF0E66EB7EF2CF09DD993
:1055D000E1CFD9FFE2CFDAFF1200E552E5CFDAFFE3
:1055E000E7CFD9FF12009C5181D9EF501200A95189
:1055F000E96EEA6A8AEF2CF0E66E000EDA20E66EBB
:105600001200D9CFE9FFDACFEAFF1200E66A85EF90
:105610002CF09C2B9C51006E016A000E00181200A9
:10562000FC0EDBCFE9FFFD0EDBCFEAFF1200DECF81
:10563000E9FFDDCFEAFF1200D890F336E80612004A
:10564000010EF36EDB501200E96E000EDA20EA6EF6
:105650001200EA22EECF48F0EFCF49F01200E66EDA
:1056600085EF2CF052D9100EE66EBCEF2CF0D10E67
:10567000E926050EEA22EF50016E010E01521200DA
:10568000EE54000EEE54000EEE541200006EDF5089
:10569000005C1200DF6EDFCFE6FF9A51016A000F57
:1056A000006E020E01229AD916EC43F013EF2DF092
:1056B000E76E010EF3EF2CF0DBCFF4FFF350F45C58
:1056C0001200EA22EECF4AF0EFCF4BF0120022D9BF
:1056D000E8061200FD0EDBCFE9FFEA6A1200EECF0A
:1056E000E6FFEECFE6FFEECFE6FFEFCFE6FF1200DC
:1056F000DECF00F0DDCF01F0D890015012009B51B9
:1057000076EF2CF0FB0EDBCFE9FFFC0EDBCFEAFFE0
:105710001200EA22EE50EFCFEAFFE96E00501200CD
:10572000E16E0350E66AD9501200006EFD0EDB50A8
:10573000005C12000122110EDB50E8240024E96E07
:10574000000E0120EA6EE552E750EF6E110E1200D6
:10575000E652E652E6521200036E050EE15C1200BC
:10576000040EEECFDBFF050EEECFDBFF060EEECF15
:10577000DBFF070EEECFDBFF1200CCD8000EE926D0
:10578000010EEA221200016EFD0EDB50015C1200D8
:1057900004019C51ABD8EFCFDFFF300EDF5C12006D
:1057A000DBCFE6FFE66A1200036E046A02C0E6FF82
:1057B000E66E04C0E6FFEBEC4BF0056E1200020E45
:1057C000DBCF48F0030EDBCF49F01200020EDB6A9C
:1057D000030EDB6A1200DECF00F0DDCF01F0000E19
:1057E000005C100E01581200EECF00F0EECF01F079
:1057F000EECF02F0EFCF03F0120005016A07000EB2
:105800006B5B6C511200000EE926030EEA221200B7
:10581000010EDBCFE9FFEA6A1200026EFD0EDB50DB
:10582000025C1200040EDB28E96EEA6A8AEF2CF0B3
:10583000E66EE66A26EC4DF0E552E5521200FD0EEA
:10584000DB50F80F006E010E00521200EE6AEE6A95
:10585000EE6AEE6A010EDB6A1200FD0EDBCF00F08D
:10586000190EE76E00181200D9CF00F0DACF01F060
:105870001200100E6A6F270E6B6F12009CDE13EF82
:105880002DF0BADE010EE4EF2AF095DEACEF2BF03E
:10589000AEDE010EE9260E0E1200CFD806EF2BF079
:1058A000010EDDDE91DE58EF2BF0A1DE790EE92648
:1058B0000E0E1200B8D891D6B3DE00C0EEFF01C0C4
:1058C000EEFF02C0EEFF03C0EEFF040109EF2BF074
:1058D0007EDEE6521200C8DF110ECAD8110EDB2A96
:1058E000120069DE036E070EE15C1200EA6A000F27
:1058F000E96E030EEA221200C5D8FF0EEE54120024
:10590000020F7ADE030EE4EF2AF0D9CFE6FFDACFFA
:10591000E6FF1200D890E936EA361200120EE926A8
:10592000050E97DE84DE010E120061DE490EE926C7
:105930000E0E1200110EDB50D92424EF2BF092DE54
:1059400037EC4CF0006E080EE15C1200BADE4850F5
:105950004A5C49504B581200030E22DF020ED0EF72
:105960002BF0D950010F70DEEE50ED1012000DEC4F
:1059700028F059D8E5521200E66AE66AF80EE66E9B
:10598000E66AE66A12000D0E006E04012CDE005C71
:105990001200B8DE040EDBCFEEFF050E1200FB0E88
:1059A000DB50F36E010E5CEF2BF08BDE4A50481893
:1059B0001200120EE926050EEA22120022DEEE5037
:1059C000ED1012001EDE010EEE1812001ADE020E9D
:1059D000EE18120016DE030EEE18120000C0E6FFED
:1059E00001C0E6FF1200E7CFDBFF05010051120006
:1059F0002BDE6FEF2BF0006EF6DD005C120045D859
:105A0000010F3FDFE66AD950020F41EF2CF03DD87D
:105A1000010F54EF2DF0E7DDE66EE66A390E006EF9
:105A20007E0E45EF2CF0E552E552E55212003DDFC7
:105A300010DE2EDFEA2248501200C9DDA8EF2BF05D
:105A4000C3DD0009120044DFE652EADD26EF2CF048
:105A500061DF9F0EE926050E89EF2BF05BDF6D0EEF
:105A6000E926050E89EF2BF060DFF3DD48EF2CF01F
:105A7000DB500F01D924E8DDEF6A1200A5DD050136
:105A800000511200BEDDD88012009EDDE66AD950BA
:105A9000120003DF050EB3DF05010051120018DF0D
:105AA000E652B4DD010E1200ECDE050100511200D9
:105AB0000AEC33F0A098636A626A0F01266BD2EC9D
:105AC00033F002E2E16AE552E16E00500F0196EC1C
:105AD00033F0DF6ADF50006E016A0C0E005C000ECE
:105AE000015810E2DF50040DF3CFE9FFF4CFEAFFD5
:105AF000000EE926040EEA22EE6AEE6AEE6AEE6A0B
:105B0000DF2AE8D7658C0F01386B6598659C62A623
:105B100007D062960101DF6BE46BE56BE66BF7D7AC
:105B20000101010EF86FF96FFA6BFB6BEC6BDF6A2A
:105B3000030EDF5C11E2EA6ADF34FFEC33F0EA22A5
:105B4000EE6AED6AEA6ADF3406EC34F0EA22EE6AC5
:105B5000ED6A48EC33F0ECD70101080ED56F040E66
:105B6000D66F0F01160E266F0401300E026F040E61
:105B7000036F400E016F840E006F0101C96BC86B8B
:105B80000DEF33F00AEC33F082B206D0656A0F01F4
:105B9000366B0101C86B7CD00101C8510CE1656A0C
:105BA0000F01366B96EC33F065B602D06586FCD7F4
:105BB0000101010EC86FC8050AE165BA08D0626A22
:105BC0000F01366B368136890101020EC86F6250B3
:105BD000040B06E00F013651040B02E0629459DB1E
:105BE00065B256D06250010B09E00F013651010B2E
:105BF00005E05EDF0101040EC86F62906250100B79
:105C000006E00F013651100B02E033DB629862AC04
:105C100015D00F0136AD0AD09DEC33F0730E14ECA5
:105C200033F002E2E16AE552E16E0050629C01014C
:105C3000F65101E0F607F65101E1F3D86250200B6E
:105C400005E00F013651200B01E002DB6250020B30
:105C500014E00F013651020B10E09DEC33F0E668C2
:105C60007F0EE66EC9EC48F0006E060EE15C02E2C3
:105C7000E16AE552E16E0050636A040E0101E76ECD
:105C8000C819E8AE02D0E73402D0E750C85D02E29E
:105C9000A19834D00F0136A730D0DF6A040EDF5C44
:105CA0002CE262A62AD064CFEDF10101ED51780B10
:105CB000E842E842E842EE6F6296EDB504D0EE515C
:105CC0000DEC34F003D0EE5112EC34F0EA22EF7018
:105CD000EE5102E1F0DA0FD0000EE66EE66AED0E4C
:105CE000E66E010EE66E720E14EC33F002E2E16A2B
:105CF000E552E16E0050DF2AD1D7A1980DEF33F0C5
:105D0000FCEC33F0FC0EDBA403D0E66A86EC33F047
:105D1000FC0EDBA204D0010EE66E86EC33F0FD0E25
:105D2000DB50016A260F006E0F0E80EC33F01CEC86
:105D300033F0FC0EDBCFEFFFE5520DEF33F0FCEC60
:105D400033F0FC0EDB5003E00FEC33F002D039EC03
:105D500033F06CEC33F0D9CFE9FFDACFEAFFEE5045
:105D6000ED1003E1F36AF46A28D01CEC33F021EC67
:105D700034F0FA0EDBCFEEFFFB0EDBCFEDFF1CECB9
:105D800033F0EE52F90EDBCFEFFF400E17EC34F09C
:105D9000880E26EC34F0FC0EDB5003E00FEC33F001
:105DA00002D039EC33F0EA22EF74DECF00F0DDCF21
:105DB00001F000C0F3FF01C0F4FFE5520DEF33F036
:105DC000FCEC33F0FD0EDB5003E1DBEC33F009D0EB
:105DD0003EEC33F0B0EC33F03EEC33F0010FB0ECBE
:105DE00033F0E5520DEF33F0E2EC33F065A817D055
:105DF000F5EC33F0400EEE16EE6AEE6AEE6AF5EC64
:105E000033F0EE7C0FEC33F0EA22EF74400E006EBC
:105E1000F5EC33F00050EF16F5EC33F0EF7CCCEFFF
:105E200033F00101F85127E1010EF86FF95123E138
:105E3000010EF96F020EDC5D09E121EC33F0EE5248
:105E4000EF6A21EC33F0C80EEF6E1200DC0513E1AF
:105E5000EF6B2EEC33F0EE52400EEF6E2EEC33F083
:105E6000BCEC33F02EEC33F0840EEF6E010EEF6FCE
:105E7000CDDB800EEF6E12000101FA6BFB6B020EA0
:105E8000DC5D07E11BEC34F033EC33F0ABEC33F0CA
:105E900010D0E0510401365D0101E1510401375990
:105EA00004E236C4E0F137C4E1F15CD8CADBDBDBE5
:105EB000C8DBC80EEF6E1200FCEC33F0000EDE6E95
:105EC000040EDD6EDBDB040DF4CF01F0D9CFE9FF6A
:105ED000DACFEAFFF350EE260150ED22ADDBEF9E64
:105EE000FC0EDB5002E1C5DB01D099DBEA22DECFFC
:105EF000EEFFDDCFEDFFA0DBEF9C9EDB040EE9267D
:105F0000000EEA22EF8CE55288D365980101DFBFCD
:105F10000DD0E4AF09D0020EDC6FFB5101E1ACDF24
:105F20000101F96BF86B1200DBEF33F0040130AFC5
:105F30000DD00101010EDC6FFA5101E19DDF01017D
:105F4000F96BF86BF7510DE111EF2FF00101020E23
:105F5000DC6F5CDB840EEF6EF96BF86BF75101E1DF
:105F600060DF120057DB400EDF6E0101E05D000EC6
:105F7000E1590AE2E0C1DFFFDB5102E1010E03D08B
:105F8000DB0502E1020EDB6FDF50016AE850E05DE5
:105F9000E06F0150E159E16F54DBEE52DFCFEFFFCC
:105FA000380EE96F040EEA6FDFB10DD0DF5017E055
:105FB000DDC1F6FFDEC1F7FFDD2B000EDE2308009A
:105FC000F5507DDBF3D7DF500AE0DDC1E9FFDEC12C
:105FD000EAFFDD2B000EDE23EF5071DBF4D71DD37B
:105FE000FCEC33F03BDBEE52EFCFDFFFDFCF00F016
:105FF00000500101E55D000EE65902E2E5C1DFFF58
:10600000DF50006E016AE850E55DE56F0150E6592A
:10601000E66F010EDB6ADF50F36E010EDBCFF4FF9B
:10602000F350F45C16E2010EDB50EA6A380FE96EB9
:10603000040EEA22EF50E66EE2C1E9FFE3C1EAFF97
:10604000E22B000EE323E552E750EF6E010EDB2A50
:10605000E2D7000ED880E555000EE6550DE2EBDBE9
:1060600002DBFCDAEF50400B03E175DBC80E02D017
:1060700072DB880EEF6E12D0C9DA840EEF6EE75134
:10608000E81107E005D0E8C1FAFF0101E751F96E18
:10609000FADF0101E49FF75101E1C3DEE552BDD211
:1060A000B9DA0101DF8F7EDB02E2E16AE552E16EDF
:1060B0000050300EE66EE66AE66A000EE66E040EEA
:1060C000F1DA02E2E16AE552E16E0050658CDF6AC6
:1060D000030EDF5C02E2DCDAFBD7010EE66EE66A55
:1060E000E66ACA0EE66E010EDDDA02E2E16AE55208
:1060F000E16E0050659C0101080ED56F040ED66F4D
:10610000000ECB6F040ECC6FCBC1CDF1CE6F32C47D
:10611000C9F1C95102E1100E10D0010EE66EE66A17
:10612000C90EE66E010EE66E010E7EDA02E2E16A4B
:10613000E552E16E00500101200EC86F6ED2800E54
:106140000401305D4EE10101C00EDF6F04013351E7
:10615000030A25E0010A09E0030A41E10101F40E06
:10616000DD6F990EDE6F120E34D03251F66EF76A83
:10617000D890F636F736490EF6269A0EF722090021
:10618000F5CFDDF10A00F5CFDEF1020E0101DCDA18
:10619000F5CFE0F1030ED8DAF5CFE1F11200040EED
:1061A000325D1AE20101DF8104013251E96EEA6ACF
:1061B000D890E936EA36F60EE926020EEA22EECF4C
:1061C000DDF1EDCFDEF1DDC1E9FFDEC1EAFFEF5029
:1061D0000101E06FE16B12000101DF6B12000101B0
:1061E000DF6B120009DB0401386B396B30511F0B78
:1061F000020A11E0030A0CE0010A1EE10101DF8F2F
:10620000040138810101EB0517E10401388314D042
:106210000101DF8F11D00101DF8F040134BF02D0F3
:10622000DADA01D0DDDA58DAE3DA06E005DAEF503F
:10623000040B02E0010E386F0101DFAF07D0380E0A
:10624000DD6F040EDE6FDF81020EE06FE552E5D1F7
:106250000F0126A10CD002DAEF50800807E1F1D936
:10626000EF50840803E1FAD98C0EEF6E2691629A02
:1062700012000F013685629865820101010EEC6FF4
:1062800031DA750ED1D902E2E16AE552E16E0050D1
:1062900012000101EC6B26DA740EC6D902E2E16A43
:1062A000E552E16E005065920F01369562A402D06E
:1062B0006294FCD71200AED901012D0EF66FFD0ECF
:1062C000ED1539E17E0EED15E8407F0B040DF3CF9F
:1062D000CBF1F4CFCCF1000ECB27040ECC23CBC1F5
:1062E000CDF1CCC1CEF1CD75B9D9EF503C0BE84220
:1062F000E8420D081EE1DF6A080EDF5C16E2AED947
:10630000020EE926000ED5D9EF50E66EDF50EA6A9C
:10631000300FE96E040EEA22E552E750EF6E9ED987
:1063200090DAEE2AEF22DF2AE7D798D925DA09D8C2
:1063300007D027D805D0FD0EED15040801E130D8AF
:106340006CD10101DB6BF76BFA6BFB6BEF6BDC6BFA
:1063500078D9EF9ED57575D9EF9ED575FCD9EF9E8E
:10636000DF6BE06BE16BE46BE56BE66B55D8BAD99C
:10637000030E5AD902E2E16AE552E16E005085EF60
:106380002FF0020E0101DC5D02E1F0EF2FF0DC6B7B
:10639000EF5104E13BD98C0EEF6E1200EF6B12004F
:1063A00039D94FD9EF50400B01E0010EDF6E0101EA
:1063B000D575080EC85D0BE132C438FF0F013851A6
:1063C00003E00101100E02D00101040EC86FDC05CC
:1063D00013E137D948D9C6DD020E0101DB5D03E1C7
:1063E00030D9840E07D0DF5003E12BD9C80E02D07C
:1063F00028D9880EEF6E0FD0E4AF0CD0E751E8112A
:1064000007E005D0E8C1FAFF0101E751F96EFADFB4
:106410000101E49FDC6B01D104013051600BE842C3
:10642000E842E842E842E842000901E01200315146
:106430000C0A4AE00B0A3FE00C0A31E0010A22E0B4
:106440000B0A1EE0020A1CE0030A18E0080A10E02A
:10645000010A0CE00F0A08E0030A01E01200010142
:10646000DF8F080EC86F12009FEF30F050EF30F052
:106470000101C90EDD6F010EDE6F0CD0F2EF30F0BE
:1064800065EF32F034510101DD6FDE6BCA0EDD279E
:10649000010EDE23DF81010EE06FDF8F12000101AC
:1064A000DF8F04013451EA6ACA0FE96E010EEA2255
:1064B00032C4EFFF120016D9020EB6D802E2E16A2A
:1064C000E552E16E00501200120096D9E652E652F3
:1064D000E6520401320510E130511F0B00090CE1B6
:1064E0000101DF8F030E0401315D04E10101010EA2
:1064F000EB6F02D00101EB6B0401325101E07FD060
:1065000030511F0B020801E07AD034510F0B000903
:1065100001E175D034510F0B020871E3200E010127
:10652000C85D6DE1DF8F040134BF04D054D9D4D8E5
:10653000DFD803D055D9D0D8DFD8EA22020EEFCF6A
:10654000DBFFECD8010B02E1DF9401D0DF8434BF24
:1065500002D041D901D044D9EA22DECFEEFFDDCF0F
:10656000EDFF030E315D0CE143D907E034BF02D0EB
:10657000BFD801D0C1D8EA22EF82840E67D93FD0BC
:10658000DF7436D90BE058D8EF9E56D8EF8CFAD886
:1065900002E2E16AE552E16E005002D04DD8EF8C84
:1065A000DF74BCD8020B02E123D912E0040134BF2E
:1065B00002D09ED801D0A0D8EA22EF923B0E006E06
:1065C00036D9E0D802E2E16AE552E16E005002D02D
:1065D0003B0E2DD9040134510F0B016A260F006EBA
:1065E0000F0E0122030E00C0DBFF040E01C0DBFF13
:1065F000030EDBCFE9FF040EDBCFEAFFEF90050EC1
:10660000E15C02E2E16AE552E16EC6D014D9B4D889
:10661000ABEF33F0D7D8E6521200E552BDD0FD0EF5
:10662000EA6ADB34FFEF33F0E66EE66AC9EC48F065
:10663000006E060EE15C1200DECFE9FFDDCFEAFF5F
:106640001200D5C1E9FFD6C1EAFF120034510F0B89
:10665000E96EEA6AD890E936EA361200CBC1E9FF62
:10666000CCC1EAFF1200EDD8380EEE6E040EED6ECE
:106670001200FD0EEA6ADB3406EF34F0FC0EDB504C
:10668000E824026EFD0EDB50040DF35002241200CC
:10669000DF50C8D8EA22EF6ADF50BFD8EA22EF6A9B
:1066A000DF2A1200E66E9EEC4BF0006E050EE15CF8
:1066B0001200EA22EE50EFCFEAFFE96E1200E66E1A
:1066C000E9C1E9FFEAC1EAFFE92B000EEA23E5523E
:1066D000E750EF6EDF061200EA22EECFDEFFEDCFCD
:1066E000DDFF1200000EE66EE66AE66EE66A120054
:1066F00034510F0B0DEF34F034510F0B12EF34F017
:10670000012200C0DEFF01C0DDFF1200FD0EDBCF65
:10671000E6FF5CEC2FF0E552E5521200D950020F73
:10672000E96E000EDA20EA6EEF501200160E396F95
:106730009F0E376F7B0E366F1200010EE66EE66A13
:10674000000EE66EE66A1200F76ADD25F66EDE518F
:10675000F72208001200CDC1E9FFCEC1EAFF120006
:10676000040DF3CF00F0F4CF01F0000E0026040E6C
:10677000C7DF840E26EF34F064D8300EEE6E040EC0
:10678000ED6E1200020EE66EE66ADECFE6FFDDCFAA
:10679000E6FF050E14EF33F0E552E5CFDAFFE7CF61
:1067A000D9FF1200020EE66EE66AE66A270EE66E72
:1067B0000F0E52EF33F02ADF8C0EEF6E42DF840EA5
:1067C000EF6E1200D9CFE6FFDACFE6FFE1CFD9FFB7
:1067D000E2CFDAFF12003ADFCF0EE926010E1200F7
:1067E00035DFD50EE926010E120019DF59EF33F01F
:1067F00023DFEF50800B12000DDFE6521200FE0B7C
:10680000EA36E96ED50EE926010E1200FE0BEA36D5
:10681000E96ECF0EE926010E1200EA6AF30FE96E67
:10682000010E1200EA6AF00FE96E010E120004DF99
:10683000E850EF1612008FDFEE52400EEF6EABEF16
:1068400033F0020EE926000EEA221200F5DEE850CF
:04685000EF12120031
:0C68540066EC39F0FB0EDBCFF3FFDB0637
:10686000F35000090AE0B4EC39F0FA0E1FEC3AF0EC
:10687000F3E1011CF1E1010E01D0000E95EF39F0BA
:1068800066EC39F03B0EE12402E3E168E652E16E8A
:10689000010EDB6A020EDB6AF90EDBCFF6FFFA0EA1
:1068A000DBCFF7FFFB0EDBCFF8FF0800F550DF6E04
:1068B000DF5002E1B9EF38F0250EDF5C02E0ACEF0B
:1068C00038F0030EDB6A040EDB6A050EDB6A060E87
:1068D000DB6A070EDB6ACEEC38F02D0EDF5C0CE0D5
:1068E0002B0EDF5C09E0200EDF5C06E0230EDF5C90
:1068F00003E0300EDF5C1AE1DF50300A14E0130AC7
:106900000FE0030A0AE00B0A05E0060AE4E1030EC1
:10691000DB80E1D7030EDB82DED7030EDB84DBD71F
:10692000030EDB86D8D7030EDB88D5D72A0EDF5CB3
:106930001BE1CAEC38F018EC39F010E0030EDB80F4
:106940003A683B68130EDBCF3FF0140EDBCF40F00C
:1069500003EC3DF0040E38C0DBFF03D0130E01EC56
:1069600039F0CEEC38F00BD0090EDB6A6FEC39F061
:1069700003E0E3EC39F0FAD7090E01EC39F0030E2D
:10698000DBB0DB982E0EDF5C1BE1CEEC38F02A0E7C
:10699000DF5C0BE1CAEC38F018EC39F003E1130EC0
:1069A00053EC39F0CEEC38F00BD0090EDB6A6FEC0B
:1069B00039F003E0E3EC39F0FAD7090E53EC39F083
:1069C000680EDF5C07E1CEEC38F0680EDF5C1DE19D
:1069D000030E18D0740EDF5C17E07A0EDF5C14E053
:1069E000480EDF5C06E0540EDF5C03E05A0EDF5C0D
:1069F00002E1020E07D06C0EDF5C03E06A0EDF5C82
:106A000004E1010EA6EC39F0C9DBDF506E0A01E1AA
:106A10007FD31E0A01E192D1200A01E18FD13F0A02
:106A200001E149D11A0A01E146D10D0A01E143D140
:106A3000200A01E140D13A0A01E13DD1200A01E1F9
:106A40003AD1260A01E135D10D0A01E132D11A0A03
:106A500001E1D9D0200A4AE0300A1FE0460A0EE0E0
:106A6000250A01E083D3D950F90FE96EFF0EDA2031
:106A7000EA6E010EEE5E000EEE5AEE5AB4EC39F0FC
:106A8000250EE66E95DB03E1011C01E169D3B0EC54
:106A900039F001E26BD3DB2A69D3080EDB6A040EFE
:106AA000DB50010806E2040EDB0478EC39F0DB5021
:106AB0008BDB080EDB5009E0030EDB50010B05E118
:106AC00072DB01E04DD3080EDB6A64DBEFCFDFFF42
:106AD00028EC3AF003E1011C01E142D3B0EC39F0BB
