:020000040000FA
:0610000064EF4EF0120047
:06100800B4EF1BF0120022
:061018002EEF08F01200AB
:06102A000400B39D00006C
:1010300000050000E9000000AA9D0000B70E0000B6
:1010400009000000A89D0000F50500000200000056
:0C1050002A9D0000800200007E000000CD
:04105C00D8CFE4FF06
:10106000E0CFE4FFE46EE9CFE4FFEACFE4FFF3CFA3
:10107000E4FFF4CFE4FFE652CDEC1AF031EC1AF0C5
:10108000030EDB6AA4A6B5D1A4960E01002B0E01B7
:10109000AB510E01005D01E284D0006B0E01FDEC4E
:1010A00019F0EF6A79907B6A7A6A0E01A92B0E011A
:1010B000AA510E01A95D01E3A96BC3EC1AF0EA2263
:1010C000EE50ED106EE092EC1BF03FEC1BF002E1F5
:1010D0004B50491847E0D7EC1AF0EA22EE50ED10D9
:1010E0003AE0FAEC1AF0D5EC19F0C3EC1AF0EA2267
:1010F000EE504A5C486EEE504B58496E020E48C0A6
:10110000DBFF030E49C0DBFF4CEC1AF0493412E25E
:1011100048500008000E49540DE24CEC1AF0D7EC90
:101120001AF010EC1BF017E278EC1BF0EE26495099
:10113000ED2218D04CEC1AF0486C491E000E4922E2
:10114000D7EC1AF010EC1BF006E278EC1BF0EE5E28
:101150004950ED5A07D092EC1BF0EA2248C0EEFF4E
:1011600049C0EDFFFDEC19F0120EEF6EF29E0E017C
:10117000C3EC1AF091EC19F049C048F0496A4850A4
:10118000B66EC3EC1AF091EC19F04850B56EF00E43
:10119000B4140009B46EF00EB4140909B46E798069
:1011A000F28E0701000ED880AA55000EAB552EE234
:1011B000B82B000EB923AA51B85DAB51B95926E33B
:1011C000B86BB96B030EAE5D1FE2AC51EA6A200F3B
:1011D000E96E010EEA2280CFEFFFAC51EA6A230FDD
:1011E000E96E010EEA2281CFEFFFAC51EA6A260FC9
:1011F000E96E010EEA2282CFEFFFAC2B030EAC5D4D
:1012000001E3AC6BAE2B02D0AA6BAB6B000ED880A7
:10121000AF55000EB0551CE2000ED880BE55000E32
:10122000BF5516E2BA2B000EBB23AF51BA5DB051C9
:10123000BB590EE3BA6BBB6B030EB35D07E2B12B78
:10124000030EB15D01E3B16BB32B02D0AF6BB06B9A
:10125000BE51BF110BE0050EBD5D07E3C18C9E9C26
:101260009D8CC280C282BD6B01D0BD2B0501005197
:1012700001E1AAD0DE6ADD6ADECF48F0DDCF49F0B9
:10128000040E485C000E495801E39ED078EC19F03A
:10129000010EDBEC19F0FDE1010EE926050EEA2254
:1012A000EE50ED1075E078EC19F0010EDBEC19F062
:1012B000FDE143EC1BF0EE50ED1016E148EC1BF0A5
:1012C00001E181804CEC1BF003E1ED5001E18182F2
:1012D00050EC1BF003E1ED5001E1818454EC1BF074
:1012E00003E1ED5001E1818678EC19F0010EDBECB1
:1012F00019F0FDE1F0EC1AF0DBEC19F0FDE1010E64
:10130000E926050E3FEC1BF019E14B50491816E198
:1013100048EC1BF001E181904CEC1BF003E1ED5037
:1013200001E1819250EC1BF003E1ED5001E1819469
:1013300054EC1BF003E1ED5001E1819678EC19F0DB
:10134000010EDBEC19F0FDE143EC1BF0EE2A000E80
:10135000EF2278EC19F0010EDBEC19F0FDE1F0EC76
:101360001AF0DBEC19F0FDE1090EE926050E3FEC61
:101370001BF024E14B50491821E178EC19F0010EE3
:10138000DBEC19F0FDE143EC1BF0EE6AED6A16D0E0
:1013900048EC1BF001E181904CEC1BF003E1ED50B7
:1013A00001E1819250EC1BF003E1ED5001E18194E9
:1013B00054EC1BF003E1ED5001E18196DF2A010EB0
:1013C00001E25AD7DB2A58D70601E05101E0E007D5
:1013D000050119511A111B111C110BE01907000E00
:1013E0001A5B1B5B1C5B19511A111B111C1101E1CB
:1013F0008C9E9EAC3DD09E9CC1AC07D0C19C010E82
:101400000701C06FC16BBC6B18D0C4504A6E4B6EE5
:101410004A6AC35000014A10486E4BC049F00701A8
:10142000BC51E96EEA6A26EC1AF048C0EEFF49C0EA
:10143000EDFFD890C037C137BC2B100EBC5D0EE25B
:10144000C051BE15486EC151BF15496E4850491074
:1014500005E1BC2BD890C037C137EFD7100EBC5D6B
:1014600002E39D9C05D0BC51040DF328C26EC282DC
:10147000F2A435D0D59EF294F29A040E486E07017C
:10148000B75137EC1AF0EF50485C29E1080EB75D10
:101490000AE26AEC1AF004E0E846FE0B4806FCE1BA
:1014A000E81C891616D0100EB75D0AE26AEC1AF035
:1014B00004E0E846FE0B4806FCE1E81C8A1609D069
:1014C0006AEC1AF004E0E846FE0B4806FCE1E81C72
:1014D0008B160701B75137EC1AF0020EEF6E040EAF
:1014E000E15C02E2E16AE552E16EE552E5CFDAFF46
:1014F000E7CFD9FFE552E5CFF4FFE5CFF3FFE5CF26
:10150000EAFFE5CFE9FFE550E5CFE0FFE5CFD8FF03
:1015100010007EEC1BF0E652896A92680701BE6BF0
:10152000BF6B8A6A93688B6A94688C968B9C95963D
:10153000949C948E010EE36F0501F569F66907012D
:10154000B26BB16BB36BAD6BAC6BAE6BAA6BAB6BD1
:10155000AF6BB06BB86BB96BBA6BBB6BBC6B7682A5
:101560007680769C769A76887696FA0E776EDE6A24
:10157000DD6AC0EC19F004E6100E005C000E0158A4
:101580000BE278EC19F026EC1AF0EE6AED6ADF2A2D
:10159000010EEFE3DB2AEDD70701DD6BDE6BDB6BC2
:1015A000DC6BDE6ADD6AC0EC19F004E6400E005C1C
:1015B000000E01580CE278EC19F0000EE926020E3C
:1015C000EA22EF6ADF2A010EEEE3DB2AECD7DE6ABD
:1015D000DD6AC0EC19F004E6400E005C000E015814
:1015E0000CE278EC19F0400EE926020EEA22EF6ACE
:1015F000DF2A010EEEE3DB2AECD7DE6ADD6AC0ECFF
:1016000019F004E6000E005C010E01580AE278ECC5
:1016100019F076EC1AF0EF6ADF2A010EF0E3DB2A0C
:10162000EED70701DF6BE06BE16BE26BB56BB66B7E
:10163000B76BDE6ADD6AC0EC19F004E6180E005CD8
:10164000000E015812E278EC19F080EC1AF0EE6A04
:10165000ED6A78EC19F0290EE926010EEA22010E56
:10166000EF6EDF2AE8E3DB2AE6D7D586D59AD59C4C
:10167000F294F29AF1940F01498FBE0EC16ED08E92
:101680007694A386A596FBEC1CF09DEC46F0F28EBA
:10169000F28C76848FEC15F0F8EC44F0040EE15CEB
:1016A00002E2E16AE552E16E5BEF19F0CDEC1AF06F
:1016B000E65231EC1AF0030EDB6A040EDB6A7FECB3
:1016C00018F00701AE5100080AE219EC11F0070109
:1016D000AD2B030EAD5D01E1AD6BAE07F2D7B3519B
:1016E00000080AE23BEC11F00701B22B030EB25DD9
:1016F00001E1B26BB307F3D7200E0401E76E78194E
:10170000E8AE02D0E73402D0E750785D01E23AD18A
:101710006550020B01E036D1400EE66E400EE66EDB
:10172000020EE66E8FEC43F082EC1BF0E76E030EC8
:10173000E7CFDBFFDB50000801E3E7D0040EDB6AF4
:10174000030EDB50F36E040EDEEC19F001E3DDD086
:10175000040EDB50EA6A400FE96E020EEA22EFCF78
:10176000DFFF0501655134E10D0E9CEC19F005E039
:101770000A0E016EDF50015C2BE1010E656F07015F
:10178000E8EC19F00D0EEF6EDD2B010EDB6ADD517A
:10179000F36E010EDEEC19F016E27BEC1AF0E9BEF6
:1017A000EA6876EC1AF0EF50E66E7BEC1AF0E9BED0
:1017B000EA68210EE926050EEA22E552E750EF6EAF
:1017C000010EDB2AE4D73BD90701DD6BDE6B8DD040
:1017D0001B0EDF5C09E1615107E1010E616F1B0E19
:1017E000626F636B646B81D061050BE15B0EDF5C44
:1017F00008E11B0E625D05E1635103E15B0E636F5F
:1018000074D061054AE1410EDF5C47E11B0E625D69
:1018100044E15B0E635D41E1626B636B646B616B22
:10182000010EDB6ADBCFE9FFEA6AE9BEEA6876EC23
:101830001AF0EF500D0816E07BEC1AF0E9BEEA68EA
:10184000210EE926050EEA22EF50E66E7BEC1AF037
:10185000E9BEEA6876EC1AF0E552E750EF6E010E49
:10186000DB2AE0D7010EDBCFDDF70701E8EC19F04A
:10187000EF6AA20E006E810EB9EC1AF0000EE66E51
:10188000030EE66E9F0E006E810EC0EC1AF002E2AF
:10189000E16AE552E16E035028D0080EDF5C0EE1EC
:1018A0000701DD5100080AE2DD07E8EC19F0EF6AF4
:1018B0009C0E006E810EB9EC1AF017D00D0EDF5C95
:1018C00014E00A0EDF5C11E0200EDF5C0EE3050180
:1018D000626B636B646B616B0701E8EC19F0DFCF3F
:1018E000EFFF0501656B0701DD2B0701DD51006E80
:1018F000016A000E001806E1010E011803E1B48729
:10190000DD6BDE6B040EDB2A1BD70701B45139E017
:10191000B4A105D0960E006E810EB9EC1AF0070145
:10192000B4A305D0770E006E810EB9EC1AF0070152
:10193000B4A505D05B0E006E810EB9EC1AF007015C
:10194000B4A705D03F0E006E810EB9EC1AF0070166
:10195000B4A905D0200E006E810EB9EC1AF0070173
:10196000B4AD05D0FF0E006E800EB9EC1AF0070181
:10197000B4AF05D0E60E006E800EB9EC1AF0070188
:10198000B46B37D8050EE15C02E2E16AE552E16E24
:101990005BEF19F0CDEC1AF0DBC7DFFFDF2A400E5A
:1019A0009CEC19F001E1DF6A0701DC51DF5C01E129
:1019B00020D80701DB51EA6A000FE96E020EEA2225
:1019C000FD0EDBCFEFFFDB2B400EDB5D01E1DB6BC0
:1019D000DC51DB5D01E1B485FD0EDBCF00F0016A77
:1019E00000BE016800C0F3FF01C0F4FFE5525BEFE9
:1019F00019F0CDEC1AF00701DB51DC5D1DE00701A9
:101A0000905105E019EC44F0C5EC2EF0F8D7070131
:101A1000DC51D880DB5507E2DC51DB5DB2EC19F01C
:101A2000DBC7DCF707D0400ED880DC55B2EC19F0EC
:101A30000701DC6B19EC44F0E5525BEF19F07EEC2A
:101A40001BF0E652DE6ADD6A020EDB6A030EDB6A19
:101A5000070161EC19F08CEC1AF0020EF3CFDBFFFA
:101A600007017DEC19F004E1010E011801E1DE6BC4
:101A7000020EDB50DE6EDD6A61EC19F02C0824E00A
:101A800061EC19F00D0820E061EC19F08CEC1AF013
:101A9000030EF3CFDBFF07017DEC19F004E1010E2B
:101AA000011801E1DE6B020EDBCF02F002C003F091
:101AB000026A030EDB5000010224006E000E0320B8
:101AC000016E00C0DEFFDD6E000EDFCF3AF0010ECA
:101AD000DBCF3BF0520E3A1802E1530E3B1801E106
:101AE00033D2520E3A1802E1510E3B1801E129D2CD
:101AF000420E3A1802E1520E3B1801E11FD2540E79
:101B00003A1802E1510E3B1801E115D2540E3A1871
:101B100002E1530E3B1801E10BD2530E3A1802E1D9
:101B2000430E3B1801E101D2530E3A1802E1510E67
:101B30003B1801E1F7D14D0E3A1802E1580E3B185F
:101B400001E1EDD1530E3A1802E1450E3B1801E1D7
:101B5000E3D1430E3A1802E1410E3B1801E1DAD11C
:101B60004D0E3A1802E1510E3B1801E1D0D14D0E55
:101B70003A1802E1520E3B1801E1C6D1320E3A1872
:101B800002E1530E3B1801E1BCD1450E3A1802E1C7
:101B9000530E3B1801E1B2D1430E3A1802E1510E47
:101BA0003B1801E1A8D14B0E3A1802E1430E3B1855
:101BB00001E19ED14C0E3A1802E1420E3B1801E1C0
:101BC00094D1440E3A1802E14E0E3B1801E18AD13D
:101BD000490E3A1802E14E0E3B1801E180D1420E47
:101BE0003A1802E1510E3B1801E176D14C0E3A1839
:101BF00002E1510E3B1801E16CD14C0E3A1802E1A2
:101C0000530E3B1801E162D14E0E3A1802E1510E1B
:101C10003B1801E158D14E0E3A1802E1530E3B1821
:101C200001E14ED1430E3A1802E1530E3B1801E197
:101C300044D14D0E3A1802E1450E3B1801E13AD16C
:101C4000500E3A1802E1510E3B1801E130D1500E0E
:101C50003A1802E1540E3B1801E126D1500E3A1811
:101C600002E1530E3B1801E11CD14D0E3A1802E17E
:101C7000410E3B1801E112D14D0E3A1802E1530E0C
:101C80003B1801E108D1470E3A1802E1500E3B180B
:101C900001E1FED0430E3A1802E1500E3B1801E17B
:101CA000F4D0490E3A1802E1430E3B1801E1EAD0A4
:101CB000490E3A1802E1520E3B1801E1E0D0490EFC
:101CC0003A1802E1530E3B1801E1D6D0530E3A18F0
:101CD00002E1520E3B1801E1CCD0530E3A1802E15A
:101CE000530E3B1801E1C2D0530E3A1802E1420EE6
:101CF0003B1801E1B8D0430E3A1802E1420E3B18FE
:101D000001E1AED0430E3A1802E1520E3B1801E158
:101D1000A4D04F0E3A1802E1420E3B1801E19AD0CE
:101D2000570E3A1802E14D0E3B1801E191D0520EC8
:101D30003A1802E14D0E3B1801E188D0440E3A18E2
:101D400002E1500E3B1801E17FD04F0E3A1802E13C
:101D5000500E3B1801E176D0490E3A1802E1500EC0
:101D60003B186EE0580E3A1802E1540E3B1865E03D
:101D7000540E3A1801E13B505EE0410E3A1801E181
:101D80003B5057E0560E3A1801E13B5050E0490EE7
:101D90003A1801E13B5049E04F0E3A1801E13B503F
:101DA00042E0550E3A1802E1430E3B183AE0580E55
:101DB0003A1802E1430E3B1831E0430E3A1801E1B4
:101DC0003B502AE0520E3A1801E13B5023E0580EF6
:101DD0003A1802E1520E3B181AE04D0E3A1802E191
:101DE0004C0E3B1811E0030EDB5001E0B0D0020EA8
:101DF0003DEC1AF03DEC1AF0C30E006E800EFFECC5
:101E00001AF001E3B3D0B0D01AEC21F0B1D067ECF6
:101E100013F0AED0D2D8ACD034D9AAD069EC13F03C
:101E2000A7D0CFD8A5D0D1D9A3D003DAA1D01EDABC
:101E30009FD021DA9DD0FCD89BD065EC13F098D0D0
:101E400041DB96D0ADDB94D0A8DA92D087DA90D07F
:101E500073DA8ED0DFEC13F08BD06BEC13F088D0FC
:101E6000DDEC13F085D0E1EC13F082D0E3EC13F05D
:101E70007FD0E5EC13F07CD0E7EC13F079D0E9ECFF
:101E800013F076D0EBEC13F073D0EDEC13F070D0D0
:101E900047EC14F06DD0A2EC22F06AD06CEC1EF08E
:101EA00067D0C8EC26F064D0A9EC26F061D096EC9F
:101EB00026F05ED047EC27F05BD0BAEC1DF058D08E
:101EC000ABEC27F055D0CBEC27F052D0DDEC27F06F
:101ED0004FD0EAEC27F04CD0FCEC27F049D08DEC49
:101EE00027F046D09EEC27F043D07DEC14F040D094
:101EF000D4EC14F03DD010EC28F03AD024EC28F0CB
:101F000037D015EC47F034D0BAEC28F031D0BBEC28
:101F100028F02ED046D92CD00CEC26F029D03DEC60
:101F200023F026D09BEC29F023D0CFEC29F020D051
:101F3000F6EC15F01DD03BEC16F01AD085EC14F041
:101F400017D08CEC14F014D09EEC14F011D016ECD9
:101F50001BF016EC1BF09B0E006E800E49EC19F086
:101F6000036E0B0EE15C02E2E16AE552E16E0350A2
:101F7000070161EC19F00D080DE0B4510BE1520EB0
:101F8000006E016ADF50001803E1DE52DD500118D7
:101F900001E0B48FDDC7DEF7040EE15C02E2E16A26
:101FA000E552E16E5BEF19F00701E35105E07E0EAB
:101FB000006E9C0EB9EC1AF0120089EC0AF0D4EF16
:101FC0000FF0CDEC1AF067EC1BF06AEC19F0020E82
:101FD0006CEC1BF02BE1DF0412E11BEC1BF00AE0C0
:101FE000010E006E016ADB50001808E1020EDB50A2
:101FF000011804E1010EDBCFE3F701D0B48D020E2E
:102000009CEC19F012E11BEC1BF00AE0010E006ED3
:10201000016ADB50001808E1020EDB50011804E1F0
:10202000010EDBCFBFFE01D0B48DBEDFD5EF1AF0BD
:1020300055EC19F031EC1AF0E66AA80EE66E070EC0
:10204000E66E96EC1BF01BE1020EDB500CE1A85192
:10205000A91103E1AA6BAB6B11D07684A8C7AAF7CC
:10206000A9C7ABF70BD0A851A91103E1AF6BB06BB7
:1020700005D07684A8C7AFF7A9C7B0F795DFD5EF2D
:102080001AF07EEC1BF067EC1BF0ABEC1BF0020FC0
:10209000ABEC1BF0030FABEC1BF0040FBCEC1AF025
:1020A0000FE1DF50926E010EDB50936E020EDB509B
:1020B000946E030EDB50956E040EDB50966E74DF4B
:1020C000050EE15C02E2E16AE552E16E5BEF19F0B8
:1020D00055EC19F0FD0EDB50100805E2100EF36E02
:1020E000FD0EF3CFDBFFFC0EDB502BE0FD0EDB50D3
:1020F00080EC4EF0F3500701BE13F450BF13080EEE
:10210000F36EFD0EDEEC19F00DE2010EF36EFD0E26
:10211000DB5003E084EC19F0FDE1F350F31C0F01F8
:1021200048173DD0FD0EDB500C0839E393EC1AF054
:1021300004E0E846FE0B0006FCE1E81C0F0149172D
:102140002ED0FD0EDB5080EC4EF0F3CF00F0F4CF3C
:1021500001F0001E011E00500701BE170150BF17FD
:10216000080EF36EFD0EDEEC19F00CE2010EF36EBC
:10217000FD0EDB5003E084EC19F0FDE1F3500F019C
:1021800048130DD0FD0EDB500C0809E393EC1AF058
:1021900004E0E846FE0B0006FCE10F0149135BEF8B
:1021A00019F055EC19F067EC1BF0BCEC1AF009E1E2
:1021B000010EDBCFE6FFDFCFE6FF8ADFE552E55217
:1021C000F3DEE552E5525BEF19F055EC19F074ECD3
:1021D00019F0010E52EC19F0C7EC19F026E1010ECE
:1021E000DB5002E1DF50896ED0EC1AF01EE1010EE7
:1021F000DB5002E1DF508A6ED0EC1AF016E1010EDE
:10220000DB5002E1DF508B6ED0EC1AF00EE1010ED4
:10221000DB5002E1DF508C6ED0EC1AF006E1010ECB
:10222000DB5002E1DF508D6EBFDEE552E5525BEF21
:1022300019F08450E66EE66A8350E66EE66A8250D4
:10224000E66EE66A8150E66EE66A8050E66EE66A01
:102250007E0E006E800E49EC19F0036E0D0EE15CEF
:1022600002E2E16AE552E16E03501200860E006E52
:102270009C0EB9EF1AF07EEC1BF0DF6A010EF36ED4
:10228000DB6E020EDB6A7C0E006E800EB9EC1AF07B
:102290009DBCFED7DF6ADFCF00F0100EE76E00189E
:1022A000E8AE02D0E73402D0E750005C3EE2010E17
:1022B000DB500701BE150001006E020EDB50070166
:1022C000BF150001016E005001101EE0DFCFE9FFD5
:1022D000EA6AE9BEEA6826EC1AF0EECFE6FFEFCF35
:1022E000E6FFDFCF00F0016A00BE016858EC1BF08A
:1022F000710E026E800E41EC1AF0070EE15C02E2F4
:10230000E16AE552E16E0550010EDBCF00F0020EEE
:10231000DBCF01F0D89000360136010E00C0DBFFA4
:10232000020E01C0DBFFDF2AB6D7830E006E9C0EC3
:10233000B9EC1AF0D5EF1AF0CDEC1AF074EC19F0F4
:1023400096EC1BF009E158EC1AF005E278EC19F074
:10235000020EDBCFEFFF28DED5EF1AF0CDEC1AF03E
:1023600074EC19F0030E6CEC1BF015E158EC1AF04C
:1023700005E278EC19F0020EEFCFDBFF020E3DEC28
:102380001AF0670E006E800EC0EC1AF002E2E16AED
:10239000E552E16E0350D5EF1AF0AFEC1BF001E00F
:1023A0008FD0020EDB50010801E287D0010EDB5016
:1023B000070801E282D0410E9CEC19F016E1020EF2
:1023C000DB500AE18DEC19F003E084EC19F0FDE13B
:1023D000F350F31C921673D08DEC19F003E084ECEB
:1023E00019F0FDE1F35092126AD0420E9CEC19F004
:1023F00016E1020EDB500AE18DEC19F003E084ECEB
:1024000019F0FDE1F350F31C931659D08DEC19F03F
:1024100003E084EC19F0FDE1F350931250D0430E29
:102420009CEC19F016E1020EDB500AE18DEC19F07C
:1024300003E084EC19F0FDE1F350F31C94163FD057
:102440008DEC19F003E084EC19F0FDE1F3509412E7
:1024500036D0440E9CEC19F016E1020EDB500AE176
:102460008DEC19F003E084EC19F0FDE1F350F31C5E
:10247000951625D08DEC19F003E084EC19F0FDE100
:10248000F35095121CD0450E9CEC19F016E1020E8B
:10249000DB500AE18DEC19F003E084EC19F0FDE16A
:1024A000F350F31C96160BD08DEC19F003E084EC7E
:1024B00019F0FDE1F350961202D0B48D01D074DD15
:1024C000D5EF1AF055EC19F031EC1AF0A5EC1BF031
:1024D000050EB5EC1AF0010FBCEC1AF05FE1010E2D
:1024E000DB50070847E3410E9CEC19F009E18DEC45
:1024F00019F003E084EC19F0FDE1F350801433D0BF
:10250000420E9CEC19F009E18DEC19F003E084EC2B
:1025100019F0FDE1F350811426D0430E9CEC19F024
:1025200009E18DEC19F003E084EC19F0FDE1F350C2
:10253000821419D0440E9CEC19F009E18DEC19F0CD
:1025400003E084EC19F0FDE1F35083140CD0450E48
:102550009CEC19F00FE18DEC19F003E084EC19F01C
:10256000FDE1F3508414E76E020EE7CFDBFFDB5092
:1025700008E002D0B48D12D0010EF36E020EF3CF3C
:10258000DBFF020E3DEC1AF05E0E006E800EC0EC1A
:102590001AF002E2E16AE552E16E0350D5EF1AF05B
:1025A000AFEC1BF001E08FD0020EDB50010801E21E
:1025B00087D0010EDB50070801E282D0410E9CEC6F
:1025C00019F016E1020EDB500AE18DEC19F003E080
:1025D00084EC19F0FDE1F350F31C891673D08DECF7
:1025E00019F003E084EC19F0FDE1F35089126AD090
:1025F000420E9CEC19F016E1020EDB500AE18DEC64
:1026000019F003E084EC19F0FDE1F350F31C8A1695
:1026100059D08DEC19F003E084EC19F0FDE1F35092
:102620008A1250D0430E9CEC19F016E1020EDB50DA
:102630000AE18DEC19F003E084EC19F0FDE1F350B0
:10264000F31C8B163FD08DEC19F003E084EC19F0ED
:10265000FDE1F3508B1236D0440E9CEC19F016E1DC
:10266000020EDB500AE18DEC19F003E084EC19F066
:10267000FDE1F350F31C8C1625D08DEC19F003E02E
:1026800084EC19F0FDE1F3508C121CD0450E9CEC4B
:1026900019F016E1020EDB500AE18DEC19F003E0AF
:1026A00084EC19F0FDE1F350F31C8D160BD08DEC8A
:1026B00019F003E084EC19F0FDE1F3508D1202D023
:1026C000B48D01D071DCD5EF1AF0D4EF0FF0D4EF58
:1026D0000FF0D4EF0FF0CDEC1AF0E65261EC1BF0E6
:1026E000F7EC1AF062E1D950020F88EC19F0720E83
:1026F000D880EE542E0EED543DE3D950020F88ECF5
:1027000019F0EE50ED101FE003680468056A2D0E05
:10271000E76E020EDBCF06F0030EDBCF07F0E750CB
:102720000626000E0722086A0650035C006E07505A
:102730000458016E08500558026E020E00C0DBFFFF
:10274000030E01C0DBFF010EDB50070813E3410E4F
:102750009CEC19F002E1DF6A0FD0420E9CEC19F0FC
:1027600002E1080E05D0430E9CEC19F003E1100EB7
:10277000DF6E02D0B48D19D0010EDB50DF24E96E7C
:10278000EA6A80EC1AF09AEC1AF0010EDB50DF24B2
:1027900037EC1AF0EF0407E1010EDB50DF2437ECD1
:1027A0001AF0020EEF6ED4EC0FF0040EE15C02E2C0
:1027B000E16AE552E16E5BEF19F0D4EF0FF0D4EF70
:1027C0000FF0D4EF0FF0D4EF0FF0D4EF0FF0D4EF01
:1027D0000FF0D4EF0FF0D4EF0FF055EC19F0070E17
:1027E000E12402E3E168E652A1EC1AF0030EB5EC35
:1027F0001AF0F7EC1AF043E1DECF01F5DDCF02F578
:10280000020EDBCF09F5030EDBCF0AF5040EDB6AFF
:10281000030EF36E040EDEEC19F02FE2010EA9ECAC
:1028200019F0030E21EC1BF0010EE66ED950A1EC5D
:102830001BF052EC19F0E76E060EE7CFDBFF070145
:10284000B4511DE1050EDB5018E1060EDB5015E119
:1028500086EC1AF0010EE926050EEA22DECFEEFF25
:10286000DDCFEDFF86EC1AF0090EE926050EEA220F
:102870009AEC1AF0040EDB2ACBD7D4EC0FF0070E3B
:10288000E15C02E2E16AE552E16E5BEF19F0CDEC4A
:102890001AF0A5EC1BF0010E6CEC1BF00DE1DF5003
:1028A00007E0F00E9314936E0501010E006F02D045
:1028B0000501006BD4EC0FF0E5525BEF19F0D9CFB6
:1028C000E6FFDACFE6FFE1CFD9FFE2CFDAFFE6524B
:1028D000DF6AFF0EDF5C0AE2E868E85005E0E80620
:1028E00000D000D000D0F9D7DF2AF3D7E552E55267
:1028F000E5CFDAFFE7CFD9FF1200F29EF29C659296
:10290000656ADDDF0FEF00F01200F29EF29C659227
:10291000656AD5DFFF0012008350800B01E0010ED5
:10292000E66EE66A580E006E800EC0EC1AF002E207
:10293000E16AE552E16E0350D4EF0FF055EC19F067
:10294000060EE12402E3E168E652A1EC1AF0070E5C
:1029500052EC19F0010EE66ED950040F6AEC19F032
:10296000010E21EC1BF00701B45116E1DFCF1DF57C
:10297000010EDBCF1EF5020EDBCF1FF5030EDBCF02
:1029800020F5050EDB5006E1040EDB5002E08C8ED4
:1029900001D08C9ED4EC0FF0060EE15C02E2E16AFD
:1029A000E552E16E5BEF19F055EC19F0100EE124E1
:1029B00002E3E168E652E16EE66AD950010F6AEC83
:1029C00019F0E66A27EC1BF0A5EC1BF0010EB5EC44
:1029D0001AF0040F6AEC19F0020EB5EC1AF0A1EC33
:1029E0001BF0B5EC1AF00A0F6AEC19F0060EB5EC04
:1029F0001AF0060F6AEC19F0070EB5EC1AF00E0F7C
:102A00006AEC19F0040EB5EC1AF00F0F6AEC19F02D
:102A1000050E52EC19F0010EDBCF00F0016A00BE8A
:102A2000016858EC1BF04C0E026E800E41EC1AF05F
:102A3000050EE15C02E2E16AE552E16E0550DFCF8E
:102A4000E6FFE66A400E006E800EC0EC1AF002E26D
:102A5000E16AE552E16E0350040EDBCFE6FF050E9E
:102A6000DBCFE6FF340E006E800EC0EC1AF002E2FF
:102A7000E16AE552E16E0350020EDBCFE6FF030E82
:102A8000DBCFE6FF280E006E800EC0EC1AF002E2EB
:102A9000E16AE552E16E0350D9500A0F88EC19F053
:102AA00061EC1AF01B0E006E800EFFEC1AF002E2D1
:102AB000E16AE552E16E0350D950060F88EC19F037
:102AC00061EC1AF00E0E006E800EFFEC1AF002E2BE
:102AD000E16AE552E16E03500E0E3DEC1AF0020E73
:102AE000006E800EC0EC1AF002E2E16AE552E16E7F
:102AF00003500F0E3DEC1AF0F60E006E7F0EC0EC88
:102B00001AF002E2E16AE552E16E0350D4EC0FF0F4
:102B1000100EE15C02E2E16AE552E16ECCD3C5DB66
:102B2000120EE12402E3E168E652E16E110EDB6A67
:102B3000F36EDBCFF4FFE850F45C03E2DCEC1AF058
:102B4000F7D709EC1BF002E2E16AE552E16E0050B2
:102B5000110EDB6A100EF36E110EDEEC19F02DE291
:102B600004EC1BF0EF50006E016A013404E20050E7
:102B70008008000E015421E304EC1BF0EFCF04F0B9
:102B8000200E045C1AE304EC1BF0EF50E66E180E06
:102B90000201016AFA25006EFB510BEC1AF0DB50C2
:102BA000D924B6DBEF50E66E020E016AFC25006EFA
:102BB000FD510BEC1AF0DB2ACDD7110EDB50E824C7
:102BC000180FFAC2E9FFFBC2EAFFEF6E110EDB50ED
:102BD000E824020FFCC2E9FFFDC2EAFFEF6E120E0D
:102BE000E15C02E2E16AE552E16E65D35EDB130E61
:102BF000E12402E3E168E652E16E110EDB6A120E97
:102C0000DB6A110EF36E120ED9DB08E2ABEC1AF0A0
:102C1000120E9BEC1BF0120EDB2AF3D7100E99DB81
:102C20006CD882EC1BF0E76E110EE7CFDBFFE66895
:102C3000FB0EE66EE66A2CEC1BF08CEC4BF0006EA3
:102C4000080EE15C02E2E16AE552E16E00506FDBE2
:102C500042EC48F0006E080EE15C02E2E16AE552E7
:102C6000E16E0050D4EC0FF0130EE15C02E2E16A79
:102C7000E552E16E20D319DB120EE12402E3E16894
:102C8000E652E16E110EDB6AF36EDBCFF4FFE85023
:102C9000F45C03E2DCEC1AF0F7D709EC1BF002E27B
:102CA000E16AE552E16E0050DF50006E016AD89093
:102CB000015004E6800E005C000E015803E2200E75
:102CC000DF5C06E2AE0E006E810EB9EC1AF00CD09D
:102CD000C8EC1AF0F10E006E7F0EC0EC1AF002E2A2
:102CE000E16AE552E16E0350D4EC0FF0120EE15CA4
:102CF00002E2E16AE552E16EDED2CDEC1AF0DF6A63
:102D00004DDBEF6A33EC1BF002E1B4890CD0D9DA69
:102D10002C080BE070EC1BF002E2E16AE552E16E78
:102D200003500701B48B000E28D0E7DA04E1010E4E
:102D3000011801E1DE6B0D0E5DEC1BF009E02C0EBD
:102D4000016EBFDA015C04E0FB0EDB50DF5C02E3E6
:102D5000DF5013D0B6DAE66E21DBE552E750EF6EB6
:102D6000CCDA04E1010E011801E1DE6BDF2AFC0E72
:102D7000DB2AFD0EE0E3DB2ADED7E5529CD295DAB2
:102D8000090EE12402E3E168E652E16E080EDB6A17
:102D900033EC1BF005E1FA0EDB5021E1B4891FD0C2
:102DA00090DA2C080EE0FA0EDB5009E170EC1BF013
:102DB00002E2E16AE552E16E03500701B48B020EB4
:102DC00025D19BDA04E1010E011801E1DE6B0D0E45
:102DD0005DEC1BF006E1FA0EDB5001E1B489030E55
:102DE00015D12D0E5DEC1BF020E1040E5CDB1DE027
:102DF000050E026EFD0EDB50025C17E0FD0EDB04DB
:102E000001E1CAD0030E28DB01E1C6D0070E4BDB7F
:102E100001E1C2D0010EF36E080EF3CFDBFF6DDAD5
:102E200004E1010E011801E1DE6B040E15DB09E07F
:102E3000050E39DB06E00A0E8CDAF1D882EC1BF0C5
:102E400036D0DE51BFDBEFCF00F0000E00C0DFFF59
:102E5000010EDB6A020EDB6A030EDB6A050EFCDA8A
:102E60001FE1000EDFCFE6FF010EDBCFE6FFDFEC58
:102E70004DF0E552E552F3CF00F0F4CF01F0026AD5
:102E8000036A01AE02D00268036800C0DFFF010ED2
:102E900001C0DBFF020E02C0DBFF030E03C0DBFF3D
:102EA00007012BDA04E1010E011801E1DE6B080EC7
:102EB000DB5044E0FD0EDB5007E1A8EC1BF0800E78
:102EC0004BDA000EEE5414E3020EC6DA07E1A8EC6A
:102ED0001BF0000EEE54800E3FDA0AE3060EE3DA32
:102EE00009E1A8EC1BF0000E37DA800EEE5402E286
:102EF000070152D0F4D99DDA080EDB5055E0040EDC
:102F0000DBCF38F0050EDBCF39F0060EDBCF3AF021
:102F1000070EDBCF3BF03D683E683F6840687BECC6
:102F20004DF0040E34C0DBFF050E35C0DBFF060E8E
:102F300036C0DBFF070E37C0DBFF36D0FD0EDB509F
:102F400007E1A8EC1BF07F0EEE54000E05DA23E338
:102F5000FD0EDB0404E13CDB000EFED91CE3020E97
:102F60007BDA04E135DB7F0EF7D915E3030E9BDA3C
:102F700004E12EDBFF0EF0D90EE3060E026EFD0E0D
:102F8000DB50025C0CE124DBFF0EEE54FF0EEE542E
:102F90007F0EEE5404E20701B48D010E37D0070E08
:102FA0005BDA02E09CD945DAFD0EDB50070A21E02E
:102FB000010A17E0050A11E0010A0FE0030A08E020
:102FC000050A06E0010A04E0050A02E0040E1ED02C
:102FD00002DA040EDBCFEFFF18D04BDBDBCFEDFFC7
:102FE00014D047DBDBCFEEFF060EDBCFEEFF070E84
:102FF0000AD0F1D9DFCFEEFF010EDBCFEEFF020EDC
:10300000DBCFEEFF030EDBCFEEFF000E006E090EEE
:10301000E15C02E2E16AE552E16E00504CD1BDDABA
:10302000E652BCD9EE6AEE6AEE6AEE6A010EDB6A1F
:10303000FB0EDB50F36E010EC1D94FE20701DE51EA
:10304000C1DAEFCFDFFF300EDF5C42E3DF5039083B
:103050003FE3A4D9EECF00F0EECF01F0EECF02F0C7
:10306000EFCF03F00A0E3D6E3E6A3F6A406A00C031
:1030700038F001C039F002C03AF003C03BF07BECFD
:103080004DF034C000F035C001F036C002F037C05A
:1030900003F0300EDF5C046E056A066A076AE850CA
:1030A000002605500122065002220750032276D93D
:1030B00000C0EEFF01C0EEFF02C0EEFF03C0EEFF56
:1030C00007011BD907E1010E011804E1DE6B02D0F4
:1030D000000E04D0010EDB2AABD7010EE552E552FB
:1030E000EAD00701AE51E66EE66ABE0E006E7F0EB4
:1030F00047DA02E2E16AE552E16E03501200040190
:10310000785108E0010E006E6550020B01E0010EDF
:10311000005C17E1E5D90BE169516A1111E18B8C73
:10312000A00E696F0F0E6A6F010E6B6F120069516E
:103130006A1152E18B9CA00E696F0F0E6A6F6B6B68
:103140001200780509E0020E785D06E0040E785D55
:1031500003E0100E785D17E1C3D90BE169516A11E4
:1031600011E18B8C200E696F4E0E6A6F010E6B6F32
:10317000120069516A1130E18B9C200E696F4E0E6E
:103180006A6F6B6B1200200E785D26E1A9D907E10A
:1031900069516A1121E18B8CE3D9010E15D06B05C1
:1031A00007E169516A1118E18B9CDAD9020E0CD043
:1031B000020E6B5D0BE169516A110EE18B8CA00E62
:1031C000696F860E6A6F030E6B6F120069516A1188
:1031D00003E18B9CC5D96B6B120067D8B5D9E8AEFB
:1031E00002D0003403D0E750D880005423E3FC0E13
:1031F000DB5010E0E8D8E9BEEA68A2D804E0E8466F
:10320000FE0B0106FCE1006EDED8E9BEEA687EDA5C
:10321000EF1210D0D8D8E9BEEA6892D804E0E846A8
:10322000FE0B0106FCE1E81C006ECDD8E9BEEA68A1
:103230006DDAEF1640D039D887D9E8AE02D0003425
:1032400003D0E750D880005423E3FC0EDB5011E19B
:10325000BAD8E9BEEA6874D804E0E846FE0B010675
:10326000FCE1E81C006EAFD8E9BEEA6855DAEF165B
:103270000FD0A9D8E9BEEA6863D804E0E846FE0B9F
:103280000106FCE1006E9FD8E9BEEA6845DAEF125C
:1032900012D0016E026A00C0E6FFE66E02C0E6FFD1
:1032A000A4EF4CF0E66E27EF1BF072D9E1CFD9FF07
:1032B000E2CFDAFF1200E552E5CFDAFFE7CFD9FF20
:1032C0001200DE517FD9EF501200A951E96EEA6A6F
:1032D000ECEF1AF0E66E000EDA20E66E1200D9CF9F
:1032E000E9FFDACFEAFF1200E652E652A5EF1BF043
:1032F000DECFE9FFDDCFEAFF1200DE2BDE51006EEC
:10330000016A000E00181200D890F336E806120089
:10331000E96E000EDA20EA6E1200010EF36EDB5049
:103320001200EA22EECF48F0EFCF49F0120030D978
:10333000100EE66E2CEF1BF0006EDF50005C1200EA
:10334000D00EE926050EEA22EF50016E010E015261
:103350001200E66EC8EF1AF0EE54000EEE54000EA6
:10336000EE541200DF6EDFCFE6FFDC51016A000F82
:10337000006E020E01229CD9D2EC43F082EF1BF0CA
:10338000DECF00F0DDCF01F0D89001501200E76EE3
:10339000010EE7CFDBFF0701B4511200FC0EDBCFBB
:1033A000E9FFFD0EDBCFEAFF1200EA22EECF4AF082
:1033B000EFCF4BF0120010D9E8061200DBCFF4FF7C
:1033C000F350F45C1200FD0EDBCFE9FFEA6A120055
:1033D000DD51E2EF1AF0FB0EDBCFE9FFFC0EDBCF95
:1033E000EAFF1200EA22EE50EFCFEAFFE96E00504A
:1033F0001200036E050EE15C1200A951EA6A310F5A
:10340000E96E0E0EEA22EF500E01EA6AAC25E96E73
:10341000AD51EA2212000122110EDB50E8240024F3
:10342000E96E000E0120EA6EE552E750EF6E110ED4
:103430001200040EEECFDBFF050EEECFDBFF060E13
:10344000EECFDBFF070EEECFDBFF1200C5D8000E7C
:10345000E926010EEA221200006EFD0EDB50005C30
:103460001200E652E652E652020EDB6A1200EA6AE7
:10347000290FE96E010EEA221200DBCFE6FFE66AB1
:103480001200036E046A02C0E6FFE66E04C0E6FFA7
:10349000A4EC4CF0056E1200020EDBCF48F0030ED8
:1034A000DBCF49F01200016EFD0EDB50015C120013
:1034B000DECF00F0DDCF01F0000E005C100E0158F1
:1034C0001200EECFE6FFEECFE6FFEECFE6FFEFCF46
:1034D000E6FF1200070EB715486E010E48521200A3
:1034E00005016907000E6A5B6B511200000EE926A8
:1034F000030EEA221200010EDBCFE9FFEA6A120096
:103500006BD8410EE926010EEA221200040EDB28D8
:10351000E96EEA6AECEF1AF0E66EE66ADFEC4DF06F
:10352000E552E5521200FD0EDB50F80F006E010E61
:1035300000521200020EDBCFEEFF030EDBCFEDFFD9
:103540001200E16EA5EF1BF0FD0EDBCF00F0190EAF
:10355000E76E00181200D9CF00F0DACF01F01200A8
:10356000100E696F270E6A6F12009CDEE66AD95052
:1035700012008FDE82EF1BF0ADDE010E6CEF1BF050
:1035800088DEF9EF19F0A1DE010EE9260E0E120019
:10359000D9CFE6FFDACFE6FF120087DEE65212004F
:1035A000010ED7DE7FDEC7EF19F0ACD884D68DDEF2
:1035B000790EE9260E0E1200CEDF110EBCD8110EC8
:1035C000DB2A1200EA6A000FE96E030EEA221200FB
:1035D000BFD8FF0EEE541200D890E936EA3612003A
:1035E000110EE926050E9DDE83DE010E1200A9D81C
:1035F0006CEF1BF06ADE490EE9260E0E120049DE62
:10360000036E070EE15C1200110EDB50D92488EF27
:1036100019F08DDEF0EC4CF0006E080EE15C12004B
:10362000C4DE48504A5C49504B581200030E25DF57
:10363000020E3DEF1AF0D950010F6ADEEE50ED1088
:10364000120030DEE76E050EE7CFDBFF1200BFECA5
:1036500016F058D8E5521200E66AE66AF80EE66EF1
:10366000E66AE66A12000D0E006E07012ADE005CB3
:103670001200B1DE040EDBCFEEFF050E120095DE68
:103680004A5048181200110EE926050EEA221200CF
:1036900026DEEE50ED10120022DE010EEE181200B2
:1036A0001EDE020EEE1812001ADE030EEE181200D5
:1036B00000C0E6FF01C0E6FF1200006E02DE005C03
:1036C000120012DE050E51DF010FABEF1BF00CDE16
:1036D000010E4BDF010F1200E5DD0701B4511200AE
:1036E000F0DDE66EE66ACA0E006E7F0EC0EF1AF0DD
:1036F0005EDF17DE48DFEA22485012004EDFE65256
:10370000E6521200E552E552E552120065DF9E0EC8
:10371000E926050EF2EF19F05FDF6C0EE926050EC3
:10372000F2EF19F067DFFDDDC3EF1AF0030E1DDFC6
:10373000020FBCEF1AF0DB500F01D924E9DDEF6A6C
:103740001200020FC7DD030E1200E66AC8EF1AF07E
:10375000C6DDD8801200BEDD010EB5EF1AF01DDF08
:08376000B0DF020FBCEF1AF00C
:08376800E9CFE4FFEACFE4FF22
:10377000E65210EC2AF0E6529EA031D19E90FE0E49
:10378000CF6E3D0ECE6E19C630F60601316B010EBE
:10379000326FA5EC2CF014E0D880000E1A55000E04
:1037A0001B55190E1C55000E1D5505E21A6B1B6B9F
:1037B0001C6B1D6B05D01A07000E1B5B1C5B1D5B91
:1037C000A5EC2CF001E0326B000501E18AD0030E7C
:1037D000005D59E1E4513AE02105DF6E1E511F11F1
:1037E0001AE116EC2CF0EF500E01EA6AAC25E96EF6
:1037F000AD51EA22EF6AEDEC2DF0EE6AED6AF3ECE2
:103800002DF0EE6AED6A16EC2CF0EF6A12EC2EF059
:10381000EE6AED6A1BD0EDEC2DF022C6EEFF23C65A
:10382000EDFFF3EC2DF01EC6EEFF1FC6EDFF16EC0C
:103830002CF020C6EFFF12EC2EF0EE50ED1006E15A
:1038400012EC2EF01EC6EEFF1FC6EDFF0E01B651A4
:103850000601205D46E10E01B05106011E190CE182
:103860000E01B15106011F1907E1010ED86FD46B8B
:10387000E35137E08C9A35D0D86B010ED46FE35109
:1038800030E08C8A2ED0040E005D2BE1245122E022
:1038900025C64CF026C64DF0D8904D324C32D8900B
:1038A0004D324C324C50BB6EE1C64EF0E2C64FF08A
:1038B000040ED8904E364F36E804FBE1300E4E161B
:1038C000000E4F16CF0EBA144E104C6E4FC04DF076
:1038D000E85003D0BB6ACF0EBA14BA6E0601010ECF
:1038E000326F325172E0A5EC2CF06FE1006B275182
:1038F00068E134C600F635C601F636C602F637C6AC
:1039000003F638C604F639C605F63AC606F63BC6CF
:1039100007F63CC608F63DC609F63EC60AF63FC69F
:103920000BF640C60CF641C60DF642C60EF643C66F
:103930000FF644C610F645C611F646C612F647C63F
:1039400013F648C614F649C615F64AC616F64BC60F
:1039500017F64CC618F64DC619F64EC61AF64FC6DF
:103960001BF650C61CF651C61DF652C61EF653C6AF
:103970001FF654C620F655C621F656C622F657C67F
:1039800023F658C624F659C625F65AC626F6346BD1
:10399000356B366B376B386B396B3A6B3B6B3C6B0B
:1039A0003FEC2CF04D6BAFEC2CF0526B536B546B27
:1039B000556B566B576B586B596B5A6B010E276FD3
:1039C00004D01A6B1B6B1C6B1D6B8250800B05E0C7
:1039D000DF5105E08150010B02E1010EDE6FE5527F
:1039E000E552E5CFDAFFE7CFD9FFE552E5CFEAFFB1
:1039F000E5CFE9FF1100D9CFE6FFDACFE6FFE1CF4F
:103A0000D9FFE2CFDAFFE652DF6ADFCF00F0020E25
:103A1000E76E0018E8AE02D0E73402D0E750005C51
:103A20003CE2DFCFE9FFEA6AE9BEEA68D890E9360E
:103A3000EA36D890E936EA36010EE926060EEA2281
:103A4000010EEE6EEE6AEE6AEE6ADFCFE9FFEA6A19
:103A5000E9BEEA68D890E936EA36D890E936EA361F
:103A6000110EE926060EEA22EE6AEE6AEE6AEE6AA8
:103A7000DFCFE9FFEA6AE9BEEA68D890E936EA36BC
:103A8000D890E936EA36090EE926060EEA22EE6AF1
:103A9000EE6AEE6AEE6ADF2AB8D70601006B06010D
:103AA000196B06011A6B1B6B1C6B1D6B06011E6BE1
:103AB0001F6B0601206B0601216B0601226B236B35
:103AC0000601010E276FCD82CD9ECD9CCD9ACD985B
:103AD000CD96CD94FE0ECF6E3D0ECE6ECD809F80E6
:103AE0009E909D80F19E9F9C010EE66E0A0EE66EF2
:103AF00068EC10F0E552E5529492828200000000DA
:103B000000000000000000000000000000000000B5
:103B100000000000000000000000000000000000A5
:103B20000000948282920601010EE36F0601010EED
:103B3000E46F8C9A959A8C9E959E0601010ED46F27
:103B40000601D76B0601010ED86F0601DD6B060179
:103B5000D96BDA6BDB6BDC6B0601DE6B0601010EE9
:103B6000DF6FCFEC29F0E552E552E5CFDAFFE7CF82
:103B7000D9FF120010EC2AF0D6EC2BF009EC2BF058
:103B800058EC2EF0E66AD95040EC2EF00701B45103
:103B900001E09ED0DF0424E1DFEC2BF00CE1060114
:103BA000010EE36FE46B8AEC2BF002E2E16AE5526E
:103BB000E16E00500DD048EC2CF006E1ED5004E130
:103BC0000601E36B010E03D00601010EE36FE46F03
:103BD000000EE66EE66AD8C6E6FF78EC2CF076D0EA
:103BE000020EDF5C19E1DFEC2BF003E10601D76B7D
:103BF0006DD048EC2CF005E1ED5003E10601010E1B
:103C000009D02EEC2EF0020EEE1860E1ED505EE1D0
:103C10000601020ED76F5AD0040EDF5C07E1010ED9
:103C2000DBCFB0FE020EDBCFB1FE50D0050EDF5C65
:103C300007E1010EDBCFAEFE020EDBCFAFFE46D0BA
:103C4000080EDF5C0FE12EEC2EF0180ED880EE543B
:103C5000000EED5403E2180E89EC2CF0010EDBCFC0
:103C6000AAFE34D0090EDF5C0FE12EEC2EF0060E1A
:103C7000D880EE54000EED5403E2060E89EC2CF0D1
:103C8000010EDBCFABFE22D00A0EDF5C03E190EC2D
:103C90002CF009D00B0EDF5C03E190EC2CF016D079
:103CA0000C0EDF5C07E1010EDBCFB4FE020EDBCFB2
:103CB000B5FE0CD00D0EDF5C09E1DFEC2BF004E06B
:103CC0000601010EDF6F02D00601DF6BD4EC0FF0AE
:103CD0003CEC2EF037EF2AF010EC2AF0200EE12415
:103CE00002E3E168E6523CEC2DF04CEC2CF0E66A85
:103CF000D950040F50EC2EF0060F50EC2EF0080FA8
:103D000032EC2EF00C0FC8EC2CF0D950040F2BEC39
:103D10002CF004E28E0E006E7F0E7BD2D950060F7F
:103D20002BEC2CF004E2600E006E7F0E72D21DECC4
:103D30002CF0040E005C000E015804E2360E006EFA
:103D40007F0E67D2060EDBCF00F0070EDBCF01F04F
:103D5000040E005C000E015804E20E0E006E7F0E91
:103D600058D20701B45101E05DD2080EDBCF10F04C
:103D7000090EDBCF11F00A0EDBCF12F00B0EDBCFFA
:103D800013F010C038F011C039F012C03AF013C06F
:103D90003BF0080EDBCF3DF0090EDBCF3EF00A0E04
:103DA000DBCF3FF00B0EDBCF40F07BEC4DF034C0AF
:103DB0000CF035C00DF036C00EF037C00FF00C0E11
:103DC000DBCF14F00D0EDBCF15F00E0EDBCF16F0AF
:103DD0000F0EDBCF17F014C038F015C039F016C045
:103DE0003AF017C03BF00C0EDBCF3DF00D0EDBCFF1
:103DF0003EF00E0EDBCF3FF00F0EDBCF40F07BEC42
:103E00004DF00C503424086E0D503520096E0E50C4
:103E100036200A6E0F5037200B6E24EC2CF03B6ED0
:103E200055EC3BF0EDEC2AF039C0E6FF3AC0E6FF76
:103E30003BC0E6FF3CC0E6FFD9EC40F03CEC2EF086
:103E4000E552BDEC2DF038C039F0F9EC2DF0C5ECA1
:103E50003CF0140E38C0DBFF150E39C0DBFF160E28
:103E60003AC0DBFF170E3BC0DBFF06012751FDE028
:103E7000AFEC2CF04D6B71EC2AF0D950080FE1EC4F
:103E80002DF002E6AEEC2AF004E2E9EC2CF00CECAA
:103E90002BF0D9500C0FE1EC2DF002E6AEEC2AF03D
:103EA0000EE20C0EDBCF38F00D0EDBCF39F00E0E2C
:103EB000DBCF3AF00F0E3DEC2AF019EC2BF0F5ECCD
:103EC0002CF002E68DEC2AF004E2E00E006E7E0E8D
:103ED000A0D101EC2DF002E68DEC2AF004E2B20E46
:103EE000006E7E0E96D1E3EC2BF0EDEC2AF0AC0EDA
:103EF0003E6EC50E3F6EA70E406E470E416EC1EC82
:103F00003BF032EC2CF0DBCF0CF0150EDBCF0DF0DC
:103F1000160EDBCF0EF0170EDBCF0FF00CC038F013
:103F20000DC039F00EC03AF00FC03BF053EC3BF03F
:103F300055EC2CF06CEC2AF06EEC3BF0180E39C00E
:103F4000DBFF190E3AC0DBFF1A0E3BC0DBFF1B0E76
:103F50003CC0DBFFFCEC2BF0080EDBCF08F0090EB9
:103F6000DBCF09F00A0EDBCF0AF00B0E25EC2DF0AB
:103F700038C035F639C036F63AC037F63BC038F6A9
:103F8000080EDBCF45F6090EDBCF46F60A0EDBCF77
:103F900047F60B0EDBCF48F65EEC2CF055EC2CF020
:103FA0005EEC2CF039C00CF03AC00DF03BC00EF0C6
:103FB0003CC00FF0D7EC2CF008C039F009C03AF043
:103FC0000AC03BF00BC03CF0C1EC3BF0EDEC2AF03A
:103FD000E3EC2BF039C014F03AC015F03BC016F0FA
:103FE0003CC017F0E3EC2BF039C018F03AC019F0E0
:103FF0003BC01AF03CC01BF0D7EC2CF014C039F0D9
:1040000015C03AF016C03BF017C03CF0C1EC3BF0D5
:1040100039C010F03AC011F03BC012F03CC013F0B0
:10402000D7EC2CF004C039F005C03AF006C03BF0E4
:1040300007C03CF02EEC3CF032EC2CF0DBCF28F04B
:10404000150EDBCF29F0160EDBCF2AF0170EDBCFD3
:104050002BF028C038F029C039F02AC03AF02BC024
:104060003BF053EC3BF039C024F03AC025F03BC0A4
:1040700026F03CC027F0140EDBCF30F0150EDBCF5E
:1040800031F0160EDBCF32F0170EDBCF33F030C03D
:1040900038F031C039F032C03AF033C03BF053EC65
:1040A0003BF039C02CF03AC02DF03BC02EF03CC0A4
:1040B0002FF0D7EC2CF024C039F025C03AF026C000
:1040C0003BF027C03CF0C1EC3BF039C020F03AC0D7
:1040D00021F03BC022F03CC023F03E6A3F6A406AB8
:1040E000400E416EC1EC3BF039C01CF03AC01DF0EF
:1040F0003BC01EF03CC01FF06CEC2AF06EEC3BF0B5
:104100001C0E39C0DBFF1D0E3AC0DBFF1E0E3BC08C
:10411000DBFF1F0E3CC0DBFF080EDBCF04F0090EF7
:10412000DBCF05F00A0EDBCF06F00B0E45EC2AF0D4
:1041300038C03DF639C03EF63AC03FF63BC040F6C7
:10414000FCEC2BF00C0EDBCF08F00D0EDBCF09F0F2
:104150000E0EDBCF0AF00F0E25EC2DF038C039F62D
:1041600039C03AF63AC03BF63BC03CF60C0EDBCF0A
:1041700049F60D0EDBCF4AF60E0EDBCF4BF60F0ED7
:10418000DBCF4CF6CCEC2CF045EC2AF038C041F6F5
:1041900039C042F63AC043F63BC044F61DEC2CF061
:1041A000060EDB50001803E1070EDB50011814E087
:1041B00006013D513E113F1140110EE1D880000E25
:1041C0004555000E4655000E4755000E485504E271
:1041D000870E006E7E0E1DD01DEC2CF0060EDB50FF
:1041E000001803E1070EDB50011816E006014151EB
:1041F00042114311441110E1D880000E4955000EC0
:104200004A55000E4B55000E4C5506E25C0E006EF2
:104210007E0E41EC2DF006D00601010E346F276BA7
:10422000D4EC0FF0200EE15C02E2E16AE552E16EAF
:1042300037EF2AF010EC2AF03F0EE12402E3E168A8
:10424000E652E16E17EC2DF023EC2EF0100F32EC5D
:104250002EF0040F32EC2EF0080F50EC2EF0140F5D
:1042600032EC2EF00C0FC8EC2CF00701B45101E039
:1042700061D134EC2AF00DE1040EDBCF04F0050E21
:10428000DBCF05F0060EDBCF06F0070EBEEC2AF002
:1042900011E0100EDBCF08F0110EDBCF09F0120E8B
:1042A000DBCF0AF0130EDBCF0BF0085009100A1019
:1042B0000B1035E1080EDBCF0CF0090EDBCF0DF053
:1042C0000A0EDBCF0EF00B0EDBCF0FF00C500D10F3
:1042D0000E100F1012E10C0EDBCF10F00D0EDBCF25
:1042E00011F00E0EDBCF12F00F0EDBCF13F01050DB
:1042F00011101210131001E11DD1140EDBCF14F0B8
:10430000150EDBCF15F0160EDBCF16F0170EDBCF38
:1043100017F0145015101610171001E10BD1320EC2
:10432000DB6A330EDB6A340EDB6A350EDB6A310E74
:10433000DB6A71EC2AF0D950100FE1EC2DF002E6A7
:10434000AEEC2AF018E2100EDBCF38F0110EDBCF06
:1043500039F0120EDBCF3AF0130E3DEC2AF0100EBE
:1043600034C0DBFF110E35C0DBFF120E36C0DBFFA1
:10437000130E37C0DBFFD950140FE1EC2DF002E62D
:10438000AEEC2AF00EE2140EDBCF38F0150EDBCFC8
:1043900039F0160EDBCF3AF0170E3DEC2AF026EC82
:1043A0002BF01EEC2EF0190EEECFDBFF1A0EEECF27
:1043B000DBFF1B0EEECFDBFF1C0EE9EC2DF0100F28
:1043C000C3EC2CF0290EEECFDBFF2A0EEECFDBFF85
:1043D0002B0EEECFDBFF2C0EE9EC2DF0040FE96E77
:1043E000000E99EC2BF0D950080FC3EC2CF01D0EE9
:1043F000EECFDBFF1E0EEECFDBFF1F0EEECFDBFF9F
:10440000200EE9EC2DF0140FC3EC2CF02D0EEECFA6
:10441000DBFF2E0EEECFDBFF2F0EEECFDBFF300EDD
:10442000E9EC2DF00C0FE96E000EA8EC2BF0010E5C
:10443000F36E180EF3CFDBFF06012751FDE0180ED7
:10444000DBCF34F6190EDBCF35F61A0EDBCF36F69E
:104450001B0EDBCF37F61C0EDBCF38F61D0EDBCF85
:1044600039F61E0EDBCF3AF61F0EDBCF3BF6200EE1
:10447000DBCF3CF6210EDBCF3DF6220EDBCF3EF646
:10448000230EDBCF3FF6240EDBCF40F6250EDBCF2D
:1044900041F6260EDBCF42F6270EDBCF43F6280E81
:1044A000DBCF44F6290EDBCF45F62A0EDBCF46F6EE
:1044B0002B0EDBCF47F62C0EDBCF48F62D0EDBCFD5
:1044C00049F62E0EDBCF4AF62F0EDBCF4BF6300E21
:1044D000DBCF4CF6310EDBCF4DF6320EDBCF4EF696
:1044E000330EDBCF4FF6340EDBCF50F6350EDBCF7D
:1044F00051F6360EDBCF52F6370EDBCF53F6380EC1
:10450000DBCF54F6390EDBCF55F63A0EDBCF56F63D
:104510003B0EDBCF57F63C0EDBCF58F63D0EDBCF24
:1045200059F63E0EDBCF5AF6276B0701E35102E046
:10453000D4EC0FF03F0EE15C02E2E16AE552E16E7D
:1045400037EF2AF010EC2AF0100EE12402E3E168C4
:10455000E6523CEC2DF009EC2BF020EC2DF0040F92
:10456000C8EC2CF085EC2CF0080FC8EC2CF00E01F8
:10457000BF516FE034EC2AF002E10701B48D07016E
:10458000B45173E1EBEC2BF004E2290E006E7E0EC9
:104590005DD049EC2DF002E604EC2BF005E2D95099
:1045A000040F69EC2BF004D055EC2DF019EC2BF036
:1045B00001EC2DF002E68DEC2AF004E2E00E006E34
:1045C0007E0E44D061EC2DF004E2F90E006E7D0EFB
:1045D0003DD0E3EC29F00C0F97EC2AF009E3CCEC8A
:1045E0002CF0BEEC2AF004E0D30E006E7D0E2ED02F
:1045F000F5EC2CF002E604EC2BF005E2D950080FA4
:1046000069EC2BF004D0E9EC2CF019EC2BF001EC68
:104610002DF002E68DEC2AF004E2B20E006E7E0E62
:1046200015D061EC2DF004E2A30E006E7D0E0ED0CD
:10463000E3EC29F00C0F97EC2AF00BE3CCEC2CF018
:10464000BEEC2AF006E07D0E006E7D0E41EC2DF0F2
:104650000CD032EC2DF002E2E16AE552E16E00503E
:104660000701E35102E0D4EC0FF0100EE15C02E22E
:10467000E16AE552E16E37EF2AF010EC2AF0180EED
:10468000E12402E3E168E6523CEC2DF04CEC2CF026
:1046900023EC2EF00C0F32EC2EF0100FC8EC2CF0A7
:1046A00034EC2AF002E10701B48D100EDBCF00F0EC
:1046B000110EDBCF01F0120EDBCF02F0130EDBCFB9
:1046C00003F0D9500C0FC3EC2CF0EE500026EE5046
:1046D0000122EE500222EE500322040E00C0DBFF46
:1046E000050E01C0DBFF060E02C0DBFF070E03C094
:1046F000DBFFCCEC2CF0DBCF07F0D950100FC3EC74
:104700002CF0EE50045C006EEE500558016EEE5039
:104710000658026EEE500758036E080E00C0DBFF0D
:10472000090E01C0DBFF0A0E02C0DBFF0B0E03C047
:10473000DBFF49EC2DF002E604EC2BF005E2D9504A
:10474000040F77EC2BF004D055EC2DF026EC2BF079
:10475000EBEC2BF004E2290E006E7E0E4AD06DECDD
:104760002DF002E68DEC2AF004E2E00E006E7E0EE3
:1047700040D079EC2DF004E2F90E006E7D0E39D0B8
:10478000E3EC29F0140F97EC2AF007E385EC2DF009
:1047900004E0D30E006E7D0E2CD0F5EC2CF002E67A
:1047A00004EC2BF005E2D950080F77EC2BF004D085
:1047B000E9EC2CF026EC2BF06DEC2DF002E68DEC04
:1047C0002AF004E2B20E006E7E0E13D079EC2DF0CA
:1047D00004E2A30E006E7D0E0CD0E3EC29F0140F62
:1047E00097EC2AF009E385EC2DF006E07D0E006ED3
:1047F0007D0E41EC2DF00CD00701B45109E132ECF3
:104800002DF002E2E16AE552E16E0050D4EC0FF0C7
:10481000180EE15C02E2E16AE552E16E37EF2AF040
:1048200010EC2AF0370EE12402E3E168E6523CEC9A
:104830002DF0A1EC2AF053EC2EF017E191EC2DF0C5
:1048400014E1020EF36E100EF3CFDBFFD2EC2AF070
:104850002A0E34C0DBFF2B0E35C0DBFF2C0E36C01A
:10486000DBFF2D0E37C0DBFF56D12A0EDB6A2B0E85
:10487000DB6A2C0EDB6A2D0EDB6A290EDB6A71EC1B
:104880002AF0D950F60FE5EC2DF002E6AEEC2AF056
:1048900018E2F60EDBCF38F0F70EDBCF39F0F80E6A
:1048A000DBCF3AF0F90E3DEC2AF0F60E34C0DBFF18
:1048B000F70E35C0DBFFF80E36C0DBFFF90E37C050
:1048C000DBFFD950F20FE5EC2DF002E6AEEC2AF05A
:1048D00018E2F20EDBCF38F0F30EDBCF39F0F40E36
:1048E000DBCF3AF0F50E3DEC2AF0F20E34C0DBFFE0
:1048F000F30E35C0DBFFF40E36C0DBFFF50E37C01C
:10490000DBFFD950F60FE5EC2DF002E666EC2CF05B
:1049100030E2D2EC2AF0040E34C0DBFF050E35C0C5
:10492000DBFF060E36C0DBFF070E37C0DBFFA1EC56
:104930002AF00F0E1F0B03E0C5EC2AF0FDE1F0ECAE
:1049400029F0E2EC2AF0A1EC2AF00F0E1F0B03E095
:10495000C5EC2AF0FDE100EC2EF014E2B7EC2BF0F0
:1049600003E0C5EC2AF0FDE1F0EC29F009EC2CF0B5
:1049700009D0A1EC2AF0F6EC2AF097EC2CF0FDE13E
:1049800036EC2EF0F6EC2BF00CE27BEC2AF0480E25
:10499000006E7D0EA1EC2DF002E2E16AE55235ECED
:1049A0002CF034EC2AF012E1F60EDBCF04F0F70E17
:1049B000DBCF05F0F80EDBCF06F0F90EBEEC2AF0E7
:1049C00005E01D0E006E7D0E45EC2EF07DEC2AF00C
:1049D00009E2C6EC2BF003E09EEC2CF0FDE153EC79
:1049E0002BF006D0D2EC2BF003E0C5EC2AF0FDE171
:1049F0007DEC2BF0110EEECFDBFF120EEECFDBFFC6
:104A0000130EEECFDBFF140EE9EC2DF0F60FE96E7E
:104A1000FF0E99EC2BF0190EDB6A1A0EDB6A1B0EE7
:104A2000DB6A1C0EDB6AD950F20FE5EC2DF002E6D2
:104A300066EC2CF022E233EC2BF00F0E1F0B03E0A0
:104A4000C5EC2AF0FDE1F0EC29F0E2EC2AF033ECC1
:104A50002BF00F0E1F0B03E0C5EC2AF0FDE100EC7C
:104A60002EF014E2B7EC2BF003E0C5EC2AF0FDE1E8
:104A7000F0EC29F009EC2CF009D033EC2BF0F6EC3B
:104A80002AF097EC2CF0FDE136EC2EF0F6EC2BF052
:104A90000CE27BEC2AF0E80E006E7C0EA1EC2DF00F
:104AA00002E2E16AE55235EC2CF034EC2AF008E140
:104AB00091EC2DF005E0BD0E006E7C0E45EC2EF065
:104AC0007DEC2AF009E2C6EC2BF003E09EEC2CF022
:104AD000FDE153EC2BF006D0D2EC2BF003E0C5EC5B
:104AE0002AF0FDE17DEC2BF0AAEC2DF0180EE9EC9C
:104AF0002DF0F20FE96EFF0EA8EC2BF01D0EDB6A15
:104B00001E0EDB6A1F0EDB6A200EDB6A010EF36EDF
:104B1000100EF3CFDBFF06012751FDE0100EDBCFB7
:104B200034F6110EDBCF35F6120EDBCF36F6130E50
:104B3000DBCF37F6140EDBCF38F6150EDBCF39F6A8
:104B4000160EDBCF3AF6170EDBCF3BF6180EDBCF97
:104B50003CF6190EDBCF3DF61A0EDBCF3EF61B0EF0
:104B6000DBCF3FF61C0EDBCF40F61D0EDBCF41F650
:104B70001E0EDBCF42F61F0EDBCF43F6200EDBCF3F
:104B800044F6210EDBCF45F6220EDBCF46F6230E90
:104B9000DBCF47F6240EDBCF48F6250EDBCF49F6F8
:104BA000260EDBCF4AF6270EDBCF4BF6280EDBCFE7
:104BB0004CF6290EDBCF4DF62A0EDBCF4EF62B0E30
:104BC000DBCF4FF62C0EDBCF50F62D0EDBCF51F6A0
:104BD0002E0EDBCF52F62F0EDBCF53F6300EDBCF8F
:104BE00054F6310EDBCF55F6320EDBCF56F6330ED0
:104BF000DBCF57F6340EDBCF58F6350EDBCF59F648
:104C0000360EDBCF5AF6276B370EE15C02E2E16A23
:104C1000E552E16E37EF2AF010EC2AF0110EE12494
:104C200002E3E168E6526FEC2CF017EC2AF0100E6C
:104C3000DB6A0601275102E1340502E0000502E1CA
:104C4000010EDF6E340525E1346B090E45C6DBFF2E
:104C50000A0E46C6DBFF0B0E47C6DBFF0C0E48C62E
:104C6000DBFF0D0E49C6DBFF0E0E4AC6DBFF0F0E43
:104C70004BC6DBFF100E4CC6DBFF3FEC2CF03D6B50
:104C80003E6B3F6B406B416B426B436B446B010E61
:104C9000276F000529E1006B010E11C6DBFF020E34
:104CA00012C6DBFF030E13C6DBFF040E14C6DBFFC8
:104CB000050E15C6DBFF060E16C6DBFF070E17C670
:104CC000DBFF080E18C6DBFF116B126B136B146B46
:104CD000156B166B176B186B096B0A6B0B6B0C6BF8
:104CE0000D6B0E6B0F6B106BD950050FB2DBD950EB
:104CF000010FAFDBD9500D0FACDBD950090FA9DB89
:104D0000DFCFE6FFE66AA80E006E7C0EA4DB036E22
:104D1000150EE15C02E2E16AE5527CEC2CF0110E2A
:104D2000E15C02E2E16AE552E16EA1D3D8C600F08F
:104D3000016A00BE0168B4EC2CF0A30E026E7C0E7A
:104D400040EC2BF002E2E16AE552E16E0550D4EF4F
:104D50000FF09DEC2DF0DE6ADD6A010EE66E15ECBB
:104D60002EF0030E29DB0701B4510FE10601D8052F
:104D700004E1B9EC2CF0E66A04D0B9EC2CF0010E99
:104D8000E66E78EC2CF0D4EC0FF0E552E5526FD3E0
:104D90009DEC2DF0D6EC2BF0040E80EC2CF044ECC6
:104DA0002DF0C6EC2DF0BEEC2CF00701B4512AE139
:104DB000030EDB50070803E2040E80EC2CF0DF50FA
:104DC000010802E2010EDF6E030EDB50030F0E013D
:104DD000B65D0CE08AEC2BF002E2E16AE552E16E8E
:104DE0000050030EDB50030F0E01B66F010EDBCF38
:104DF000E6FF020EDBCFE6FFDFCFE6FF78EC2CF01C
:104E0000D4EC0FF0050EE15C02E2E16AE552E16EDE
:104E10002ED39DEC2DF0E652E652FD0EDB040BE1A5
:104E2000B0CEDEFFB1CEDDFF020EB2CEDBFF030E51
:104E3000B3CEDBFF0AD0AECEDEFFAFCEDDFF020E7B
:104E4000B4CEDBFF030EB5CEDBFF4BDBFB0EDBCFBF
:104E5000E6FFFC0EDBCFE6FF020EDBCFE6FF030E24
:104E6000DBCFE6FFB6CEE6FFB9EC2CF06AEC47F0FC
:104E7000006E070EE15C02E2E16AE552E16E00506D
:104E8000040EE15C02E2E16AE552E16EF0D29DECD3
:104E90002DF0E652BEDBCBEC2DF021E10701B45141
:104EA00039E10601D75103E0020ED75D12E1DF5070
:104EB00000080DE2D75101E114DBDF04020EDF5CD4
:104EC000030EDF5C040EDF5C050EDF5C08D0D751FB
:104ED00006D0D70504E1DF50000801E202DB85ECD3
:104EE0002CF0010F15DBCBEC2DF012E10701B451D2
:104EF00011E10601D75105E1010EDB50000808E27F
:104F000006D0D70505E1010EDB50000801E2E9DA21
:104F1000D4EC0FF03CEC2EF0AAD2FE0E0601D95DC7
:104F2000FF0EDA59FF0EDB59FF0EDC5905E2D92BD3
:104F3000000EDA23DB23DC23D4EF0FF00601D95176
:104F4000DA11DB11DC1105E0D907000EDA5BDB5B5F
:104F5000DC5BD4EF0FF09DEC2DF0E652E652E6520A
:104F600058DB070E29DABEEC2CF0DB500BE1DFCF6B
:104F7000D9F6010EDBCFDAF6020EDBCFDBF6030E3D
:104F8000DBCFDCF6D4EC0FF0050EE15C02E2E16A67
:104F9000E552E16E6CD2D9C6E6FFDAC6E6FFDBC6A3
:104FA000E6FFDCC6E6FF9A0E006E7C0EA1EC2DF04B
:104FB00002E2E16AE5527CEF2CF0E66ADD0EE66E75
:104FC000060EE66E58EC2EF00701B45101E0120017
:104FD000D4EF0FF0DDC600F0016A00BE0168B4EC4A
:104FE0002CF0930E026E7C0E4BDB02E2E16AE5527E
:104FF000E16E0550D4EF0FF0DEC600F0016A00BE8E
:105000000168B4EC2CF08D0E026E7C0E39DB02E2EE
:10501000E16AE552E16E05500601DE6BD4EF0FF058
:105020009DBCFED716C1E6FF17C1E6FF00C1E6FF33
:1050300001C1E6FF810E006E7C0EA1EC2DF002E2B4
:10504000E16AE5527CEF2CF09DEC2DF0AFDB030E16
:10505000DB6A44EC2DF0BEEC2CF0C6EC2DF0070121
:10506000B45101E080D02EEC2EF0FF0ED880EE542B
:10507000030EED5407E2010EDB68030EF36E020E21
:10508000F3CFDBFFDF50010802E2010EDF6E030EFB
:10509000DB50010803E2010E80EC2CF0DF0409E193
:1050A000040EDB50030805E10601E16B020EE26F1E
:1050B00006D0010EDBCFE1F6020EDBCFE2F6CAB47A
:1050C00015D0CB68FC0ECA140009CA6E9D920F0160
:1050D00052815293F00EBA140C09BA6E3F0EBA14F4
:1050E0000009BA6E0E010E0ECC6FCA84030EDB509F
:1050F0002AE1DF5023E0E1C600F0E2C601F0D890DB
:1051000001320032D890013200320050BB6EE1C64D
:1051100002F0E2C603F0040ED89002360336E8042B
:10512000FBE1300E0216000E0316CF0EBA1400017A
:105130000210006E03C001F0E85003D0BB6ACF0E2E
:10514000BA14BA6E0ED006012751FDE0E1C659F639
:10515000E2C65AF6AFEC2CF0DFCF58F6040E346FEF
:10516000276BD4EC0FF0050EE15C02E2E16AE55238
:10517000E16E7DD1120054D92B0EE12402E3E168E7
:10518000E652ADDBF29E040E00C6DBFF050E01C643
:10519000DBFF060E02C6DBFF070E03C6DBFF080EB1
:1051A00004C6DBFF090E05C6DBFF0A0E06C6DBFFE1
:1051B0000B0E07C6DBFF0C0E08C6DBFF0D0E09C683
:1051C000DBFF0E0E0AC6DBFF0F0E0BC6DBFF100E59
:1051D0000CC6DBFF110E0DC6DBFF120E0EC6DBFF89
:1051E000130E0FC6DBFF140E10C6DBFF150E11C623
:1051F000DBFF160E12C6DBFF170E13C6DBFF180E01
:1052000014C6DBFF190E15C6DBFF1A0E16C6DBFF30
:105210001B0E17C6DBFF1C0E18C6DBFF1D0E19C6C2
:10522000DBFF1E0E1AC6DBFF1F0E1BC6DBFF200EA8
:105230001CC6DBFF210E1DC6DBFF220E1EC6DBFFD8
:10524000230E1FC6DBFF240E20C6DBFF250E21C662
:10525000DBFF260E22C6DBFF270E23C6DBFF280E50
:1052600024C6DBFF290E25C6DBFF2A0E26C6DBFF80
:10527000F28E1E0EDBCF00F01F0EDBCF01F0200EF2
:10528000DBCF02F0210EA6EC2DF002E0010EDF6E66
:10529000040EDB5002E0010EDF6E0601275103E130
:1052A000010EDF6E2DDBDF5010E0150EDBCF00F0BE
:1052B000160EDBCF01F0170EDBCF02F0180EA6ECB6
:1052C0002DF003E0DE52010EDD6EDF5012E0190E0C
:1052D000DBCF00F01A0EDBCF01F01B0EDBCF02F0AC
:1052E0001C0EA6EC2DF005E0010EF36E020EF3CFBE
:1052F000DBFF030EDBCFE6FFE66A020EDBCFE6FF45
:10530000E66A010EDBCFE6FFE66ADFCFE6FFE66A7C
:10531000700E006E7C0E9FD8036E0B0EE15C02E2F5
:10532000E16AE552E16E03502B0EE15C02E2E16AB4
:10533000E552E16E9CD074D8080EE12402E3E168E6
:10534000E652E16EF29E28C6DFFF010E29C6DBFFA2
:10535000020E2AC6DBFF030E2BC6DBFF040E2CC693
:10536000DBFF050E2DC6DBFF060E2EC6DBFF070E8C
:105370002FC6DBFFF28E4AEC2EF0660E006E7C0E1E
:105380006AD8036E0B0EE15C02E2E16AE552B4DA20
:10539000080EE15C02E2E16AE552E16E68D0F29E3D
:1053A0000601286B296B2A6B2B6B2C6B2D6B2E6BDC
:1053B0002F6BF28ED4EF0FF0E66EBFEC16F03CECE4
:1053C0002EF0E552120029DB1F0E3D6E050E3E6EDB
:1053D0003F6A406AF5DA05EC4EF0CFDBD950120097
:1053E000EFDA040EDBCF3DF0050EDBCF3EF0060E0C
:1053F000DBCF3FF0070E1AEF2EF0DBCF03F0E0DA41
:10540000DFCF3DF0010EDBCF3EF0020EDBCF3FF0F1
:10541000030E1AEC2EF0D880190E385405EF2EF03A
:1054200015EC2EF0E1CFD9FFE2CFDAFF1200040E27
:10543000DB6A050EDB6A060EDB6A070EDB6A080E06
:10544000DB6A090EDB6A0A0EDB6A0B0EDB6A17EFFA
:105450002DF099DA89D3016E026A00C0E6FFE66E8C
:1054600002C0E6FFA4EF4CF0D8DA53EF2EF0E5527D
:10547000E5CFDAFFE7CFD9FF1200DBCF3BF03D6885
:105480003E683F6840687BEF4DF0DBCF07F004C01B
:1054900038F005C039F006C03AF007C03BF055ECD3
:1054A0003BF01C0EDBCF3EF01D0EDBCF3FF01E0E9F
:1054B000DBCF40F01F0EDBCF41F0C1EC3BF072DBE5
:1054C000210E3E6EE60E3F6E5B0E406E400E416E4C
:1054D000C1EC3BF0C5EF3CF06ADA00C039F0F9EFFF
:1054E0002DF08C8E1DC519F51EC51AF51FC51BF5AF
:1054F00020C51CF51200A2DB37D3D950FA0FE96E94
:10550000FF0EDA20EA6ED8801E0EEE54000E84D311
:10551000E66E000EDA20E66E1200D880FF0E3954D7
:10552000FF0E3A54FF0E3B54000E3C5412002BDA8F
:10553000EE50385CEE503958EE503A58EE503B5829
:105540001200F60EDBCF00F0F70EDBCF01F0F80E05
:10555000DBCF02F0F90EDBCF03F01200000EEE5CA1
:10556000000EEE58000EEE58000EEE581200DA2033
:10557000EA6ED890030EEB50000A1200DBCF07F062
:1055800004500510061007101200D890003601369E
:1055900002360336E8061200DBCF3CF03C34000E46
:1055A0003C181200FA0EDBCF00F0FB0EDBCF01F04F
:1055B000FC0EDBCF02F0FD0EDBCF03F0FCDA00DAED
:1055C0007BEF4DF038C0DEFF39C0DEFF3AC0DEFFB2
:1055D0003BC0DDFFDD52DD52120039C004F03AC09D
:1055E00005F03BC006F03CC007F01200E9D9FA0E06
:1055F000DBCF3DF0FB0EDBCF3EF0FC0EDBCF3FF010
:10560000FD0E18DB0F0E1200D880FFDA000E3C549E
:105610001200E66A15EF2EF0080E34C0DBFF090E0B
:1056200035C0DBFF0A0E36C0DBFF0B0E37C0DBFFD9
:1056300012000C0E34C0DBFF0D0E35C0DBFF0E0E6A
:1056400036C0DBFF0F0E37C0DBFF1200140E34C074
:10565000DBFF150E35C0DBFF160E36C0DBFF170E65
:1056600037C0DBFF1200F20EDBCF00F0F30EDBCF12
:1056700001F0F40EDBCF02F0F50EDBCF03F01200E9
:10568000036E046A02C0E6FFE66E04C0E6FFA4EC07
:105690004CF0056E050EE15C1200EA6ADF34FE0B89
:1056A000EA36E96E1200D9500C0F6DD90450EE2481
:1056B000006E0550EE20016E0650EE20026E07507F
:1056C000EE20036E1200DE6ADE6ADD6ADD52DD5214
:1056D000120059D90C0EEECFDBFF0D0EEECFDBFF23
:1056E0000E0EEECFDBFF0F0EEECFDBFF12004BD91D
:1056F000140EEECFDBFFAAEF2DF000C0DFFF010E8E
:1057000001C0DBFF020E02C0DBFF030E03C0DBFFA4
:105710001EEF2EF0000EE66EE66AE66EE66AB6CE84
:10572000E6FFE66EE66A6AEC47F0006E070EE15CA3
:105730001200DA20EA6E210EEECFDBFF220EEECF52
:10574000DBFF230EEECFDBFF240EEECFDBFF1200DC
:10575000DA20EA6E250EEECFDBFF260EEECFDBFF62
:10576000270EEECFDBFF280EEECFDBFF1200080E78
:10577000DBCF00F0090EDBCF01F00A0EDBCF02F029
:105780000B0EDBCF03F0100E1F0B120057DAEECF1B
:1057900004F0EECF05F0EECF06F0EFCF07F0100EDD
:1057A0001F0B12003AD9100E1F0B1200E652E652E0
:1057B000E652DF6A010EDB6A020EDB6A12004EDA85
:1057C000EE50ED101200040EDBCF3AF0050EDBCFE9
:1057D0003BF03EEF3BF032DAD880FF0EEE54FF0E86
:1057E000EE54FF0EEE54000EEE54120027DAD8806D
:1057F000000EEE54800E10D2180EDBCF00F0190E02
:10580000DBCF01F01A0EDBCF02F01B0EDBCF03F073
:1058100012000C0E38C0DBFF0D0E39C0DBFF0E0E80
:105820003AC0DBFF0F0E3BC0DBFF1200DF50EA6A1D
:10583000310FE96E0E0EEA221200040EDBCF00F0EB
:10584000050EDBCF01F0120008C038F009C039F0B6
:105850000AC03AF0120097D8A80ED880EE54610E14
:10586000ED5412009FD9140E1200E16E0350DE6A4F
:10587000800EDE6EDE6ADD6ADD52DD521200456B9F
:10588000466B476B486B496B4A6B4B6B4C6B12001A
:10589000E5D9010EEE181200100EDB6A110EDB6A5C
:1058A000120EDB6A130EDB6A120039C008F03AC030
:1058B00009F03BC00AF03CC00BF01200060EDBCF33
:1058C0003AF0070EDBCF3BF03EEF3BF0FF0EEE5C15
:1058D000FF0EEE58010EEE58000EEE581200E16E6B
:1058E000DF6A010EDB6A020EDB6A030EDB6A12005E
:1058F00009EC27F03CEF2EF0E16E0350D4EF0FF0EF
:10590000F36E030EF3CFDBFF1200010EE66ED950EB
:105910001200F36E010EF3CFDBFF020EDB6A120002
:10592000010EDBCFB2FE020EDBCFB3FE1200D89029
:10593000383639363A363B36E8061200D890043607
:10594000053606360736E80612001A511B111C11DF
:105950001D111200010EE9260E0EEA2212004E6BF6
:105960004F6B506B516B120000C0E6FF01C0E6FFA9
:105970001200DECFE6FFDDCFE6FF1200E76E040E79
:10598000E7CFDBFF1200E96E000EDA20EA6E1200AC
:10599000BFDD060EDCEF29F00C0EDBCF04F00D0EA0
:1059A000DBCF05F00E0EDBCF06F00F0E120039C074
:1059B0003EF03AC03FF03BC040F03CC041F0120026
:1059C00000C038F001C039F002C03AF003C03BF02B
:1059D0001200080EDBCF38F0090EDBCF39F00A0ECB
:1059E000DBCF3AF00B0E3DEF2AF0080EDBCF39F09B
:1059F000090EDBCF3AF00A0EDBCF3BF00B0ECCEFFB
:105A00002AF00C0EDBCF39F00D0EDBCF3AF00E0E84
:105A1000DBCF3BF00F0ECCEF2AF010D9EECF00F029
:105A2000EECF01F0EECF02F0EFCF03F012000C0E3C
:105A3000DB6A0D0EDB6A0E0EDB6A0F0EDB6A1200EC
:105A4000070EBADCE66AD9501200DBCF0BF0FCDEA1
:105A50000BC03BF055EC3BF0C0DD3EDDC1EC3BF054
:105A6000C5EF3CF0D950080FF4DC14D910EC24F049
:105A7000006E0C0EE15C1200E16EDE6A24DE17EFB0
:105A80002AF0E9DC3CEF2EF0C4DD12D93EDF40EF16
:105A90002EF0040EDBCF39F0050EDBCF3AF0060E08
:105AA000DBCF3BF0070ECCEF2AF0040EDBCF38F053
:105AB000050EDBCF39F0060EDBCF3AF0070E3DEFD7
:105AC0002AF00C0EDBCF00F00D0EDBCF01F00E0E36
:105AD000DBCF02F00F0EFDEF29F0140EDBCF39F013
:105AE000150EDBCF3AF0160EDBCF3BF0170ECCEFE6
:105AF0002AF0140EDBCF00F0150EDBCF01F0160EEE
:105B0000DBCF02F0170EFDEF29F0140EDBCF04F00F
:105B1000150EDBCF05F0160EDBCF06F0170EBEEF2D
:105B20002AF0F20EDBCF04F0F30EDBCF05F0F40E1B
:105B3000DBCF06F0F50EBEEF2AF072DCE652E6523D
:105B4000120089DC036E070EE15C1200DBCF03F06C
:105B500053EF2EF0150EEECFDBFF160EEECFDBFF70
:105B6000170EEECFDBFF1200EECFE6FFEECFE6FF23
:105B7000EECFE6FFEFCFE6FF120038C000F039C0ED
:105B800001F03AC002F03BC003F01200BEDE030F8A
:105B9000BFDC58EF2EF08CD8E76E020EE7CFDBFFAC
:105BA000DB50120039C000F03AC001F03BC002F0F7
:105BB0003CC003F01200190E3D6E3E6A3F6A406A17
:105BC0001200E96E000EB7EF2AF0E96EFF0EB7EF94
:105BD0002AF0EECFDBFFD95012005FDD790EE92607
:105BE0000E0EEA22120059DD490EE9260E0EEA22B7
:105BF000120001C03AF002C03BF003C03CF01200BA
:105C0000F0EC29F009DD7DEF2AF0000E3954000E8A
:105C10003A54000E3B541200EE54000EEE54000EA7
:105C2000EE5412003ADDAAEF2CF0D9CFE6FFDACF1E
:105C3000E6FF1200DBCF40F005EF4EF0D9CFE9FFD1
:105C4000DACFEAFF1200140EDB6A150EDB6A160EBD
:105C5000DB6A170EDB6ADDDC20EF2DF0D950010F77
:105C6000C3EF2CF095DEE66AD9501200A4DF05ECF4
:105C70004EF0A8DC17EF2DF0E552E552E552120088
:105C8000010F46DC030EDCEF29F0FBDE010EDE6EB9
:105C900063EF2BF0D950040F29EC2AF07BEF2AF0A8
:105CA00037DC20EF2DF0005001100210031012001D
:065CB000010EDCEF29F0FB
:0A5CB6000DEC34F0A098636A626AF6
:105CC0000F01266BD5EC34F002E2E16AE552E16E99
:105CD00000500F0199EC34F0DF6ADF50006E016A6A
:105CE0000C0E005C000E015810E2DF50040DF3CFE3
:105CF000E9FFF4CFEAFF000EE926040EEA22EE6A7D
:105D0000EE6AEE6AEE6ADF2AE8D7658C0F01386B1F
:105D10006598659C62A607D0629604018F6B946BB0
:105D2000956B966BF7D70401010EA86FA96FAA6B4C
:105D3000AB6B9C6BDF6A030EDF5C11E2EA6ADF3457
:105D400002EC35F0EA22EE6AED6AEA6ADF3409EC29
:105D500035F0EA22EE6AED6A4BEC34F0ECD7040140
:105D6000080E856F040E866F0F01160E266F040154
:105D7000300E026F040E036F400E016F840E006F31
:105D80000401796B786B10EF34F00DEC34F082B2D3
:105D900006D0656A0F01366B0401786B7CD0040174
:105DA00078510CE1656A0F01366B99EC34F065B6F9
:105DB00002D06586FCD70401010E786F78050AE1F0
:105DC00065BA08D0626A0F01366B368136890401E4
:105DD000020E786F6250040B06E00F013651040B7F
:105DE00002E0629459DB65B256D06250010B09E0C3
:105DF0000F013651010B05E05EDF0401040E786FE0
:105E000062906250100B06E00F013651100B02E059
:105E100033DB629862AC15D00F0136AD0AD0A0EC2E
:105E200034F0730E17EC34F002E2E16AE552E16EF1
:105E30000050629C0401A65101E0A607A65101E1B1
:105E4000F3D86250200B05E00F013651200B01E022
:105E500002DB6250020B14E00F013651020B10E01E
:105E6000A0EC34F0E6687F0EE66E82EC49F0006E3E
:105E7000060EE15C02E2E16AE552E16E0050636AFF
:105E8000040E0401E76E7819E8AE02D0E73402D0C0
:105E9000E750785D02E2A19834D00F0136A730D0E8
:105EA000DF6A040EDF5C2CE262A62AD064CF9DF488
:105EB00004019D51780BE842E842E8429E6F6296E9
:105EC0009DB504D09E5110EC35F003D09E5115ECD9
:105ED00035F0EA22EF709E5102E1F0DA0FD0000EA9
:105EE000E66EE66A9D0EE66E040EE66E720E17EC26
:105EF00034F002E2E16AE552E16E0050DF2AD1D7C8
:105F0000A19810EF34F0FFEC34F0FC0EDBA403D0CA
:105F1000E66A89EC34F0FC0EDBA204D0010EE66EDA
:105F200089EC34F0FD0EDB50016A260F006E0F0E77
:105F300083EC34F01FEC34F0FC0EDBCFEFFFE552C6
:105F400010EF34F0FFEC34F0FC0EDB5003E012EC09
:105F500034F002D03CEC34F06FEC34F0D9CFE9FFF0
:105F6000DACFEAFFEE50ED1003E1F36AF46A28D0CD
:105F70001FEC34F024EC35F0FA0EDBCFEEFFFB0E15
:105F8000DBCFEDFF1FEC34F0EE52F90EDBCFEFFF6D
:105F9000400E1AEC35F0880E29EC35F0FC0EDB5083
:105FA00003E012EC34F002D03CEC34F0EA22EF745F
:105FB000DECF00F0DDCF01F000C0F3FF01C0F4FF41
:105FC000E55210EF34F0FFEC34F0FD0EDB5003E14E
:105FD000DEEC34F009D041EC34F0B3EC34F041ECB9
:105FE00034F0010FB3EC34F0E55210EF34F0E5EC8F
:105FF00034F065A817D0F8EC34F0400EEE16EE6AD7
:10600000EE6AEE6AF8EC34F0EE7C12EC34F0EA2240
:10601000EF74400E006EF8EC34F00050EF16F8EC20
:1060200034F0EF7CCFEF34F00401A85127E1010EEA
:10603000A86FA95123E1010EA96F020E8C5D09E141
:1060400024EC34F0EE52EF6A24EC34F0C80EEF6E1C
:1060500012008C0513E19F6B31EC34F0EE52400ED0
:10606000EF6E31EC34F0BFEC34F031EC34F0840EF0
:10607000EF6E010E9F6FCDDB800EEF6E12000401FC
:10608000AA6BAB6B020E8C5D07E11EEC35F036ECB3
:1060900034F0AEEC34F010D090510401365D0401C0
:1060A00091510401375904E236C490F437C491F495
:1060B0005CD8CADBDBDBC8DBC80EEF6E1200FFEC7E
:1060C00034F0000EDE6E040EDD6EDBDB040DF4CF6B
:1060D00001F0D9CFE9FFDACFEAFFF350EE26015005
:1060E000ED22ADDBEF9EFC0EDB5002E1C5DB01D003
:1060F00099DBEA22DECFEEFFDDCFEDFFA0DBEF9CE8
:106100009EDB040EE926000EEA22EF8CE55288D3CE
:10611000659804018FBF0DD094AF09D0020E8C6F2B
:10612000AB5101E1ACDF0401A96BA86B1200DEEFFB
:1061300034F0040130AF0DD00401010E8C6FAA5170
:1061400001E19DDF0401A96BA86BA7510DE114EFDC
:1061500030F00401020E8C6F5CDB840EEF6EA96BD5
:10616000A86BA75101E160DF120057DB400EDF6E24
:106170000401905D000E91590AE290C4DFFF8B513B
:1061800002E1010E03D08B0502E1020E8B6FDF509E
:10619000016AE850905D906F01509159916F54DB06
:1061A000EE52DFCFEFFF380E996F040E9A6F8FB16A
:1061B0000DD0DF5017E08DC4F6FF8EC4F7FF8D2B96
:1061C000000E8E230800F5507DDBF3D7DF500AE088
:1061D0008DC4E9FF8EC4EAFF8D2B000E8E23EF5095
:1061E00071DBF4D71DD3FFEC34F03BDBEE52EFCF85
:1061F000DFFFDFCF00F000500401955D000E9659DF
:1062000002E295C4DFFFDF50006E016AE850955D41
:10621000956F01509659966F010EDB6ADF50F36E51
:10622000010EDBCFF4FFF350F45C16E2010EDB50FD
:10623000EA6A380FE96E040EEA22EF50E66E92C465
:10624000E9FF93C4EAFF922B000E9323E552E75037
:10625000EF6E010EDB2AE2D7000ED8809555000EB6
:1062600096550DE2EBDB02DBFCDAEF50400B03E16D
:1062700075DBC80E02D072DB880EEF6E12D0C9DA61
:10628000840EEF6E9751981107E005D098C4FAFF7D
:1062900004019751F96EFADF0401949FA75101E1BF
:1062A000C3DEE552BDD2B9DA04018F8F7EDB02E294
:1062B000E16AE552E16E0050300EE66EE66AE66A8B
:1062C000000EE66E040EF1DA02E2E16AE552E16EDA
:1062D0000050658CDF6A030EDF5C02E2DCDAFBD77C
:1062E000010EE66EE66AE66A7A0EE66E040EDDDA06
:1062F00002E2E16AE552E16E0050659C0401080E7D
:10630000856F040E866F000E7B6F040E7C6F7BC45E
:106310007DF47E6F32C479F4795102E1100E10D011
:10632000010EE66EE66A790EE66E040EE66E010E6A
:106330007EDA02E2E16AE552E16E00500401200ECD
:10634000786F6ED2800E0401305D4EE10401C00E04
:106350008F6F04013351030A25E0010A09E0030AA3
:1063600041E10401660E8D6F9B0E8E6F120E34D0CC
:106370003251F66EF76AD890F636F736BB0EF6262F
:106380009B0EF7220900F5CF8DF40A00F5CF8EF4AD
:10639000020E0401DCDAF5CF90F4030ED8DAF5CF63
:1063A00091F41200040E325D1AE204018F8104019F
:1063B0003251E96EEA6AD890E936EA36F60EE926F5
:1063C000020EEA22EECF8DF4EDCF8EF48DC4E9FFFC
:1063D0008EC4EAFFEF500401906F916B120004012C
:1063E0008F6B120004018F6B120009DB0401386B04
:1063F000396B30511F0B020A11E0030A0CE0010A4D
:106400001EE104018F8F0401388104019B0517E10F
:106410000401388314D004018F8F11D004018F8FB1
:10642000040134BF02D0DADA01D0DDDA58DAE3DA77
:1064300006E005DAEF50040B02E0010E386F0401AC
:106440008FAF07D0380E8D6F040E8E6F8F81020EC6
:10645000906FE552E5D10F0126A10CD002DAEF5082
:10646000800807E1F1D9EF50840803E1FAD98C0ED6
:10647000EF6E2691629A12000F013685629865824E
:106480000401010E9C6F31DA750ED1D902E2E16A86
:10649000E552E16E0050120004019C6B26DA740E86
:1064A000C6D902E2E16AE552E16E005065920F0141
:1064B000369562A402D06294FCD71200AED90401D2
:1064C0002D0EA66FFD0E9D1539E17E0E9D15E8403F
:1064D0007F0B040DF3CF7BF4F4CF7CF4000E7B270D
:1064E000040E7C237BC47DF47CC47EF47D75B9D915
:1064F000EF503C0BE842E8420D081EE1DF6A080E4F
:10650000DF5C16E2AED9020EE926000ED5D9EF50B7
:10651000E66EDF50EA6A300FE96E040EEA22E552B9
:10652000E750EF6E9ED990DAEE2AEF22DF2AE7D706
:1065300098D925DA09D807D027D805D0FD0E9D15A2
:10654000040801E130D86CD104018B6BA76BAA6BF6
:10655000AB6B9F6B8C6B78D9EF9E857575D9EF9E71
:106560008575FCD9EF9E8F6B906B916B946B956BDF
:10657000966B55D8BAD9030E5AD902E2E16AE552B0
:10658000E16E005088EF30F0020E04018C5D02E1F4
:10659000F3EF30F08C6B9F5104E13BD98C0EEF6E22
:1065A00012009F6B120039D94FD9EF50400B01E018
:1065B000010EDF6E04018575080E785D0BE132C4B3
:1065C00038FF0F01385103E00401100E02D004011E
:1065D000040E786F8C0513E137D948D9C6DD020E59
:1065E00004018B5D03E130D9840E07D0DF5003E155
:1065F0002BD9C80E02D028D9880EEF6E0FD094AFD9
:106600000CD09751981107E005D098C4FAFF040107
:106610009751F96EFADF0401949F8C6B01D104014C
:106620003051600BE842E842E842E842E8420009A3
:1066300001E0120031510C0A4AE00B0A3FE00C0A5B
:1066400031E0010A22E00B0A1EE0020A1CE0030A04
:1066500018E0080A10E0010A0CE00F0A08E0030A3B
:1066600001E0120004018F8F080E786F1200A2EF74
:1066700031F053EF31F00401790E8D6F040E8E6FFF
:106680000CD0F5EF31F068EF33F0345104018D6F29
:106690008E6B7A0E8D27040E8E238F81010E906FE4
:1066A0008F8F120004018F8F04013451EA6A7A0F30
:1066B000E96E040EEA2232C4EFFF120016D9020E70
:1066C000B6D802E2E16AE552E16E00501200120013
:1066D00096D9E652E652E6520401320510E13051F5
:1066E0001F0B00090CE104018F8F030E0401315DC3
:1066F00004E10401010E9B6F02D004019B6B0401B5
:10670000325101E07FD030511F0B020801E07AD0F6
:1067100034510F0B000901E175D034510F0B020801
:1067200071E3200E0401785D6DE18F8F040134BFA9
:1067300004D054D9D4D8DFD803D055D9D0D8DFD895
:10674000EA22020EEFCFDBFFECD8010B02E1DF946F
:1067500001D0DF8434BF02D041D901D044D9EA222C
:10676000DECFEEFFDDCFEDFF030E315D0CE143D94F
:1067700007E034BF02D0BFD801D0C1D8EA22EF82EF
:10678000840E67D93FD0DF7436D90BE058D8EF9E1E
:1067900056D8EF8CFAD802E2E16AE552E16E005079
:1067A00002D04DD8EF8CDF74BCD8020B02E123D9A4
:1067B00012E0040134BF02D09ED801D0A0D8EA2252
:1067C000EF923B0E006E36D9E0D802E2E16AE55264
:1067D000E16E005002D03B0E2DD9040134510F0B55
:1067E000016A260F006E0F0E0122030E00C0DBFFB0
:1067F000040E01C0DBFF030EDBCFE9FF040EDBCF8D
:10680000EAFFEF90050EE15C02E2E16AE552E16E1B
:10681000C6D014D9B4D8AEEF34F0D7D8E6521200AF
:10682000E552BDD0FD0EEA6ADB3402EF35F0E66ECC
:10683000E66A82EC49F0006E060EE15C1200DECFE3
:10684000E9FFDDCFEAFF120085C4E9FF86C4EAFF55
:10685000120034510F0BE96EEA6AD890E936EA3635
:1068600012007BC4E9FF7CC4EAFF1200EDD8380EA9
:10687000EE6E040EED6E1200FD0EEA6ADB3409EFD7
:1068800035F0FC0EDB50E824026EFD0EDB50040DEB
:10689000F35002241200DF50C8D8EA22EF6ADF501A
:1068A000BFD8EA22EF6ADF2A1200E66E57EC4CF0FE
:1068B000006E050EE15C1200EA22EE50EFCFEAFF17
:1068C000E96E1200E66E99C4E9FF9AC4EAFF992BBB
:1068D000000E9A23E552E750EF6EDF061200EA221F
:1068E000EECFDEFFEDCFDDFF1200000EE66EE66AB2
:1068F000E66EE66A120034510F0B10EF35F034519A
:106900000F0B15EF35F0012200C0DEFF01C0DDFFE7
:106910001200FD0EDBCFE6FF5FEC30F0E552E552F2
:106920001200D950020FE96E000EDA20EA6EEF5025
:106930001200160E396F9F0E376F7B0E366F1200E6
:10694000010EE66EE66A000EE66EE66A1200F76A6F
:106950008D25F66E8E51F722080012007DC4E9FFE6
:106960007EC4EAFF1200040DF3CF00F0F4CF01F073
:10697000000E0026040EC7DF840E29EF35F064D820
:10698000300EEE6E040EED6E1200020EE66EE66A3A
:10699000DECFE6FFDDCFE6FF050E17EF34F0E55260
:1069A000E5CFDAFFE7CFD9FF1200020EE66EE66A06
:1069B000E66A270EE66E0F0E55EF34F02ADF8C0ED6
:1069C000EF6E42DF840EEF6E1200D9CFE6FFDACF12
:1069D000E6FFE1CFD9FFE2CFDAFF12003ADF7F0E08
:1069E000E926040E120035DF850EE926040E12009A
:1069F00019DF5CEF34F023DFEF50800B12000DDF66
:106A0000E6521200FE0BEA36E96E850EE926040E08
:106A10001200FE0BEA36E96E7F0EE926040E120024
:106A2000EA6AA30FE96E040E1200EA6AA00FE96E8B
:106A3000040E120004DFE850EF1612008FDFEE5252
:106A4000400EEF6EAEEF34F0020EE926000EEA22A1
:0A6A50001200F5DEE850EF1212000C
:066A5A0069EC3AF0FB0EAE
:106A6000DBCFF3FFDB06F35000090AE0B7EC3AF0A6
:106A7000FA0E22EC3BF0F3E1011CF1E1010E01D032
:106A8000000E98EF3AF069EC3AF03B0EE12402E395
:106A9000E168E652E16E010EDB6A020EDB6AF90E76
:106AA000DBCFF6FFFA0EDBCFF7FFFB0EDBCFF8FFF5
:106AB0000800F550DF6EDF5002E1BCEF39F0250E23
:106AC000DF5C02E0AFEF39F0030EDB6A040EDB6A35
