:020000040000FA
:061000006EEF4DF012003E
:061008002EEF08F01200BB
:06101800D5EF1AF01200F2
:06102A000400C79B00005A
:1010300000050000E9000000BE9B0000B70E0000A4
:1010400009000000BC9B0000FE010000020000003F
:0C1050003E9B0000800200007E000000BB
:04105C00E9CFE4FFF5
:10106000EACFE4FFE6528AEC16F0E6529EA031D1B8
:101070009E90FE0ECF6E3D0ECE6E19C630F6060166
:10108000316B010E326F1FEC19F014E0D880000EA6
:101090001A55000E1B55190E1C55000E1D5505E264
:1010A0001A6B1B6B1C6B1D6B05D01A07000E1B5BAC
:1010B0001C5B1D5B1FEC19F001E0326B000501E1C8
:1010C0008AD0030E005D59E1E4513AE02105DF6E5C
:1010D0001E511F111AE190EC18F0EF500E01EA6A50
:1010E000AC25E96EAD51EA22EF6A67EC1AF0EE6AC0
:1010F000ED6A6DEC1AF0EE6AED6A90EC18F0EF6AAA
:101100008CEC1AF0EE6AED6A1BD067EC1AF022C67E
:10111000EEFF23C6EDFF6DEC1AF01EC6EEFF1FC6F4
:10112000EDFF90EC18F020C6EFFF8CEC1AF0EE50BB
:10113000ED1006E18CEC1AF01EC6EEFF1FC6EDFFA7
:101140000E01B6510601205D46E10E01B0510601C7
:101150001E190CE10E01B15106011F1907E1010E24
:10116000D86FD46BE35137E08C9A35D0D86B010E31
:10117000D46FE35130E08C8A2ED0040E005D2BE159
:10118000245122E025C64CF026C64DF0D8904D32B1
:101190004C32D8904D324C324C50BB6EE1C64EF0C2
:1011A000E2C64FF0040ED8904E364F36E804FBE10D
:1011B000300E4E16000E4F16CF0EBA144E104C6E57
:1011C0004FC04DF0E85003D0BB6ACF0EBA14BA6ED0
:1011D0000601010E326F325172E01FEC19F06FE11F
:1011E000006B275168E134C600F635C601F636C6F5
:1011F00002F637C603F638C604F639C605F63AC60F
:1012000006F63BC607F63CC608F63DC609F63EC6DE
:101210000AF63FC60BF640C60CF641C60DF642C6AE
:101220000EF643C60FF644C610F645C611F646C67E
:1012300012F647C613F648C614F649C615F64AC64E
:1012400016F64BC617F64CC618F64DC619F64EC61E
:101250001AF64FC61BF650C61CF651C61DF652C6EE
:101260001EF653C61FF654C620F655C621F656C6BE
:1012700022F657C623F658C624F659C625F65AC68E
:1012800026F6346B356B366B376B386B396B3A6BD4
:101290003B6B3C6BB9EC18F04D6B29EC19F0526BC1
:1012A000536B546B556B566B576B586B596B5A6B32
:1012B000010E276F04D01A6B1B6B1C6B1D6B8250C9
:1012C000800B05E0DF5105E08150010B02E1010ECA
:1012D000DE6FE552E552E5CFDAFFE7CFD9FFE55201
:1012E000E5CFEAFFE5CFE9FF1100D9CFE6FFDACF7E
:1012F000E6FFE1CFD9FFE2CFDAFFE652DF6ADFCFC8
:1013000000F0020EE76E0018E8AE02D0E73402D01B
:10131000E750005C3CE2DFCFE9FFEA6AE9BEEA6839
:10132000D890E936EA36D890E936EA36010EE92651
:10133000060EEA22010EEE6EEE6AEE6AEE6ADFCF6C
:10134000E9FFEA6AE9BEEA68D890E936EA36D89059
:10135000E936EA36110EE926060EEA22EE6AEE6A50
:10136000EE6AEE6ADFCFE9FFEA6AE9BEEA68D89082
:10137000E936EA36D890E936EA36090EE926060E4D
:10138000EA22EE6AEE6AEE6AEE6ADF2AB8D7060152
:10139000006B0601196B06011A6B1B6B1C6B1D6B36
:1013A00006011E6B1F6B0601206B0601216B0601F7
:1013B000226B236B0601010E276FCD82CD9ECD9C43
:1013C000CD9ACD98CD96CD94FE0ECF6E3D0ECE6EBD
:1013D000CD809F809E909D80F19E9F9C010EE66E29
:1013E0000A0EE66EE9EC21F0E552E5529492828213
:1013F00000000000000000000000000000000000ED
:1014000000000000000000000000000000000000DC
:10141000000000000000948282920601010EE36F3A
:101420000601010EE46F8C9A959A8C9E959E06019A
:10143000010ED46F0601D76B0601010ED86F0601AD
:10144000DD6B0601D96BDA6BDB6BDC6B0601DE6BE7
:101450000601010EDF6F49EC16F0E552E552E5CFCB
:10146000DAFFE7CFD9FF12008AEC16F050EC18F043
:1014700083EC17F0D2EC1AF0E66AD950BAEC1AF005
:1014800004017A5101E09ED0DF0424E159EC18F008
:101490000CE10601010EE36FE46B04EC18F002E2CC
:1014A000E16AE552E16E00500DD0C2EC18F006E1A1
:1014B000ED5004E10601E36B010E03D00601010EBD
:1014C000E36FE46F000EE66EE66AD8C6E6FFF2EC64
:1014D00018F076D0020EDF5C19E159EC18F003E148
:1014E0000601D76B6DD0C2EC18F005E1ED5003E1B9
:1014F0000601010E09D0A8EC1AF0020EEE1860E108
:10150000ED505EE10601020ED76F5AD0040EDF5C8B
:1015100007E1010EDBCFB0FE020EDBCFB1FE50D0F3
:10152000050EDF5C07E1010EDBCFAEFE020EDBCF66
:10153000AFFE46D0080EDF5C0FE1A8EC1AF0180EE3
:10154000D880EE54000EED5403E2180E03EC19F0AF
:10155000010EDBCFAAFE34D0090EDF5C0FE1A8EC50
:101560001AF0060ED880EE54000EED5403E2060E7B
:1015700003EC19F0010EDBCFABFE22D00A0EDF5CCC
:1015800003E10AEC19F009D00B0EDF5C03E10AEC71
:1015900019F016D00C0EDF5C07E1010EDBCFB4FEB4
:1015A000020EDBCFB5FE0CD00D0EDF5C09E159EC6D
:1015B00018F004E00601010EDF6F02D00601DF6BB8
:1015C00079EC21F0B6EC1AF0B1EF16F08AEC16F0D7
:1015D000200EE12402E3E168E652B6EC19F0C6EC15
:1015E00018F0E66AD950040FCAEC1AF0060FCAECDC
:1015F0001AF0080FACEC1AF00C0F42EC19F0D950AD
:10160000040FA5EC18F004E2EC0E006E7B0E7BD20A
:10161000D950060FA5EC18F004E2BE0E006E7B0E4A
:1016200072D297EC18F0040E005C000E015804E230
:10163000940E006E7B0E67D2060EDBCF00F0070E15
:10164000DBCF01F0040E005C000E015804E26C0ECA
:10165000006E7B0E58D204017A5101E05DD2080E73
:10166000DBCF10F0090EDBCF11F00A0EDBCF12F04A
:101670000B0EDBCF13F010C038F011C039F012C0E0
:101680003AF013C03BF0080EDBCF3DF0090EDBCF84
:101690003EF00A0EDBCF3FF00B0EDBCF40F085ECC7
:1016A0004CF034C00CF035C00DF036C00EF037C031
:1016B0000FF00C0EDBCF14F00D0EDBCF15F00E0E7D
:1016C000DBCF16F00F0EDBCF17F014C038F015C0CB
:1016D00039F016C03AF017C03BF00C0EDBCF3DF0EE
:1016E0000D0EDBCF3EF00E0EDBCF3FF00F0EDBCF4B
:1016F00040F085EC4CF00C503424086E0D50352031
:10170000096E0E5036200A6E0F5037200B6E9EEC7D
:1017100018F03B6E84EC39F067EC17F039C0E6FF47
:101720003AC0E6FF3BC0E6FF3CC0E6FF88EC41F074
:10173000B6EC1AF0E55237EC1AF038C039F073EC19
:101740001AF0F4EC3AF0140E38C0DBFF150E39C075
:10175000DBFF160E3AC0DBFF170E3BC0DBFF0601B6
:101760002751FDE029EC19F04D6BEBEC16F0D95048
:10177000080F5BEC1AF002E628EC17F004E263ECC9
:1017800019F086EC17F0D9500C0F5BEC1AF002E65A
:1017900028EC17F00EE20C0EDBCF38F00D0EDBCF8D
:1017A00039F00E0EDBCF3AF00F0EB7EC16F093ECDB
:1017B00017F06FEC19F002E607EC17F004E23E0EAA
:1017C000006E7B0EA0D17BEC19F002E607EC17F05F
:1017D00004E2100E006E7B0E96D15DEC18F067EC03
:1017E00017F0AC0E3E6EC50E3F6EA70E406E470E54
:1017F000416EF0EC39F0ACEC18F0DBCF0CF0150ECC
:10180000DBCF0DF0160EDBCF0EF0170EDBCF0FF097
:101810000CC038F00DC039F00EC03AF00FC03BF0EC
:1018200082EC39F0CFEC18F0E6EC16F09DEC39F0D4
:10183000180E39C0DBFF190E3AC0DBFF1A0E3BC091
:10184000DBFF1B0E3CC0DBFF76EC18F0080EDBCF95
:1018500008F0090EDBCF09F00A0EDBCF0AF00B0E01
:101860009FEC19F038C035F639C036F63AC037F675
:101870003BC038F6080EDBCF45F6090EDBCF46F647
:101880000A0EDBCF47F60B0EDBCF48F6D8EC18F08C
:10189000CFEC18F0D8EC18F039C00CF03AC00DF0CD
:1018A0003BC00EF03CC00FF051EC19F008C039F00D
:1018B00009C03AF00AC03BF00BC03CF0F0EC39F044
:1018C00067EC17F05DEC18F039C014F03AC015F071
:1018D0003BC016F03CC017F05DEC18F039C018F0B2
:1018E0003AC019F03BC01AF03CC01BF051EC19F0A3
:1018F00014C039F015C03AF016C03BF017C03CF0E8
:10190000F0EC39F039C010F03AC011F03BC012F0E1
:101910003CC013F051EC19F004C039F005C03AF0A6
:1019200006C03BF007C03CF05DEC3AF0ACEC18F0C0
:10193000DBCF28F0150EDBCF29F0160EDBCF2AF017
:10194000170EDBCF2BF028C038F029C039F02AC0A1
:101950003AF02BC03BF082EC39F039C024F03AC0A9
:1019600025F03BC026F03CC027F0140EDBCF30F052
:10197000150EDBCF31F0160EDBCF32F0170EDBCFBA
:1019800033F030C038F031C039F032C03AF033C0F3
:101990003BF082EC39F039C02CF03AC02DF03BC05E
:1019A0002EF03CC02FF051EC19F024C039F025C0C6
:1019B0003AF026C03BF027C03CF0F0EC39F039C0DB
:1019C00020F03AC021F03BC022F03CC023F03E6A38
:1019D0003F6A406A400E416EF0EC39F039C01CF0AD
:1019E0003AC01DF03BC01EF03CC01FF0E6EC16F004
:1019F0009DEC39F01C0E39C0DBFF1D0E3AC0DBFF39
:101A00001E0E3BC0DBFF1F0E3CC0DBFF080EDBCF12
:101A100004F0090EDBCF05F00A0EDBCF06F00B0E4B
:101A2000BFEC16F038C03DF639C03EF63AC03FF67E
:101A30003BC040F676EC18F00C0EDBCF08F00D0E34
:101A4000DBCF09F00E0EDBCF0AF00F0E9FEC19F082
:101A500038C039F639C03AF63AC03BF63BC03CF6DE
:101A60000C0EDBCF49F60D0EDBCF4AF60E0EDBCFA8
:101A70004BF60F0EDBCF4CF646EC19F0BFEC16F030
:101A800038C041F639C042F63AC043F63BC044F68E
:101A900097EC18F0060EDB50001803E1070EDB5040
:101AA000011814E006013D513E113F1140110EE1B5
:101AB000D880000E4555000E4655000E4755000EC5
:101AC000485504E2E50E006E7A0E1DD097EC18F032
:101AD000060EDB50001803E1070EDB50011816E07C
:101AE0000601415142114311441110E1D880000E0A
:101AF0004955000E4A55000E4B55000E4C5506E256
:101B0000BA0E006E7A0EBBEC19F006D00601010E7B
:101B1000346F276B79EC21F0200EE15C02E2E16A80
:101B2000E552E16EB1EF16F08AEC16F03F0EE124BB
:101B300002E3E168E652E16E91EC19F09DEC1AF0D7
:101B4000100FACEC1AF0040FACEC1AF0080FCAEC52
:101B50001AF0140FACEC1AF00C0F42EC19F004015F
:101B60007A5101E061D1AEEC16F00DE1040EDBCF4D
:101B700004F0050EDBCF05F0060EDBCF06F0070EF6
:101B800038EC17F011E0100EDBCF08F0110EDBCFB0
:101B900009F0120EDBCF0AF0130EDBCF0BF008506A
:101BA00009100A100B1035E1080EDBCF0CF0090EFE
:101BB000DBCF0DF00A0EDBCF0EF00B0EDBCF0FF0FC
:101BC0000C500D100E100F1012E10C0EDBCF10F0A8
:101BD0000D0EDBCF11F00E0EDBCF12F00F0EDBCFB0
:101BE00013F0105011101210131001E11DD1140E3A
:101BF000DBCF14F0150EDBCF15F0160EDBCF16F091
:101C0000170EDBCF17F0145015101610171001E146
:101C10000BD1320EDB6A330EDB6A340EDB6A350E13
:101C2000DB6A310EDB6AEBEC16F0D950100F5BEC7F
:101C30001AF002E628EC17F018E2100EDBCF38F0AD
:101C4000110EDBCF39F0120EDBCF3AF0130EB7ECEA
:101C500016F0100E34C0DBFF110E35C0DBFF120E84
:101C600036C0DBFF130E37C0DBFFD950140F5BEC1F
:101C70001AF002E628EC17F00EE2140EDBCF38F073
:101C8000150EDBCF39F0160EDBCF3AF0170EB7EC9E
:101C900016F0A0EC17F098EC1AF0190EEECFDBFF5F
:101CA0001A0EEECFDBFF1B0EEECFDBFF1C0E63EC3C
:101CB0001AF0100F3DEC19F0290EEECFDBFF2A0EC3
:101CC000EECFDBFF2B0EEECFDBFF2C0E63EC1AF01A
:101CD000040FE96E000E13EC18F0D950080F3DEC1C
:101CE00019F01D0EEECFDBFF1E0EEECFDBFF1F0E39
:101CF000EECFDBFF200E63EC1AF0140F3DEC19F071
:101D00002D0EEECFDBFF2E0EEECFDBFF2F0EEECF34
:101D1000DBFF300E63EC1AF00C0FE96E000E22ECC4
:101D200018F0010EF36E180EF3CFDBFF06012751FA
:101D3000FDE0180EDBCF34F6190EDBCF35F61A0EA8
:101D4000DBCF36F61B0EDBCF37F61C0EDBCF38F6BB
:101D50001D0EDBCF39F61E0EDBCF3AF61F0EDBCFA2
:101D60003BF6200EDBCF3CF6210EDBCF3DF6220EFC
:101D7000DBCF3EF6230EDBCF3FF6240EDBCF40F663
:101D8000250EDBCF41F6260EDBCF42F6270EDBCF4A
:101D900043F6280EDBCF44F6290EDBCF45F62A0E9C
:101DA000DBCF46F62B0EDBCF47F62C0EDBCF48F60B
:101DB0002D0EDBCF49F62E0EDBCF4AF62F0EDBCFF2
:101DC0004BF6300EDBCF4CF6310EDBCF4DF6320E3C
:101DD000DBCF4EF6330EDBCF4FF6340EDBCF50F6B3
:101DE000350EDBCF51F6360EDBCF52F6370EDBCF9A
:101DF00053F6380EDBCF54F6390EDBCF55F63A0EDC
:101E0000DBCF56F63B0EDBCF57F63C0EDBCF58F65A
:101E10003D0EDBCF59F63E0EDBCF5AF6276B0401A1
:101E2000A25102E079EC21F03F0EE15C02E2E16AAE
:101E3000E552E16EB1EF16F08AEC16F0100EE124D7
:101E400002E3E168E652B6EC19F083EC17F09AEC85
:101E500019F0040F42EC19F0FFEC18F0080F42ECF7
:101E600019F00E01BF516FE0AEEC16F002E1040173
:101E70007A8D04017A5173E165EC18F004E2870E63
:101E8000006E7A0E5DD0C3EC19F002E67EEC17F01E
:101E900005E2D950040FE3EC17F004D0CFEC19F0B1
:101EA00093EC17F07BEC19F002E607EC17F004E274
:101EB0003E0E006E7B0E44D0DBEC19F004E2570EB0
:101EC000006E7A0E3DD05DEC16F00C0F11EC17F0A1
:101ED00009E346EC19F038EC17F004E0310E006E1F
:101EE0007A0E2ED06FEC19F002E67EEC17F005E2C8
:101EF000D950080FE3EC17F004D063EC19F093EC21
:101F000017F07BEC19F002E607EC17F004E2100E74
:101F1000006E7B0E15D0DBEC19F004E2010E006EB2
:101F20007A0E0ED05DEC16F00C0F11EC17F00BE3EF
:101F300046EC19F038EC17F006E0DB0E006E790E77
:101F4000BBEC19F00CD0ACEC19F002E2E16AE552FE
:101F5000E16E00500401A25102E079EC21F0100E74
:101F6000E15C02E2E16AE552E16EB1EF16F08AEC63
:101F700016F0180EE12402E3E168E652B6EC19F01F
:101F8000C6EC18F09DEC1AF00C0FACEC1AF0100F28
:101F900042EC19F0AEEC16F002E104017A8D100E5D
:101FA000DBCF00F0110EDBCF01F0120EDBCF02F021
:101FB000130EDBCF03F0D9500C0F3DEC19F0EE50AF
:101FC0000026EE500122EE500222EE500322040EB3
:101FD00000C0DBFF050E01C0DBFF060E02C0DBFF09
:101FE000070E03C0DBFF46EC19F0DBCF07F0D9503A
:101FF000100F3DEC19F0EE50045C006EEE500558E9
:10200000016EEE500658026EEE500758036E080E31
:1020100000C0DBFF090E01C0DBFF0A0E02C0DBFFC0
:102020000B0E03C0DBFFC3EC19F002E67EEC17F0E9
:1020300005E2D950040FF1EC17F004D0CFEC19F001
:10204000A0EC17F065EC18F004E2870E006E7A0E33
:102050004AD0E7EC19F002E607EC17F004E23E0E76
:10206000006E7B0E40D0F3EC19F004E2570E006EC8
:102070007A0E39D05DEC16F0140F11EC17F007E36F
:10208000FFEC19F004E0310E006E7A0E2CD06FECEC
:1020900019F002E67EEC17F005E2D950080FF1ECDA
:1020A00017F004D063EC19F0A0EC17F0E7EC19F08E
:1020B00002E607EC17F004E2100E006E7B0E13D060
:1020C000F3EC19F004E2010E006E7A0E0CD05DEC18
:1020D00016F0140F11EC17F009E3FFEC19F006E00D
:1020E000DB0E006E790EBBEC19F00CD004017A51B6
:1020F00009E1ACEC19F002E2E16AE552E16E005050
:1021000079EC21F0180EE15C02E2E16AE552E16E41
:10211000B1EF16F08AEC16F0370EE12402E3E16825
:10212000E652B6EC19F01BEC17F0CDEC1AF017E103
:102130000BEC1AF014E1020EF36E100EF3CFDBFF7E
:102140004CEC17F02A0E34C0DBFF2B0E35C0DBFF42
:102150002C0E36C0DBFF2D0E37C0DBFF56D12A0E0A
:10216000DB6A2B0EDB6A2C0EDB6A2D0EDB6A290E76
:10217000DB6AEBEC16F0D950F60F5FEC1AF002E6D2
:1021800028EC17F018E2F60EDBCF38F0F70EDBCFB5
:1021900039F0F80EDBCF3AF0F90EB7EC16F0F60E88
:1021A00034C0DBFFF70E35C0DBFFF80E36C0DBFFB7
:1021B000F90E37C0DBFFD950F20F5FEC1AF002E6E0
:1021C00028EC17F018E2F20EDBCF38F0F30EDBCF7D
:1021D00039F0F40EDBCF3AF0F50EB7EC16F0F20E54
:1021E00034C0DBFFF30E35C0DBFFF40E36C0DBFF7F
:1021F000F50E37C0DBFFD950F60F5FEC1AF002E6A0
:10220000E0EC18F030E24CEC17F0040E34C0DBFFC9
:10221000050E35C0DBFF060E36C0DBFF070E37C0EC
:10222000DBFF1BEC17F00F0E1F0B03E03FEC17F06A
:10223000FDE16AEC16F05CEC17F01BEC17F00F0EEA
:102240001F0B03E03FEC17F0FDE17AEC1AF014E20B
:1022500031EC18F003E03FEC17F0FDE16AEC16F00A
:1022600083EC18F009D01BEC17F070EC17F011ECB0
:1022700019F0FDE1B0EC1AF070EC18F00CE2F5EC9E
:1022800016F0A60E006E790E1BEC1AF002E2E16A5F
:10229000E552AFEC18F0AEEC16F012E1F60EDBCF23
:1022A00004F0F70EDBCF05F0F80EDBCF06F0F90EE9
:1022B00038EC17F005E07B0E006E790EBFEC1AF0DB
:1022C000F7EC16F009E240EC18F003E018EC19F016
:1022D000FDE1CDEC17F006D04CEC18F003E03FEC3C
:1022E00017F0FDE1F7EC17F0110EEECFDBFF120E49
:1022F000EECFDBFF130EEECFDBFF140E63EC1AF014
:10230000F60FE96EFF0E13EC18F0190EDB6A1A0EC9
:10231000DB6A1B0EDB6A1C0EDB6AD950F20F5FEC26
:102320001AF002E6E0EC18F022E2ADEC17F00F0E26
:102330001F0B03E03FEC17F0FDE16AEC16F05CECDC
:1023400017F0ADEC17F00F0E1F0B03E03FEC17F08A
:10235000FDE17AEC1AF014E231EC18F003E03FEC06
:1023600017F0FDE16AEC16F083EC18F009D0ADEC43
:1023700017F070EC17F011EC19F0FDE1B0EC1AF069
:1023800070EC18F00CE2F5EC16F0460E006E790ECB
:102390001BEC1AF002E2E16AE552AFEC18F0AEEC89
:1023A00016F008E10BEC1AF005E01B0E006E790E3A
:1023B000BFEC1AF0F7EC16F009E240EC18F003E07D
:1023C00018EC19F0FDE1CDEC17F006D04CEC18F04C
:1023D00003E03FEC17F0FDE1F7EC17F024EC1AF006
:1023E000180E63EC1AF0F20FE96EFF0E22EC18F0F3
:1023F0001D0EDB6A1E0EDB6A1F0EDB6A200EDB6A17
:10240000010EF36E100EF3CFDBFF06012751FDE046
:10241000100EDBCF34F6110EDBCF35F6120EDBCF0C
:1024200036F6130EDBCF37F6140EDBCF38F6150E6B
:10243000DBCF39F6160EDBCF3AF6170EDBCF3BF6C5
:10244000180EDBCF3CF6190EDBCF3DF61A0EDBCFB4
:102450003EF61B0EDBCF3FF61C0EDBCF40F61D0E0B
:10246000DBCF41F61E0EDBCF42F61F0EDBCF43F66D
:10247000200EDBCF44F6210EDBCF45F6220EDBCF5C
:1024800046F6230EDBCF47F6240EDBCF48F6250EAB
:10249000DBCF49F6260EDBCF4AF6270EDBCF4BF615
:1024A000280EDBCF4CF6290EDBCF4DF62A0EDBCF04
:1024B0004EF62B0EDBCF4FF62C0EDBCF50F62D0E4B
:1024C000DBCF51F62E0EDBCF52F62F0EDBCF53F6BD
:1024D000300EDBCF54F6310EDBCF55F6320EDBCFAC
:1024E00056F6330EDBCF57F6340EDBCF58F6350EEB
:1024F000DBCF59F6360EDBCF5AF6276B370EE15C91
:1025000002E2E16AE552E16EB1EF16F08AEC16F0F4
:10251000110EE12402E3E168E652E9EC18F091ECD7
:1025200016F0100EDB6A0601275102E1340502E0C5
:10253000000502E1010EDF6E340525E1346B090E62
:1025400045C6DBFF0A0E46C6DBFF0B0E47C6DBFFA8
:102550000C0E48C6DBFF0D0E49C6DBFF0E0E4AC649
:10256000DBFF0F0E4BC6DBFF100E4CC6DBFFB9ECDA
:1025700018F03D6B3E6B3F6B406B416B426B436BA6
:10258000446B010E276F000529E1006B010E11C697
:10259000DBFF020E12C6DBFF030E13C6DBFF040EC9
:1025A00014C6DBFF050E15C6DBFF060E16C6DBFFE5
:1025B000070E17C6DBFF080E18C6DBFF116B126B88
:1025C000136B146B156B166B176B186B096B0A6B1F
:1025D0000B6B0C6B0D6B0E6B0F6B106BD950050FEB
:1025E000B2DBD950010FAFDBD9500D0FACDBD950A6
:1025F000090FA9DBDFCFE6FFE66A060E006E790E53
:10260000A4DB036E150EE15C02E2E16AE552F6EC32
:1026100018F0110EE15C02E2E16AE552E16EA1D32D
:10262000D8C600F0016A00BE01682EEC19F0010E58
:10263000026E790EBAEC17F002E2E16AE552E16E41
:10264000055079EF21F017EC1AF0DE6ADD6A010E11
:10265000E66E8FEC1AF0030E29DB04017A510FE1CC
:102660000601D80504E133EC19F0E66A04D033EC36
:1026700019F0010EE66EF2EC18F079EC21F0E5525B
:10268000E5526FD317EC1AF050EC18F0040EFAEC88
:1026900018F0BEEC19F040EC1AF038EC19F0040117
:1026A0007A512AE1030EDB50070803E2040EFAEC2C
:1026B00018F0DF50010802E2010EDF6E030EDB505E
:1026C000030F0E01B65D0CE004EC18F002E2E16AC3
:1026D000E552E16E0050030EDB50030F0E01B66FA2
:1026E000010EDBCFE6FF020EDBCFE6FFDFCFE6FF1A
:1026F000F2EC18F079EC21F0050EE15C02E2E16AFF
:10270000E552E16E2ED317EC1AF0E652E652FD0EBA
:10271000DB040BE1B0CEDEFFB1CEDDFF020EB2CEA8
:10272000DBFF030EB3CEDBFF0AD0AECEDEFFAFCEB3
:10273000DDFF020EB4CEDBFF030EB5CEDBFF4BDBBD
:10274000FB0EDBCFE6FFFC0EDBCFE6FF020EDBCF9E
:10275000E6FF030EDBCFE6FFB6CEE6FF33EC19F063
:1027600074EC46F0006E070EE15C02E2E16AE552AD
:10277000E16E0050040EE15C02E2E16AE552E16EB6
:10278000F0D217EC1AF0E652BEDB45EC1AF021E16C
:1027900004017A5139E10601D75103E0020ED75DF9
:1027A00012E1DF5000080DE2D75101E114DBDF0434
:1027B000020EDF5C030EDF5C040EDF5C050EDF5CE7
:1027C00008D0D75106D0D70504E1DF50000801E258
:1027D00002DBFFEC18F0010F15DB45EC1AF012E1FB
:1027E00004017A5111E10601D75105E1010EDB50D8
:1027F000000808E206D0D70505E1010EDB5000080D
:1028000001E2E9DA79EC21F0B6EC1AF0AAD2FE0E78
:102810000601D95DFF0EDA59FF0EDB59FF0EDC59B8
:1028200005E2D92B000EDA23DB23DC2379EF21F03C
:102830000601D951DA11DB11DC1105E0D907000ED0
:10284000DA5BDB5BDC5B79EF21F017EC1AF0E65228
:10285000E652E65258DB070E29DA38EC19F0DB5065
:102860000BE1DFCFD9F6010EDBCFDAF6020EDBCFBC
:10287000DBF6030EDBCFDCF679EC21F0050EE15C34
:1028800002E2E16AE552E16E6CD2D9C6E6FFDAC631
:10289000E6FFDBC6E6FFDCC6E6FFF80E006E780E4C
:1028A0001BEC1AF002E2E16AE552F6EF18F0E66A74
:1028B000DD0EE66E060EE66ED2EC1AF004017A51D9
:1028C00001E0120079EF21F0DDC600F0016A00BEE0
:1028D00001682EEC19F0F10E026E780E4BDB02E26D
:1028E000E16AE552E16E055079EF21F0DEC600F0B5
:1028F000016A00BE01682EEC19F0EB0E026E780E34
:1029000039DB02E2E16AE552E16E05500601DE6B59
:1029100079EF21F09DBCFED716C1E6FF17C1E6FF97
:1029200000C1E6FF01C1E6FFDF0E006E780E1BEC72
:102930001AF002E2E16AE552F6EF18F017EC1AF02D
:10294000AFDB030EDB6ABEEC19F038EC19F040EC9B
:102950001AF004017A5101E080D0A8EC1AF0FF0EC1
:10296000D880EE54030EED5407E2010EDB68030E2F
:10297000F36E020EF3CFDBFFDF50010802E2010E1F
:10298000DF6E030EDB50010803E2010EFAEC18F0D3
:10299000DF0409E1040EDB50030805E10601E16BE9
:1029A000020EE26F06D0010EDBCFE1F6020EDBCFA6
:1029B000E2F6CAB415D0CB68FC0ECA140009CA6E80
:1029C0009D920F0152815293F00EBA140C09BA6E07
:1029D0003F0EBA140009BA6E0E010E0ECC6FCA84F7
:1029E000030EDB502AE1DF5023E0E1C600F0E2C62F
:1029F00001F0D89001320032D890013200320050FC
:102A0000BB6EE1C602F0E2C603F0040ED8900236B7
:102A10000336E804FBE1300E0216000E0316CF0E5B
:102A2000BA1400010210006E03C001F0E85003D098
:102A3000BB6ACF0EBA14BA6E0ED006012751FDE064
:102A4000E1C659F6E2C65AF629EC19F0DFCF58F67E
:102A5000040E346F276B79EC21F0050EE15C02E285
:102A6000E16AE552E16E7DD1120054D92B0EE124CA
:102A700002E3E168E652ADDBF29E040E00C6DBFF26
:102A8000050E01C6DBFF060E02C6DBFF070E03C6FE
:102A9000DBFF080E04C6DBFF090E05C6DBFF0A0ECE
:102AA00006C6DBFF0B0E07C6DBFF0C0E08C6DBFFFE
:102AB0000D0E09C6DBFF0E0E0AC6DBFF0F0E0BC69E
:102AC000DBFF100E0CC6DBFF110E0DC6DBFF120E76
:102AD0000EC6DBFF130E0FC6DBFF140E10C6DBFFA6
:102AE000150E11C6DBFF160E12C6DBFF170E13C63E
:102AF000DBFF180E14C6DBFF190E15C6DBFF1A0E1E
:102B000016C6DBFF1B0E17C6DBFF1C0E18C6DBFF4D
:102B10001D0E19C6DBFF1E0E1AC6DBFF1F0E1BC6DD
:102B2000DBFF200E1CC6DBFF210E1DC6DBFF220EC5
:102B30001EC6DBFF230E1FC6DBFF240E20C6DBFFF5
:102B4000250E21C6DBFF260E22C6DBFF270E23C67D
:102B5000DBFF280E24C6DBFF290E25C6DBFF2A0E6D
:102B600026C6DBFFF28E1E0EDBCF00F01F0EDBCF82
:102B700001F0200EDBCF02F0210E20EC1AF002E073
:102B8000010EDF6E040EDB5002E0010EDF6E060167
:102B9000275103E1010EDF6E2DDBDF5010E0150E33
:102BA000DBCF00F0160EDBCF01F0170EDBCF02F00B
:102BB000180E20EC1AF003E0DE52010EDD6EDF503D
:102BC00012E0190EDBCF00F01A0EDBCF01F01B0E66
:102BD000DBCF02F01C0E20EC1AF005E0010EF36EC4
:102BE000020EF3CFDBFF030EDBCFE6FFE66A020E39
:102BF000DBCFE6FFE66A010EDBCFE6FFE66ADFCF5A
:102C0000E6FFE66ACE0E006E780E9FD8036E0B0EBE
:102C1000E15C02E2E16AE552E16E03502B0EE15CF9
:102C200002E2E16AE552E16E9CD074D8080EE1241C
:102C300002E3E168E652E16EF29E28C6DFFF010E74
:102C400029C6DBFF020E2AC6DBFF030E2BC6DBFF05
:102C5000040E2CC6DBFF050E2DC6DBFF060E2EC6AE
:102C6000DBFF070E2FC6DBFFF28EC4EC1AF0C40E9A
:102C7000006E780E6AD8036E0B0EE15C02E2E16A28
:102C8000E552B4DA080EE15C02E2E16AE552E16E77
:102C900068D0F29E0601286B296B2A6B2B6B2C6B7C
:102CA0002D6B2E6B2F6BF28E79EF21F0E66ECAEC56
:102CB00027F0B6EC1AF0E552120029DB1F0E3D6E2C
:102CC000050E3E6E3F6A406AF5DA0FEC4DF0CFDB41
:102CD000D9501200EFDA040EDBCF3DF0050EDBCF4A
:102CE0003EF0060EDBCF3FF0070E94EF1AF0DBCF7D
:102CF00003F0E0DADFCF3DF0010EDBCF3EF0020E55
:102D0000DBCF3FF0030E94EC1AF0D880190E385444
:102D10007FEF1AF08FEC1AF0E1CFD9FFE2CFDAFFA4
:102D20001200040EDB6A050EDB6A060EDB6A070E74
:102D3000DB6A080EDB6A090EDB6A0A0EDB6A0B0E21
:102D4000DB6A91EF19F099DA89D3016E026A00C04B
:102D5000E6FFE66E02C0E6FFAEEF4BF0D8DACDEF4D
:102D60001AF0E552E5CFDAFFE7CFD9FF1200DBCF4B
:102D70003BF03D683E683F68406885EF4CF0DBCF34
:102D800007F004C038F005C039F006C03AF007C0BB
:102D90003BF084EC39F01C0EDBCF3EF01D0EDBCF98
:102DA0003FF01E0EDBCF40F01F0EDBCF41F0F0EC0A
:102DB00039F072DB210E3E6EE60E3F6E5B0E406E0A
:102DC000400E416EF0EC39F0F4EF3AF06ADA00C0F0
:102DD00039F073EF1AF08C8E1DC519F51EC51AF562
:102DE0001FC51BF520C51CF51200A2DB37D3D95037
:102DF000FA0FE96EFF0EDA20EA6ED8801E0EEE544E
:102E0000000E84D3E66E000EDA20E66E1200D88043
:102E1000FF0E3954FF0E3A54FF0E3B54000E3C5443
:102E200012002BDAEE50385CEE503958EE503A581A
:102E3000EE503B581200F60EDBCF00F0F70EDBCF62
:102E400001F0F80EDBCF02F0F90EDBCF03F0120039
:102E5000000EEE5C000EEE58000EEE58000EEE581E
:102E60001200DA20EA6ED890030EEB50000A12002E
:102E7000DBCF07F004500510061007101200D890A1
:102E80000036013602360336E8061200DBCF3CF08E
:102E90003C34000E3C181200FA0EDBCF00F0FB0EA3
:102EA000DBCF01F0FC0EDBCF02F0FD0EDBCF03F039
:102EB000FCDA00DA85EF4CF038C0DEFF39C0DEFF07
:102EC0003AC0DEFF3BC0DDFFDD52DD52120039C0EB
:102ED00004F03AC005F03BC006F03CC007F0120019
:102EE000E9D9FA0EDBCF3DF0FB0EDBCF3EF0FC0E56
:102EF000DBCF3FF0FD0E18DB0F0E1200D880FFDA9B
:102F0000000E3C541200E66A8FEF1AF0080E34C02F
:102F1000DBFF090E35C0DBFF0A0E36C0DBFF0B0EF0
:102F200037C0DBFF12000C0E34C0DBFF0D0E35C0C6
:102F3000DBFF0E0E36C0DBFF0F0E37C0DBFF1200CB
:102F4000140E34C0DBFF150E35C0DBFF160E36C085
:102F5000DBFF170E37C0DBFF1200F20EDBCF00F0F5
:102F6000F30EDBCF01F0F40EDBCF02F0F50EDBCF7A
:102F700003F01200036E046A02C0E6FFE66E04C0AE
:102F8000E6FFAEEC4BF0056E050EE15C1200EA6A5E
:102F9000DF34FE0BEA36E96E1200D9500C0F6DD902
:102FA0000450EE24006E0550EE20016E0650EE2017
:102FB000026E0750EE20036E1200DE6ADE6ADD6AE2
:102FC000DD52DD52120059D90C0EEECFDBFF0D0E93
:102FD000EECFDBFF0E0EEECFDBFF0F0EEECFDBFFF3
:102FE00012004BD9140EEECFDBFF24EF1AF000C015
:102FF000DFFF010E01C0DBFF020E02C0DBFF030E8C
:1030000003C0DBFF98EF1AF0000EE66EE66AE66E8C
:10301000E66AB6CEE6FFE66EE66A74EC46F0006E4F
:10302000070EE15C1200DA20EA6E210EEECFDBFF24
:10303000220EEECFDBFF230EEECFDBFF240EEECF12
:10304000DBFF1200DA20EA6E250EEECFDBFF260E44
:10305000EECFDBFF270EEECFDBFF280EEECFDBFF40
:103060001200080EDBCF00F0090EDBCF01F00A0ED4
:10307000DBCF02F00B0EDBCF03F0100E1F0B1200A4
:1030800057DAEECF04F0EECF05F0EECF06F0EFCF3B
:1030900007F0100E1F0B12003AD9100E1F0B120072
:1030A000E652E652E652DF6A010EDB6A020EDB6A86
:1030B00012004EDAEE50ED101200040EDBCF3AF0A3
:1030C000050EDBCF3BF06DEF39F032DAD880FF0E22
:1030D000EE54FF0EEE54FF0EEE54000EEE541200AE
:1030E00027DAD880000EEE54800E10D2180EDBCFF7
:1030F00000F0190EDBCF01F01A0EDBCF02F01B0E31
:10310000DBCF03F012000C0E38C0DBFF0D0E39C010
:10311000DBFF0E0E3AC0DBFF0F0E3BC0DBFF1200E1
:10312000DF50EA6A310FE96E0E0EEA221200040E39
:10313000DBCF00F0050EDBCF01F0120008C038F045
:1031400009C039F00AC03AF0120097D8A80ED8800A
:10315000EE54610EED5412009FD9140E1200E16E70
:103160000350DE6A800EDE6EDE6ADD6ADD52DD52FD
:103170001200456B466B476B486B496B4A6B4B6B58
:103180004C6B1200E5D9010EEE181200100EDB6A2E
:10319000110EDB6A120EDB6A130EDB6A120039C0F5
:1031A00008F03AC009F03BC00AF03CC00BF0120036
:1031B000060EDBCF3AF0070EDBCF3BF06DEF39F0B8
:1031C000FF0EEE5CFF0EEE58010EEE58000EEE58AC
:1031D0001200E16EDF6A010EDB6A020EDB6A030E8B
:1031E000DB6A120083EC13F0B6EF1AF0E16E0350C5
:1031F00079EF21F0F36E030EF3CFDBFF1200010E27
:10320000E66ED9501200F36E010EF3CFDBFF020E13
:10321000DB6A1200010EDBCFB2FE020EDBCFB3FE83
:103220001200D890383639363A363B36E806120066
:10323000D8900436053606360736E80612001A51CD
:103240001B111C111D111200010EE9260E0EEA229F
:1032500012004E6B4F6B506B516B120000C0E6FFBB
:1032600001C0E6FF1200DECFE6FFDDCFE6FF120071
:10327000E76E040EE7CFDBFF1200E96E000EDA20E6
:10328000EA6E1200BFDD060E56EF16F00C0EDBCF15
:1032900004F00D0EDBCF05F00E0EDBCF06F00F0EA7
:1032A000120039C03EF03AC03FF03BC040F03CC095
:1032B00041F0120000C038F001C039F002C03AF00D
:1032C00003C03BF01200080EDBCF38F0090EDBCF55
:1032D00039F00A0EDBCF3AF00B0EB7EF16F0080EFE
:1032E000DBCF39F0090EDBCF3AF00A0EDBCF3BF033
:1032F0000B0E46EF17F00C0EDBCF39F00D0EDBCFC7
:103300003AF00E0EDBCF3BF00F0E46EF17F010D960
:10331000EECF00F0EECF01F0EECF02F0EFCF03F0F2
:1033200012000C0EDB6A0D0EDB6A0E0EDB6A0F0E4E
:10333000DB6A1200070EBADCE66AD9501200DBCF56
:103340000BF0FCDE0BC03BF084EC39F0C0DD3EDD61
:10335000F0EC39F0F4EF3AF0D950080FF4DC14D95E
:103360008AEC10F0006E0C0EE15C1200E16EDE6A79
:1033700024DE91EF16F0E9DCB6EF1AF0C4DD12D9C5
:103380003EDFBAEF1AF0040EDBCF39F0050EDBCFCB
:103390003AF0060EDBCF3BF0070E46EF17F0040EB7
:1033A000DBCF38F0050EDBCF39F0060EDBCF3AF07D
:1033B000070EB7EF16F00C0EDBCF00F00D0EDBCFD3
:1033C00001F00E0EDBCF02F00F0E77EF16F0140EA9
:1033D000DBCF39F0150EDBCF3AF0160EDBCF3BF02A
:1033E000170E46EF17F0140EDBCF00F0150EDBCFF3
:1033F00001F0160EDBCF02F0170E77EF16F0140E69
:10340000DBCF04F0150EDBCF05F0160EDBCF06F098
:10341000170E38EF17F0F20EDBCF04F0F30EDBCF10
:1034200005F0F40EDBCF06F0F50E38EF17F072DC86
:10343000E652E652120089DC036E070EE15C1200D0
:10344000DBCF03F0CDEF1AF0150EEECFDBFF160E3B
:10345000EECFDBFF170EEECFDBFF1200EECFE6FF65
:10346000EECFE6FFEECFE6FFEFCFE6FF120038C06B
:1034700000F039C001F03AC002F03BC003F0120086
:10348000BEDE030FBFDCD2EF1AF08CD8E76E020E5F
:10349000E7CFDBFFDB50120039C000F03AC001F08B
:1034A0003BC002F03CC003F01200190E3D6E3E6AB4
:1034B0003F6A406A1200E96E000E31EF17F0E96EC4
:1034C000FF0E31EF17F0EECFDBFFD95012005FDDBA
:1034D000790EE9260E0EEA22120059DD490EE92680
:1034E0000E0EEA22120001C03AF002C03BF003C007
:1034F0003CF012006AEC16F009DDF7EF16F0000E52
:103500003954000E3A54000E3B541200EE54000E93
:10351000EE54000EEE5412003ADD24EF19F0D9CF2C
:10352000E6FFDACFE6FF1200DBCF40F00FEF4DF001
:10353000D9CFE9FFDACFEAFF1200140EDB6A150ECD
:10354000DB6A160EDB6A170EDB6ADDDC9AEF19F018
:10355000D950010F3DEF19F095DEE66AD9501200FF
:10356000A4DF0FEC4DF0A8DC91EF19F0E552E55225
:10357000E5521200010F46DC030E56EF16F0FBDE9B
:10358000010EDE6EDDEF17F0D950040FA3EC16F03C
:10359000F5EF16F037DC9AEF19F000500110021029
:0A35A00003101200010E56EF16F0A2
:0635AA00D8CFE4FFE0CFE2
:1035B000E4FFE46EE9CFE4FFEACFE4FFF3CFE4FFFA
:1035C000F4CFE4FFE65257EC2CF0E65260EC2BF01F
:1035D000A4A65FD1A4960E01002B0E01AB510E01E3
:1035E000005D01E284D0006B0E01F1EC2AF0EF6A7D
:1035F00079907B6A7A6A0E01A92B0E01AA510E01FD
:10360000A95D01E3A96BA2EC2BF0EA22EE50ED10CC
:103610006EE06AEC2CF01EEC2CF002E14B504918E5
:1036200047E0AFEC2BF0EA22EE50ED103AE0D9EC97
:103630002BF0C6EC2AF0A2EC2BF0EA22EE504A5C0A
:10364000486EEE504B58496E020E48C0DBFF030E29
:1036500049C0DBFF3CEC2BF0493412E24850000833
:10366000000E49540DE23CEC2BF0AFEC2BF0EFECEC
:103670002BF017E251EC2CF0EE264950ED2218D039
:103680003CEC2BF0486C491E000E4922AFEC2BF0AD
:10369000EFEC2BF006E251EC2CF0EE5E4950ED5AC7
:1036A00007D06AEC2CF0EA2248C0EEFF49C0EDFFDB
:1036B000F1EC2AF0120EEF6EF29E0E01A2EC2BF04E
:1036C00084EC2AF049C048F0496A4850B66EA2EC32
:1036D0002BF084EC2AF04850B56EF00EB4140009BB
:1036E000B46EF00EB4140909B46E7980F28E040140
:1036F0007D517E110BE0050E7C5D07E3C18C9E9C25
:103700009D8CC280C2827C6B01D07C2B0501005154
:1037100001E1AAD0DE6ADD6ADECF48F0DDCF49F0F4
:10372000040E485C000E495801E39ED077EC2AF065
:10373000010ECCEC2AF0FDE1010EE926050EEA228D
:10374000EE50ED1075E077EC2AF0010ECCEC2AF08B
:10375000FDE122EC2CF0EE50ED1016E127EC2CF000
:1037600001E181802BEC2CF003E1ED5001E181823D
:103770002FEC2CF003E1ED5001E1818433EC2CF0CF
:1037800003E1ED5001E1818677EC2AF0010ECCECEB
:103790002AF0FDE1D2EC2BF0CCEC2AF0FDE1010E99
:1037A000E926050E1EEC2CF019E14B50491816E1E4
:1037B00027EC2CF001E181902BEC2CF003E1ED5093
:1037C00001E181922FEC2CF003E1ED5001E18194B5
:1037D00033EC2CF003E1ED5001E1819677EC2AF017
:1037E000010ECCEC2AF0FDE122EC2CF0EE2A000ECA
:1037F000EF2277EC2AF0010ECCEC2AF0FDE1D2ECBE
:103800002BF0CCEC2AF0FDE1090EE926050E1EECAA
:103810002CF024E14B50491821E177EC2AF0010EFD
:10382000CCEC2AF0FDE122EC2CF0EE6AED6A16D029
:1038300027EC2CF001E181902BEC2CF003E1ED5012
:1038400001E181922FEC2CF003E1ED5001E1819434
:1038500033EC2CF003E1ED5001E18196DF2A010EFB
:1038600001E25AD7DB2A58D70601E05101E0E00710
:10387000050119511A111B111C110BE01907000E3B
:103880001A5B1B5B1C5B19511A111B111C1101E106
:103890008C9E9EAC3DD09E9CC1AC07D0C19C010EBD
:1038A00004017F6F806B7B6B18D0C4504A6E4B6EE7
:1038B0004A6AC35000014A10486E4BC049F00401E7
:1038C0007B51E96EEA6A22EC2BF048C0EEFF49C05A
:1038D000EDFFD8907F3780377B2B100E7B5D0EE29B
:1038E0007F517D15486E80517E15496E48504910B4
:1038F00005E17B2BD8907F378037EFD7100E7B5DAB
:1039000002E39D9C05D07B51040DF328C26EC28258
:10391000040EE15C02E2E16AE552E16EE552E5CFB8
:10392000DAFFE7CFD9FFE552E5CFF4FFE5CFF3FFAC
:10393000E5CFEAFFE5CFE9FFE550E5CFE0FFE5CFD2
:10394000D8FF1000B6EC2BF00DEC2BF0896A9268D2
:1039500004017D6B7E6B8A6A93688B6A94688C968F
:103960008B9C9596949C948E010EA26F0101FE692A
:10397000FF6904017B6B76827680769C769A7688E6
:103980007696FA0E776EDE6ADD6AD9EC2AF004E6E6
:10399000100E005C000E01580BE277EC2AF022ECCE
:1039A0002BF0EE6AED6ADF2A010EEFE3DB2AEDD79A
:1039B00004019C6B9D6B9A6B9B6BDE6ADD6AD9EC94
:1039C0002AF004E6400E005C000E01580CE277EC91
:1039D0002AF0000EE926020EEA22EF6ADF2A010E23
:1039E000EEE3DB2AECD7DE6ADD6AD9EC2AF004E6E6
:1039F000400E005C000E01580CE277EC2AF0400EFD
:103A0000E926020EEA22EF6ADF2A010EEEE3DB2A44
:103A1000ECD7DE6ADD6AD9EC2AF004E6000E005C21
:103A2000010E01580AE277EC2AF065EC2BF0EF6A00
:103A3000DF2A010EF0E3DB2AEED704019E6B9F6BB9
:103A4000A06BA16B0F01498FBE0EC16ED08E769414
:103A5000A386A59675EC09F0A7EC45F0F28EF28CE2
:103A600076849AEC26F00DEC3FF0040EE15C02E265
:103A7000E16AE552E16E54EF2AF0B6EC2BF0E65223
:103A80000DEC2BF060EC2BF0040EDB6A78EC29F0E7
:103A9000200E0101E76EC819E8AE02D0E73402D06B
:103AA000E750C85D01E23AD16550020B01E036D122
:103AB000400EE66E400EE66E020EE66E3EEC44F000
:103AC0005AEC2CF0E76E030EE7CFDBFFDB5000086B
:103AD00001E3E7D0040EDB6A030EDB50F36E040E45
:103AE000CFEC2AF001E3DDD0040EDB50EA6A400F90
:103AF000E96E020EEA22EFCFDFFF0501655134E1E6
:103B00000D0EA6EC2AF005E00A0E016EDF50015CF6
:103B10002BE1010E656F0401E0EC2AF00D0EEF6E53
:103B20009C2B010EDB6A9C51F36E010ECFEC2AF048
:103B300016E26AEC2BF0E9BEEA6865EC2BF0EF5078
:103B4000E66E6AEC2BF0E9BEEA68210EE926050E66
:103B5000EA22E552E750EF6E010EDB2AE4D73BD9AB
:103B600004019C6B9D6B8DD01B0EDF5C09E16151E4
:103B700007E1010E616F1B0E626F636B646B81D096
:103B800061050BE15B0EDF5C08E11B0E625D05E188
:103B9000635103E15B0E636F74D061054AE1410E2E
:103BA000DF5C47E11B0E625D44E15B0E635D41E15A
:103BB000626B636B646B616B010EDB6ADBCFE9FFE9
:103BC000EA6AE9BEEA6865EC2BF0EF500D0816E0F2
:103BD0006AEC2BF0E9BEEA68210EE926050EEA221E
:103BE000EF50E66E6AEC2BF0E9BEEA6865EC2BF06C
:103BF000E552E750EF6E010EDB2AE0D7010EDBCF76
:103C00009CF40401E0EC2AF0EF6AF40E006E7D0EE5
:103C100094EC2BF0000EE66E030EE66EF10E006ED5
:103C20007D0E9FEC2BF002E2E16AE552E16E03505B
:103C300028D0080EDF5C0EE104019C5100080AE266
:103C40009C07E0EC2AF0EF6AEE0E006E7D0E94EC1D
:103C50002BF017D00D0EDF5C14E00A0EDF5C11E0D4
:103C6000200EDF5C0EE30501626B636B646B616BBE
:103C70000401E0EC2AF0DFCFEFFF0501656B0401E2
:103C80009C2B04019C51006E016A000E001806E195
:103C9000010E011803E17A879C6B9D6B040EDB2AF1
:103CA0001BD704017A5139E07AA105D0E80E006EE5
:103CB0007D0E94EC2BF004017AA305D0C90E006EA2
:103CC0007D0E94EC2BF004017AA505D0AD0E006EAC
:103CD0007D0E94EC2BF004017AA705D0910E006EB6
:103CE0007D0E94EC2BF004017AA905D0720E006EC3
:103CF0007D0E94EC2BF004017AAD05D0510E006ED0
:103D00007D0E94EC2BF004017AAF05D0380E006ED6
:103D10007D0E94EC2BF004017A6B37D8050EE15C34
:103D200002E2E16AE552E16E54EF2AF0B6EC2BF0C4
:103D30009AC4DFFFDF2A400EA6EC2AF001E1DF6A19
:103D400004019B51DF5C01E120D804019A51EA6A29
:103D5000000FE96E020EEA22FD0EDBCFEFFF9A2B79
:103D6000400E9A5D01E19A6B9B519A5D01E17A8563
:103D7000FD0EDBCF00F0016A00BE016800C0F3FF5A
:103D800001C0F4FFE55254EF2AF0B6EC2BF0040129
:103D90009A519B5D1DE00101B05105E0C8EC44F073
:103DA000F4EC2CF0F8D704019B51D8809A5507E227
:103DB0009B519A5DAAEC2AF09AC49BF407D0400E5E
:103DC000D8809B55AAEC2AF004019B6BC8EC44F008
:103DD000E55254EF2AF0B6EC2BF00DEC2BF0DE6A36
:103DE000DD6A60EC2BF004015AEC2AF075EC2BF044
:103DF000020EF3CFDBFF040170EC2AF004E1010EA8
:103E0000011801E19D6B020EDB50DE6EDD6A5AEC9B
:103E10002AF02C0824E05AEC2AF00D0820E05AEC95
:103E20002AF075EC2BF0030EF3CFDBFF040170ECEE
:103E30002AF004E1010E011801E19D6B020EDBCFB7
:103E400002F002C003F0026A030EDB5000010224FC
:103E5000006E000E0320016E00C0DEFFDD6E000E5E
:103E6000DFCF3AF0010EDBCF3BF0530E3A1802E100
:103E7000540E3B1801E10DD2520E3A1802E1530ED6
:103E80003B1801E103D2520E3A1802E1510E3B18E1
:103E900001E1F9D1420E3A1802E1520E3B1801E15C
:103EA000EFD1540E3A1802E1510E3B1801E1E5D171
:103EB000540E3A1802E1530E3B1801E1DBD1530EC8
:103EC0003A1802E1430E3B1801E1D1D1530E3A18E2
:103ED00002E1510E3B1801E1C7D14D0E3A1802E143
:103EE000580E3B1801E1BDD1530E3A1802E1450EC0
:103EF0003B1801E1B3D1430E3A1802E1410E3B18E1
:103F000001E1AAD14D0E3A1802E1510E3B1801E130
:103F1000A0D14D0E3A1802E1520E3B1801E196D1A4
:103F2000320E3A1802E1530E3B1801E18CD1450ED6
:103F30003A1802E1530E3B1801E182D1430E3A18C0
:103F400002E1510E3B1801E178D14B0E3A1802E123
:103F5000430E3B1801E16ED14C0E3A1802E1420EBD
:103F60003B1801E164D1440E3A1802E14E0E3B18B1
:103F700001E15AD1490E3A1802E14E0E3B1801E117
:103F800050D1420E3A1802E1510E3B1801E146D1E0
:103F90004C0E3A1802E1510E3B1801E13CD14C0E97
:103FA0003A1802E1530E3B1801E132D14E0E3A1895
:103FB00002E1510E3B1801E128D14E0E3A1802E100
:103FC000530E3B1801E11ED1430E3A1802E1530E85
:103FD0003B1801E114D14D0E3A1802E1450E3B1891
:103FE00001E10AD1500E3A1802E1510E3B1801E1ED
:103FF00000D1500E3A1802E1540E3B1801E1F6D000
:10400000500E3A1802E1530E3B1801E1ECD04D0E70
:104010003A1802E1410E3B1801E1E2D04D0E3A1888
:1040200002E1530E3B1801E1D8D0470E3A1802E1E5
:10403000500E3B1801E1CED0430E3A1802E1500E6B
:104040003B1801E1C4D0490E3A1802E1430E3B1877
:1040500001E1BAD0490E3A1802E1520E3B1801E1D3
:10406000B0D0490E3A1802E1530E3B1801E1A6D038
:10407000530E3A1802E1520E3B1801E19CD0530E48
:104080003A1802E1530E3B1801E192D0570E3A184C
:1040900002E14D0E3B1801E189D0520E3A1802E1BF
:1040A0004D0E3B1801E180D0440E3A1802E1500E4B
:1040B0003B1801E177D04F0E3A1802E1500E3B1841
:1040C0006FE0490E3A1802E1500E3B1867E0580EB7
:1040D0003A1802E1540E3B185EE0410E3A1801E135
:1040E0003B5057E0560E3A1801E13B5050E0490E64
:1040F0003A1801E13B5049E04F0E3A1801E13B50BC
:1041000042E0550E3A1802E1430E3B183AE0580ED1
:104110003A1802E1430E3B1831E0430E3A1801E130
:104120003B502AE0520E3A1801E13B5023E0580E72
:104130003A1802E1520E3B181AE04D0E3A1802E10D
:104140004C0E3B1811E0030EDB5001E0A5D0020E2F
:104150002DEC2BF02DEC2BF0150E006E7D0EDEEC11
:104160002BF001E3A8D0A5D094EC0DF0A6D0E6EC9E
:1041700024F0A3D0C7D8A1D002D99FD0E8EC24F076
:104180009CD0C4D89AD0A3D998D0D2D996D0EDD902
:1041900094D0F0D992D0E4EC24F08FD012DB8DD003
:1041A0007EDB8BD079DA89D05ADA87D044DA85D0B1
:1041B000EAEC24F082D0ECEC24F07FD0EEEC24F09A
:1041C0007CD0F0EC24F079D0F2EC24F076D0F4EC52
:1041D00024F073D054EC25F070D01CEC0FF06DD0AF
:1041E000E6EC0AF06AD042EC13F067D023EC13F04F
:1041F00064D010EC13F061D0C1EC13F05ED034EC5D
:104200000AF05BD025EC14F058D045EC14F055D0F2
:1042100057EC14F052D064EC14F04FD076EC14F05C
:104220004CD007EC14F049D018EC14F046D089ECCF
:1042300025F043D0E1EC25F040D08AEC14F03DD0DD
:104240009EEC14F03AD01FEC46F037D034EC15F069
:1042500034D035EC15F031D025D92FD086EC12F0C2
:104260002CD0B7EC0FF029D015EC16F026D049EC85
:1042700016F023D001EC27F020D046EC27F01DD01B
:1042800091EC25F01AD098EC25F017D0AAEC25F087
:1042900014D0EDEC3FF011D0F5EC2BF0F5EC2BF059
:1042A000ED0E006E7C0E42EC2AF0036E0B0EE15C0C
:1042B00002E2E16AE552E16E035004015AEC2AF091
:1042C0000D080DE07A510BE1520E006E016ADF50CD
:1042D000001803E1DE52DD50011801E07A8F9CC422
:1042E0009DF4040EE15C02E2E16AE552E16E54EFF6
:1042F0002AF00401A25105E0920E006E9A0E94EC91
:104300002BF01200A2EC1CF079EF21F0A7EC2BF0BF
:10431000010E97EC2BF0010F68EC2AF0020E45EC31
:104320002CF02BE1DF0412E1FAEC2BF00AE0010E95
:10433000006E016ADB50001808E1020EDB50011824
:1043400004E1010EDBCFA2F401D07A8D020EA6ECBF
:104350002AF012E1FAEC2BF00AE0010E006E016A7D
:10436000DB50001808E1020EDB50011804E1010ED9
:10437000DBCFBFFE01D07A8DBCDFB4EF2BF0B6EC03
:104380002BF0E6520DEC2BF06DEC2AF0010E40EC18
:104390002CF081EC2CF0030F81EC2CF0040F9BEC43
:1043A0002BF00FE1DF50926E010EDB50936E020E88
:1043B000DB50946E030EDB50956E040EDB50966E50
:1043C00098DF050EE15C02E2E16AE552E16E54EF2E
:1043D0002AF04EEC2AF0FD0EDB50100805E2100E1C
:1043E000F36EFD0EF3CFDBFFFC0EDB502BE0FD0E7A
:1043F000DB508AEC4DF0F35004017D13F4507E1332
:10440000080EF36EFD0ECFEC2AF00DE2010EF36EF6
:10441000FD0EDB5003E07CEC2AF0FDE1F350F31CD1
:104420000F0148173DD0FD0EDB500C0839E37CEC42
:104430002BF004E0E846FE0B0006FCE1E81C0F014F
:1044400049172ED0FD0EDB508AEC4DF0F3CF00F073
:10445000F4CF01F0001E011E005004017D17015031
:104460007E17080EF36EFD0ECFEC2AF00CE2010E63
:10447000F36EFD0EDB5003E07CEC2AF0FDE1F3501F
:104480000F0148130DD0FD0EDB500C0809E37CEC46
:104490002BF004E0E846FE0B0006FCE10F01491397
:1044A00054EF2AF06EEC2CF097EC2BF0010F9BEC04
:1044B0002BF009E1010EDBCFE6FFDFCFE6FF89DF5E
:1044C000E552E55216DFE552E55254EF2AF06EEC64
:1044D0002CF04BEC2AF0B8EC2AF026E1010EDB5070
:1044E00002E1DF50896EAAEC2BF01EE1010EDB50D9
:1044F00002E1DF508A6EAAEC2BF016E1010EDB50D0
:1045000002E1DF508B6EAAEC2BF00EE1010EDB50C6
:1045100002E1DF508C6EAAEC2BF006E1010EDB50BD
:1045200002E1DF508D6EE5DEE552E55254EF2AF0F0
:104530008450E66EE66A8350E66EE66A8250E66E66
:10454000E66A8150E66EE66A8050E66EE66AD00E54
:10455000006E7C0E42EC2AF0036E0D0EE15C02E26E
:10456000E16AE552E16E035012009A0E006E9A0E57
:1045700094EF2BF057EC2CF0DF6A010EF36EDB6E3C
:10458000020EDB6ACE0E006E7C0E94EC2BF09DBC0E
:10459000FED7DF6ADFCF00F0100EE76E0018E8AE3E
:1045A00002D0E73402D0E750005C3EE2010EDB505F
:1045B00004017D150001006E020EDB5004017E1522
:1045C0000001016E005001101EE0DFCFE9FFEA6A32
:1045D000E9BEEA6822EC2BF0EECFE6FFEFCFE6FF74
:1045E000DFCF00F0016A00BE016837EC2CF0C30E8B
:1045F000026E7C0E31EC2BF0070EE15C02E2E16A08
:10460000E552E16E0550010EDBCF00F0020EDBCF6C
:1046100001F0D89000360136010E00C0DBFF020E1B
:1046200001C0DBFFDF2AB6D7970E006E9A0E94EC1E
:104630002BF0B4EF2BF0A7EC2BF0030E97EC2BF044
:10464000020F9BEC2BF009E148EC2BF005E277EC34
:104650002AF0020EDBCFEFFF4CDEB4EF2BF0A7EC1D
:104660002BF0030E45EC2CF015E148EC2BF005E2A5
:1046700077EC2AF0020EEFCFDBFF020E2DEC2BF0D1
:10468000B90E006E7C0E9FEC2BF002E2E16AE5525F
:10469000E16E0350B4EF2BF085EC2CF001E08FD0ED
:1046A000020EDB50010801E287D0010EDB50070843
:1046B00001E282D0410EA6EC2AF016E1020EDB5098
:1046C0000AE180EC2AF003E07CEC2AF0FDE1F350F3
:1046D000F31C921673D080EC2AF003E07CEC2AF0F5
:1046E000FDE1F35092126AD0420EA6EC2AF016E1D8
:1046F000020EDB500AE180EC2AF003E07CEC2AF0A9
:10470000FDE1F350F31C931659D080EC2AF003E03E
:104710007CEC2AF0FDE1F350931250D0430EA6EC4E
:104720002AF016E1020EDB500AE180EC2AF003E0E9
:104730007CEC2AF0FDE1F350F31C94163FD080ECA2
:104740002AF003E07CEC2AF0FDE1F350941236D01D
:10475000440EA6EC2AF016E1020EDB500AE180ECD2
:104760002AF003E07CEC2AF0FDE1F350F31C9516EF
:1047700025D080EC2AF003E07CEC2AF0FDE1F35038
:1047800095121CD0450EA6EC2AF016E1020EDB5065
:104790000AE180EC2AF003E07CEC2AF0FDE1F35022
:1047A000F31C96160BD080EC2AF003E07CEC2AF088
:1047B000FDE1F350961202D07A8D01D09ADDB4EF6C
:1047C0002BF057EC2CF0020EDB6A6DEC2AF0050E94
:1047D00097EC2BF0010F9BEC2BF05FE1010EDB500F
:1047E000070847E3410EA6EC2AF009E180EC2AF025
:1047F00003E07CEC2AF0FDE1F350801433D0420E4C
:10480000A6EC2AF009E180EC2AF003E07CEC2AF027
:10481000FDE1F350811426D0430EA6EC2AF009E105
:1048200080EC2AF003E07CEC2AF0FDE1F3508214E6
:1048300019D0440EA6EC2AF009E180EC2AF003E03E
:104840007CEC2AF0FDE1F35083140CD0450EA6EC6D
:104850002AF00FE180EC2AF003E07CEC2AF0FDE185
:10486000F3508414E76E020EE7CFDBFFDB5008E065
:1048700002D07A8D12D0010EF36E020EF3CFDBFF61
:10488000020E2DEC2BF0B00E006E7C0E9FEC2BF088
:1048900002E2E16AE552E16E0350B4EF2BF085ECE1
:1048A0002CF001E08FD0020EDB50010801E287D02E
:1048B000010EDB50070801E282D0410EA6EC2AF07F
:1048C00016E1020EDB500AE180EC2AF003E07CECFA
:1048D0002AF0FDE1F350F31C891673D080EC2AF026
:1048E00003E07CEC2AF0FDE1F35089126AD0420E1D
:1048F000A6EC2AF016E1020EDB500AE180EC2AF069
:1049000003E07CEC2AF0FDE1F350F31C8A1659D049
:1049100080EC2AF003E07CEC2AF0FDE1F3508A12EF
:1049200050D0430EA6EC2AF016E1020EDB500AE14D
:1049300080EC2AF003E07CEC2AF0FDE1F350F31C5C
:104940008B163FD080EC2AF003E07CEC2AF0FDE1EE
:10495000F3508B1236D0440EA6EC2AF016E1020E6C
:10496000DB500AE180EC2AF003E07CEC2AF0FDE168
:10497000F350F31C8C1625D080EC2AF003E07CEC7D
:104980002AF0FDE1F3508C121CD0450EA6EC2AF063
:1049900016E1020EDB500AE180EC2AF003E07CEC29
:1049A0002AF0FDE1F350F31C8D160BD080EC2AF0B9
:1049B00003E07CEC2AF0FDE1F3508D1202D07A8DF9
:1049C00001D097DCB4EF2BF079EF21F079EF21F0F3
:1049D00079EF21F079EF21F079EF21F079EF21F0F3
:1049E00079EF21F079EF21F04EEC2AF0070EE12467
:1049F00002E3E168E652E16E6DEC2AF0030E73EC1F
:104A00002CF045EC2CF048E1DECF01F5DDCF02F5CE
:104A1000020EDBCF09F5030EDBCF0AF5040EDB6ACD
:104A2000030EF36E040ECFEC2AF035E2010E9DEC7E
:104A30002AF0030E00EC2CF0010EE66ED950020FA6
:104A400068EC2AF0030E4BEC2AF0E76E060EE7CF77
:104A5000DBFF04017A5120E1050EDB501CE1060E5C
:104A6000DB5019E16FEC2BF0010EE926050EEA226E
:104A7000DECFEEFFDDCFEDFF6FEC2BF0090EE92668
:104A8000050EEA22020EDBCFEEFF030EDBCFEDFFB9
:104A9000040EDB2AC5D72DDC070EE15C02E2E16AD9
:104AA000E552E16E54EF2AF0B6EC2BF06DEC2AF0F3
:104AB000010E45EC2CF00CE1DF5007E0F00E9314F2
:104AC000936E0501010E006F02D00501006B11DC31
:104AD000E55254EF2AF0D9CFE6FFDACFE6FFE1CF77
:104AE000D9FFE2CFDAFFE652DF6AFF0EDF5C0AE2AF
:104AF000E868E85005E0E80600D000D000D0F9D71B
:104B0000DF2AF3D7E552E552E5CFDAFFE7CFD9FF49
:104B10001200F29EF29C6592656ADDDF0FEF00F0F5
:104B20001200F29EF29C6592656AD5DFFF001200CA
:104B30008350800B01E0010EE66EE66AAA0E006E5D
:104B40007C0E9FEC2BF002E2E16AE552E16E03502D
:104B500079EF21F04EEC2AF0060EE12402E3E16841
:104B6000E652E16E6DEC2AF0070E4BEC2AF0010ED6
:104B7000E66ED950040F68EC2AF0010E00EC2CF020
:104B800004017A5116E1DFCF1DF5010EDBCF1EF5D2
:104B9000020EDBCF1FF5030EDBCF20F5050EDB5039
:104BA00006E1040EDB5002E08C8E01D08C9E79EC85
:104BB00021F0060EE15C02E2E16AE552E16E54EF9B
:104BC0002AF04EEC2AF0100EE12402E3E168E652EE
:104BD000E16EE66AD950010F68EC2AF0E66A06EC4D
:104BE0002CF06DEC2AF0010E97EC2BF0040F68EC22
:104BF0002AF0020E73EC2CF097EC2BF00A0F68EC05
:104C00002AF0060E97EC2BF0060F68EC2AF0070E40
:104C100097EC2BF00E0F68EC2AF0040E97EC2BF0BB
:104C20000F0F68EC2AF0050E4BEC2AF0010EDBCFDB
:104C300000F0016A00BE016837EC2CF09E0E026E97
:104C40007C0E31EC2BF0050EE15C02E2E16AE552EC
:104C5000E16E0550DFCFE6FFE66A920E006E7C0E35
:104C60009FEC2BF002E2E16AE552E16E0350040E84
:104C7000DBCFE6FF050EDBCFE6FF860E006E7C0E77
:104C80009FEC2BF002E2E16AE552E16E0350020E66
:104C9000DBCFE6FF030EDBCFE6FF7A0E006E7C0E65
:104CA0009FEC2BF002E2E16AE552E16E0350D9502D
:104CB0000A0F8FEC2AF051EC2BF06D0E006E7C0E7B
:104CC000DEEC2BF002E2E16AE552E16E0350D950CE
:104CD000060F8FEC2AF051EC2BF0600E006E7C0E6C
:104CE000DEEC2BF002E2E16AE552E16E03500E0EBB
:104CF0002DEC2BF0540E006E7C0E9FEC2BF002E29C
:104D0000E16AE552E16E03500F0E2DEC2BF0480ED8
:104D1000006E7C0E9FEC2BF002E2E16AE552E16E40
:104D2000035079EC21F0100EE15C02E2E16AE552F9
:104D3000E16EBAD3B3DB120EE12402E3E168E6527E
:104D4000E16E110EDB6AF36EDBCFF4FFE850F45C2A
:104D500003E2B9EC2BF0F7D7E8EC2BF002E2E16AC2
:104D6000E552E16E0050110EDB6A100EF36E110E6B
:104D7000CFEC2AF02DE2E3EC2BF0EF50006E016A4D
:104D8000013404E200508008000E015421E3E3ECFA
:104D90002BF0EFCF04F0200E045C1AE3E3EC2BF0D1
:104DA000EF50E66E180E0201016AFA25006EFB5103
:104DB000FFEC2AF0DB50D924B2DBEF50E66E020E96
:104DC000016AFC25006EFD51FFEC2AF0DB2ACDD7ED
:104DD000110EDB50E824180FFAC2E9FFFBC2EAFF0C
:104DE000EF6E110EDB50E824020FFCC2E9FFFDC29A
:104DF000EAFFEF6E120EE15C02E2E16AE552E16E5B
:104E000053D34CDB130EE12402E3E168E652E16E7A
:104E1000110EDB6A120EDB6A110EF36E120EBFDB8F
:104E200008E28AEC2BF0120E78EC2CF0120EDB2A42
:104E3000F3D7100E82DB6CD85AEC2CF0E76E110E13
:104E4000E7CFDBFFE668FB0EE66EE66A0BEC2CF0C4
:104E500096EC4AF0006E080EE15C02E2E16AE5526F
:104E6000E16E005057DB4CEC47F0006E080EE15C41
:104E700002E2E16AE552E16E005079EC21F0130E96
:104E8000E15C02E2E16AE552E16E0ED307DB120E4D
:104E9000E12402E3E168E652E16E110EDB6AF36E93
:104EA000DBCFF4FFE850F45C03E2B9EC2BF0F7D76A
:104EB000E8EC2BF002E2E16AE552E16E0050DF50CF
:104EC000006E016AD890015004E6800E005C000E6E
:104ED000015803E2200EDF5C06E2000E006E7E0E3B
:104EE00094EC2BF00CD0C9EC2BF0430E006E7C0E32
:104EF0009FEC2BF002E2E16AE552E16E035079EC9F
:104F000021F0120EE15C02E2E16AE552E16ECCD2E0
:104F1000B6EC2BF0DF6A33DBEF6A12EC2CF002E127
:104F20007A890CD0C7DA2C080BE049EC2CF002E2AD
:104F3000E16AE552E16E035004017A8B000E28D03D
:104F4000CFDA04E1010E011801E19D6B0D0E3CEC7E
:104F50002CF009E02C0E016EADDA015C04E0FB0ED2
:104F6000DB50DF5C02E3DF5013D0A4DAE66E07DB30
:104F7000E552E750EF6EB4DA04E1010E011801E1E9
:104F80009D6BDF2AFC0EDB2AFD0EE0E3DB2ADED779
:104F9000E5528AD283DA090EE12402E3E168E6529F
:104FA000E16E080EDB6A12EC2CF005E1FA0EDB5024
:104FB00021E17A891FD07EDA2C080EE0FA0EDB5050
:104FC00009E149EC2CF002E2E16AE552E16E03509E
:104FD00004017A8B020E21D183DA04E1010E01185B
:104FE00001E19D6B0D0E3CEC2CF006E1FA0EDB505E
:104FF00001E17A89030E11D12D0E3CEC2CF020E159
:10500000040E41DB1DE0050E026EFD0EDB50025C5E
:1050100017E0FD0EDB0401E1C6D0030E19DB01E150
:10502000C2D0070E30DB01E1BED0010EF36E080ED8
:10503000F3CFDBFF55DA04E1010E011801E19D6BAE
:10504000040E06DB09E0050E1EDB06E00A0E75DA2B
:10505000EDD85AEC2CF033D09D5191DBEFCF00F01E
:10506000000E00C0DFFF010EDB6A2ADB050EF0DA5E
:105070001FE1000EDFCFE6FF010EDBCFE6FFE9EC1C
:105080004CF0E552E552F3CF00F0F4CF01F0026AA4
:10509000036A01AE02D00268036800C0DFFF010EA0
:1050A00001C0DBFF020E02C0DBFF030E03C0DBFF0B
:1050B000040116DA04E1010E011801E19D6B080EEE
:1050C000DB5044E0FD0EDB5007E17EEC2CF0800E5F
:1050D00037DA000EEE5414E3020EBADA07E17EEC82
:1050E0002CF0000EEE54800E2BDA0AE3060ECBDA1B
:1050F00009E17EEC2CF0000E23DA800EEE5402E281
:10510000040151D0E0D991DA080EDB5054E0040ECE
:10511000DBCF38F0050EDBCF39F0060EDBCF3AF0EF
:10512000070EDBCF3BF03D683E683F68406885EC8A
:105130004CF0040E34C0DBFF050E35C0DBFF060E5D
:1051400036C0DBFF070E37C0DBFF35D0FD0EDB506E
:1051500006E1D4DB7F0EEE54000EF2D923E3FD0E00
:10516000DB0404E112DB000EEBD91CE3020E70DA63
:1051700004E10BDB7F0EE4D915E3030E84DA04E1CE
:1051800004DBFF0EDDD90EE3060E026EFD0EDB50D2
:10519000025C0CE1FADAFF0EEE54FF0EEE547F0EC5
:1051A000EE5404E204017A8D010E37D0070E50DA76
:1051B00002E089D93ADAFD0EDB50070A21E0010A44
:1051C00017E0050A11E0010A0FE0030A08E0050AEA
:1051D00006E0010A04E0050A02E0040E1ED0F3D93D
:1051E000040EDBCFEFFF18D023DBDBCFEDFF14D0B5
:1051F0001FDBDBCFEEFF060EDBCFEEFF070E0AD084
:10520000E2D9DFCFEEFF010EDBCFEEFF020EDBCFE8
:10521000EEFF030EDBCFEEFF000E006E090EE15C29
:1052200002E2E16AE552E16E00503ED19FDAE652B9
:10523000A6D9EE6AEE6AEE6AEE6A010EDB6AFB0E32
:10524000DB50F36E010EABD94FE204019D5197DAAA
:10525000EFCFDFFF300EDF5C42E3DF5039083FE382
:105260008ED9EECF00F0EECF01F0EECF02F0EFCF0F
:1052700003F00A0E3D6E3E6A3F6A406A00C038F095
:1052800001C039F002C03AF003C03BF085EC4CF0AD
:1052900034C000F035C001F036C002F037C003F072
:1052A000300EDF5C046E056A066A076AE850002665
:1052B00005500122065002220750032260D900C087
:1052C000EEFF01C0EEFF02C0EEFF03C0EEFF0401DF
:1052D00007D907E1010E011804E19D6B02D0000E11
:1052E00004D0010EDB2AABD7010EE552E552DCD02B
:1052F0000101C85108E0010E006E6550020B01E08B
:10530000010E005C17E1D6D90BE169516A1111E178
:105310008B8CA00E696F0F0E6A6F010E6B6F1200FF
:1053200069516A1152E18B9CA00E696F0F0E6A6F72
:105330006B6B1200C80509E0020EC85D06E0040EA2
:10534000C85D03E0100EC85D17E1B4D90BE16951E7
:105350006A1111E18B8C200E696F4E0E6A6F010E7F
:105360006B6F120069516A1130E18B9C200E696FDE
:105370004E0E6A6F6B6B1200200EC85D26E19AD943
:1053800007E169516A1121E18B8CC9D9010E15D051
:105390006B0507E169516A1118E18B9CC0D9020EB7
:1053A0000CD0020E6B5D0BE169516A110EE18B8C22
:1053B000A00E696F860E6A6F030E6B6F1200695143
:1053C0006A1103E18B9CABD96B6B120067D89BD938
:1053D000E8AE02D0003403D0E750D880005423E375
:1053E000FC0EDB5010E0E0D8E9BEEA689DD804E08E
:1053F000E846FE0B0106FCE1006ED6D8E9BEEA687D
:105400005DDAEF1210D0D0D8E9BEEA688DD804E09A
:10541000E846FE0B0106FCE1E81C006EC5D8E9BEBB
:10542000EA684CDAEF1640D039D86DD9E8AE02D030
:10543000003403D0E750D880005423E3FC0EDB5047
:1054400011E1B2D8E9BEEA686FD804E0E846FE0B85
:105450000106FCE1E81C006EA7D8E9BEEA6834DA70
:10546000EF160FD0A1D8E9BEEA685ED804E0E8469E
:10547000FE0B0106FCE1006E97D8E9BEEA6824DA6B
:10548000EF1212D0016E026A00C0E6FFE66E02C0A3
:10549000E6FFAEEF4BF0E66E06EF2CF07AD9E1CFE7
:1054A000D9FFE2CFDAFF1200E552E5CFDAFFE7CF0E
:1054B000D9FF12009D5163D9EF501200A951E96E36
:1054C000EA6ACEEF2BF0D9CFE9FFDACFEAFF12007C
:1054D000E66E000EDA20E66E1200E66AC9EF2BF0E7
:1054E0009D2B9D51006E016A000E00181200DECF48
:1054F000E9FFDDCFEAFF1200D890F336E80612008C
:10550000010EF36EDB501200EA22EECF48F0EFCF2F
:1055100049F012003ED9100EE66E0BEF2CF0E96E4A
:10552000000EDA20EA6E1200D00EE926050EEA22FD
:10553000EF50016E010E01521200E66EC9EF2BF022
:10554000EE54000EEE54000EEE541200006EDF50CA
:10555000005C1200DF6EDFCFE6FF9B51016A000F97
:10556000006E020E012283D981EC44F05AEF2CF038
:10557000E76E010EE7CFDBFF04017A511200FC0E4B
:10558000DBCFE9FFFD0EDBCFEAFF1200EA22EECF10
:105590004AF0EFCF4BF0120001D9E8061200DBCF42
:1055A000F4FFF350F45C1200FD0EDBCFE9FFEA6A72
:1055B0001200DECF00F0DDCF01F0D89001501200D4
:1055C0009C51BFEF2BF0FB0EDBCFE9FFFC0EDBCFD6
:1055D000EAFF1200EA22EE50EFCFEAFFE96E005038
:1055E0001200A951EA6A310FE96E0E0EEA22EF505D
:1055F0000E01EA6AAC25E96EAD51EA2212000122E1
:10560000110EDB50E8240024E96E000E0120EA6E42
:10561000E552E750EF6E110E1200E652E652E652E6
:105620001200036E050EE15C1200040EEECFDBFFEC
:10563000050EEECFDBFF060EEECFDBFF070EEECF43
:10564000DBFF1200ABD8000EE926010EEA221200A1
:10565000006EFD0EDB50005C1200DBCFE6FFE66A59
:105660001200036E046A02C0E6FFE66E04C0E6FFA5
:10567000AEEC4BF0056E1200020EDBCF48F0030ECD
:10568000DBCF49F01200016EFD0EDB50015C120011
:10569000DECF00F0DDCF01F0000E005C100E0158EF
:1056A0001200EECFE6FFEECFE6FFEECFE6FFEFCF44
:1056B000E6FF120005016907000E6A5B6B511200DC
:1056C000020EDB6A030EDB6A1200000EE926030EEF
:1056D000EA221200010EDBCFE9FFEA6A1200040E93
:1056E000DB28E96EEA6ACEEF2BF0E66EE66AE9ECBB
:1056F0004CF0E552E5521200FD0EDB50F80F006E43
:10570000010E00521200FD0EDBCF00F0190EE76E05
:1057100000181200D9CF00F0DACF01F01200100EFD
:10572000696F270E6A6F1200ADDE5AEF2CF0B3DE00
:10573000E66AD9501200CCDE010E45EF2CF0A2DE55
:1057400011EF2BF0BBDE010EE9260E0E1200AFD8D2
:105750006DEF2AF0010EF1DE9EDEB8EF2AF0AEDE2C
:10576000790EE9260E0E1200A5D89ED697DEE652D7
:105770001200D0DF110EBCD8110EDB2A1200EA6A2B
:10578000000FE96E030EEA221200B8D8FF0EEE54A5
:105790001200D9CFE6FFDACFE6FF1200D890E93643
:1057A000EA361200110EE926050EAEDEA0DE010E6D
:1057B000120084DE490EE9260E0E120063DE036E2F
:1057C000070EE15C1200110EDB50D9248FEF2AF096
:1057D000A1DEFAEC4BF0006E080EE15C1200D6DEA2
:1057E00048504A5C49504B581200030E36DF020EF7
:1057F0002DEF2BF0D950010F92DEEE50ED1012007C
:105800004ADEE76E050EE7CFDBFF1200CAEC27F099
:1058100051D8E5521200E66AE66AF80EE66EE66ACC
:10582000E66A12000D0E006E040144DE005C1200F8
:10583000CADE040EDBCFEEFF050E1200A7DE4A50D3
:1058400048181200110EE926050EEA2212003BDE6E
:10585000EE50ED10120037DE010EEE18120033DEAE
:10586000020EEE1812002FDE030EEE18120000C01A
:10587000E6FF01C0E6FF1200006E1CDE005C1200B5
:1058800056DF010F3ED8020F120005DE04017A51E7
:10589000120010DEE66EE66A1C0E006E7C0E9FEFB4
:1058A0002BF05DDF31DE4EDFEA2248501200F6DDDC
:1058B0000DEF2BF0E552E552E55212006FDF9E0E20
:1058C000E926050EEAEF2AF069DF6C0EE926050EDF
:1058D000EAEF2AF06EDF18DEA2EF2BF047DFE65288
:1058E000FCDD010E120023DF020FF2DD030E1200B9
:1058F000DB500F01D92413DEEF6A1200E4DDD880FB
:105900001200E6DD010E97EF2BF021DF050EB8DF68
:045910009BEF2BF0EE
:0C5914003CEC32F0A098636A626A0F015C
:10592000266B04EC33F002E2E16AE552E16E0050CE
:105930000F01C8EC32F0DF6ADF50006E016A0C0E16
:10594000005C000E015810E2DF50040DF3CFE9FFB8
:10595000F4CFEAFF000EE926040EEA22EE6AEE6AB0
:10596000EE6AEE6ADF2AE8D7658C0F01386B65981E
:10597000659C62A607D062960101DF6BE46BE56B64
:10598000E66BF7D70101010EF86FF96FFA6BFB6B4D
:10599000EC6BDF6A030EDF5C11E2EA6ADF3431ECA4
:1059A00033F0EA22EE6AED6AEA6ADF3438EC33F06B
:1059B000EA22EE6AED6A7AEC32F0ECD70101080EC9
:1059C000D56F040ED66F0F01160E266F0401300E30
:1059D000026F040E036F400E016F840E006F010111
:1059E000C96BC86B3FEF32F03CEC32F082B206D0AC
:1059F000656A0F01366B0101C86B7CD00101C8518B
:105A00000CE1656A0F01366BC8EC32F065B602D066
:105A10006586FCD70101010EC86FC8050AE165BAA9
:105A200008D0626A0F01366B368136890101020E99
:105A3000C86F6250040B06E00F013651040B02E000
:105A4000629459DB65B256D06250010B09E00F0138
:105A50003651010B05E05EDF0101040EC86F629054
:105A60006250100B06E00F013651100B02E033DBE1
:105A7000629862AC15D00F0136AD0AD0CFEC32F08F
:105A8000730E46EC32F002E2E16AE552E16E00503C
:105A9000629C0101F65101E0F607F65101E1F3D8ED
:105AA0006250200B05E00F013651200B01E002DBB4
:105AB0006250020B14E00F013651020B10E0CFECE4
:105AC00032F0E6687F0EE66E8CEC48F0006E060E53
:105AD000E15C02E2E16AE552E16E0050636A040EA5
:105AE0000101E76EC819E8AE02D0E73402D0E750F2
:105AF000C85D02E2A19834D00F0136A730D0DF6A2A
:105B0000040EDF5C2CE262A62AD064CFEDF1010125
:105B1000ED51780BE842E842E842EE6F6296EDB54F
:105B200004D0EE513FEC33F003D0EE5144EC33F0AF
:105B3000EA22EF70EE5102E1F0DA0FD0000EE66ECD
:105B4000E66AED0EE66E010EE66E720E46EC32F07F
:105B500002E2E16AE552E16E0050DF2AD1D7A19856
:105B60003FEF32F02EEC33F0FC0EDBA403D0E66AFC
:105B7000B8EC32F0FC0EDBA204D0010EE66EB8ECFD
:105B800032F0FD0EDB50016A260F006E0F0EB2ECF4
:105B900032F04EEC32F0FC0EDBCFEFFFE5523FEF80
:105BA00032F02EEC33F0FC0EDB5003E041EC32F02F
:105BB00002D06BEC32F09EEC32F0D9CFE9FFDACFB5
:105BC000EAFFEE50ED1003E1F36AF46A28D04EECE0
:105BD00032F053EC33F0FA0EDBCFEEFFFB0EDBCFEF
:105BE000EDFF4EEC32F0EE52F90EDBCFEFFF400E40
:105BF00049EC33F0880E58EC33F0FC0EDB5003E038
:105C000041EC32F002D06BEC32F0EA22EF74DECFDE
:105C100000F0DDCF01F000C0F3FF01C0F4FFE5525A
:105C20003FEF32F02EEC33F0FD0EDB5003E10DECD4
:105C300033F009D070EC32F0E2EC32F070EC32F07C
:105C4000010FE2EC32F0E5523FEF32F014EC33F0AA
:105C500065A817D027EC33F0400EEE16EE6AEE6A18
:105C6000EE6A27EC33F0EE7C41EC32F0EA22EF747E
:105C7000400E006E27EC33F00050EF1627EC33F0A7
:105C8000EF7CFEEF32F00101F85127E1010EF86FD1
:105C9000F95123E1010EF96F020EDC5D09E153ECCD
:105CA00032F0EE52EF6A53EC32F0C80EEF6E120093
:105CB000DC0513E1EF6B60EC32F0EE52400EEF6E5C
:105CC00060EC32F0EEEC32F060EC32F0840EEF6E0D
:105CD000010EEF6FCDDB800EEF6E12000101FA6B4B
:105CE000FB6B020EDC5D07E14DEC33F065EC32F04E
:105CF000DDEC32F010D0E0510401365D0101E151DC
:105D00000401375904E236C4E0F137C4E1F15CD84C
:105D1000CADBDBDBC8DBC80EEF6E12002EEC33F003
:105D2000000EDE6E040EDD6EDBDB040DF4CF01F041
:105D3000D9CFE9FFDACFEAFFF350EE260150ED228A
:105D4000ADDBEF9EFC0EDB5002E1C5DB01D099DB41
:105D5000EA22DECFEEFFDDCFEDFFA0DBEF9C9EDB86
:105D6000040EE926000EEA22EF8CE55288D36598EE
:105D70000101DFBF0DD0E4AF09D0020EDC6FFB5193
:105D800001E1ACDF0101F96BF86B12000DEF33F0AC
:105D9000040130AF0DD00101010EDC6FFA5101E1B9
:105DA0009DDF0101F96BF86BF7510DE143EF2EF028
:105DB0000101020EDC6F5CDB840EEF6EF96BF86B99
:105DC000F75101E160DF120057DB400EDF6E010189
:105DD000E05D000EE1590AE2E0C1DFFFDB5102E1C4
:105DE000010E03D0DB0502E1020EDB6FDF50016A1A
:105DF000E850E05DE06F0150E159E16F54DBEE5295
:105E0000DFCFEFFF380EE96F040EEA6FDFB10DD080
:105E1000DF5017E0DDC1F6FFDEC1F7FFDD2B000E1E
:105E2000DE230800F5507DDBF3D7DF500AE0DDC14B
:105E3000E9FFDEC1EAFFDD2B000EDE23EF5071DB50
:105E4000F4D71DD32EEC33F03BDBEE52EFCFDFFF68
:105E5000DFCF00F000500101E55D000EE65902E2DF
:105E6000E5C1DFFFDF50006E016AE850E55DE56FD8
:105E70000150E659E66F010EDB6ADF50F36E010E4A
:105E8000DBCFF4FFF350F45C16E2010EDB50EA6A5C
:105E9000380FE96E040EEA22EF50E66EE2C1E9FF28
:105EA000E3C1EAFFE22B000EE323E552E750EF6E79
:105EB000010EDB2AE2D7000ED880E555000EE6552C
:105EC0000DE2EBDB02DBFCDAEF50400B03E175DBAC
:105ED000C80E02D072DB880EEF6E12D0C9DA840EC3
:105EE000EF6EE751E81107E005D0E8C1FAFF0101C4
:105EF000E751F96EFADF0101E49FF75101E1C3DEDA
:105F0000E552BDD2B9DA0101DF8F7EDB02E2E16A40
:105F1000E552E16E0050300EE66EE66AE66A000E6B
:105F2000E66E040EF1DA02E2E16AE552E16E00503B
:105F3000658CDF6A030EDF5C02E2DCDAFBD7010E60
:105F4000E66EE66AE66ACA0EE66E010EDDDA02E287
:105F5000E16AE552E16E0050659C0101080ED56FC3
:105F6000040ED66F000ECB6F040ECC6FCBC1CDF1FB
:105F7000CE6F32C4C9F1C95102E1100E10D0010E2A
:105F8000E66EE66AC90EE66E010EE66E010E7EDA78
:105F900002E2E16AE552E16E00500101200EC86F95
:105FA0006ED2800E0401305D4EE10101C00EDF6F44
:105FB00004013351030A25E0010A09E0030A41E123
:105FC00001017A0EDD6F990EDE6F120E34D0325160
:105FD000F66EF76AD890F636F736CF0EF626990E9B
:105FE000F7220900F5CFDDF10A00F5CFDEF1020E50
:105FF0000101DCDAF5CFE0F1030ED8DAF5CFE1F1FB
:106000001200040E325D1AE20101DF8104013251F7
:10601000E96EEA6AD890E936EA36F60EE926020E0B
:10602000EA22EECFDDF1EDCFDEF1DDC1E9FFDEC129
:10603000EAFFEF500101E06FE16B12000101DF6B3D
:1060400012000101DF6B120009DB0401386B396BB0
:1060500030511F0B020A11E0030A0CE0010A1EE195
:106060000101DF8F040138810101EB0517E1040113
:10607000388314D00101DF8F11D00101DF8F0401BB
:1060800034BF02D0DADA01D0DDDA58DAE3DA06E03A
:1060900005DAEF50040B02E0010E386F0101DFAFAB
:1060A00007D0380EDD6F040EDE6FDF81020EE06F69
:1060B000E552E5D10F0126A10CD002DAEF5080089D
:1060C00007E1F1D9EF50840803E1FAD98C0EEF6EA5
:1060D0002691629A12000F0136856298658201014D
:1060E000010EEC6F31DA750ED1D902E2E16AE552A8
:1060F000E16E005012000101EC6B26DA740EC6D975
:1061000002E2E16AE552E16E005065920F013695B8
:1061100062A402D06294FCD71200AED901012D0E08
:10612000F66FFD0EED1539E17E0EED15E8407F0BA3
:10613000040DF3CFCBF1F4CFCCF1000ECB27040E3E
:10614000CC23CBC1CDF1CCC1CEF1CD75B9D9EF50B7
:106150003C0BE842E8420D081EE1DF6A080EDF5CF6
:1061600016E2AED9020EE926000ED5D9EF50E66E42
:10617000DF50EA6A300FE96E040EEA22E552E7507A
:10618000EF6E9ED990DAEE2AEF22DF2AE7D798D970
:1061900025DA09D807D027D805D0FD0EED1504085B
:1061A00001E130D86CD10101DB6BF76BFA6BFB6B53
:1061B000EF6BDC6B78D9EF9ED57575D9EF9ED575F1
:1061C000FCD9EF9EDF6BE06BE16BE46BE56BE66B9C
:1061D00055D8BAD9030E5AD902E2E16AE552E16E06
:1061E0000050B7EF2EF0020E0101DC5D02E122EF5C
:1061F0002FF0DC6BEF5104E13BD98C0EEF6E1200F7
:10620000EF6B120039D94FD9EF50400B01E0010E6E
:10621000DF6E0101D575080EC85D0BE132C438FF91
:106220000F01385103E00101100E02D00101040EEC
:10623000C86FDC0513E137D948D9C6DD020E01016C
:10624000DB5D03E130D9840E07D0DF5003E12BD9A9
:10625000C80E02D028D9880EEF6E0FD0E4AF0CD054
:10626000E751E81107E005D0E8C1FAFF0101E75165
:10627000F96EFADF0101E49FDC6B01D104013051BA
:10628000600BE842E842E842E842E842000901E0E7
:10629000120031510C0A4AE00B0A3FE00C0A31E0CF
:1062A000010A22E00B0A1EE0020A1CE0030A18E0C1
:1062B000080A10E0010A0CE00F0A08E0030A01E0F6
:1062C00012000101DF8F080EC86F1200D1EF2FF00E
:1062D00082EF2FF00101C90EDD6F010EDE6F0CD0D1
:1062E00024EF30F097EF31F034510101DD6FDE6BB8
:1062F000CA0EDD27010EDE23DF81010EE06FDF8F86
:1063000012000101DF8F04013451EA6ACA0FE96EFD
:10631000010EEA2232C4EFFF120016D9020EB6D8DF
:1063200002E2E16AE552E16E00501200120096D9D5
:10633000E652E652E6520401320510E130511F0BDD
:1063400000090CE10101DF8F030E0401315D04E15E
:106350000101010EEB6F02D00101EB6B0401325120
:1063600001E07FD030511F0B020801E07AD0345198
:106370000F0B000901E175D034510F0B020871E3D6
:10638000200E0101C85D6DE1DF8F040134BF04D030
:1063900054D9D4D8DFD803D055D9D0D8DFD8EA2201
:1063A000020EEFCFDBFFECD8010B02E1DF9401D04E
:1063B000DF8434BF02D041D901D044D9EA22DECFF4
:1063C000EEFFDDCFEDFF030E315D0CE143D907E0B9
:1063D00034BF02D0BFD801D0C1D8EA22EF82840EE8
:1063E00067D93FD0DF7436D90BE058D8EF9E56D826
:1063F000EF8CFAD802E2E16AE552E16E005002D079
:106400004DD8EF8CDF74BCD8020B02E123D912E027
:10641000040134BF02D09ED801D0A0D8EA22EF9266
:106420003B0E006E36D9E0D802E2E16AE552E16E39
:10643000005002D03B0E2DD9040134510F0B016ADC
:10644000260F006E0F0E0122030E00C0DBFF040EAC
:1064500001C0DBFF030EDBCFE9FF040EDBCFEAFF59
:10646000EF90050EE15C02E2E16AE552E16EC6D012
:1064700014D9B4D8DDEF32F0D7D8E6521200E55285
:10648000BDD0FD0EEA6ADB3431EF33F0E66EE66A2A
:106490008CEC48F0006E060EE15C1200DECFE9FFE6
:1064A000DDCFEAFF1200D5C1E9FFD6C1EAFF120035
:1064B00034510F0BE96EEA6AD890E936EA361200D9
:1064C000CBC1E9FFCCC1EAFF1200EDD8380EEE6E69
:1064D000040EED6E1200FD0EEA6ADB3438EF33F085
:1064E000FC0EDB50E824026EFD0EDB50040DF35071
:1064F00002241200DF50C8D8EA22EF6ADF50BFD86A
:10650000EA22EF6ADF2A1200E66E61EC4BF0006EC1
:10651000050EE15C1200EA22EE50EFCFEAFFE96ED1
:106520001200E66EE9C1E9FFEAC1EAFFE92B000EBD
:10653000EA23E552E750EF6EDF061200EA22EECFC3
:10654000DEFFEDCFDDFF1200000EE66EE66AE66EBE
:10655000E66A120034510F0B3FEF33F034510F0B4A
:1065600044EF33F0012200C0DEFF01C0DDFF120066
:10657000FD0EDBCFE6FF8EEC2EF0E552E552120069
:10658000D950020FE96E000EDA20EA6EEF501200C9
:10659000160E396F9F0E376F7B0E366F1200010E8D
:1065A000E66EE66A000EE66EE66A1200F76ADD2520
:1065B000F66EDE51F72208001200CDC1E9FFCEC110
:1065C000EAFF1200040DF3CF00F0F4CF01F0000E4B
:1065D0000026040EC7DF840E58EF33F064D8300E67
:1065E000EE6E040EED6E1200020EE66EE66ADECF6F
:1065F000E6FFDDCFE6FF050E46EF32F0E552E5CFD0
:10660000DAFFE7CFD9FF1200020EE66EE66AE66A0D
:10661000270EE66E0F0E84EF32F02ADF8C0EEF6E3F
:1066200042DF840EEF6E1200D9CFE6FFDACFE6FF2D
:10663000E1CFD9FFE2CFDAFF12003ADFCF0EE92631
:10664000010E120035DFD50EE926010E120019DF0A
:106650008BEF32F023DFEF50800B12000DDFE6529C
:106660001200FE0BEA36E96ED50EE926010E120085
:10667000FE0BEA36E96ECF0EE926010E1200EA6A39
:10668000F30FE96E010E1200EA6AF00FE96E010ED7
:10669000120004DFE850EF1612008FDFEE52400EBA
:1066A000EF6EDDEF32F0020EE926000EEA22120054
:0866B000F5DEE850EF121200C4
:0866B80098EC38F0FB0EDBCF7B
:1066C000F3FFDB06F35000090AE0E6EC38F0FA0EBF
:1066D00051EC39F0F3E1011CF1E1010E01D0000EA3
:1066E000C7EF38F098EC38F03B0EE12402E3E168A4
:1066F000E652E16E010EDB6A020EDB6AF90EDBCFB9
:10670000F6FFFA0EDBCFF7FFFB0EDBCFF8FF08003A
:10671000F550DF6EDF5002E1EBEF37F0250EDF5C66
:1067200002E0DEEF37F0030EDB6A040EDB6A050ED3
:10673000DB6A060EDB6A070EDB6A00EC38F02D0E12
:10674000DF5C0CE02B0EDF5C09E0200EDF5C06E076
:10675000230EDF5C03E0300EDF5C1AE1DF50300A0D
:1067600014E0130A0FE0030A0AE00B0A05E0060A28
:10677000E4E1030EDB80E1D7030EDB82DED7030EFC
:10678000DB84DBD7030EDB86D8D7030EDB88D5D7B7
:106790002A0EDF5C1BE1FCEC37F04AEC38F010E02D
:1067A000030EDB803A683B68130EDBCF3FF0140E1C
:1067B000DBCF40F035EC3CF0040E38C0DBFF03D0FB
:1067C000130E33EC38F000EC38F00BD0090EDB6A16
:1067D000A1EC38F003E015EC39F0FAD7090E33ECF0
:1067E00038F0030EDBB0DB982E0EDF5C1BE100EC13
:1067F00038F02A0EDF5C0BE1FCEC37F04AEC38F0A5
:1068000003E1130E85EC38F000EC38F00BD0090EE4
:10681000DB6AA1EC38F003E015EC39F0FAD7090E89
:1068200085EC38F0680EDF5C07E100EC38F0680EAC
:10683000DF5C1DE1030E18D0740EDF5C17E07A0EEA
:10684000DF5C14E0480EDF5C06E0540EDF5C03E022
:106850005A0EDF5C02E1020E07D06C0EDF5C03E033
:106860006A0EDF5C04E1010ED8EC38F0C9DBDF50C2
:106870006E0A01E17FD31E0A01E192D1200A01E1F3
:106880008FD13F0A01E149D11A0A01E146D10D0A2F
:1068900001E143D1200A01E140D13A0A01E13DD1B1
:1068A000200A01E13AD1260A01E135D10D0A01E1C0
:1068B00032D11A0A01E1D9D0200A4AE0300A1FE099
:1068C000460A0EE0250A01E083D3D950F90FE96E9C
:1068D000FF0EDA20EA6E010EEE5E000EEE5AEE5A60
:1068E000E6EC38F0250EE66E95DB03E1011C01E1D4
:1068F00069D3E2EC38F001E26BD3DB2A69D3080EEE
:10690000DB6A040EDB50010806E2040EDB04AAEC8D
:1069100038F0DB508BDB080EDB5009E0030EDB5058
:10692000010B05E172DB01E04DD3080EDB6A64DB8D
:10693000EFCFDFFF5AEC39F003E1011C01E142D354
:10694000E2EC38F001E3DB2A60DB01E141D33AD32A
:10695000070EDB5002080FE126EC39F0030EEDECD8
:1069600038F00E0EEECFDBFF0F0EEECFDBFF100E7A
:10697000EECFDBFF20D0F70EDBCF03F0F80EDBCF3E
:1069800004F0020E035E000E045AF70E03C0DBFF94
:10699000F80E04C0DBFF03C0E9FF04C0EAFFDDEC32
:1069A00038F0026A0E0E00C0DBFF0F0E01C0DBFFE5
:1069B000100E02C0DBFF0E0EDBCFE6FF0F0EDBCFAB
:1069C000E6FF100EDBCFE6FF89EC4BF0E552E55217
:1069D000E552130E39C0DBFF140E3AC0DBFF060E82
:1069E000DB5005E0130E21EC39F001E26ADB45ECE7
:1069F00039F002E2130E37DB08EC39F006E0040E42
:106A000021EC39F002E2050E2EDB030EDBB005D0DF
:106A1000FCDA01E0D7D2080EDB6A090EDB6A0E0E43
:106A2000DBCFF6FF0F0EDBCFF7FF100EDBCFF8FF4B
:106A30000800F550DF6EDF5014E04BEC39F011E246
:106A40005AEC39F003E1011C01E1BCD2BBDB01E3EC
:106A5000DB2A090EDB2AD9500E0FE96E000ECBDBC4
:106A6000E7D7D3DA01E1B4D2ADD2C6DA110EEECF58
:106A7000DBFF120EEDCFDBFF110EDBCFE6FF120EB8
:106A8000DBCFE6FF7BEC4BF0E552E552130EF3CF84
:106A9000DBFF140EF4CFDBFF060EDB5004E0130E19
:106AA000D0DB01E20EDB45EC39F002E2130EDBDA5B
:106AB000AFDB05E0040EC5DB02E2050ED4DA030EFF
:106AC000DBB005D0A2DA01E07DD2080EDB6A090E48
