:020000040000FA
:061000001EEF57F0120084
:061008005CEF35F0120060
:061018006EEF24F012004F
:06102A000300A3AE00006C
:1010300000050000E1000000A0AE0000B70E0000B7
:10104000030000009EAE0000BC0E00000200000085
:1010500002010000000000013200000000000180D9
:10106000004D0000000200000000000001320000FE
:1010700000000001A700FBFFDFFF015700EFFF04A6
:1010800000014E00F2FF0700014C00F3FF080001D1
:101090004A00F5FF0A00014400F8FF0B0001480078
:1010A000FAFF0D00014E00FCFF0F00015000FFFF92
:1010B000100001320000000A00012E0002000900A9
:1010C00001330002000A00012D0004000800012D78
:1010D0000004000800012F0005000800013100078E
:1010E000000700012E00070006000132000800067C
:1010F00000013300090005000136000A0004000168
:1011000034000A0003000139000B000300013D0018
:101110000C0002000141000D0001000146000E001C
:1011200001000146000E00FFFF0141000D00FFFF1E
:10113000013D000C00FEFF013E000C00FDFF0139E7
:10114000000B00FDFF0136000A00FCFF013300091F
:1011500000FBFF0132000800FAFF0135000800F92A
:10116000FF012E000600F9FF012E000600F9FF0125
:101170002D000400F8FF012D000400F8FF012E00EF
:101180000200F7FF012E000200F7FF01320000000D
:10119000F6FF012D000000F7FF012E00FEFFF7FF14
:1011A000012900FEFFF8FF012B00FDFFF8FF012FD2
:1011B00000FBFFF8FF012B00FBFFF9FF013100F9F5
:1011C000FFF9FF012E00F9FFFAFF013200F8FFFAE4
:1011D000FF013300F7FFFBFF013600F6FFFCFF01C4
:1011E0003900F5FFFDFF013900F5FFFDFF013D006E
:1011F000F4FFFEFF014100F3FFFFFF014600F2FF95
:10120000FFFF013200F6FF010001C60200008E0060
:10121000015B00EEFFFEFF015100F0FFFDFF014802
:1012200000F3FFFAFF014100F5FFF9FF013C00F771
:10123000FFF8FF013A00FAFFF6FF013600FCFFF667
:10124000FF013C00FFFFF4FF0128000100F8FF014F
:1012500029000200F8FF0126000300F9FF012B001E
:101260000500F9FF012E000700FAFF012F0008001A
:10127000FBFF0133000900FBFF013F000C00FCFFF6
:101280000100000000000002010000000000013227
:10129000000000000001CE003F006A0002000000D4
:1012A0000000000132000000000001120200009660
:1012B000FF0141000D000100013E000C0003000190
:1012C00034000A000300012F00080005000140005F
:1012D0000A000800013D0007000A00011B0002008F
:1012E0000500011B0002000500013C0001000C008C
:1012F000013700FFFF0B00012F00FDFF0900013641
:1013000000FAFF0900013500F9FF0800013D00F671
:10131000FF0700013C00F5FF0500014400F3FF0456
:1013200000014600F2FF0100010000000000000281
:1013300001000000000001320000000000019001E7
:1013400064FF4AFF020000000000000132000000BC
:10135000000001A200FBFFE0FF012D00F7FFFFFFEF
:10136000012600F9FFFDFF011D00FBFFFDFF01202D
:1013700000FBFFFCFF012700FBFFFAFF012B00FD34
:10138000FFF8FF012E00FEFFF7FF013200FFFFF61E
:10139000FF0132000100F6FF0133000200F6FF01F9
:1013A0002B000300F8FF0127000500FAFF012A00C7
:1013B0000600FAFF012B000700FBFF012B000800CD
:1013C000FDFF012F000900FDFF0160001300FEFF7B
:1013D000019B001F000000012B00F9FF0500012AFE
:1013E00000FAFF0600012700FBFF0600012800FCB1
:1013F000FF0700012400FCFF0600012400FEFF0798
:1014000000012800FFFF0800012800FFFF0800017D
:101410002D0001000900012D0001000900012F002D
:1014200003000900012D0004000800012800040049
:101430000700012E0006000700012E00070006002D
:1014400001320008000600013300090005000131E7
:1014500000090004000136000A0004000134000AFB
:10146000000300016B001500040001730017000168
:1014700000015000100000000151001000FEFF01AB
:1014800048000E00FDFF014A000E00FBFF014A006C
:101490000E00FBFF0141000B00F9FF0140000A00B4
:1014A000F8FF0139000800F8FF013D000700F6FFD2
:1014B000013C000500F5FF0138000200F5FF014185
:1014C000000100F3FF0128000000F8FF012900FEE1
:1014D000FFF8FF012400FEFFF9FF012800FCFFF9DF
:1014E000FF012800FCFFF9FF012E00FAFFF9FF01C0
:1014F0002E00F9FFFAFF012B00F9FFFBFF01870027
:101500001B0000000196000000E2FF01DE033AFF2D
:101510000000017D00E7FF0000016900EBFF020011
:10152000015600EFFF0300014400F3FF04000138FF
:1015300000F6FF0500013D00F6FF0700013500F849
:10154000FF0700013D00F9FF0A00013A00FAFF0A17
:1015500000013F00FCFF0C00013D00FEFF0C0001FC
:101560004600FFFF0E0001500001001000014E0078
:1015700004000F0001480006000D000144000800AF
:101580000B000120000400050001270006000500F3
:1015900001220006000300012600070003000124C9
:1015A0000007000200012900080002000155001197
:1015B0000001000100000000000002010000000026
:1015C000000132000000000001EA008A00E5FF028D
:1015D000000000000000013200000000000169006E
:1015E000EBFFFFFF015B00EEFFFDFF014F00F1FF8E
:1015F000FBFF012200FAFFFDFF012200FAFFFDFFC1
:10160000013C00F7FFF8FF013900F9FFF7FF013453
:1016100000FDFFF6FF013300FEFFF6FF0138000278
:1016200000F5FF0134000300F6FF0139000700F761
:10163000FF013C000900F8FF011D000500FDFF014E
:1016400026000700FDFF014A000E00FBFF015B00C2
:101650001200FDFF0164001400FFFF01640014008C
:10166000010001560011000300014F000F000500AA
:101670000145000C000700013C0009000800013989
:1016800000070009000131000400090001370001D2
:10169000000B00013200FFFF0A00013600FCFF0AC8
:1016A00000013900F9FF0900013C00F7FF080001C3
:1016B0004300F4FF0600014A00F2FF050001560056
:1016C000EFFF0300015F00EDFF01000100000000DB
:1016D00000000201000000000001320000000000D4
:1016E00001770176FF4EFF0200000000000001328A
:1016F000000000000001A200FBFFE0FF012D00F749
:10170000FFFFFF012600F9FFFDFF011D00FBFFFDAC
:10171000FF012000FBFFFCFF012700FBFFFAFF0198
:101720002B00FDFFF8FF012E00FEFFF7FF01320046
:10173000FFFFF6FF0132000100F6FF013300020057
:10174000F6FF012B000300F8FF0127000500FAFF58
:10175000012A000600FAFF012B000700FBFF012B06
:10176000000800FDFF012F000900FDFF01600013CC
:1017700000FEFF019B001F000000012B00F9FF0588
:1017800000012A00FAFF0600012700FBFF06000106
:101790002400FCFF0600012800FCFF0700012400D4
:1017A000FEFF0700012800FFFF0800012800FFFFDF
:1017B0000800012D0001000900012D0001000900B1
:1017C000012F000300090001280004000700012D7B
:1017D0000004000800012E0006000700012E00078B
:1017E0000006000132000800060001330009000570
:1017F00000013100090004000136000A0004000164
:1018000034000A000300016B00150004000173009E
:10181000170001000150001000FFFF0150001000F0
:10182000FFFF0148000E00FDFF014A000E00FBFF14
:10183000014A000E00FBFF0141000B00F9FF0140CF
:10184000000A00F8FF0139000800F8FF013D000719
:1018500000F6FF013C000500F5FF0138000200F52D
:10186000FF0141000100F3FF0128000000F8FF0123
:101870002900FEFFF8FF012400FEFFF9FF01280008
:10188000FCFFF9FF012800FCFFF9FF012E00FAFF21
:10189000F9FF012E00F9FFFAFF012B00F9FFFBFF12
:1018A0000187001B0000000196000000E2FF01DE3E
:1018B000033AFF0000017D00E7FF0000016900EB33
:1018C000FF0200015600EFFF0300014400F3FF0494
:1018D00000013800F6FF0500013D00F6FF0700019A
:1018E0003500F8FF0700013D00F9FF0A00013A004A
:1018F000FAFF0A00013F00FCFF0C00013D00FEFF63
:101900000C00014600FFFF0E000150000100100016
:10191000014E0004000F0001480006000D000144C4
:101920000008000B0001200004000500012400064F
:101930000004000124000600040001260007000343
:101940000001240007000200012900080002000134
:10195000550011000100010000000000000201001C
:10196000000000000132000000000001EA008A00CF
:10197000E5FF02000000000000013200000000004E
:10198000016900EBFFFFFF015B00EEFFFDFF014F70
:1019900000F1FFFBFF012200FAFFFDFF012200FA28
:1019A000FFFDFF013C00F7FFF8FF013900F9FFF7E9
:1019B000FF013400FDFFF6FF013800FEFFF5FF01D7
:1019C00033000200F6FF0134000300F6FF01390086
:1019D0000700F7FF013C000900F8FF011D000500AA
:1019E000FDFF0128000700FCFF0149000E00FCFF7D
:1019F000015B001200FDFF0164001400FFFF0164A1
:101A0000001400010001560011000300014F000FF7
:101A10000005000145000C000700013C000900081A
:101A2000000139000700090001310004000900012C
:101A3000370001000B00013200FFFF0A00013600F1
:101A4000FCFF0A00013900F9FF0900013C00F7FF23
:101A50000800014300F4FF0600014A00F2FF050000
:101A6000015600EFFF0300015F00EDFF01000100E0
:101A70000000000000020100000000000132000030
:101A8000000000018D0189FF32FF0200000000000C
:101A9000000132000000000001960000001E00015D
:101AA0002C063C01000001A5000000DFFF01300210
:101AB00090FF0000012B000700FBFF012A00060039
:101AC000FAFF0127000500FAFF0127000500FAFFD1
:101AD0000126000300F9FF0124000200F9FF0124A0
:101AE000000200F9FF0128000000F8FF012D0000AE
:101AF00000F7FF012900FEFFF8FF012900FEFFF8B3
:101B0000FF012D00FCFFF8FF012F00FBFFF8FF0194
:101B10002B00FBFFF9FF012E00F9FFFAFF012B005C
:101B2000F9FFFBFF012F00F8FFFBFF013100F7FF7A
:101B3000FCFF013600F6FFFCFF013400F6FFFDFF5D
:101B4000013900F5FFFDFF013C00F4FFFFFF0178C4
:101B500000E8FFFEFF014600F2FF0000014700F22F
:101B6000FF0200013D00F4FF0200013D00F4FF020E
:101B700000013B00F5FF0400013600F6FF04000100
:101B80003300F7FF0500013300F7FF0500013100C6
:101B9000F9FF0700012E00F9FF0600012B00FBFFF3
:101BA0000700012B00FBFF0700012D00FCFF0800D0
:101BB000012400FEFF0700012900FEFF0800012D9F
:101BC00000000009000128000000080001290002AF
:101BD000000800012600030007000126000300079B
:101BE0000001270005000600012A0006000600018A
:101BF0002E0007000600012F0008000500019100DB
:101C0000E3FF0000020100000000000132000000BC
:101C1000000001C10074000000020000000000008C
:101C200001320000000000015F00EDFFFFFF0150E6
:101C300000F0FFFFFF014800F2FFFDFF013600F654
:101C4000FFFCFF012800F9FFFCFF012700FAFFFB62
:101C5000FF012000FBFFFCFF012300FBFFFBFF0156
:101C60002200FDFFFAFF011B00FEFFFBFF01200029
:101C7000FEFFFAFF0123000000F9FF01320001001E
:101C8000F6FF0131000400F7FF0139000700F7FFFC
:101C90000140000A00F8FF0145000C00F9FF015463
:101CA000001000FBFF0156001100FDFF0169001547
:101CB00000FFFF01690015000100015B0012000335
:101CC00000014F000F000500012200060003000183
:101CD000220006000300013C000900080001350055
:101CE0000700080001360004000A0001320001006C
:101CF0000A00013200FFFF0A00013600FCFF0A0063
:101D0000013900F9FF0900014000F6FF0800014316
:101D100000F4FF0600014F00F1FF0500015600EF3F
:101D2000FF0300016400ECFF01000100000000005F
:101D3000000201000000000001320000000000016C
:101D40001001FFFF5DFF02000000000000013200F3
:101D500000000000014B000F00FFFF0146000E00D5
:101D6000FFFF0148000E00FDFF013E000C00FDFFDB
:101D7000013B000B00FCFF013C000B00FBFF0136A8
:101D8000000900FAFF0135000800F9FF012A0006EA
:101D900000FAFF012B000500F9FF0128000400F9FB
:101DA000FF0128000400F9FF012B000300F8FF01E8
:101DB00029000200F8FF0128000100F8FF012D00B2
:101DC0000000F7FF0132000000F6FF012E00FEFFC9
:101DD000F7FF012E00FEFFF7FF012B00FDFFF8FFCC
:101DE000012F00FBFFF8FF012B00FBFFF9FF012E85
:101DF00000FAFFF9FF013200F8FFFAFF013200F8A4
:101E0000FFFAFF012F00F8FFFBFF013800F6FFFB90
:101E1000FF013400F6FFFDFF013900F5FFFDFF0172
:101E20003D00F4FFFEFF014100F3FFFFFF01410011
:101E3000F3FF0000016900EBFF0000016000EDFF0F
:101E40000200015200F0FF0400014A00F2FF050009
:101E5000014300F4FF0600013D00F6FF07000140CA
:101E600000F7FF0900014000F8FF0A00013F00FAF7
:101E7000FF0B00013C00FBFF0B00013D00FEFF0CCF
:101E800000013C00FFFF0C0001320000000A0001CD
:101E90002E0002000900012E0002000900012D00A1
:101EA00004000800012D0004000800012F000500B7
:101EB0000800012E0007000600013100070007009E
:101EC0000132000800060001330009000500013658
:101ED000000A0004000134000A000300013E000C67
:101EE000000300013D000C0002000146000E00014D
:101EF000000146000E000100010000000000000289
:101F00000100000000000132000000000001390063
:101F10000000DEFF020000000000000132000000AF
:101F20000000016900EBFFFFFF015B00EEFFFDFF1A
:101F3000014F00F1FFFBFF012200FAFFFDFF01242A
:101F400000FAFFFCFF014000F6FFF8FF013D00F939
:101F5000FFF6FF013600FCFFF6FF013C00FFFFF437
:101F6000FF013C000100F4FF0136000400F6FF0110
:101F70003D000700F6FF0140000A00F8FF012400C1
:101F80000600FCFF0122000600FDFF0154001000C6
:101F9000FBFF015B001200FDFF0169001500FFFF60
:101FA0000164001400010001560011000300014FFC
:101FB000000F0005000126000700030001200005B6
:101FC0000004000143000A0009000139000700096C
:101FD00000013B0004000B0001370001000B000171
:101FE0003C00FFFF0C00013600FCFF0A00013D0031
:101FF000F9FF0A00014000F6FF0800012000FBFF86
:102000000400012600F9FF0300014F00F1FF050065
:10201000015B00EEFF0300016400ECFF0100010022
:10202000000000000002010000000000013200007A
:1020300000000001BC01B0FF02FF02000000000030
:10204000000132000000000001AC00DEFFFBFF01D8
:102050004300FDFF0D00013C00FFFF0C00012800C4
:102060000100080001230001000700012400020014
:102070000700011D00030005000119000300040012
:102080000120000500040001190004000300011DE7
:102090000005000300012300070001000133000ACE
:1020A0000002000191001D00010001940284000063
:1020B00000017300000017000196001E00000001DF
:1020C00073000000E9FF011D013900000001C90093
:1020D0001700DFFF019001B0FF000001A000000029
:1020E000E0FF019600E2FF000001A00000002000D8
:1020F000019E027AFF0000014600F2FF000001236A
:1021000000F9FFFFFF011D00FBFFFDFF011500FDB2
:10211000FFFDFF011B00FEFFFBFF011E00FFFFFA9A
:10212000FF0147000200F2FF010000000000000272
:10213000010000000000013200000000000158070B
:102140005AFF5C04020000000000000132000000A1
:10215000000001C701A8FFE9FF0141000000F3FFF3
:10216000015C014400F1FF014C00F1FFFEFF011092
:1021700001CBFFF4FF0141000000F3FF01C701584C
:1021800000E9FF013C0000000C00010701CDFF0D3C
:1021900000015700EFFF0400015700110004000187
:1021A000050133000B00013C0000000C000106019A
:1021B000CDFF0C00016100EDFF0400016100130080
:1021C000040001060133000C0001410000000D0075
:1021D00001000000000000020100000000000132C8
:1021E000000000000001FF00A8FF83FF02000000C4
:1021F0000000000132000000000001C60158001676
:10220000000141000000F3FF010501CDFFF5FF01D2
:102210006200EDFFFBFF0161001300FCFF010501FF
:102220003300F5FF0141000000F3FF010501CDFF80
:10223000F5FF015700EFFFFCFF0157001100FCFF05
:102240000107013300F3FF013C000000F4FF01C768
:1022500001A8FF170001410000000D000110013529
:10226000000C00014C000F000300015C01BCFF0FDB
:102270000001410000000D0002010000000000010B
:1022800032000000000001AC00000099FF020000D5
:10229000000000000132000000000001C6015800EB
:1022A0001600013C000000F4FF010601CDFFF4FF21
:1022B000016200EDFFFBFF0160001300FDFF01065E
:1022C000013300F4FF0141000000F3FF010501CDDF
:1022D000FFF5FF015700EFFFFCFF0157001100FC65
:1022E000FF0107013300F3FF013C000000F4FF0190
:1022F000C701A8FF170001410000000D00011001F7
:1023000035000C00014C000F000300015C01BCFF14
:102310000F0001410000000D00020100000000005C
:1023200001320000000000019B000000A3FF02003A
:102330000000000000013200000000000155001103
:102340000000000146000000F2FF015500EFFF0011
:102350000001460000000E00020100000000000124
:102360003200000000000197001C00AAFF020000DC
:102370000000000001320000000000014100FFFFEA
:10238000F3FF012400F9FF0200012000FAFF020020
:10239000011900FCFF0300012000FBFF0400011DE8
:1023A00000FDFF0500011B00FEFF0500011B00FEF4
:1023B000FF0500011E0000000600012800010008C2
:1023C00000012400020007000124000400060001AF
:1023D00023000500050001240006000400012B0075
:1023E00008000300012E00090002000132000A006B
:1023F00000000137000B000000012E000900FEFF65
:10240000012B000800FDFF0128000700FCFF01234D
:10241000000500FBFF0124000400FAFF0126000371
:1024200000F9FF0123000000F9FF0123000000F97B
:10243000FF012200FDFFFAFF012200FDFFFAFF016C
:102440002700FAFFFBFF012400FAFFFCFF012B002D
:10245000F8FFFDFF012E00F7FFFEFF013700F5FF3B
:10246000FFFF011500FCFF01000113010000370010
:10247000012300F9FFFFFF012000FAFFFEFF011B0F
:1024800000FBFFFEFF011600FCFFFEFF011900FD2F
:10249000FFFCFF011500FDFFFDFF011500FFFFFC24
:1024A000FF011900FFFFFBFF011E000100FAFF0101
:1024B00020000400FBFF0123000500FBFF012B00AF
:1024C0000800FDFF01000000000000020100000004
:1024D0000000013200000000000150001900290036
:1024E000020000000000000132000000000001CDE9
:1024F000000000D7FF012D000900010001260007A0
:10250000000300011C000400040001150003000387
:10251000000116000200040001190000000500017E
:10252000140000000400011600FEFF040001120068
:10253000FEFF0300011500FDFF0300011900FCFF71
:102540000300011600FCFF0200011900FBFF01005F
:10255000011900FBFF010001000000000000020162
:10256000000000000001320000000000019700C4DC
:10257000FFBCFF020000000000000132000000006C
:1025800000013E00FDFFF4FF011900FBFFFFFF010A
:102590001900FCFFFDFF011D00FDFFFBFF012900ED
:1025A000FEFFF8FF0124000200F9FF0122000300F2
:1025B000FAFF0120000500FCFF0120000600FEFFDD
:1025C0000123000700FFFF0141000D00000001246E
:1025D00000FAFF0400011D00FDFF0500011B00FEC5
:1025E000FF0500011E00FFFF060001230001000798
:1025F0000001240002000700012000040005000182
:1026000027000600050001260007000300012B003B
:102610000800030001280008000100012D00090046
:102620000100013C000C00FFFF0139000B00FDFF21
:102630000138000A00FBFF012E000700FAFF011617
:10264000000200FCFF0116000200FCFF0115000162
:1026500000FCFF0119000000FBFF011E000000FA52
:10266000FF012200FDFFFAFF012000FCFFFBFF013C
:102670002300FBFFFBFF0132000A000000013700CE
:102680000000F5FF017C01B4FF0000015A00EEFFDD
:102690000100011E00FAFF0100011900FBFF01000B
:1026A000012F00F8FF0500012E00FAFF0700012DA1
:1026B00000FCFF0800013200FFFF0A0001230001B7
:1026C00000070001190001000500011B00020005C0
:1026D00000011D00030005000119000400030001B2
:1026E0001D0005000300011E00060001000123007B
:1026F00007000000010000000000000201000000CF
:10270000000001320000000000015A003500F6FF11
:10271000020000000000000132000000000001285B
:1027200000F8FF0000012300F9FFFFFF012000FA7D
:10273000FFFEFF011D00FBFFFDFF011500FDFFFD7A
:10274000FF011500FDFFFDFF011500FFFFFCFF016C
:102750001500FFFFFCFF0115000100FCFF01150043
:102760000100FCFF0115000300FDFF01190003003B
:10277000FCFF011B000500FEFF0120000600FEFF1C
:10278000011E000600FFFF012800080000000128CC
:102790000008000000011E000600010001200006E4
:1027A000000200011D0005000300011500030003E5
:1027B00000011500030003000115000100040001E1
:1027C000150001000400011500FFFF0400011500C1
:1027D000FFFF0400011500FDFF0300011500FDFFD0
:1027E0000300011D00FBFF0300011B00FBFF0200B3
:1027F000012300F9FF0100012300F9FF000001009F
:102800000000000000020100000000000132000092
:10281000000000019100CBFFBBFF020000000000A0
:102820000001320000000000013E00FDFFF4FF0146
:102830001900FBFFFFFF011900FCFFFDFF01220053
:10284000FDFFFAFF012400FEFFF9FF01290002004D
:10285000F8FF011D000300FBFF0120000500FCFF45
:102860000122000600FDFF012300070000000141D6
:10287000000D00FFFF012700FAFF0500011D00FD0C
:10288000FF0500011B00FEFF0500011E00FFFF0603
:1028900000012300010007000120000200060001E2
:1028A00024000400060001240006000400012800A2
:1028B00007000400012B00080003000128000800A5
:1028C0000100012D0009000100013C000C00FFFF88
:1028D0000139000B00FDFF0138000A00FBFF012E4B
:1028E000000700FAFF0116000200FCFF01160002BB
:1028F00000FCFF0115000100FCFF0119000000FBB6
:10290000FF011E000000FAFF012200FDFFFAFF0197
:102910002000FCFFFBFF012300FBFFFBFF01320057
:102920000A0000000137000000F5FF017C01B4FF40
:102930000000015A00EEFF0100011E00FAFF010035
:10294000011900FBFF0100012F00F8FF0500012A1B
:1029500000FAFF0600013100FCFF0900013200FF10
:10296000FF0A00011E0001000600011E0001000612
:1029700000011B0002000500011900030004000112
:102980001C0004000400011B0005000200012000DF
:102990000600020001230007000000010000000003
:1029A00000000201000000000001320000000000F1
:1029B000015A003500F6FF0200000000000001325D
:1029C0000000000000012800F8FF0000012400F9C9
:1029D000FFFEFF011E00FAFFFFFF011D00FBFFFDD0
:1029E000FF011500FDFFFDFF011500FDFFFDFF01CB
:1029F0001500FFFFFCFF011500FFFFFCFF011500A4
:102A00000100FCFF0115000100FCFF01190003009B
:102A1000FCFF0115000300FDFF011B000500FEFF88
:102A20000120000600FEFF011E000600FFFF012836
:102A3000000800FFFF01280008000100011E000639
:102A400000010001200006000200011B0005000239
:102A50000001190003000400011500030003000138
:102A6000150001000400011500010004000115001B
:102A7000FFFF0400011500FFFF0400011500FDFF2A
:102A80000300011500FDFF0300011D00FBFF030013
:102A9000011900FBFF0100012400F9FF02000123DE
:102AA00000F9FF000001000000000000020100002A
:102AB00000000001320000000000016F00F7FFBEBF
:102AC000FF020000000000000132000000000001D1
:102AD0004B000F00000001C3000000D9FF014B00B4
:102AE000F1FF000001C30000002700020100000008
:102AF000000001320000000000017B00DBFFC0FF8E
:102B00000200000000000001320000000000013758
:102B10000000000B000162027A000000013C00008E
:102B200000F4FF01DC00D4FF00000124000600FCDB
:102B3000FF011D000300FBFF011D000300FBFF015F
:102B40001E000000FAFF0123000000F9FF0122002F
:102B5000FDFFFAFF012400FCFFFAFF012000FBFF4C
:102B6000FCFF012800F9FFFCFF012900F8FFFEFF30
:102B7000012900F8FFFEFF012D00F7FFFFFF0137DD
:102B800000F5FF0100013300F6FF0200012B00F801
:102B9000FF0300012800F9FF0400012300FBFF05EB
:102BA00000012000FCFF0500012000FEFF060001DF
:102BB0001E00FFFF0600011E0001000600012000AC
:102BC00002000600012000040005000124000600A8
:102BD0000400013700F5FF000002010000000000C2
:102BE00001320000000000014B002D000000020037
:102BF000000000000001320000000000014600F269
:102C0000FFFFFF012F00F7FFFDFF011D00FBFFFD90
:102C1000FF011C00FCFFFCFF011600FEFFFCFF0192
:102C20001900FFFFFBFF0115000100FCFF01100070
:102C30000100FDFF0119000300FCFF011900040061
:102C4000FDFF011B000500FEFF011B000500FEFF4C
:102C50000123000700FFFF0128000800FFFF0128F3
:102C6000000800010001230007000100011E00060A
:102C7000000100011D000500030001150003000311
:102C8000000115000300030001160002000400010A
:102C900014000000040001140000000400011200F0
:102CA000FEFF0300011900FDFF0400011500FDFFF8
:102CB0000300011D00FBFF0300011E00FAFF0100DD
:102CC000012400F9FF0200012300F9FF00000100C8
:102CD00000000000000201000000000001320000BE
:102CE000000000016900FFFFC1FF020000000000BA
:102CF0000001320000000000013C000C00FFFF0159
:102D000033000A00FEFF012D000800FCFF012B002C
:102D10000700FBFF0120000400FBFF011D00030072
:102D2000FBFF0120000200FAFF0123000000F9FF71
:102D30000123000000F9FF012600FDFFF9FF011D3E
:102D400000FDFFFBFF012A00FAFFFAFF012400FA51
:102D5000FFFCFF012B00F8FFFDFF012E00F7FFFE37
:102D6000FF013200F6FF0000014B00F1FF010001FE
:102D70001E00FAFF0100011B00FBFF0200013300EF
:102D8000F7FF0500013100F9FF0700013100FCFFEA
:102D90000900012D00FFFF090001280001000800C3
:102DA00001200002000600012400040006000123A7
:102DB000000500050001240006000400012B0008A6
:102DC0000003000133000A0002000132000A000182
:102DD00000010000000000000201000000000001EE
:102DE0003200000000000116000000F3FF020000A6
:102DF0000000000001320000000000012800F8FF80
:102E00000000012400F9FFFEFF011E00FAFFFFFF92
:102E1000011900FCFFFDFF011900FCFFFDFF011976
:102E200000FDFFFCFF011500FFFFFCFF011900FF83
:102E3000FFFBFF0115000100FCFF0115000100FC74
:102E4000FF0119000300FCFF0119000400FDFF0150
:102E50001D000500FDFF011B000500FEFF0128000D
:102E60000800FFFF01280008000000012300070000
:102E700000000123000700010001200006000200FD
:102E8000011D0005000300011500030003000119E6
:102E900000030004000115000100040001150001F9
:102EA000000400011900FFFF0500011500FFFF04E9
:102EB00000011900FDFF0400011500FDFF030001E2
:102EC0001D00FBFF0300011E00FAFF0100012400AA
:102ED000F9FF0200012800F8FF00000100000000D7
:102EE00000000201000000000001320000000000AC
:102EF00001AB00E1FF9EFF02000000000000013274
:102F00000000000000014200F3FFFEFF012D00FF62
:102F1000FF0900011E0000000600011B0002000561
:102F20000001150003000300011600040002000167
:102F30002300070001000137000B00010001FF0022
:102F400033000000012D00000009000137000B00D4
:102F50000000012D000000F7FF016E0016000000C8
:102F6000014F000900F3FF019B00E1FF0000013C5D
:102F7000000000F4FF013700F5FF0000013C0000F5
:102F8000000C00010401CCFF0000012800F8FF0044
:102F900000011500FDFFFDFF011500FFFFFCFF0113
:102FA00019000000FBFF010000000000000201000A
:102FB0000000000001320000000000012200F3FFC9
:102FC000F0FF0200000000000001320000000000DD
:102FD000015500110000000146000000F2FF0155FC
:102FE00000EFFF000001460000000E00020100009B
:102FF000000000013200000000000196002000AC3B
:10300000FF0200000000000001320000000000018B
:103010003D00FEFFF4FF012300F9FF010001200045
:10302000FAFF0200012200FAFF0300011C00FCFF6E
:103030000400011C00FCFF0400011D00FDFF050051
:10304000012000FEFF060001190000000500012814
:103050000001000800012000020006000124000415
:1030600000060001230005000500012400060004FD
:1030700000012B0008000300012D000900010001E0
:1030800037000B0001000141000D00FFFF013E0071
:103090000C00FDFF011B000500FEFF0119000400EC
:1030A000FDFF0119000400FDFF0119000300FCFFF2
:1030B000012D000400F8FF0132000100F6FF0119A4
:1030C000000000FBFF011E00FFFFFAFF011900FDD9
:1030D000FFFCFF011900FDFFFCFF011C00FCFFFCD1
:1030E000FF011D00FBFFFDFF011B00FBFFFEFF01B9
:1030F0002300F9FFFFFF013D00FEFF0C0001290046
:103100000800020001240006000400011D00030065
:103110000500011E0001000600011400000004006B
:10312000011600FEFF0400011900FDFF0400011557
:1031300000FDFF0300011D00FBFF0300012000FA5A
:10314000FF0200012300F9FF0100012800F8FF0041
:1031500000012800F8FF0000012300F9FFFFFF0134
:103160002000FAFFFEFF011D00FBFFFDFF0115001F
:10317000FDFFFDFF011500FDFFFDFF011500FFFF35
:10318000FCFF011500FFFFFCFF0124000200F9FF16
:103190000124000400FAFF0112000300FEFF0116E3
:1031A000000400FEFF012E000900FEFF01000000E8
:1031B00000000002010000000000013200000000D9
:1031C000000124000C00EEFF0200000000000001DE
:1031D000320000000000013C000C00FFFF01330042
:1031E0000A00FEFF012D000800FCFF012B00070074
:1031F000FBFF0120000400FBFF011D000300FBFF9B
:103200000120000200FAFF0123000000F9FF012362
:10321000000000F9FF012600FDFFF9FF012200FD7B
:10322000FFFAFF012700FAFFFBFF012400FAFFFC71
:10323000FF012B00F8FFFDFF012E00F7FFFEFF014D
:103240003200F6FF0000014B00F1FF0100011E00FB
:10325000FAFF0100011B00FBFF0200013300F7FF32
:103260000500013100F9FF0700013100FCFF0900F2
:10327000012D00FFFF0900012300010007000124C8
:1032800000020007000124000400060001230005DD
:1032900000050001240006000400012B00080003C3
:1032A000000133000A0002000132000A000100019F
:1032B00000000000000002010000000000013200D8
:1032C000000000000116000000F3FF0200000000F3
:1032D000000001320000000000012800F8FFFFFF9D
:1032E000012300F9FFFFFF012000FAFFFEFF011696
:1032F00000FCFFFEFF011C00FCFFFCFF011500FDB0
:10330000FFFDFF011500FFFFFCFF011900FFFFFBA0
:10331000FF0115000100FCFF0115000100FCFF0189
:1033200019000300FCFF0119000400FDFF011D004E
:103330000500FDFF011B000500FEFF01280008003D
:10334000FFFF0128000800FFFF0123000700010024
:103350000123000700010001200006000200011DFA
:10336000000500030001150003000300011900031C
:103370000004000115000100040001150001000413
:1033800000011900FFFF0500011500FFFF04000107
:103390001500FDFF0300011900FDFF0400011B00E3
:1033A000FBFF0200012000FAFF0200012300F9FFE9
:1033B0000100012800F8FF010001000000000000EA
:1033C0000201000000000001320000000000018B3B
:1033D00000D4FFB9FF02000000000000013200002D
:1033E00000000001B801580000000137000000F59E
:1033F000FF013C00F4FF00000124000600FCFF0177
:1034000024000400FAFF0122000300FAFF01230058
:103410000100F9FF012300FFFFF9FF012200FDFF7A
:10342000FAFF012300FBFFFBFF012000FAFFFEFF74
:10343000012B000700FBFF0127000500FAFF012018
:10344000000200FAFF011E000100FAFF011900004E
:1034500000FBFF011900FFFFFBFF011900FDFFFC4E
:10346000FF011500FDFFFDFF011900FCFFFDFF013D
:103470001B00FBFFFEFF011E00FAFFFFFF01230000
:10348000F9FF0000013101C3FF0000013C00000012
:103490000C000118013800000001230007000100A2
:1034A000011E0006000100011000030001000115CB
:1034B00000030003000116000200040001140000D4
:1034C000000400010F0000000300011500FFFF04CD
:1034D00000011200FEFF0300011200FDFF020001C7
:1034E0001500FDFF0300011900FBFF0100013D0075
:1034F000F4FF020001FF00CDFF0000013C000000CE
:103500000C00011D0139000000012D00090001001F
:103510000120000600020001120003000200010B5E
:103520000001000200011E00010006000119000058
:10353000000500011D00FDFF0500011C00FCFF044B
:1035400000012000FAFF0200012900F8FF0200013B
:103550003200F6FF000001E600D2FF00000141004A
:1035600000000D0002010000000000013200000018
:10357000000001ED05CB0089FC0200000000000006
:103580000132000000000001A400F5FFE1FF01A1ED
:1035900000F7FFE1FF012201F1FFC8FF010501F57E
:1035A000FFCDFF01DA00F9FFD5FF01B100FBFFDD20
:1035B000FF018700FEFFE5FF016E00FEFFEAFF024C
:1035C0000100000000000132000000000001F801CD
:1035D0003E0028010200000000000001320000004F
:1035E000000001800280FF000002010000000000D6
:1035F00001320000000000010C02EC0030FF02006C
:1036000000000000000132000000000001AB00F7E4
:10361000FF2100019500F6FF1C00019600F5FF1C3C
:1036200000019D00F4FF1D0001C000F0FF23000118
:10363000CE00ECFF2400016300F6FF1100016100E1
:10364000F5FF1000016400F4FF1000016000F4FFBA
:103650000F00012A00FAFF0600012700FAFF05000B
:10366000012400FAFF0400012000FAFF02000120FB
:1036700000FAFF0200011E00FAFF0000013C00F406
:10368000FF0000013D00F4FFFEFF014200F3FFFEDA
:10369000FF014200F3FFFEFF014600F2FF000001C0
:1036A0003700F5FF0000012D00F7FFFFFF012B00A1
:1036B000F8FFFDFF012000FBFFFCFF010E00FEFFF5
:1036C000FEFF010F000000FDFF011000FFFFFDFFE6
:1036D0000115000100FCFF012D000400F8FF01406E
:1036E000000800F6FF0120000400FBFF0124000297
:1036F00000F9FF012E000200F7FF012D000000F786
:10370000FF012D00FFFFF7FF012E00FEFFF7FF0175
:103710002800FCFFF9FF012700FBFFFAFF02010070
:103720000000000001320000000000019E02FF00C6
:10373000C9FE02000000000000013200000000008D
:10374000011E000600000001150004000100011226
:10375000000300020001160002000400011B000229
:1037600000050001190001000500014600FFFF0EE1
:1037700000014C00FEFF0F00014C00FDFF0F000197
:103780008E00FBFF1C00018F00FAFF1C00020100ED
:103790000000000001320000000000012902E9FEE3
:1037A000B400020000000000000132000000000030
:1037B000015D00EEFFFBFF014700F2FFFEFF013756
:1037C00000F5FF0000012F00F7FF0300012700FABA
:1037D000FF0500012700FBFF0600012600FDFF0793
:1037E00000012E00FEFF0900015600FDFF1100013F
:1037F0002D00FFFF0900012900FEFF08000126003F
:10380000FDFF0700012000FCFF0500012400FAFF76
:103810000400012800F8FF0100018A01EFFFB3FF57
:10382000011E000000FAFF0119000100FBFF013634
:10383000000400F6FF013A000600F6FF013600061C
:1038400000F7FF0160000C00F1FF0128000400F9FF
:10385000FF0120000200FAFF010B00FFFFFEFF0145
:103860001000FFFFFDFF012E00F9FFFAFF018A00A3
:10387000EBFFEEFF014B00F4FFF7FF014A00F6FFFC
:10388000F5FF014300F7FFF6FF011D00FDFFFBFF01
:10389000011B00FEFFFBFF014B01F3FFBFFF010413
:1038A00001F6FFCDFF011900050000000119000518
:1038B00000010001160004000200011600040002CD
:1038C0000001350007000800013A0006000A000167
:1038D00094000C001B00015E000800110001600054
:1038E00009001100011D0003000500011C00040077
:1038F00004000144000B000800014A000D0007000D
:10390000014A000E0005000147000E0002000123DD
:1039100000070000000123000700FFFF0120000650
:1039200000FEFF011D000500FDFF0120000500FC59
:10393000FF0124000400FAFF0131000400F7FF0139
:103940003E000300F4FF0141000100F3FF014600C7
:103950000000F2FF02010000000000013200000040
:103960000000010A00060000000200000000000044
:103970000132000000000001660014000400015143
:103980000010000200013C000C0000000133000A9E
:1039900000FEFF012D000800FCFF0132000800FAC4
:1039A000FF0135000800F9FF0143000900F6FF019F
:1039B0004E000A00F4FF014E000A00F4FF019E00D1
:1039C0001200E6FF0138012100CBFF01550008007D
:1039D000F1FF015C000900F0FF01BE000F00DDFFF8
:1039E00001BF000D00DCFF01B1000A00DEFF01F79E
:1039F000000C00D0FF01F5000A00D0FF015A0001C1
:103A000000EEFF011E00FFFFFAFF011500FFFFFCA3
:103A1000FF011200FEFFFDFF011200FDFFFEFF018E
:103A20001000FDFFFFFF011000FDFF0100012E004F
:103A3000F7FF0200012F00F7FF0300013900F5FF37
:103A40000300013200F6FF0100013200F6FF000022
:103A5000012E00F7FF0200013100F7FF04000136DC
:103A600000F7FF0600013900F7FF0700013C00F8EE
:103A7000FF0900014300F7FF0A00014400F8FF0BB3
:103A800000018900F1FF1700019200F1FF19000108
:103A90008B00F2FF1800018000F3FF160002010006
:103AA0000000000001320000000000019B01C4FF83
:103AB000EF000200000000000001320000000000E2
:103AC000015F00EDFF0000015100F0FFFEFF013D2E
:103AD00000F4FFFEFF013100F7FFFCFF011500FDC0
:103AE000FFFDFF011500FDFFFDFF011600FEFFFCBD
:103AF000FF011500FFFFFCFF013C00FFFFF4FF0189
:103B00004C000200F1FF0156000300EFFF016100CD
:103B10000400EDFF0162000500EDFF0165000700F4
:103B2000EDFF0165000900EEFF0132000600F8FF1D
:103B30000132000600F8FF0135000700F8FF0131EF
:103B4000000700F9FF0132000800FAFF0133000905
:103B500000FBFF0201000000000001320000000035
:103B600000011D00F1FF090002000000000000013B
:103B700032000000000001FF00F6FFCEFF015601F9
:103B8000F2FFBDFF02010000000000013200000052
:103B900000000186023D01DF00020000000000007D
:103BA00001320000000000019300F7FFE4FF0182F2
:103BB00000F9FFE7FF010701F3FFCDFF019F00F9C7
:103BC000FFE1FF01C500FAFFD9FF01D400FAFFD6DB
:103BD000FF01DD00FCFFD4FF020100000000000136
:103BE000320000000000018F01F7FFEF000200002B
:103BF0000000000001320000000000017F000B0007
:103C0000E9FF014600F2FFFFFF017D00F6FF17000C
:103C10000141000D00010001000000000000020150
:103C2000000000000001320000000000011700F257
:103C3000FF00000200000000000001320000000050
:103C400000016A00FDFFEBFF0172000900EBFF01BC
:103C50005D000500120002010000000000013200BA
:103C600000000000012700F4FF1400020000000023
:103C7000000001320000000000014F01BDFFFFFF06
:103C80000201000000000001320000000000016E8F
:103C9000004000EFFF0200000000000001320000C1
:103CA000000000010901CBFF00000201000000003C
:103CB0000001320000000000016F003F00EBFF0236
:103CC0000000000000000132000000000001FA00C6
:103CD000CEFF0000020100000000000132000000E1
:103CE00000000179003A002C0002000000000000F2
:103CF0000132000000000001F2021D0094000201E8
:103D0000000000000001320000000000010401D5A5
:103D1000FF6AFF0200000000000001320000000006
:103D20000001F7021D0095000201000000000001E3
:103D3000320000000000011D01FCFF55FF020000E1
:103D4000000000000132000000000001BF021B0063
:103D50008A000201000000000001320000000000A3
:103D6000012B0002001A00020000000000000132D6
:103D70000000000000012800FFFF0800012400FEF1
:103D8000FF0700010700FFFF0100010700FFFF011F
:103D900000010E00FEFFFEFF012800FCFFF9FF02FC
:103DA00001000000000001320000000000011800C6
:103DB000F2FFFEFF020000000000000132000000E0
:103DC00000000124000200070001150003000300A9
:103DD000010B00020001000141000D000000020182
:103DE00000000000000132000000000001EF007A36
:103DF000FF3300020000000000000132000000005C
:103E0000000126000700FDFF0126000700FDFF015D
:103E100032000800FAFF012E000700FAFF0135000A
:103E20000700F8FF0136000600F7FF013600060024
:103E3000F7FF013A000600F6FF0138000500F6FF23
:103E4000013B000400F5FF0139000300F5FF0133D9
:103E5000000200F6FF0137000100F5FF012D000010
:103E600000F7FF013200FFFFF6FF012D00FCFFF815
:103E7000FF012600FDFFF9FF012300FBFFFBFF010F
:103E80001D00FBFFFDFF012200FAFFFDFF011E00E8
:103E9000FAFFFFFF011E00FAFFFFFF011E00FAFFFD
:103EA0000100012300F9FF0100013F00F4FF0400BD
:103EB000014300F4FF0600013900F7FF0700013558
:103EC00000F8FF07000201000000000001320000BE
:103ED00000000001F30085003C000200000000002B
:103EE000000132000000000001D600D7FFF4FF02FD
:103EF000010000000000013200000000000140004D
:103F00002500F5FF02000000000000013200000063
:103F1000000001C100DBFF0B0002010000000000F7
:103F200001320000000000016B003F000C000200A5
:103F300000000000000132000000000001400140CC
:103F40000000000136013E0000000176027E00FD07
:103F5000FF014C000F00FEFF012D000900FFFF01D3
:103F600010000300FFFF010B000100FEFF01100025
:103F70000100FDFF0119000000FBFF012800FFFF09
:103F8000F8FF010B00FFFFFEFF010B00FEFFFFFF2C
:103F9000012D00F7FFFFFF015000F0FFFFFF017B45
:103FA0000281FF0100013B01C1FF0100014001C08E
:103FB000FF0300010B00FEFF0100010E00FEFF02E7
:103FC00000011500FFFF04000119000000050001B9
:103FD0001900010005000115000100040001120094
:103FE00002000300011000030001000100000000B6
:103FF000000002010000000000013200000000008B
:104000000147001500DBFF02000000000000013244
:10401000000000000001BA00EFFFDFFF015900F8C7
:10402000FFF0FF015E00F8FFEFFF0201000000005B
:104030000001320000000000016D00EBFFC2FF0232
:1040400000000000000001320000000000016200DA
:10405000FBFFEDFF016000FEFFEDFF016000FEFFD2
:10406000EDFF015F00FFFFEDFF01C3000100D9FF7D
:1040700001B9000100DBFF02010000000000013275
:104080000000000000015B014300C50002000000C9
:104090000000000132000000000001C800D8FFFF4E
:1040A000FF020100000000000132000000000001DA
:1040B0005002EBFE22FF020000000000000132006F
:1040C0000000000001280008000100012600070090
:1040D000030001270006000500012300050005007C
:1040E00001550008000F000162000800120001B62F
:1040F000000D00220002010000000000013200005B
:1041000000000001F20156001E0102000000000044
:104110000001320000000000010C01E8FF30000245
:104120000100000000000132000000000001540006
:104130002100DAFF02000000000000013200000050
:10414000000001FF00EAFF2E000201000000000055
:1041500001320000000000019B00B4FFCAFF020012
:10416000000000000001320000000000011101E623
:10417000FF300002010000000000013200000000DA
:104180000001EC008A001F00020000000000000196
:10419000320000000000011C01E9FF3400020100B0
:1041A0000000000001320000000000017C00E6FF7A
:1041B000BAFF020000000000000132000000000011
:1041C00001C201A6FF01000201000000000001324F
:1041D0000000000000019C005C00F0FF02000000F5
:1041E0000000000132000000000001C701A5FF022D
:1041F0000002010000000000013200000000000188
:10420000E60068005B0002000000000000013200D0
:104210000000000001BD01A7FF0100020100000035
:104220000000013200000000000194005900FFFF6F
:104230000200000000000001320000000000018CBC
:1042400001F2FFB2FF020100000000000132000095
:10425000000000017C001900460002000000000080
:104260000001320000000000018701F2FFB3FF02ED
:104270000100000000000132000000000001CB003E
:10428000AAFF5600020000000000000132000000FA
:104290000000018E01F0FFB2FF02010000000000EB
:1042A0000132000000000001DD007400C0FF0200C8
:1042B00000000000000132000000000001BD01A765
:1042C000FF010002010000000000013200000000B8
:1042D00000019B004B0037000200000000000001BD
:1042E000320000000000014100F5FF07000201005C
:1042F0000000000001320000000000011700000073
:10430000F2FF020000000000000132000000000087
:10431000014600FFFF0E0002010000000000013214
:1043200000000000000119000100F1FF0200000080
:10433000000000013200000000000144000B0008F2
:104340000002010000000000013200000000000136
:10435000B60093FF010002000000000000013200DF
:104360000000000001350007000800020100000005
:10437000000001320000000000011B000200F0FFFD
:1043800002000000000000013200000000000139BE
:1043900000F7FF07000201000000000001320000EA
:1043A00000000001F2007B004D0002000000000050
:1043B0000001320000000000014400F5FF08000287
:1043C0000100000000000132000000000001A00018
:1043D000A0FFF9FF02000000000000013200000011
:1043E0000000018A01EFFFB3FF020100000000009E
:1043F00001320000000000015C001A00CFFF020043
:10440000000000000001320000000000011301E77D
:10441000FF31000201000000000001320000000036
:1044200000016D002200C8FF020000000000000132
:10443000320000000000013900F7FF070002010010
:10444000000000000132000000000001A400620032
:10445000F9FF02000000000000013200000000002F
:10446000014E0007000E00020100000000000132B2
:10447000000000000001D40086FF240002000000BC
:104480000000000132000000000001410000000DAA
:1044900000020100000000000132000000000001E5
:1044A0007700080047000200000000000001320011
:1044B00000000000013100070007000201000000B9
:1044C0000000013200000000000143026200B3FE60
:1044D0000200000000000001320000000000015155
:1044E00001F2FFBEFF0201000000000001320000E7
:1044F000000000016B0019003B00020000000000FA
:104500000001320000000000014B01F3FFBFFF0279
:104510000100000000000132000000000001450021
:10452000230016000200000000000001320000001D
:104530000000014B01F3FFBFFF020100000000007B
:104540000132000000000001FD009EFF7400020027
:10455000000000000001320000000000015501F3DE
:10456000FFBDFF020100000000000132000000005A
:10457000000118000300F2FF02000000000000012B
:1045800032000000000001FB001A00D5FF0201000C
:104590000000000001320000000000017B0030003C
:1045A000380002000000000000013200000000009E
:1045B000018101B3FF01000201000000000001328F
:1045C00000000000000186004F00F2FF0200000022
:1045D00000000001320000000000017C01B4FF0077
:1045E0000002010000000000013200000000000194
:1045F0007F004C00000002000000000000013200BB
:104600000000000001F4001700D5FF0201000000C7
:10461000000001320000000000015600F3FF3200EC
:10462000020000000000000132000000000001ED67
:10463000001600D6FF020100000000000132000059
:1046400000000001C400ECFF740002000000000044
:104650000001320000000000018101B3FF000002F0
:104660000100000000000132000000000001FD0018
:10467000580084FF0200000000000001320000002A
:104680000000016D01B7FF00000201000000000002
:104690000132000000000001E40049007400020043
:1046A00000000000000132000000000001ED0016D3
:1046B00000D6FF02010000000000013200000000EF
:1046C00000015B00D3FFE1FF0200000000000001D9
:1046D000320000000000013D000A00070002010056
:1046E0000000000001320000000000011600F4FF8D
:1046F000060002000000000000013200000000007F
:104700000143000C00FAFF0201000000000001322A
:104710000000000000011700F4FF07000200000085
:10472000000000013200000000000147000200F21A
:10473000FF02010000000000013200000000000143
:104740008500B1FF0D0002000000000000013200F2
:1047500000000000013E000300F4FF020100000021
:10476000000001320000000000017F0004004C0046
:1047700002000000000000013200000000000150B3
:1047800001F3FFBEFF020100000000000132000043
:104790000000000102000000FFFF02000000000016
:1047A00000013200000000000143000900F6FF0292
:1047B00001000000000001320000000000011600AE
:1047C000F7FF0A00020000000000000132000000B4
:1047D00000000124000600040002010000000000A7
:1047E00001320000000000010D00FAFFFBFF020093
:1047F0000000000000013200000000000102011B67
:1048000000D4FF020100000000000132000000009F
:10481000000102000000FFFF020000000000000194
:104820003200000000000135000800F9FF0201001D
:10483000000000000132000000000001CB00EBFF8F
:1048400078000200000000000001320000000000BB
:1048500001200005000400020100000000000132F8
:1048600000000000000182004E0000000200000075
:10487000000000013200000000000141000B00F9BF
:10488000FF020100000000000132000000000001F2
:10489000C30001008BFF0200000000000001320095
:1048A00000000000013900080008000201000000BB
:1048B00000000132000000000001AF0E3200CF08FE
:1048C00002010000000000013200000000000201AF
:0C48D000000000000000000000000000DC
:0448DC00D8CFE4FF4E
:1048E000E0CFE4FFE46EE9CFE4FFEACFE4FFF3CFEB
:1048F000E4FFF4CFE4FFE652A6EC34F00BEC34F026
:10490000030EDB6AA4A69ED1A4960E01002B0E0115
:10491000AB510E01005D01E284D0006B0E01D6ECBC
:1049200033F0EF6A79907B6A7A6A0E01A92B0E0147
:10493000AA510E01A95D01E3A96B9EEC34F0EA22B5
:10494000EE50ED106EE040EC35F0F0EC34F002E1AA
:104950005350511847E0B4EC34F0EA22EE50ED1019
:104960003AE0CAEC34F0B1EC33F09EEC34F0EA22D9
:10497000EE50525C506EEE505358516E020E50C0C5
:10498000DBFF030E51C0DBFF2AEC34F0513412E29E
:1049900050500008000E51540DE22AEC34F0B4ECF3
:1049A00034F0DAEC34F017E227EC35F0EE26515013
:1049B000ED2218D02AEC34F0506C511E000E51221A
:1049C000B4EC34F0DAEC34F006E227EC35F0EE5ECD
:1049D0005150ED5A07D040EC35F0EA2250C0EEFFBE
:1049E00051C0EDFFD6EC33F0120EEF6EF29E0E01C9
:1049F0009EEC34F06DEC33F051C050F0516A5050E1
:104A0000B66E9EEC34F06DEC33F05050B56EF00E97
:104A1000B4140009B46EF00EB4140909B46E7980B0
:104A2000F28E0601000ED880B455000EB5552EE268
:104A3000A82B000EA923B451A85DB551A95926E3AE
:104A4000A86BA96B030EB85D1FE2B651EA6A200F8E
:104A5000E96E010EEA2280CFEFFFB651EA6A230F1A
:104A6000E96E010EEA2281CFEFFFB651EA6A260F06
:104A7000E96E010EEA2282CFEFFFB62B030EB65D80
:104A800001E3B66BB82B02D0B46BB56B000ED880C7
:104A9000B955000EBA551CE2000ED880AE55000E76
:104AA000AF5516E2AA2B000EAB23B951AA5DBA513D
:104AB000AB590EE3AA6BAB6B030EBD5D07E2BB2BDC
:104AC000030EBB5D01E3BB6BBD2B02D0B96BBA6BB0
:104AD000AE51AF110BE0050EAD5D07E3C18C9E9C9E
:104AE0009D8CC280C282AD6B01D0AD2B05010051FF
:104AF00001E1A4D0DE6ADD6ADECF50F0DDCF51F0F7
:104B0000040E505C000E515801E398D073EC33F062
:104B1000B7EC33F0FDE1010EE926050EEA22EE5076
:104B2000ED1070E073EC33F0B7EC33F0FDE1F4EC32
:104B300034F0EE50ED1016E1F9EC34F001E1818033
:104B4000FDEC34F003E1ED5001E1818201EC35F040
:104B500003E1ED5001E1818405EC35F003E1ED5016
:104B600001E1818673EC33F0B7EC33F0FDE1D4EC76
:104B700034F0B7EC33F0FDE1010EE926050EF0EC60
:104B800034F019E15350511816E1F9EC34F001E119
:104B90008190FDEC34F003E1ED5001E1819201ECF4
:104BA00035F003E1ED5001E1819405EC35F003E1CE
:104BB000ED5001E1819673EC33F0B7EC33F0FDE199
:104BC000F4EC34F0EE2A000EEF2273EC33F0B7EC85
:104BD00033F0FDE1D4EC34F0B7EC33F0FDE1090E35
:104BE000E926050EF0EC34F023E15350511820E192
:104BF00073EC33F0B7EC33F0FDE1F4EC34F0EE6A33
:104C0000ED6A16D0F9EC34F001E18190FDEC34F05E
:104C100003E1ED5001E1819201EC35F003E1ED504B
:104C200001E1819405EC35F003E1ED5001E181965D
:104C3000DF2A010E01E260D7DB2A5ED70201F051C4
:104C400001E0F0079EAC3DD09E9CC1AC07D0C19C5A
:104C5000010E0601B06FB16BAC6B18D0C450526E30
:104C6000536E526AC35000015210506E53C051F03F
:104C70000601AC51E96EEA6AFBEC33F050C0EEFF7E
:104C800051C0EDFFD890B037B137AC2B100EAC5DF2
:104C90000EE2B051AE15506EB151AF15516E50507D
:104CA000511005E1AC2BD890B037B137EFD7100ECB
:104CB000AC5D02E39D9C05D0AC51040DF328C26E9F
:104CC000C282F2A435D0D59EF294F29A040E506EB0
:104CD0000601C05111EC34F0EF50505C29E1080E90
:104CE000C05D0AE246EC34F004E0E846FE0B5006F4
:104CF000FCE1E81C891616D0100EC05D0AE246ECF5
:104D000034F004E0E846FE0B5006FCE1E81C8A168D
:104D100009D046EC34F004E0E846FE0B5006FCE116
:104D2000E81C8B160601C05111EC34F0020EEF6E38
:104D3000040EE15C02E2E16AE552E16EE552E5CF84
:104D4000DAFFE7CFD9FFE552E5CFF4FFE5CFF3FF78
:104D5000E5CFEAFFE5CFE9FFE550E5CFE0FFE5CF9E
:104D6000D8FF10002DEC35F0896A92680601AE6B11
:104D7000AF6B8A6A93688B6A94688C968C949596CC
:104D80009594928E010EE36F0E01BC69BD69060118
:104D9000BC6BBB6BBD6BB76BB66BB86BB46BB56BF9
:104DA000B96BBA6BA86BA96BAA6BAB6BAC6B768259
:104DB0007680769C769A76887696FA0E776EDF6A9B
:104DC000DFCF00F0100EE76E0018E8AE02D0E73437
:104DD00002D0E750005C0BE2DFCFE9FFEA6AE9BEF0
:104DE000EA68FBEC33F0EE6AED6ADF2AE9D70601E8
:104DF000DD6BDE6BDB6BDC6BDF6BE06BE16BE26B67
:104E0000BE6BBF6BC06BDF6ADFCF00F0180EE76EC2
:104E10000018E8AE02D0E73402D0E750005C16E29A
:104E2000DFCFE9FFEA6AE9BEEA685BEC34F0EE6ADC
:104E3000ED6ADFCFE9FFEA6AE9BEEA68290EE926F2
:104E4000010EEA22010EEF6EDF2ADED7D586D59A53
:104E5000D59CF294F29AF1940F01498FBE0EC16E67
:104E6000D08E7694A386A59645EC37F0D3EC50F01F
:104E7000F28EF28C7684E552E55250EF33F02DEC51
:104E800035F00BEC34F0030EDB6A040EDB6A74ECD5
:104E900032F075EC52F00601B85100080AE294ECC9
:104EA0002CF00601B72B030EB75D01E1B76BB80715
:104EB000F2D7BD5100080AE2B6EC2CF00601BC2B7B
:104EC000030EBC5D01E1BC6BBD07F3D7200E0401EE
:104ED000E76E7819E8AE02D0E73402D0E750785D8B
:104EE00001E239D16550020B01E035D1400EE66E8A
:104EF000400EE66E020EE66E6AEC4FF03CEC35F0CA
:104F0000E76E030EE7CFDBFFDB50000801E3E5D0DF
:104F1000040EDB6A030EDB50F36E040E01EC34F07A
:104F200001E3DBD0040EDB50EA6A400FE96E020EAB
:104F3000EA22EFCFDFFF05015D5132E10D0E81EC7A
:104F400033F005E00A0E016EDF50015C29E1010E2D
:104F50005D6F0601BFEC33F00D0EEF6EDD2B010E21
:104F6000DB6ADD51F36E010E01EC34F014E252EC19
:104F700034F0E9BEEA68000EE926030EEA22EF509B
:104F8000E66E52EC34F0E9BEEA68190EE926050E29
:104F900067EC34F0E6D73CD90601DD6BDE6B8DD0D3
:104FA0001B0EDF5C09E1595107E1010E596F1B0E21
:104FB0005A6F5B6B5C6B81D059050BE15B0EDF5C5C
:104FC00008E11B0E5A5D05E15B5103E15B0E5B6F6F
:104FD00074D059054AE1410EDF5C47E11B0E5A5D72
:104FE00044E15B0E5B5D41E15A6B5B6B5C6B596B43
:104FF000010EDB6ADBCFE9FFEA6AE9BEEA68000E70
:10500000E926030EEA22EF500D0814E052EC34F0CA
:10501000E9BEEA68190EE926050EEA22EF50E66EAF
:1050200052EC34F0E9BEEA68000EE926030E67ECA4
:1050300034F0E0D7010EDBCFDDF60601BFEC33F034
:10504000EF6A470E006E9D0E97EC34F0000EE66E90
:10505000030EE66E440E006E9D0EA3EC34F002E2E9
:10506000E16AE552E16E035028D0080EDF5C0EE1E4
:105070000601DD5100080AE2DD07BFEC33F0EF6AFC
:10508000410E006E9D0E97EC34F017D00D0EDF5CD4
:1050900014E00A0EDF5C11E0200EDF5C0EE3050178
:1050A0005A6B5B6B5C6B596B0601BFEC33F0DFCF67
:1050B000EFFF05015D6B0601DD2B0601DD51006E82
:1050C000016A000E001806E1010E011803E1C18714
:1050D000DD6BDE6B040EDB2A1DD70601C1513AE001
:1050E000C1A105D03B0E006E9D0E97EC34F0060179
:1050F000C1A305D01C0E006E9D0E97EC34F0060186
:10510000C1A505D0000E006E9D0E97EC34F006018F
:10511000C1A705D0E40E006E9C0E97EC34F006019A
:10512000C1A905D0C50E006E9C0E97EC34F00601A7
:10513000C1AD05D0A40E006E9C0E97EC34F0000EAD
:105140000601C11505E08B0E006E9C0E97EC34F045
:105150000601C16B37D8050EE15C02E2E16AE55257
:10516000E16E50EF33F0A6EC34F0DBC6DFFFDF2A50
:10517000400E81EC33F001E1DF6A0601DC51DF5CB7
:1051800001E120D80601DB51EA6A000FE96E020E48
:10519000EA22FD0EDBCFEFFFDB2B400EDB5D01E1F2
:1051A000DB6BDC51DB5D01E1C185FD0EDBCF00F087
:1051B000016A00BE016800C0F3FF01C0F4FFE552C0
:1051C00050EF33F0A6EC34F00601DB51DC5D1DE05E
:1051D0000601905105E0F4EC4FF032EC40F0F8D7C6
:1051E0000601DC51D880DB5507E2DC51DB5D98EC31
:1051F00033F0DBC6DCF607D0400ED880DC5598ECE7
:1052000033F00601DC6BF4EC4FF0E55250EF33F075
:105210002DEC35F0E652E652DE6ADD6A020EDB6AFC
:10522000030EDB6A060160EC33F06EEC34F0020E24
:10523000F3CFDBFF06017AEC33F004E1010E011835
:1052400001E1DE6B020EDB50DE6EDD6A60EC33F0F6
:105250002C0824E060EC33F00D0820E060EC33F023
:105260006EEC34F0030EF3CFDBFF06017AEC33F083
:1052700004E1010E011801E1DE6B020EDBCF02F04A
:1052800002C003F0026A030EDB5000010224006E2C
:10529000000E0320016E00C0DEFFDD6E000EDFCFCA
:1052A00044F0010EDBCF45F0530E441802E1450EE9
:1052B000451801E1D9D1430E441802E1410E4518C9
:1052C00001E1D0D14D0E441802E1510E451801E123
:1052D000C6D14D0E441802E1520E451801E1BCD171
:1052E000320E441802E1530E451801E1B2D1450EC9
:1052F000441802E1530E451801E1A8D1430E4418A9
:1053000002E1510E451801E19ED14B0E441802E115
:10531000430E451801E194D14C0E441802E1420EAF
:10532000451801E18AD1440E441802E14E0E451899
:1053300001E180D1490E441802E14E0E451801E109
:1053400076D1420E441802E1510E451801E16CD1AC
:105350004C0E441802E1510E451801E162D14C0E89
:10536000441802E1530E451801E158D14E0E44187D
:1053700002E1510E451801E14ED14E0E441802E1F2
:10538000530E451801E144D1430E441802E1530E77
:10539000451801E13AD14D0E441802E1450E451879
:1053A00001E130D1500E441802E1510E451801E1DF
:1053B00026D1500E441802E1540E451801E11CD1CB
:1053C000500E441802E1530E451801E112D14D0E62
:1053D000441802E1530E451801E108D1470E441864
:1053E00002E1500E451801E1FED0430E441802E1DF
:1053F000500E451801E1F4D0490E441802E1430E65
:10540000451801E1EAD0490E441802E1520E451850
:1054100001E1E0D0490E441802E1530E451801E1C4
:10542000D6D0530E441802E1430E451801E1CCD00A
:10543000530E441802E1520E451801E1C2D0530E3A
:10544000441802E1530E451801E1B8D0530E441838
:1054500002E1420E451801E1AED0430E441802E1CC
:10546000420E451801E1A4D0430E441802E1520E49
:10547000451801E19AD04F0E441802E1420E45183A
:1054800001E190D0570E441802E14D0E451801E19C
:1054900087D0520E441802E14D0E451801E17ED02E
:1054A000440E441802E1500E451801E175D04F0E2C
:1054B000441802E1500E45186DE0490E441802E10F
:1054C000500E451865E0580E441802E1540E451878
:1054D0005CE0540E441801E1455055E0410E44187B
:1054E00001E145504EE0560E441801E1455047E0B9
:1054F000490E441801E1455040E04F0E441801E1C7
:10550000455039E0550E441802E1430E451831E08C
:10551000580E441802E1430E451828E0430E441883
:1055200001E1455021E0520E441801E145501AE0D6
:10553000580E441802E1520E451811E0030EDB50DC
:1055400001E095D0020E1BEC34F01BEC34F0680E39
:10555000006E9C0ECFEC34F001E398D095D0E8ECCF
:105560002EF096D0BAD894D008D992D0EAEC2EF08A
:105570008FD0B7D88DD0A4D98BD0D6D989D0F1D936
:1055800087D0F4D985D0D0D883D0E6EC2EF080D067
:1055900015DB7ED086DB7CD07CDA7AD05BDA78D003
:1055A00047DA76D05CEC2FF073D0ECEC2EF070D0B4
:1055B0005AEC2FF06DD05EEC2FF06AD060EC2FF03B
:1055C00067D062EC2FF064D064EC2FF061D066EC11
:1055D0002FF05ED068EC2FF05BD06AEC2FF058D043
:1055E0006CEC2FF055D0C6EC2FF052D0C0EC38F058
:1055F0004FD027EC3BF04CD00CEC3BF049D0FAEC10
:105600003AF046D0ABEC3BF043D0FCEC37F040D066
:105610002EEC3CF03DD049EC3CF03AD05AEC3CF05A
:1056200037D067EC3CF034D078EC3CF031D010EC63
:105630003CF02ED021EC3CF02BD0FBEC2FF028D00E
:1056400003EC30F025D08BEC3CF022D09EEC3CF00B
:105650001FD04AEC51F01CD007EC3DF019D008ECFB
:105660003DF016D019D914D0C4EC3AF011D0E0ECCA
:1056700034F0E0EC34F0400E006E9C0E41EC33F060
:10568000036E0B0EE15C02E2E16AE552E16E03504B
:10569000060160EC33F00D080DE0C1510BE1520E34
:1056A000006E016ADF50001803E1DE52DD50011880
:1056B00001E0C18FDDC6DEF6040EE15C02E2E16AC4
:1056C000E552E16E50EF33F00601E35105E0E60EDE
:1056D000006EAD0E97EC34F01200B2EC26F064EFE1
:1056E0002BF0A6EC34F01EEC35F05BEC33F0020E40
:1056F00023EC35F017E1DF0414E1D950010F75EC0C
:1057000034F00AE0010E006E016ADB50001808E177
:10571000020EDB50011804E1010EDBCFE3F601D0ED
:10572000C18DD2DFA9EF34F04AEC33F00BEC34F04A
:10573000E66AB20EE66E060EE66E44EC35F01BE14C
:10574000020EDB500CE1B251B31103E1B46BB56B47
:1057500011D07684B2C6B4F6B3C6B5F60BD0B2514A
:10576000B31103E1B96BBA6B05D07684B2C6B9F652
:10577000B3C6BAF6A9DFA9EF34F02DEC35F0E65246
:105780001EEC35F053EC35F0020F53EC35F0030FFF
:1057900053EC35F0040F9AEC34F00FE1DF50926EC9
:1057A000010EDB50936E020EDB50946E030EDB5045
:1057B000956E040EDB50966E87DF050EE15C02E20B
:1057C000E16AE552E16E50EF33F04AEC33F0FD0E42
:1057D000DB50100805E2100EF36EFD0EF3CFDBFF79
:1057E000FC0EDB502AE0FD0EDB503AEC57F0F35094
:1057F0000601AE13F450AF13080EF36EFD0E01EC6C
:1058000034F00DE2010EF36EFD0EDB5003E076EC9A
:1058100033F0FDE1F350F31C0F0148173BD0FD0EB0
:10582000DB500C0837E379EC34F003E057EC34F04C
:10583000FDE1E81C0F0149172DD0FD0EDB503AECBD
:1058400057F0F3CF00F0F4CF01F0001E011E00501E
:105850000601AE170150AF17080EF36EFD0E01ECF6
:1058600034F00CE2010EF36EFD0EDB5003E076EC3B
:1058700033F0FDE1F3500F0148130CD0FD0EDB5067
:105880000C0808E379EC34F003E057EC34F0FDE168
:105890000F01491350EF33F04AEC33F01EEC35F0B2
:1058A0009AEC34F009E1010EDBCFE6FFDFCFE6FF33
:1058B0008CDFE552E55208DFE552E55250EF33F058
:1058C0004AEC33F069EC33F0010E3EEC33F0A6EC19
:1058D00033F026E1010EDB5002E1DF50896EB0ECBF
:1058E00034F01EE1010EDB5002E1DF508A6EB0ECB5
:1058F00034F016E1010EDB5002E1DF508B6EB0ECAC
:1059000034F00EE1010EDB5002E1DF508C6EB0ECA2
:1059100034F006E1010EDB5002E1DF508D6ED4DE83
:10592000E552E55250EF33F08450E66EE66A83505C
:10593000E66EE66A8250E66EE66A8150E66EE66AD8
:105940008050E66EE66A230E006E9C0E41EC33F04A
:10595000036E0D0EE15C02E2E16AE552E16E035076
:105960001200EE0E006EAD0E97EF34F02DEC35F018
:10597000E652DF6A010EF36EDB6E020EDB6A210E69
:10598000006E9C0E97EC34F09DBCFED7DF6ADFCF33
:1059900000F0100EE76E0018E8AE02D0E73402D037
:1059A000E750005C3EE2010EDB500601AE1500013F
:1059B000006E020EDB500601AF150001016E0050B3
:1059C00001101EE0DFCFE9FFEA6AE9BEEA68FBECFE
:1059D00033F0EECFE6FFEFCFE6FFDFCF00F0016A56
:1059E00000BE016809EC35F0160E026E9C0E1FEC2D
:1059F00034F0070EE15C02E2E16AE552E16E055027
:105A0000010EDBCF00F0020EDBCF01F0D8900036A4
:105A10000136010E00C0DBFF020E01C0DBFFDF2AF2
:105A2000B6D7EB0E006EAD0E97EC34F0A9EF34F064
:105A3000A6EC34F069EC33F044EC35F009E13DECD0
:105A400034F005E20EEC35F0020EDBCFEFFF3CDE6A
:105A5000A9EF34F0A6EC34F069EC33F0030E23EC3C
:105A600035F015E13DEC34F005E20EEC35F0020EB8
:105A7000EFCFDBFF020E1BEC34F00C0E006E9C0E21
:105A8000A3EC34F002E2E16AE552E16E0350A9EFC3
:105A900034F057EC35F001E08FD0020EDB500108F6
:105AA00001E287D0010EDB50070801E282D0410EEF
:105AB00081EC33F016E1020EDB500AE185EC33F0A5
:105AC00003E076EC33F0FDE1F350F31C921673D053
:105AD00085EC33F003E076EC33F0FDE1F350921205
:105AE0006AD0420E81EC33F016E1020EDB500AE17F
:105AF00085EC33F003E076EC33F0FDE1F350F31C7A
:105B0000931659D085EC33F003E076EC33F0FDE1E9
:105B1000F350931250D0430E81EC33F016E1020E95
:105B2000DB500AE185EC33F003E076EC33F0FDE185
:105B3000F350F31C94163FD085EC33F003E076EC81
:105B400033F0FDE1F350941236D0440E81EC33F083
:105B500016E1020EDB500AE185EC33F003E076EC4F
:105B600033F0FDE1F350F31C951625D085EC33F0AE
:105B700003E076EC33F0FDE1F35095121CD0450EB6
:105B800081EC33F016E1020EDB500AE185EC33F0D4
:105B900003E076EC33F0FDE1F350F31C96160BD0E6
:105BA00085EC33F003E076EC33F0FDE1F350961230
:105BB00002D0C18D01D088DDA9EF34F04AEC33F07A
:105BC0000BEC34F04DEC35F0050E93EC34F0010F96
:105BD0009AEC34F064E1010EDB5007084CE3410E0F
:105BE00081EC33F00AE1D0EC33F003E057EC34F011
:105BF000FDE1E8407F0B801437D0420E81EC33F09A
:105C00000AE1D0EC33F003E057EC34F0FDE1E8407A
:105C10007F0B811429D0430E81EC33F00AE1D0ECE4
:105C200033F003E057EC34F0FDE1E8407F0B8214E1
:105C30001BD0440E81EC33F00AE1D0EC33F003E0EA
:105C400057EC34F0FDE1E8407F0B83140DD0450E96
:105C500081EC33F010E1D0EC33F003E057EC34F09A
:105C6000FDE1E8407F0B8414E76E020EE7CFDBFF17
:105C7000DB5008E002D0C18D12D0010EF36E020E8F
:105C8000F3CFDBFF020E1BEC34F0030E006E9C0E14
:105C9000A3EC34F002E2E16AE552E16E0350A9EFB1
:105CA00034F057EC35F001E08FD0020EDB500108E4
:105CB00001E287D0010EDB50070801E282D0410EDD
:105CC00081EC33F016E1020EDB500AE185EC33F093
:105CD00003E076EC33F0FDE1F350F31C891673D04A
:105CE00085EC33F003E076EC33F0FDE1F3508912FC
:105CF0006AD0420E81EC33F016E1020EDB500AE16D
:105D000085EC33F003E076EC33F0FDE1F350F31C67
:105D10008A1659D085EC33F003E076EC33F0FDE1E0
:105D2000F3508A1250D0430E81EC33F016E1020E8C
:105D3000DB500AE185EC33F003E076EC33F0FDE173
:105D4000F350F31C8B163FD085EC33F003E076EC78
:105D500033F0FDE1F3508B1236D0440E81EC33F07A
:105D600016E1020EDB500AE185EC33F003E076EC3D
:105D700033F0FDE1F350F31C8C1625D085EC33F0A5
:105D800003E076EC33F0FDE1F3508C121CD0450EAD
:105D900081EC33F016E1020EDB500AE185EC33F0C2
:105DA00003E076EC33F0FDE1F350F31C8D160BD0DD
:105DB00085EC33F003E076EC33F0FDE1F3508D1227
:105DC00002D0C18D01D080DCA9EF34F064EF2BF05C
:105DD00064EF2BF064EF2BF02DEC35F018EC35F080
:105DE000C7EC34F05FE1D950020F13EC35F0720EBE
:105DF000D880EE542E0EED543BE3D950020F75ECD3
:105E000034F01FE003680468056A2D0EE76E020E89
:105E1000DBCF06F0030EDBCF07F0E7500626000EBF
:105E20000722086A0650035C006E07500458016E92
:105E300008500558026E020E00C0DBFF030E01C0C1
:105E4000DBFF010EDB50070813E3410E81EC33F05A
:105E500002E1DF6A0FD0420E81EC33F002E1080E5E
:105E600005D0430E81EC33F003E1100EDF6E02D05B
:105E7000C18D18D0010EDB50DF24E96EEA6A5BECBD
:105E800034F080EC34F0010EDB50DF2411EC34F000
:105E9000EF0407E1010EDB50DF2411EC34F0020EB9
:105EA000EF6E12DC040EE15C02E2E16AE552E16EA3
:105EB00050EF33F064EF2BF064EF2BF064EF2BF036
:105EC00064EF2BF064EF2BF064EF2BF064EF2BF01A
:105ED00064EF2BF064EF2BF0DDDB070EE12402E32F
:105EE000E168E652E16E4DEC35F0030E93EC34F0D0
:105EF000C7EC34F044E1DECF01F5DDCF02F5020E50
:105F0000DBCF09F5030EDBCF0AF5040EDB6A030EC7
:105F1000F36E040E01EC34F030E2ADEC33F0030E1E
:105F2000ADDBE76E050EE7CFDBFF010EE66ED95065
:105F300049EC35F0A3DBE76E060EE7CFDBFF060189
:105F4000C1511DE1050EDB5018E1060EDB5015E1D5
:105F500061EC34F0010EE926050EEA22DECFEEFFF9
:105F6000DDCFEDFF61EC34F0090EE926050EEA22E3
:105F700080EC34F0040EDB2ACAD764EC2BF0070E59
:105F8000E15C02E2E16AE552E16E8AD3A6EC34F00C
:105F90004DEC35F0010E23EC35F00DE1DF5007E05C
:105FA000F00E9314936E0501010E006F02D00501EF
:105FB000006B64EC2BF0E55273D3D9CFE6FFDACF58
:105FC000E6FFE1CFD9FFE2CFDAFFE652DF6AFF0E4C
:105FD000DF5C0AE2E868E85005E0E80600D000D09F
:105FE00000D0F9D7DF2AF3D7E552E552E5CFDAFF43
:105FF000E7CFD9FF1200F29EF29C6592656ADDDF61
:106000000FEF00F0120046DB100EE12402E3E1681E
:10601000E652E16EE66AD950010F4DDBE66AE5EC27
:1060200034F04DEC35F0010E93EC34F0040F43DB0B
:10603000020E93EC34F049EC35F093EC34F00A0F97
:106040003ADB060E93EC34F0060F35DB070E93ECCB
:1060500034F00E0F30DB040E93EC34F00F0F2BDB1B
:10606000050E0CDB010EDBCF00F0016A00BE0168FB
:1060700009EC35F0F70E026E9B0EE1DB050EE15CDC
:1060800002E2E16AE552E16E0550DFCFE6FFE66A23
:10609000EB0E006E9B0EA3EC34F002E2E16AE552D7
:1060A000E16E0350040EDBCFE6FF050EDBCFE6FF0B
:1060B000DF0E006E9B0EA3EC34F002E2E16AE552C3
:1060C000E16E0350020EDBCFE6FF030EDBCFE6FFEF
:1060D000D30E006E9B0EA3EC34F002E2E16AE552AF
:1060E000E16E0350D9500A0F6FDBC60E006E9B0E97
:1060F000CFEC34F002E2E16AE552E16E0350D95090
:10610000060F62DBB90E006E9B0ECFEC34F002E29C
:10611000E16AE552E16E03500E0E8DDBAD0E006EAE
:106120009B0EA3EC34F002E2E16AE552E16E03500B
:106130000F0E81DBA10E006E9B0EA3EC34F002E289
:10614000E16AE552E16E035064EC2BF0100EE15C65
:1061500002E2E16AE552E16EA3D29CDA090EE12483
:1061600002E3E168E652E16E080EDB6A0D0E006E96
:106170000601A6DA005C05E1FA0EDB5027E1C189D1
:1061800025D09EDA2C0813E0FA0EDB500EE198DAE7
:10619000E66EE66A7A0E006E9B0ED5DB02E2E16ADD
:1061A000E552E16E03500601C18B020E25D1A2DA41
:1061B00004E1010E011801E1DE6B0D0E006E80DAC4
:1061C000005C06E1FA0EDB5001E1C189030E14D137
:1061D0002D0E006E75DA005C20E1040E49DB1DE037
:1061E000050E026EFD0EDB50025C17E0FD0EDB04B7
:1061F00001E1C8D0030E0ADB01E1C4D0070E38DB91
:1062000001E1C0D0010EF36E080EF3CFDBFF72DAAE
:1062100004E1010E011801E1DE6B040EF7DA0AE079
:10622000050E26DB07E00A0EE66E95DBEED83CECA9
:1062300035F036D0DE519DDBEFCF00F0000E00C010
:10624000DFFF010EDB6A020EDB6A030EDB6A050E5E
:10625000DDDA1FE1000EDFCFE6FF010EDBCFE6FF48
:10626000A9EC56F0E552E552F3CF00F0F4CF01F07F
:10627000026A036A01AE02D00268036800C0DFFF51
:10628000010E01C0DBFF020E02C0DBFF030E03C0E4
:10629000DBFF06012FDA04E1010E011801E1DE6BDC
:1062A000080EDB5042E0FD0EDB5007E150EC35F00C
:1062B000800E38DA000EEE5412E3020EA7DA06E181
:1062C000EFDB000EEE54800E2DDA09E3060ED0DA75
:1062D00008E1E6DB000E26DA800EEE5402E206014B
:1062E00051D0F2D97BDA080EDB5054E0040EDBCF3C
:1062F00042F0050EDBCF43F0060EDBCF44F0070E75
:10630000DBCF45F04768486849684A6871EC56F049
:10631000040E3EC0DBFF050E3FC0DBFF060E40C093
:10632000DBFF070E41C0DBFF35D0FD0EDB5006E181
:10633000B7DB7F0EEE54000EF5D923E3FD0EDB0430
:1063400004E11DDB000EEED91CE3020E5FDA04E16E
:1063500016DB7F0EE7D915E3030E8ADA04E10FDBC3
:10636000FF0EE0D90EE3060E026EFD0EDB50025C5E
:106370000CE105DBFF0EEE54FF0EEE547F0EEE54E3
:1063800004E20601C18D010E37D0070E3FDA02E0AC
:106390009BD924DAFD0EDB50070A21E0010A17E041
:1063A000050A11E0010A0FE0030A08E0050A06E009
:1063B000010A04E0050A02E0040E1ED0E3D9040E2F
:1063C000DBCFEFFF18D006DBDBCFEDFF14D002DB15
:1063D000DBCFEEFF060EDBCFEEFF070E0AD0D2D9E1
:1063E000DFCFEEFF010EDBCFEEFF020EDBCFEEFFC5
:1063F000030EDBCFEEFF000E006E090EE15C02E241
:10640000E16AE552E16E00504BD127DB2ADAEE6AF1
:10641000EE6AEE6AEE6A010EDB6AFB0EDB50F36E8B
:10642000010EEFD94FE20601DE51A3DAEFCFDFFF15
:10643000300EDF5C42E3DF5039083FE312DAEECF83
:1064400000F0EECF01F0EECF02F0EFCF03F00A0E36
:10645000476E486A496A4A6A00C042F001C043F088
:1064600002C044F003C045F071EC56F03EC000F0AD
:106470003FC001F040C002F041C003F0300EDF5CCD
:10648000046E056A066A076AE85000260550012274
:106490000650022207500322E4D900C0EEFF01C0DB
:1064A000EEFF02C0EEFF03C0EEFF060123D907E1B5
:1064B000010E011804E1DE6B02D0000E04D0010EC3
:1064C000DB2AABD7010EE552E552EAD00601B851FE
:1064D000E66EE66A6E0E006E9B0E35DA02E2E16A47
:1064E000E552E16E035012000401785108E0010EFC
:1064F000006E6550020B01E0010E005C17E1CCD983
:106500000BE16151621111E18C86A00E616F0F0EDB
:10651000626F010E636F12006151621152E18C963D
:10652000A00E616F0F0E626F636B1200780509E0B9
:10653000020E785D06E0040E785D03E0100E785DD3
:1065400017E1AAD90BE16151621111E18C86200E8D
:10655000616F4E0E626F010E636F12006151621126
:1065600030E18C96200E616F4E0E626F636B1200ED
:10657000200E785D26E190D907E16151621121E199
:106580008C86CCD9010E15D0630507E161516211EB
:1065900018E18C96C3D9020E0CD0020E635D0BE19C
:1065A000615162110EE18C86A00E616F860E626FE2
:1065B000030E636F12006151621103E18C96AED934
:1065C000636B120067D8A3D9E8AE02D0003403D0C1
:1065D000E750D880005423E3FC0EDB5010E0CAD80B
:1065E000E9BEEA6896D804E0E846FE0B0106FCE145
:1065F000006EC0D8E9BEEA6833DAEF1210D0BAD81C
:10660000E9BEEA6886D804E0E846FE0B0106FCE134
:10661000E81C006EAFD8E9BEEA6822DAEF1640D077
:1066200039D875D9E8AE02D0003403D0E750D8800D
:10663000005423E3FC0EDB5011E19CD8E9BEEA686C
:1066400068D804E0E846FE0B0106FCE1E81C006E99
:1066500091D8E9BEEA680ADAEF160FD08BD8E9BE06
:10666000EA6857D804E0E846FE0B0106FCE1006E3C
:1066700081D8E9BEEA68FAD9EF1212D0E66EE5EFEA
:1066800034F0016E026A00C0E6FFE66E02C0E6FF6B
:106690009BEF55F060D9E1CFD9FFE2CFDAFF1200CE
:1066A000E552E5CFDAFFE7CFD9FF1200A951E96E35
:1066B000EA6AC3EF34F0E66E000EDA20E66E1200EE
:1066C000DE5157D9EF501200D9CFE9FFDACFEAFFF8
:1066D0001200E652E6524DEF35F0EA22EECF50F0CE
:1066E000EFCF51F012009AD9010E1200D890F33674
:1066F000E8061200DE2BDE51006E016A000E001863
:106700001200006EDF50005C1200010EF36EDB50D1
:106710001200C80EE926050EEA22EF50016E010EA6
:1067200001521200EE54000EEE54000EEE54120010
:10673000DF6EDFCFE6FFDC51016A000F006E020E54
:10674000012267D9ADEC4FF03CEF35F0E76E010E5A
:10675000E7CFDBFF0601C1511200010EE66EABEF81
:1067600034F0EA22EECF52F0EFCF53F012000BD903
:10677000E8061200FD0EDBCFE9FFEA6A1200DD51E8
:10678000B9EF34F0FB0EDBCFE9FFFC0EDBCFEAFF05
:106790001200EA22EE50EFCFEAFFE96E005012003D
:1067A000010EDB28006E010E00521200A951EA6AA8
:1067B000310FE96E0E0EEA22EF500E01EA6AAC25A7
:1067C000E96EAD51EA2212002ED9EECFE6FFEECFF0
:1067D000E6FFEECFE6FFEFCFE6FF1200040EEECFAE
:1067E000DBFF050EEECFDBFF060EEECFDBFF070E65
:1067F000EECFDBFF1200C7D8000EE926010EEA2219
:106800001200DBCFF4FFF350F45C1200006EFD0EBB
:10681000DB50005C1200E652E652E652020EDB6AE2
:106820001200EA6A290FE96E010EEA221200036ED5
:10683000050EE15C1200DBCFE6FFE66A1200036E94
:10684000046A02C0E6FFE66E04C0E6FF9BEC55F06A
:10685000056E1200020EDBCF50F0030EDBCF51F0BD
:106860001200FC0EDBCFE9FFFD0EDBCFEAFF1200CA
:10687000016EFD0EDB50015C1200DECF00F0DDCFBB
:1068800001F0000E005C100E01581200070EC0153A
:10689000506E010E5052120005016107000E625B3E
:1068A00063511200010EDBCFE9FFEA6A1200E846ED
:1068B000FE0B0006120067D8410EE926010EEA22FF
:1068C0001200040EDB28E96EEA6AC3EF34F0EA2214
:1068D000E552E750EF6E010EDB2A1200E66EE66A23
:1068E000A9EC56F0E552E55212009DD8EE50ED109D
:1068F0001200FD0EDB50F80F006E010E0052120068
:10690000020EDBCFEEFF030EDBCFEDFF1200FD0E1C
:10691000DBCF00F0190EE76E00181200100E616F49
:10692000270E626F1200AADEE66AD9501200A9DEB5
:106930003CEF35F0C0DE010E23EF35F0B7DE010E7F
:10694000E9260E0E12009DDE17EF34F0A3DEE652AC
:10695000120092D8A5D6D9CFE6FFDACFE6FF120013
:10696000FCDE8CDEA6EF33F0A1DE790EE9260E0EFA
:106970001200EA6A000FE96E030EEA22120090D8B4
:10698000FF0EEE541200D890E936EA36120081D894
:1069900023EF35F08BDE490EE9260E0E120071DE74
:1069A000036E070EE15C1200110EE926050E95DE5E
:1069B00073EF33F0D6DE5050525C515053581200F2
:1069C000030E39DF020E1BEF34F0ADEC30F054D87B
:1069D000E5521200D7DE040EDBCFEEFF050E1200EB
:1069E000C0DE525050181200110EE926050EEA22A0
:1069F00012006ADEEE50ED10120066DE010EEE1897
:106A0000120062DE020EEE1812005EDE030EEE18B9
:106A1000120000C0E6FF01C0E6FF1200DECFE9FF72
:106A2000DDCFEAFF1200E96E000EDA20EA6E1200F6
:106A300050DE050E78DF010F53EF35F04ADE010E10
:106A400072DF010F12001ADE0601C15112008CDF45
:106A500044DE74DFEA225050120078DFE652120062
:106A600092DF960EE926050EC9EF33F08CDF640E37
:106A7000E926050EC9EF33F0E552E552E552120062
:106A800089DF2BDE9EEF34F0030E4DDF020F9AEF0D
:106A900034F0020F10DE030E1200E66AABEF34F0A2
:106AA00013DED880120007DE010E93EF34F04EDFC4
:086AB000BFDF020F9AEF34F082
:086AB800E9CFE4FFEACFE4FF9F
:106AC000E652D9CFE6FFDACFE6FFE1CFD9FFE2CF3A
:106AD000DAFFE6529EA0CDD19E908E0ECE6ECF688C
